:400000000080002011000000D1090000D109000080B500AF024A034B1B68136000F0E2FCBC760040FA46004010B5054C237833B9044B13B10448AFF300800123237010BD85
:400040006881FF1F0000000080350000084B10B51BB108490848AFF300800848036803B910BD074B002BFBD0BDE81040184700BF000000006C81FF1F80350000C880FF1F58
:400080000000000080B500AF084B01221A6002F075FC03461A46064B1A60002002F080FC02F054FC02F0FAFE00BF80BD9C81FF1F9881FF1F80B400AF034B01221A7000BFD0
:4000C000BD4680BC704700BFA481FF1F80B500AF114B1B78012B03D1012002F09BFB02E0002002F097FB0D4B1B78632B06D80B4B1B781A46084B1978094B9954074B1B785C
:400100000133DAB2054B1A70034B00221A7002F0F1FF00BF80BD00BFA481FF1F0C82FF1FA881FF1F80B500AF62B600F023F80D4802F0E2FE0C4803F00BF80C4803F056F84B
:4001400002F0B6FF0121002000F02CF8002002F0FFFD074B1B78012BFBD1054B00221A70F7E700BF85000000CD000000B50000009481FF1F80B500AF02F06EFA02F0A8F9F3
:40018000642002F039FA02F081FA642002F012FB02F082FB02F0DAFB02F05EFE02F0FAFE00BF80BD80B582B000AF03460A46FB711346BB71094B1B78002B04D100F010F8BD
:4001C000064B01221A70BA79FB791146184600F0D9F800BF0837BD4680BD00BF0D82FF1F80B582B000AF03F057F80346FB71544A534B1B78DBB243F00103DBB21370514AEF
:40020000504B1B78DBB243F00103DBB213704E4B01221A704D4B02221A704D4A4C4B1B78DBB203F07F03DBB21370002002F08EF8484A484B1B78DBB223F00603DBB2137054
:40024000454A454B1B78DBB223F02003DBB21370404A404B1B78DBB243F00103DBB21370012002F073F8282002F070F83B4A3B4B1B78DBB203F07F03DBB21370374A374BAA
:400280001B78DBB223F04003DBB21370314A314B1B78DBB243F00203DBB21370022002F055F82C4A2B4B1B78DBB243F00403DBB213702B4B00221A702A4B00221A70FB79EB
:4002C000184602F0EDFF0721172002F07BF82649172002F04FF80721182002F073F82349182002F047F80721152002F06BF82049152002F03FF80721012002F063F81D4918
:40030000012002F037F80721022002F05BF81A49022002F02FF80721032002F053F81749032002F027F807210C2002F04BF814490C2002F01FF800BF0837BD4680BD00BF1A
:40034000A5430040B54300409D60004009600040106000409443004012600040F8510040846000408560004029120000110B00001D120000351100007D110000C9110000B8
:400380003512000080B582B000AF03460A46FB711346BB712E4AFB7913702E4B00221A702D4B00221A702D4B00221A702C4B00221A702C4B00221A702B4B00221A702B4B9C
:4003C00000221A702A4B4FF400021A60284B4FF080721A60264B4FF400121A60244B02221A60234B04221A60214B08221A60BB79002B02D0012B09D011E01E4A1D4B1B780A
:40040000DBB223F00103DBB2137011E0194A194B1B78DBB243F00103DBB2137008E0154A144B1B78DBB243F00103DBB2137000BF114B03221A70114B80221A70012002F077
:4004400023FF0F4B04221A7000BF0837BD4680BD1D82FF1F2082FF1F3C82FF1F3F82FF1F3482FF1F3E82FF1F4182FF1F1C82FF1F00E100E0096000402860004008600040B1
:400480001260004080B400AF0F4B00221A700F4B00221A700E4B00221A700E4B00221A700D4B00221A700D4B00221A700C4B00221A700C4B03221A700B4B80221A7000BF3F
:4004C000BD4680BC704700BF2082FF1F3C82FF1F3F82FF1F3482FF1F3E82FF1F4182FF1F1C82FF1F286000400860004080B582B000AF786039603A680021786803F037F8C1
:4005000000BF0837BD4680BD80B584B000AFF860B9607A607A68B968F86803F01DF800BF1037BD4680BD00BF80B483B000AF0346FB71FEE780B487B000AF7860396000234C
:400540003B6100237B6127E07B699B007A6813441B68BB60BB68FB73BB6823F0FF03BB6014E03B695B003A6813441B781A46BB68134419463B695B003A6813445B780B70A1
:400580003B6901333B61FB7B013BFB73FB7B002BE7D17B6901337B617B692A2BD4D900BF1C37BD4680BC704780B582B000AF404B00221A803F4B1B221A703F4B04221A8074
:4005C0003E4B18221A703E4B3A221A803D4B18221A703D4B81221A803C4B18221A703C4B40F6B7321A803B4B1C221A703A4B4EF65F221A80394B18221A70394B06221A70E3
:40060000384B52221A70384B384A1278D2B21A70374B40F619121A80364B41F251221A800023FB7019237B6014E0FB785B00DAB2314B1B78DBB203F00103DBB21343DBB268
:4006400003F00303FB704FF4F07002F01DFE7B68013B7B607B68002B02D0FB78032BE4D17B68002B02D10320FFF75EFF234B4FF480721A80214B07221A70214B00221A706B
:40068000204B48221A701D4B00221A701E4B00221A701E4B02221A701D4A1D4B1B78DBB243F03F03DBB2137000BF0837BD4680BD80400040824000408440004086400040DD
:4006C000884000408A4000408C4000408E400040904000409240004094400040964000400043004000420040A14600400F010049224200402042004025420040044000408C
:4007000006400040084000400940004001400040A243004080B582B000AF254B1B78FB71244B1B78BB71244B1B787B71234AFB7903F00703DBB21370214AFB791B09DBB25D
:4007400013701C4ABB7943F00303DBB213701A4A7B7943F00303DBB213701A4BE0221A70194BB4221A70194B01221A70184B40221A70184B40221A70174BA0221A70174BFE
:40078000CF221A70164B20221A70164BC1221A700A2001F0DBFD084A7B791370054ABB791370114B44221A7000BF0837BD4680BDCF010049F8460040F94600406E5800405B
:4007C0006F5800400D5100401D5100402D510040095900400B590040045B0040285B00402B5B0040585B00407658004080B586B000AF72B6584B61221A70FFF7D5FE564B1D
:4008000001221A70554A554B1B78DBB243F00403DBB213700023FB7513E0FA7D13465B0013445B004E4A13443B613B691A683B699B889BB219461046FFF758FEFB7D01338D
:40084000FB75FB7D072BE8D90023FB751CE0FA7D13469B0013445B00424A1344FB60FB681B68BB60FB685B687B60FB681A7A5B7A1B0213437B807B881A467968B868FFF71D
:4008800043FEFB7D0133FB75FB7D012BDFD936494FF09040FFF74EFE04213448FFF726FE042233493348FFF72FFE334B334A1A60334B344A1A60344A334B1B78DBB243F07A
:4008C0000203DBB21370314A304B1B78DBB243F00203DBB213702E4A2D4B1B78DBB243F04003DBB213702B4A2A4B1B78DBB243F01003DBB21370082227492848FFF704FE8D
:40090000082227492748FFF7FFFD0A2226492748FFF7FAFD082226492648FFF7F5FD0A2225492648FFF7F0FD082225492548FFF7EBFD254A244B1B78DBB243F00803DBB23F
:400940001370FFF7E7FE0E2211492048FFF7DCFD00BF1837BD4680BD00480040E846004084350000B4350000AC00004800760040CC0F004808760040D8080140040400447A
:4009800058160140040400840350014013500140A0430040C2430040940F0048025100409C0F0048C2510040A40F0048F0510040B00F004812510040B80F004820510040B2
:4009C000C40F00483251004022430040B043004080B500AF02F094FD03461B680C2B00D1FEE7FEE780B586B000AF224B7B61224B3B61204B7B6135E03B691B68FB603B694E
:400A00005B68BB603B699B683B6000237B600CE0FB681A68BB681A60BB680433BB60FB680433FB607B6804337B607A683B689A42EED13B69DB683B6000237B6008E0BB6820
:400A400000221A60BB680433BB607B6804337B607A683B689A42F2D13B6910333B617B69013B7B617B69002BC6D102F04FFDFFF759FBFEE7010000000038000080B582B01A
:400A800000AF194B194A1A60194A194B1B6843F40073136000237B600FE07B68032B04D8144A7B6852F8233000E0134B13497A6841F822307B6801337B607B682F2BECD92C
:400AC0000F4B1B78DAB20F4B1A700F4B0B4A1A60FFF78CFE01F000FC0C4B00221A6000BF0837BD4680BD00BF0CED00E00004FA0514ED00E000000000D10900000080FF1FDE
:400B0000BC760040C480FF1F08ED00E0C080FF1F80B582B000AF374B1B78BB71BB7903F01003002B62D00123FB7197F90630002B12DABB7903F00F03012B02D00023FB718D
:400B40001CE000F061F82C4B1B78DBB25BB2002B14DA0023FB7111E0BB7903F04003002B02D000F095F809E0BB7903F02003002B02D000F0B3F801E00023FB71FB79002B35
:400B800034D01C4B1B78BB7197F90630002B2DDB1A4B1B78DAB21A4B1B78DBB21343BB71184ABB791370174B1B78DBB2BA799A421CD1114B1B78FB710E4B1B78DBB223F009
:400BC0007F03BB71BB79002B0AD10A4B0A4A1278D2B21A70074B1B78DBB203F00F03FB71054B1B78DBB2FA799A42E2D100BF0837BD4680BD286000403D82FF1FB282FF1F42
:400C00004082FF1F2960004080B582B000AF1D4B1B78FB711B4AFB7913701A4B1B78FB7197F90730002B03DA174AFB79137025E0022000F045FA154B1B78DBB203F060037B
:400C4000202B08D0402B0BD0002B0ED100F0F8FA0346FB710CE002F011FC0346FB7107E001F000FB0346FB7102E00023FB7100BFFB79002B02D1044B03221A7000BF0837A4
:400C8000BD4680BD286000403D82FF1F0060004080B500AF104B1B78DBB2062B19D801A252F823F0D30C0000D30C0000C10C0000D30C0000C70C0000D30C0000CD0C000039
:400CC00000F0F8F806E000F0A7F903E000F0D2F900E000BF00BF80BD2082FF1F80B500AF124B1B78DBB2062B1DD801A252F823F0270D0000270D00000D0D0000270D000068
:400D0000130D0000270D0000190D000000F0D8F80AE000F027F907E0032000F0D1F9044B03221A7000E000BF00BF80BD2082FF1F3D82FF1F80B483B000AF0023FB71294B6C
:400D40001B78DBB29AB2284B1B889BB213449AB2254B1A8015E02549FB79254A52681278D2B2CA54224B5B680133214A5360FB790133FB711E4B1B889BB2013B9AB21C4BED
:400D80001A801B4B1B889BB2002B02D0FB79072BE1D9144B1B78DBB2082B02D0FB79002B0FD0144B1B78DBB283F07F03DB43DAB2104B1A70104B0F221A70104B02221A70C2
:400DC00005E00D4B02221A700C4B02221A700C4AFB791370034AFB79137000BF0C37BD4680BC70471C82FF1F1E82FF1F006000402882FF1FB282FF1F3D82FF1F2082FF1FA9
:400E00004082FF1F80B582B000AF164B1B889BB2002B02D100F02EF81EE0134B02221A70124B00221A7000F06BF9114BDB79DBB29BB21B029AB20E4B9B79DBB29BB2134360
:400E4000FB80084B1B889BB2FA889A4202D2054AFB881380FFF76EFF012318460837BD4680BD00BF2882FF1F2082FF1FB282FF1F0060004080B400AF094B02221A70094B47
:400E800080221A70084B0F221A70084B00221A70074B00221A7001231846BD4680BC70472082FF1FB282FF1F3D82FF1F1C82FF1F4082FF1F80B500AFFFF73CFF00BF80BDE7
:400EC00080B500AF0A4B1B78DBB29AB2094B1B889BB213449AB2074B1A80074B00221A70012000F0EDF8054B03221A7000BF80BD1C82FF1F1E82FF1F2082FF1F3D82FF1F74
:400F000080B582B000AF124B04221A70114B80221A7000F0F5F8104BDB79DBB29BB21B029AB20D4B9B79DBB29BB21343FB800B4B1B889BB2FA889A4202D2084AFB88138040
:400F4000074B0B221A70012318460837BD4680BD2082FF1FB282FF1F006000402882FF1F3D82FF1F80B483B000AF0023BB71234B1B78DBB203F00F03DBB2023BFB71FB796E
:400F80009AB21F4B1B889BB213449AB21C4B1A8018E01C4B5B681C49BA798A5CD2B21A70184B5B680133174A5360BB790133BB71FB79013BFB71134B1B889BB2013B9AB245
:400FC000104B1A800F4B1B889BB2002B02D0FB79002BDED10D4AFB7913700D4B1B78DBB283F07F03DB43DAB2094B1A70094B0B221A7000BF0C37BD4680BC70472960004058
:401000001E82FF1F2882FF1F006000404082FF1FB282FF1F3D82FF1F80B500AF054B00221A70012000F04CF8034B03221A7000BF80BD00BF2082FF1F3D82FF1F80B400AF0E
:40104000084B06221A70084B06221A70074B80221A70074B00221A7001231846BD4680BC704700BF2082FF1F3D82FF1FB282FF1F4082FF1F80B500AF0D4B1B78DBB2002B5D
:401080000AD00C4A0A4B1B78DBB263F07F03DBB21370074B00221A70074B00221A70012000F00EF8054B03221A7000BF80BD00BF3E82FF1F086000402082FF1F3D82FF1FB6
:4010C00080B483B000AF0346FB710B4B9B68002B0CD0094B9B68FA791A70074B9B68074A128892B25A80044B00229A6000BF0C37BD4680BC704700BF2882FF1F1E82FF1F6B
:4011000080B400AF094B00221A80094B9B68002B07D0074B9B6800221A70054B9B6800225A8000BFBD4680BC704700BF1E82FF1F2882FF1F80B400AF0D4B01221A700D4BD9
:401140009B7C0D4B1B7BDBB203F00303012B08D0094BDB7BDBB283F07F03DB43DAB2064BDA73054B01225A7300BFBD4680BC70470B600040FC5F00404482FF1F80B400AF6A
:401180000E4B02221A700E4B93F822300D4B1B7EDBB203F00303012B08D00A4BDB7EDBB283F07F03DB43DAB2064BDA76054B01225A7600BFBD4680BC704700BF0B6000409A
:4011C000FC5F00404482FF1F80B400AF104B04221A70104B93F832300F4B93F82430DBB203F00303012B0AD00B4B93F82730DBB283F07F03DB43DAB2074B83F82720064BAC
:40120000012283F8252000BFBD4680BC704700BF0B600040FC5F00404482FF1F80B400AF00BFBD4680BC704780B500AFFFF72AF900BF80BD80B500AF01F03EF800BF80BD95
:4012400080B586B000AF0023FB759D4B1B78FB7100233B619B4B00221A8097F90730002B80F20481964B5B78DBB20A2B00F21B8201A252F823F000BFC3130000A716000039
:40128000A7160000A7160000A7160000A7160000A5120000A716000037140000A71600004D140000864BDB78DBB2012B0ED100F049FEB860BB685B68824A5360814B1222ED
:4012C0001A80FFF79FFD0346FB75EEE17C4BDB78DBB2022B25D17A4B9B78DBB2184600F009FEB860BB68002B00F0DF81BB685B68744A5360734B5B6803331B78DBB29BB285
:401300001B029AB26F4B5B6802331B78DBB29BB213439AB26B4B1A80FFF774FD0346FB75C3E1674BDB78DBB2032B45D10023FB73654B3B6109E03B691B78BB71BB793A6999
:4013400013443B61FB7B0133FB735D4B9B78DBB2FA7B9A4204D23B691B78DBB2002BEAD1574B9B78DBB2EE2B01D1584B3B61544B9B78DBB2002B0BD0514B9B78DAB2544BBE
:401380001B7C9A4204D1534800F0ACF9514B3B613B691B78DBB2002B00F087813B691B78DBB29AB2474B1A80464A3B695360FFF729FD0346FB7578E102F060F80346FB7542
:4013C00073E1FB7903F00303002B20D0022B00D030E03C4B02221A80394B1B79DBB203F07F023D4913465B0013449B000B4402331B78DAB2394B1A70384B00225A70314BDE
:40140000364A5A60FFF7FEFC0346FB7512E02D4B02221A80324B1B78DAB2304B1A702F4B00225A70274B2D4A5A60FFF7EBFC0346FB7500BF40E1234B01221A80214B294A77
:401440005A60FFF7DFFC0346FB7535E11D4B01221A801B4B1B79DBB21A46234B1344194A5360FFF7CFFC0346FB7525E1144B5B78DBB2013B0A2B00F21A8101A252F823F0EE
:401480008B150000AF16000019160000AF160000AD140000AF160000AF160000AF160000F1140000AF16000047150000044B9B78DAB20E4B1A70FFF7C1FD0346FB75FBE084
:4014C000006000402882FF1F343600003C370000DC350000D082FF1F4482FF1F1082FF1F4182FF1F3F82FF1FB082FF1F3E82FF1F744B9B787B717B79002B06D07B79013BC1
:40150000DBB2184600F0F6FCB8607B79002B02D0BB68002B03D17B79002B40F0CA806A4B1B78DBB27A799A4208D0674A7B791370664B01221A70012000F0DCF9FFF77EFDC1
:401540000346FB75B5E000F055FE0346002B00F0B2805C4B1B793B715A4B1B79DAB25C4B1A703B795B4AD35CDAB23B795A49CB5CDBB29A4204D0554B01221A7000F08CFBD4
:40158000FFF75CFD0346FB7595E0FB7903F00303012B20D0012B0CD3022B00D03BE0494B9B78DBB2002B31D100F078FD0346FB752CE0444B9B78DBB2012B29D1474B1B78FD
:4015C000DBB223F00203DAB2444B1A70FFF736FD0346FB751CE03B4B1B79DBB2012B19D8384B9B78DBB2DB43DBB2364A1279D2B2114610463A4A125CD2B21340DAB2384B1D
:401600005A54FFF71BFD0346FB7503E000BF53E000BF51E000BF4FE0FB7903F00303012B20D0012B0CD3022B00D03BE0254B9B78DBB2002B31D100F0BDFC0346FB752CE02B
:40164000204B9B78DBB2012B29D1244B1B78DBB243F00203DAB2214B1A70FFF7EFFC0346FB751CE0174B1B79DBB2012B19D8154B9B78DBB2DB43DBB2124A1279D2B211464D
:401680001046174A125CD2B21340DAB2144B5A54FFF7D4FC0346FB7503E000BF0CE000BF0AE000BF08E000BF06E000BF04E000BF02E000BF00E000BFFB7D18461837BD46C9
:4016C00080BD00BF006000403F82FF1F3C82FF1F3482FF1F2482FF1FB082FF1F4182FF1FB482FF1FB0B58AB000AF7860324B07F114041D460FCD0FC42B682370002387F8E9
:4017000026307B68002B52D07B6822221A707B68013303221A7007F10C03184600F076FE022387F827303EE097F827307A68134497F8262007F128010A4412F81C2C1209FA
:40174000D2B207F128010A4412F8142C1A7097F8273001337A68134400221A7097F8273002337A68134497F8262007F128010A4412F81C2C02F00F0207F128010A4412F83D
:40178000142C1A7097F8273003337A68134400221A7097F82630013387F8263097F82730043387F8273097F82730212BBCD900BF2837BD46B0BD00BFC835000090B482B0F6
:4017C00000AF0123FB7180E0464AFB791B0113440C221A70FA79444913465B0013449B000B4405331B78DBB2002B1CD0FA793E4913465B0013449B000B4404331B78DBB271
:401800005BB2002B07DA394AFB791B01134402330C221A700EE0354AFB791B011344023308221A7006E0314AFB791B011344023380221A702B48F979FA792B4C13465B00CF
:4018400013449B00234406331B889BB2DAB20B01034406331A702348F979FA79224C13465B0013449B00234406331B889BB21B0A9BB2DAB20B01034407331A701948F97968
:40188000FA79194C13465B0013449B00234406331B889BB2DAB20B01034404331A701148F979FA79104C13465B0013449B00234406331B889BB21B0A9BB2DAB20B01034459
:4018C00005331A70FB790133FB71FB79082B7FF67BAF074BFF221A7000BF0837BD4690BC704700BF706000404482FF1FFC5F00400A60004080B58AB000AF0346FB710023DD
:401900007B84002387F8273050E097F82720B34913465B0013449B000B4400221A7097F82720AE4913465B0013449B000B44023300221A7097F82720A84913465B00134497
:401940009B000B44033300221A7097F82720A34913465B0013449B000B44083300221A8097F827209D4913465B0013449B000B440A3300221A7097F82720984913465B00E8
:4019800013449B000B44013300221A7097F82720924913465B0013449B000B44053300221A7097F82730013387F8273097F82730082BAAD9FB79002B16D0002387F8253074
:4019C0000EE097F82530864A0021D15497F82530844A0021D15497F82530013387F8253097F82530012BECD97F4B1B78DBB2002B00F04A810023FB767B4B1B78DBB2013BC0
:401A0000DBB2184600F076FA78617B695B683B613B6907331B7803F04003002B08D0734B1B78DBB243F00103DAB2704B1A7007E06E4B1B78DBB223F00103DAB26B4B1A700C
:401A40007B6908337B617B691B7887F82730012387F82530B6E07B695B68FB61002387F82630A3E097F82520FB699B7803F07F039A4240F0938097F82520584913465B000A
:401A800013449B000B4408331B889AB2FB699B889A420CD297F82520FB6998884F4913465B0013449B000B44083302461A80FB691B781A464A4B9B5CDAB2FB695B789A42F6
:401AC0006CD197F82520FB699878444913465B0013449B000B44043302461A7097F82520FB69D8783D4913465B0013449B000B4402461A70FB69DB7803F00303FB73FB697F
:401B00009B785BB2002B1CDA97F82520FB7B012B01D1072000E00D20304913465B0013449B000B44053302461A7097F825202B4913465B0013449B000B44013301221A7052
:401B40001BE097F82520FB7B012B01D1052000E00920224913465B0013449B000B44053302461A7097F825201C4913465B0013449B000B44013300221A70FB699B790A2BCF
:401B800003D0FB699B79022B08D1FA7E97F825301946F86901F02AFC0346FB76FB690833FB6197F82630013387F8263097F8262097F827309A42FFF455AF97F82530013358
:401BC00087F8253097F82530082B7FF644AF7B695B68FB61002387F8253020E04482FF1FB082FF1F2482FF1F3F82FF1F4182FF1FFB699B7803F07F02FB691878244913463B
:401C00005B0013449B000B440A3302461A70FB690833FB6197F82530013387F8253097F8252097F827309A42E2D300F09DF90246184B1A6000237B84012387F827301DE003
:401C400097F82720124913465B0013449B000B4406337A8C1A8097F827200D4913465B0013449B000B4408331B889AB27B8C13447B8497F82730013387F8273097F82730E7
:401C8000082BDDD9FFF79AFD00BF2837BD4680BD4482FF1F3882FF1F90B585B000AF8F4B1B78DBB2002B00F015818C4B1B78DBB2013BDBB2184600F01DF978607B680833A6
:401CC0007B607B681B78FB707B685B68BB60844B1B78BB700023FB73F7E0BB681B78BA789A4240F0EC80BB787E4AD35CDAB2BB685B789A4240F0E380BB689B7803F07F034C
:401D00007B70BB68DB7803F003033B707A78764913465B0013449B000B44033300221A707A78BB689878704913465B0013449B000B44043302461A707A78BB68D8786A4922
:401D400013465B0013449B000B4402461A707A78BB689888644913465B0013449B000B44083302461A80BB689B785BB2002B1ADA7A783B78012B01D1072000E00D205A49CC
:401D800013465B0013449B000B44053302461A707A78554913465B0013449B000B44013301221A7019E07A783B78012B01D1052000E009204C4913465B0013449B000B446A
:401DC000053302461A707A78474913465B0013449B000B44013300221A70444A7B781B011344023301221A70404879787A783E4C13465B0013449B00234408331B889BB27F
:401E00001B0A9BB2DAB20B0103441A70374879787A78354C13465B0013449B00234408331B889BB2DAB20B01034401331A70304879787A782C4C13465B0013449B0023442F
:401E400006331B889BB2DAB20B01034406331A70274879787A78244C13465B0013449B00234406331B889BB21B0A9BB2DAB20B01034407331A701E4879787A781A4C134682
:401E80005B0013449B00234406331B889BB2DAB20B01034404331A70154879787A78124C13465B0013449B00234406331B889BB21B0A9BB2DAB20B01034405331A70BB689B
:401EC0000833BB60FB7B0133FB73FA7BFB789A42FFF403AF00BF1437BD4690BD3F82FF1F3482FF1FB082FF1F4482FF1FFC5F00407060004080B485B000AF0346FB710F4BF8
:401F00001B78DBB20E4ADB0013445B68FB60FB681033FB60FB681B78FA799A4202D30023FB6005E0FB79DB00FA6813445B68FB60FB6818461437BD4680BC70471D82FF1F76
:401F40003437000080B400AF054B1B78DBB2054ADB0013445B681846BD4680BC704700BF1D82FF1F3437000080B584B000AF104B1B78DBB2013BDBB21846FFF7BBFFB860A2
:401F8000BB68002B0DD0BB685B681B79FB71FB790233DB00BA681344BB60BB685B68FB6001E00023FB60FB6818461037BD4680BD3F82FF1F80B582B000AF0023FB71344B0D
:401FC0001B79DBB203F07F03BB71BB79002B5AD0BB79082B57D8BA79B9792E480B465B000B449B00034402331B78DBB243F00103D8B2284913465B0013449B000B44023397
:4020000002461A70BA79234913465B0013449B000B44033300221A70BA79B9791D480B465B000B449B00034401331B78DBB243F00203D8B2174913465B0013449B000B4446
:40204000013302461A70BA79124913465B0013449B000B4404331B78DBB25BB2002B07DA0D4ABB791B01134402338D221A7006E0094ABB791B011344023389221A70FEF7BC
:40208000DDFF0346FB71FB7918460837BD4680BD006000404482FF1FFC5F004080B582B000AF0023FB71504B1B79DBB203F07F03BB71BB79002B00F09280BB79082B00F263
:4020C0008E80BA79B97949480B465B000B449B00034402331B78DBB223F00103D8B2434913465B0013449B000B44023302461A70BA793E4913465B0013449B000B4403339C
:4021000000221A703A49BB793948BA79120102441278D2B202F07F02D2B21B010B441A70BA79B97931480B465B000B449B00034401331B78DBB223F00203D8B22B491346B7
:402140005B0013449B000B44013302461A70BA79264913465B0013449B000B4404331B78DBB25BB2002B1BDABA79204913465B0013449B000B4401331B78DBB2012B07D1B9
:402180001B4ABB791B01134402330C221A7022E0174ABB791B01134402330D221A701AE0BA79124913465B0013449B000B4401331B78DBB2012B07D10D4ABB791B0113445B
:4021C000023308221A7006E0094ABB791B011344023309221A70FEF731FF0346FB71FB7918460837BD4680BD006000404482FF1FFC5F004080B584B000AF0023FB73154BD9
:402200001B79BB73144B1B78DBB2013BDBB21846FFF770FEB860BB685B681B79FB71BA7BFB799A4202D9BB7B022B0ED8BB7BBA7B0A498A5CD1B20A4AD154BB7B054A9278FC
:40224000D1B2064AD1540123FB73FB7B18461037BD4680BD006000403F82FF1FB082FF1F2482FF1F80B582B000AF0023FB710F4B1B78DBB25BB2002B12DA0C4B5B78DBB2EC
:40228000012B00D00CE00A4B0A4A5A60094B1B789AB2074B1A80FEF7B5FD0346FB7100BFFB7918460837BD4680BD00BF006000402882FF1F5037000080B400AF054B1B78D4
:4022C000DBB203F040039B09DBB21846BD4680BC704700BF8F45004080B483B000AF134B7F221A70124B80221A707F23FB710CE0FB79DB0003F1804303F5F043FA79013AC2
:40230000D2B21A70FB79013BFB71FB79002BEFD1FB79DB0003F1804303F5F04300221A7000BF0C37BD4680BC704700BFCD80FF1FCC80FF1F80B483B000AF0346FB7101BE21
:4023400000BF0C37BD4680BC704700BF80B582B000AF0346FB80FB88054A127802FB03F3184600F091FF00BF0837BD4680BD00BFDC80FF1F80B584B000AF03463960FB71C2
:402380000F4B1B68FB60FB791F2B02D90020FFF7D1FFFB7903F01F0310339B00FA6813441B68BB60FB7903F01F0310339B00FA6813443A681A60BB6818461037BD4680BD64
:4023C00008ED00E080B582B000AF03460A46FB711346BB71BB79072B02D90020FFF7AAFFFB791F2B02D90020FFF7A4FFFB7903F01F0303F1604303F56443BA795201D2B24D
:402400001A7000BF0837BD4680BD00BF80B483B000AF7860264B1B78DBB21A467B681A60244B1B78DBB21B027A6812681A437B681A60214B1B78DBB21B047A6812681A43B3
:402440007B681A601D4B1B78DBB21B067A6812681A437B681A607B680433194A1278D2B21A60184B1B78DBB21A027B6804337968043109680A431A60134B1B78DBB21A0498
:402480007B6804337968043109680A431A600F4B1B78DBB21A067B6804337968043109680A431A6000BF0C37BD4680BC704700BF0301004904010049EC46004002010049A2
:4024C0000101004900010049050100490601004980B500AF064B1B78002B04D100F00AF8034B01221A7000F063F800BF80BD00BF1282FF1F80B582B000AF284A274B1B78AE
:40250000DBB243F00203DBB21370254B1B78DBB223F07003FB71224AFB7943F01003DBB21370204A1F4B1B78DBB223F03003DBB213701C4A1B4B1B78DBB243F03003DBB2E5
:402540001370184A174B1B78DBB223F00F03DBB21370144A134B1B78DBB243F00F03DBB21370FF2000F048F8002000F055F8002000F062F80C4A0C4B1B78DBB243F0010374
:40258000DBB21370094A094B1B78DBB243F00103DBB2137000BF0837BD4680BD004F0040024F00400B4F0040A3430040014F004080B400AF0D4A0D4B1B78DBB243F0010366
:4025C000DBB213700A4A0A4B1B78DBB243F00103DBB21370074A074B1B78DBB243F00103DBB2137000BFBD4680BC7047A3430040B3430040004F004080B483B000AF0346B2
:40260000FB71044BFA7992B21A8000BF0C37BD4680BC7047044F004080B483B000AF0346FB71044BFA7992B21A8000BF0C37BD4680BC7047064F004080B483B000AF0346AC
:40264000FB71044AFB79137000BF0C37BD4680BC704700BF034F004080B400AF094A094B1B78DBB243F01003DBB21370064A064B1B78DBB243F01003DBB2137000BFBD4687
:4026800080BC7047A2430040B243004080B500AF064B1B78002B04D100F00AF8034B01221A7000F063F800BF80BD00BF1382FF1F80B582B000AF284A274B1B78DBB243F012
:4026C0000203DBB21370254B1B78DBB223F07003FB71224AFB7943F01003DBB21370204A1F4B1B78DBB223F03003DBB213701C4A1B4B1B78DBB243F03003DBB21370184AFF
:40270000174B1B78DBB223F00F03DBB21370144A134B1B78DBB243F00F03DBB21370FF2000F048F8002000F055F8002000F062F80C4A0C4B1B78DBB243F00203DBB2137086
:40274000094A094B1B78DBB243F00103DBB2137000BF0837BD4680BD0C4F00400E4F0040174F0040A34300400D4F004080B400AF0D4A0D4B1B78DBB243F00203DBB2137073
:402780000A4A0A4B1B78DBB243F00203DBB21370074A074B1B78DBB243F00103DBB2137000BFBD4680BC7047A3430040B34300400C4F004080B483B000AF0346FB71044B38
:4027C000FA7992B21A8000BF0C37BD4680BC7047104F004080B483B000AF0346FB71044BFA7992B21A8000BF0C37BD4680BC7047124F004080B483B000AF0346FB71044AD4
:40280000FB79137000BF0C37BD4680BC704700BF0F4F004080B485B000AF0346FB710B4B1B78DBB223F00203FB730849FB795B00DBB203F00203DAB2FB7B1343DBB20B707E
:4028400000BF1437BD4680BC704700BF2051004080B400AF00BFBD4680BC704780B582B000AF0F2000F03EF800F02EF800F014FD0346FB71074A074B1B78DBB243F0100310
:40288000DBB21370FB79184600F00AFD00BF0837BD4680BD9765004080B500AF00F008F94FF4004000F032F9064B1B78002B04D1FFF7CEFF034B01221A70FFF7CFFF00BF2D
:4028C00080BD00BF1482FF1F80B400AF044B1B78DBB203F00F03DBB21846BD4680BC70476765004080B483B000AF0346FB71044AFB79137000BF0C37BD4680BC704700BF1D
:402900008765004080B400AF00BFBD4680BC704780B582B000AF0F2000F06AF800F05AF800F0BAFC0346FB71074A074B1B78DBB243F01003DBB21370FB79184600F0B0FC18
:4029400000BF0837BD4680BD9A65004080B500AF00F076F94FF4004000F0A0F9064B1B78002B04D1FFF7CEFF034B01221A70FFF7CFFF00BF80BD00BF1582FF1F80B582B04E
:4029800000AF00F09BF90346FB80FB88A3F500439BB2BB80B7F9043018460837BD4680BD80B584B000AF0346FB80B7F90630002B04DBFB88A3F50043FB8103E0FB88A3F5D5
:4029C0000043FB81FB89184600F068F900BF1037BD4680BD80B400AF044B1B78DBB203F00F03DBB21846BD4680BC70476A65004080B483B000AF0346FB71044AFB79137048
:402A000000BF0C37BD4680BC704700BF8A65004080B582B000AF1C4B1B78DBB223F00703FB71194AFB791370174B1B78DBB223F00303FB71144AFB79137000F0A3F84FF406
:402A4000004000F07FF84FF4004000F05FF8002000F040F800F04EF84FF4004000F082F800F01AFC0346BB71084A084B1B78DBB243F01003DBB21370BB79184600F010FC56
:402A800000BF0837BD4680BD746500409665004080B400AF054A054B1B78DBB263F07F03DBB2137000BFBD4680BC70477465004080B500AF064B1B78002B04D1FFF7A8FFCA
:402AC000034B01221A70FFF7E3FF00BF80BD00BF1682FF1F80B483B000AF0346FB71044AFB79137000BF0C37BD4680BC704700BF8665004080B400AF034B1B78DBB21846F1
:402B0000BD4680BC704700BF6665004080B483B000AF0346FB80044AFB88138000BF0C37BD4680BC704700BF086A004080B400AF034B1B889BB21846BD4680BC704700BFFA
:402B4000886A004080B483B000AF0346FB80044AFB88138000BF0C37BD4680BC704700BF486A004080B483B000AF0346FB80044AFB88138000BF0C37BD4680BC704700BF47
:402B8000686A004080B500AF01E0FFF7CFFFFFF7B1FF034603F04003002BF6D100BF80BD80B582B000AF1C4B1B78DBB223F00703FB71194AFB791370174B1B78DBB223F052
:402BC0000303FB71144AFB79137000F0B3F84FF4004000F08FF84FF4004000F05FF8002000F040F800F04EF84FF4004000F092F800F052FB0346BB71084A084B1B78DBB2BD
:402C000043F01003DBB21370BB79184600F048FB00BF0837BD4680BD7A6500409964004080B400AF054A054B1B78DBB263F07F03DBB2137000BFBD4680BC70477A65004084
:402C400080B500AF064B1B78002B04D1FFF7A8FF034B01221A70FFF7E3FF00BF80BD00BF1782FF1F80B483B000AF0346FB71044AFB79137000BF0C37BD4680BC704700BFE3
:402C80008964004080B400AF034B1B78DBB21846BD4680BC704700BF6964004080B483B000AF0346FB80044AFB88138000BF0C37BD4680BC704700BF106A004080B400AFE4
:402CC000044B1B78044B1B889BB21846BD4680BC704700BF08650040906A004080B400AF034B1B889BB21846BD4680BC704700BF906A004080B483B000AF0346FB80044A23
:402D0000FB88138000BF0C37BD4680BC704700BF506A004080B483B000AF0346FB80044AFB88138000BF0C37BD4680BC704700BF706A004080B500AF01E0FFF7CFFFFFF73E
:402D4000A1FF034603F04003002BF6D100BF80BD80B483B000AF0346FB71044AFB79137000BF0C37BD4680BC704700BF7D64004080B500AF224A224B1B78DBB203F001038A
:402D8000DBB213701F4A1F4B1B78DBB223F00303DBB213701C4A1C4B1B78DBB223F03003DBB21370184A184B1B78DBB243F03003DBB21370144A144B1B78DBB223F00F0347
:402DC000DBB21370104A104B1B78DBB243F00F03DBB213700D4A0D4B1B78DBB243F00103DBB2137040F2E73000F064F840F2E73000F072F8082000F041F800BF80BD00BF3F
:402E0000184F00401A4F0040234F0040194F004080B400AF0D4A0D4B1B78DBB243F00403DBB213700A4A0A4B1B78DBB243F00403DBB21370074A074B1B78DBB243F00103DF
:402E4000DBB2137000BFBD4680BC7047A3430040B3430040184F004080B500AF064B1B78002B04D1FFF784FF034B01221A70FFF7CFFF00BF80BD00BF1882FF1F80B483B0B0
:402E800000AF0346FB71044AFB79137000BF0C37BD4680BC704700BF1B4F004080B400AF034B1B78DBB21846BD4680BC704700BF1B4F004080B485B000AF0346FB80FB889B
:402EC000FB81044AFB89138000BF1437BD4680BC704700BF1C4F004080B483B000AF0346FB80044AFB88138000BF0C37BD4680BC704700BF1E4F004080B582B000AF7860F7
:402F000000F03CF8786800F009F8072000F018F800F028F800BF0837BD4680BD80B485B000AF7860054B1B68FB60FB688C337A681A6000BF1437BD4680BC704708ED00E0B6
:402F400080B483B000AF0346FB71054AFB795B01DBB2137000BF0C37BD4680BC704700BF13E400E080B400AF034B4FF400221A6000BFBD4680BC704700E100E080B400AF60
:402F8000034B4FF400221A6000BFBD4680BC704780E100E080B400AF094A094B1B78DBB243F02003DBB21370064A064B1B78DBB243F02003DBB2137000BFBD4680BC704702
:402FC000A2430040B243004080B500AF224A224B1B78DBB203F00103DBB213701F4A1F4B1B78DBB223F00303DBB213701C4A1C4B1B78DBB223F03003DBB21370184A184B6F
:403000001B78DBB243F03003DBB21370144A144B1B78DBB223F00F03DBB21370104A104B1B78DBB243F00F03DBB213700D4A0D4B1B78DBB243F00103DBB2137040F2C9307D
:4030400000F064F840F2C93000F072F8082000F041F800BF80BD00BF244F0040264F00402F4F0040254F004080B400AF0D4A0D4B1B78DBB243F00803DBB213700A4A0A4BF0
:403080001B78DBB243F00803DBB21370074A074B1B78DBB243F00103DBB2137000BFBD4680BC7047A3430040B3430040244F004080B500AF064B1B78002B04D1FFF784FF93
:4030C000034B01221A70FFF7CFFF00BF80BD00BF1982FF1F80B483B000AF0346FB71044AFB79137000BF0C37BD4680BC704700BF274F004080B400AF034B1B78DBB2184671
:40310000BD4680BC704700BF274F004080B485B000AF0346FB80FB88FB81044AFB89138000BF1437BD4680BC704700BF284F004080B483B000AF0346FB80044AFB88138030
:4031400000BF0C37BD4680BC704700BF2A4F004080B582B000AF786000F03CF8786800F009F8072000F018F800F028F800BF0837BD4680BD80B485B000AF7860054B1B68C4
:40318000FB60FB6890337A681A6000BF1437BD4680BC704708ED00E080B483B000AF0346FB71054AFB795B01DBB2137000BF0C37BD4680BC704700BF14E400E080B400AFF1
:4031C000034B4FF480121A6000BFBD4680BC704700E100E080B400AF034B4FF480121A6000BFBD4680BC704780E100E080B582B000AF786000F03CF8786800F009F807203C
:4032000000F018F800F028F800BF0837BD4680BD80B485B000AF7860054B1B68FB60FB6850337A681A6000BF1437BD4680BC704708ED00E080B483B000AF0346FB71054AF1
:40324000FB795B01DBB2137000BF0C37BD4680BC704700BF04E400E080B400AF034B10221A6000BFBD4680BC704700BF00E100E080B400AF034B10221A6000BFBD4680BC02
:40328000704700BF80E100E00230800803D000BF01380046FCD17047EFF3108072B6704780F31088704700BF80B582B000AF0023FB71314B1B79DBB2184600F067F80346FE
:4032C000BB712D4B1B78DBB25BB2002B15DA2A4B5B78DBB2212B00D048E0284B07221A80BA791346DB009B1A254A1344234A5360FDF788FD0346FB7138E01F4B5B78DBB282
:40330000202B02D0222B1AD030E01C4B07221A80BA791346DB009B1A194A1344174A5360BB79BA7917498A5CD2B242F00102D1B2144AD154FDF7E4FD0346FB7116E0BB79F5
:403340000D4A9278D2B291B20F4A22F81310BB79BA790C498A5CD2B242F00202D1B2094AD154FDF76BFE0346FB7100BFFB7918460837BD4680BD00BF006000402882FF1FEF
:40338000E480FF1FB882FF1FCC82FF1F80B485B000AF0346FB710023FB73FF23BB7317E0FB7B104AD35C7B737A7B0F4913465B0013449B000B440A331B78DBB2FA799A4247
:4033C00003D1FB7BBB730223FB73FB7B0133FB73FB7B012BE4D9BB7B18461437BD4680BC704700BFC082FF1F4482FF1F80B485B000AF78600B46FB701346BB707B68DB780D
:4034000003F00303FB737B689B785BB2002B1ADAFB7B032B0AD0BB7803F001031449FA78CA54BB7843F00103BB701BE0BB789B08DBB203F001030F49FA78CA54BB7843F036
:403440000403BB700EE0FB7B032B0BD0BB785B08DBB203F001030849FA78CA54BB7843F00203BB70BB7818461437BD4680BC7047BC82FF1FC082FF1FC482FF1F80B582B0C3
:4034800000AF0023BB711B4B1B78DBB203F00303012B02D0022B04D012E0164B1B79FB7111E0144B1B79DBB203F07F02124913465B0013449B000B440A331B78FB7102E0EA
:4034C0000023FB7100BFFB79022B0ED80B4B1A68FB7913441B78022B04D1FFF7E5FE0346BB7102E00023BB7100BFBB7918460837BD4680BD006000404482FF1F3882FF1F14
:40350000014B1868704700BF6081FF1F0E4B70B51E460E4C0025E41AA410A54204D056F8253098470135F8E700F058F9084B094C1E46E41AA4100025A54204D056F8253063
:4035400098470135F8E770BDE8370000E8370000E8370000F037000010B5431E0A44914204D011F8014B03F8014FF8E710BD03460244934202D003F8011BFAE7704700005A
:4035800000000000004F0040300040510040300000000140000E800E0140800100140140000800400140000A004C01400002105001401000000E0140040F0048800000500A
:4035C0000140840F0048100030313233343536373839414243444546000000001201000202000008B40432F2010001028001000009024300020101C0320904000001020227
:403600000103052400100104240202052406000105240100010705810308000A09040100020A000004070582024000000705030240000000040309042C0343007900700075
:4036400072006500730073002000530065006D00690063006F006E0064007500630074006F007200100355005300420055004100520054003803430044004300200043006D
:403680006F006D006D0075006E00690063006100740069006F006E00200049006E007400650072006600610063006500260343004400430020004400610074006100200099
:4036C00049006E00740065007200660061006300650000000203000000008103080002000100820240000A000100030240000A00020A000001000000F03500000300000052
:40370000D83600000000000000000000000000000000000000000000F036000001000000DC350000000000000000000001000000F4360000010000001C37000012034D0062
:403740005300460054003100300030000100000028000000000104000100000000000000000143595553420000003030303031000000000000000000000000000000000024
:403780000000000000000000000000000000000000000000000000000000000000000000000000000000000000000000000000000000000000000000000000000000000009
:4037C00000000000000000000000000000000000000000000000000043000000F8B500BFF8BC08BC9E4670474D0000007D0A0000F8B500BFF8BC08BC9E467047290000008B
:4038000010380000C880FF1FA00000009001000000000000807F0000030000000087930360EA00003C0000000000307500C2010000000800C201000000080000A120000008
:403840000000020000000000000000007837000098370000B837000000000000000000000000000000000000D83700000000000000000000000000000000000000000000CA
:40388000000000000000000000000000000000000000000000000000000000000000000000000000000000000081FF1F000000000000000000000000000000000000000069
:4038C00000000000000000000000000000000000000000000000000000000000000000000000000000000000000000000000000000000000000000000000000000000000C8
:403900000000000000000000000000000000000000000000000000000000000000000000000000000000000000000000000000000000000000000000000000000000000087
:403940000000000000000000000000000000000000000000000000000000000000000000000000000000000000000000000000000000000000000000000000000000000047
:403980000000000000000000000000000000000000000000000000000000000000000000000000000000000000000000000000000000000000000000000000000000000007
:020000040003F7
:0200000480007A
:4000000001450040074F00400B520040015B004005640040036500403B000140330101402D02014051030140370401404C05014041060140450701402908014046090140FF
:40004000330A01404C0B01403D0C0140590D0140040E01403F0F01406D14014057150140441601404B1701406B18014050190140491A0140451B01400E40014019410140CD
:4000800015420140134301400D450140084601400C470140124801400C4901401C4C0140054D014005500140035101407E0201400A4B0D40164B1950224B2E4B00A001808F
:4000C0000830091410081108181819086018611C7C402F8482078838896F8A728E0F866F870F8A0F01080510060209040C0A0D040E051301142018071A081E301F0220043E
:4001000021012201280F2C01302031033210330434033510360C370839083F544001464049FF4A074BFF4C404D204EF04F05500852075306580F59045A045B045C925D231A
:400140005F01604061A862406320AB01AE01B201B301D804D904DC22DF010184042005480A160D020E20100211101302154016C8172019821A541E202002221123102420E0
:40018000260429022C082D082E80328135403616388039183A013E0842014880532069146A80790187208B028E01C0E5C237C4DBCA71CCF9CE4FD008DE01E020E408E602CE
:4001C000020103010608070E08100A200E04110E12021440150E16801808190A1B041C041D0E2002242026102801290C2B022C802D0E2E403101330234FF3504370838804E
:400200003E5056025739580459045B0F5C205D205F01D804D904DC22DF010188042005CD064408040C040D020E2A0F80110812461540160817051F60240A250A2602294409
:400240002A202B402E202F01300431013544361238043C043D083E025D1067106C086D406E0B6F047402760A77017D017E4080548220840187408D088E409020911092C4BC
:400280009310948095499D489E409F20A001A210A40AA502A682AA10AE01B080B102C0F5C2F4C4FFCA3FCCF3CEC2D620D840DE80E004E201E408E650EA88EC0400070703BD
:4002C00008060A010B031007110315011607170218011A061D03270328022A052C072D03300431023201330134025401580459045B0F5C225D205F01830287018A0191021F
:4003000097089D049E04A304A602A710A908AD01B001B202B31FB604B908BF04D608D804D904DB04DC22DD90DF0101120547060809040B880C040E010F8010041202140148
:4003400015101704188019201B041D451F452010220125042720280129042E012F2530043141340135403616370439103A343E2A3F805A405F4066807901810486018920E8
:400380008B408C40910192459340970298849A2A9D459F20A216A320A504A680A901AF40B080B104B210B401B502C0FAC2BEC4E3CAFACCFBCEF6D618D810DE01E403E82482
:4003C000EA40010203040502070409020B140C300D08103011011504170218181B011C28220126022B012E043004310832013306343835103602370138203B083F4156080C
:40040000580459045B045C115D905F0181588320854287098D018F02977899019B829D609F10A101A306A560A708A938B180B303B504B778BB08D608D804D904DB04DC12B0
:40044000DD90DF0101020206060108040B880D010E0510401210130214021504168017081C021D011E142040210422542420250D2604270A280829052F083108325036052D
:400480003710384239083C823D043E1058805D405F20628064026620844091409388988499029A94A202A304A501A680A945AA04AB60AE04B410C08BC2DEC4B4CA27CCEE54
:4004C000CEFBD638D838E224E401E803EE0254185604580459045B045C225D305F0180028104840488018B028E029001940297049A109E089F01A208A401AA10AD01B008B0
:40050000B104B206B301B401B610B702B808BE41BF05D40FD804D904DB04DC83DD10DF2500400104038406080710080409200A810C400E5010201284148015C119101B4AFF
:400540002180220529402C402D402E0830883480371038123D803E50428043024C084D2059A05A0A5F0261046210650166A07A207B04810182208901904091859291964084
:4005800098449A0C9B169D10A020A160A280A380A708AA10C06FC2BFC49ECAD8CC3ACE35D68FD8B6DE06E220E812EE020004011104080506083C09020AC10C040E0810FFF0
:4005C0001139130616C31A0C1B111C7C1D041E822020210E233124102830290F2B302CCF2D3F2E30303F3107330834B035203670371039203A223B023F0456025712580413
:4006000059045B045C335D305F01D804D904DC22DF010004016002400608071008810A200B040C400E50108012021318158119211A01212322062302288129612E0830804F
:400640003112321034403502371038293D813E105A0868206A806B047094731882088901904591C4930495039611984499429A449B109D109E089F04A140A280A380A42090
:40068000A708AA01AB40B040B108B208B380B540B642C06FC2BFC49FCA4DCCBDCEB7D602E020E492E880EC10EE80580459045C225F01801382E483828403860487108AC88B
:4006C0008B2C8CCA8E348F10914193829503970899039A809B049FC3A110A635A710A813A910AA6CAF41B0F0B310B40FB50FB7E0BAA2BB20BF44C063C101C50BC6C0C70E2F
:40070000C819C9FFCAFFCBFFCEF0CF44D00CD608D804D904DA04DB04DC33DD93DF01E6C0EA40EB02004003A80502060807100B080C400E10100411041501160118401960A5
:400740001B0220032118280629202BA02C402E083022324033043502360237103842392C3D813E103F804104438049204A205208532058105A406006618062506308680249
:40078000694083108410882089408C018F0491089280930C954396119A049C649D309E189F94A280A380A421A5C0A62AA72AA808A901AA08AF10B104B308C07FC2A2C49673
:4007C000CACFCCAFCEBFD00AD204D60CD80CE201E408E602EC80D804D904DC22DF010220030A060807100A400B080C400E100F40100412011308140215011A401B802240F9
:40080000231529202A012B822C402E0830203180330434023602371039483A103B013D813E103F40402041014201480149104A805204580859015A205B8060807E107F207B
:40084000848087048E40C067C2BAC497CACDCCAECEBFD00BD20CD60FD801E64001C003340477057709310BC20CF710C011F712341431155416C217A018541AA01B081E0720
:4008800021A12208235228A12A522B0731F0330F340F36F04064410349FF4AFF4BFF4DA04F0150185280580459045A045B045C115D115F0160406280644065406680684050
:4008C0006A806C406D206E80810185048CFD8E0290949260960F9C9E9D089E60A0CFA104A230A30AA473A830AAC9AD04B102B301B4FFB508B704B980BE10BF54C064C103F1
:40090000C53CC604C72EC837C9FFCAFFCBFFCDAFCE07CF01D018D804D904DA04DC10DD01DF01E040E280E440E540E680E840EA80EC40ED20EE80018003200440088009046C
:400940000A880C410D040E011204130114041506180A19801D102040210C22012608274928402B082D012F02300431103201374039063A103C023D043E04410443094508A4
:40098000470148044B104D014F145580560857027101808584038501860588018A188C409102928C93019402950D9602970498049A049C019D019E089F08A004A104A32087
:4009C000A402A580A70AAE10B004C085C2BFC47ACA95CC17CEC7D0C3D224E002E208E407E680EC29010202080B040C051D081E0624012A012D022F09300431013201330278
:400A0000340835043602370839083E053F40540F580459045B045C115D105F05813182018308847F851C8B028CA38E5C900E912D92F09310974099409CFE9E019F40A131E9
:400A4000A304A896A920AA68AB05ACC5AD01AE3AAF3CB13CB2FFB540B703BE04BF10D40FD804D904DB04DC10DD10DF01004001060280054208010A030D8010061201150809
:400A8000171018101D501E522048210122802610275228052A012F02311032893740381039063D013E2058405A165E405F1A61046204660867047D048105820887128F058F
:400AC000928C94029502960198409A209D049E019F10A104A324A601A708A808AB20B104B410B640B720C09DC289C463CA1DCC1FCEA7D6FFD860DE40E202E601EA41EC10DD
:400B0000EE06019E03600573060108FE09300A010BC911CF13301496159416681760187F1CA31E5C240E25FD26F027022B0F2CC52E3A32FF35FF3E043F104026410349FFD9
:400B40004AFF4BFF4DA04F015018580459045A045B045D015F016040628064406540668068406A806C406D206E808204850887048B108F029504970899049B089D10A1020D
:400B8000A202A601A904AB09B004B110B30CB401B501B602B702BB08BF41C062C103C53EC6C4C702C81FC9FFCAFFCBFFCDAFCE07CF01D018D608D804D904DA04DB04DC11EE
:400BC000DD91DF01E040E280E440E540E680E840EA80EC40ED20EE800240040806080E220F181080130416021708184019411A081E10200221052210230427042808290184
:400C00002E282F283180321436093708389039083D0A3E023F184004430846204720488149A44F20504852505B405D205F2060026D106F018101870189108C108F04931095
:400C4000941295029DC49E10A180A209A488A704AA20AB44B310B609C068C2E0C4ACCA65CCCECEEED066D224D608D808E040E610E810EA41ECC0EE0206010C010D02110494
:400C8000140815021B05200C230426012702280C2A022F083001310132043304340835023602370838283E113F145280540F580459045B045C115D105F01801081D18260A0
:400CC00083088410857C862088288A118B028C0B8E0491D19304940C95019602970498079B1D9C0C9E01A5ADA60FA710AC10AEA0B00FB11DB240B3E0B430B503B680B908C0
:400D0000BA20D804D904DC11DF0100400108040105140602080809040D800F14108812201588180619081A401B101C011D141E041F022142221023202408252528022909B1
:400D40002F2031223308361938403D0A3E10580859025A607101810282208328858087168A048E02904091089210940E98029F20A088A219A505A738AB40AC08B104C0F548
:400D8000C2E4C4AECA4BCCE7CEE8D60FE040E620EC20EE801220168030083380364439043B203E8085208904C430CCF0CE70E6400008050230023310352058026604670249
:400DC000800286408C028E04950497209920A220A408A644B380C030CC70D6C0D880E210E68051085708580860086240640866409504972099029A409F10A408A644AC0497
:400E0000B220B701D460D6C0D8C0EC401B011D08831885088B1097209F10A408A508A644A902AB08AD04C630E040E220E480EC20EEC001800B2023205220560283208602C4
:400E40008710C002C208C802D404D60484028B108F01A620B580E004E408EE0208200B400E10932198029A80A404AC04AE80B620C20EE8080304074025022B0887209F0460
:400E8000A301A708A808AE40B604B704C060C880CA10E240EA80EE405E015F20630287018A019B20A301AB40B102D6E0E410EC8008801C0834013A8058025A205F01672011
:400EC00088018C808E10932198029A80A404AA10AF40B420C202C601CC01CE08D401D603D801E003E208EA027401A001B001DE04EC04100211011A021C021D0100AB01FF04
:400F0000100A00000003000C140000400908D022DC15222A00000300000F0000100F40000004001100C000000000200010C0AC000C8071001F0000C00030E00F000880008F
:400F4000000000044603010005C0000E12FFFFFF62A0F0410C00000001000400040404043333000100000000000040020010301000101012000000000000000000000000C2
:400F8000000000000E010000000000000C0106010E000C010300000000E0E000001C1C001C0000004000060000000000C0000000400B0B0000B4B4000800140A0A000801DF
:400FC00001000000007B7B003800000000010000000000000000000000000000000000000000000000000000000000000000000000000000000000000000000000000000C1
:4010000000000000000000000000000000000000000000000000000000000000000000000000000000000000000000000000000000000000000000000000000000000000B0
:401040000000000000000000000000000000000000000000000000000000000000000000000000000000000000000000000000000000000000000000000000000000000070
:401080000000000000000000000000000000000000000000000000000000000000000000000000000000000000000000000000000000000000000000000000000000000030
:4010C00000000000000000000000000000000000000000000000000000000000000000000000000000000000000000000000000000000000000000000000000000000000F0
:0200000490006A
:0400000000004005B7
:0200000490105A
:04000000BC90ACAF55
:0200000490303A
:02000000646B2F
:0200000490402A
:4000000000000000000000000000000000000000000000000000000000000000000000000000000000000000000000000000000000000000000000000000000000000000C0
:400040000000000000000000000000000000000000000000000000000000000000000000000000000000000000000000000000000000000000000000000000000000000080
:400080000000000000000000000000000000000000000000000000000000000000000000000000000000000000000000000000000000000000000000000000000000000040
:4000C0000000000000000000000000000000000000000000000000000000000000000000000000000000000000000000000000000000000000000000000000000000000000
:0200000490501A
:0C00000000012E16106900012E2F74D490
:00000001FF