:400000000080002011000000490600004906000080B500AF024A034B1B68136000F01EFBBC760040FA46004010B5054C237833B9044B13B10448AFF300800123237010BD60
:400040006881FF1F00000000B83C0000084B10B51BB108490848AFF300800848036803B910BD074B002BFBD0BDE81040184700BF000000006C81FF1FB83C0000C880FF1FDA
:400080000000000080B500AF084B01221A6003F071F903461A46064B1A60002003F07CF903F050F903F0F6FB00BF80BD9C81FF1F9881FF1F80B500AF00F04EFC03461846C0
:4000C00000F052FC024640F6C4139A4203DD012003F09CF802E0002003F098F800F024FC00BF80BD80B500AF62B600F029F8114802F07AFF104803F0FBFB00F015FC012143
:40010000002000F047FC0121002000F043FC002003F01AFB00F038FB0346002B02D0012003F074F8054B1B78012BF3D1034B00221A70EFE7B5000000850000009481FF1FDA
:4001400080B500AF02F036FF02F070FE642002F001FF02F097FF642003F028F803F098F803F0F0F803F074FB03F010FC00BF80BD80B582B000AF786039603A68002178689A
:4001800003F091FD00BF0837BD4680BD80B584B000AFF860B9607A607A68B968F86803F077FD00BF1037BD4680BD00BF80B483B000AF0346FB71FEE780B487B000AF7860AC
:4001C000396000233B6100237B6127E07B699B007A6813441B68BB60BB68FB73BB6823F0FF03BB6014E03B695B003A6813441B781A46BB68134419463B695B003A681344B7
:400200005B780B703B6901333B61FB7B013BFB73FB7B002BE7D17B6901337B617B692B2BD4D900BF1C37BD4680BC704780B582B000AF404B04221A803F4B18221A703F4B67
:400240003A221A803E4B18221A703E4B81221A803D4B18221A703D4B00221A803C4B1B221A703C4B40F6B7321A803B4B1C221A703A4B4EF65F221A80394B18221A70394B59
:4002800006221A70384B52221A70384B384A1278D2B21A70374B40F619121A80364B41F251221A800023FB7019237B6014E0FB785B00DAB2314B1B78DBB203F00103DBB21D
:4002C0001343DBB203F00303FB704FF4F07003F077FB7B68013B7B607B68002B02D0FB78032BE4D17B68002B02D10320FFF75EFF234B4FF480721A80214B07221A70214B60
:4003000000221A70204B48221A701D4B00221A701E4B00221A701E4B02221A701D4A1D4B1B78DBB243F03F03DBB2137000BF0837BD4680BD804000408240004084400040BA
:4003400086400040884000408A4000408C4000408E400040904000409240004094400040964000400043004000420040A14600400F0100492242004020420040254200408D
:400380000440004006400040084000400940004001400040A243004080B582B000AF254B1B78FB71244B1B78BB71244B1B787B71234AFB7903F00703DBB21370214AFB790E
:4003C0001B09DBB213701C4ABB7943F00303DBB213701A4A7B7943F00303DBB213701A4BE0221A70194BB4221A70194B01221A70184B40221A70184B40221A70174BA022BD
:400400001A70174BCF221A70164B20221A70164BC1221A700A2002F047FC084A7B791370054ABB791370114B44221A7000BF0837BD4680BDCF010049F8460040F94600408C
:400440006E5800406F5800400D5100401D5100402D510040095900400B590040045B0040285B00402B5B0040585B00407658004080B586B000AF72B6574B61221A70FFF70F
:40048000D5FE554B01221A70544A544B1B78DBB243F00403DBB213700023FB7513E0FA7D13465B0013445B004D4A13443B613B691A683B699B889BB219461046FFF758FE4D
:4004C000FB7D0133FB75FB7D062BE8D90023FB751CE0FA7D13469B0013445B00414A1344FB60FB681B68BB60FB685B687B60FB681A7A5B7A1B0213437B807B881A4679680D
:40050000B868FFF743FEFB7D0133FB75FB7D002BDFD035494FF09040FFF74EFE04213348FFF726FE042232493248FFF72FFE324B324A1A60324A324B1B78DBB243F002036B
:40054000DBB213702F4A2F4B1B78DBB243F00203DBB213702C4A2C4B1B78DBB243F04003DBB21370294A294B1B78DBB243F01003DBB21370082226492648FFF707FE0822F4
:4005800025492648FFF702FE0A2225492548FFF7FDFD082224492548FFF7F8FD0A2224492448FFF7F3FD082223492448FFF7EEFD234A234B1B78DBB243F00803DBB213706C
:4005C000FFF7EAFE0E2210491E48FFF7DFFD00BF1837BD4680BD00BF00480040E8460040BC3C0000E83C0000B000004800760040B80F004808760040D80A01400404008413
:400600000350014013500140A0430040C2430040800F004802510040880F0048C2510040900F0048F05100409C0F004812510040A40F004820510040B00F0048325100400A
:4006400022430040B043004080B500AF03F0F4FA03461B680C2B00D1FEE7FEE780B586B000AF224B7B61224B3B61204B7B6135E03B691B68FB603B695B68BB603B699B68CC
:400680003B6000237B600CE0FB681A68BB681A60BB680433BB60FB680433FB607B6804337B607A683B689A42EED13B69DB683B6000237B6008E0BB6800221A60BB68043333
:4006C000BB607B6804337B607A683B689A42F2D13B6910333B617B69013B7B617B69002BC6D103F0AFFAFFF7FDFCFEE7010000002C3F000080B582B000AF194B194A1A606E
:40070000194A194B1B6843F40073136000237B600FE07B68032B04D8144A7B6852F8233000E0134B13497A6841F822307B6801337B607B682F2BECD90F4B1B78DAB20F4BCC
:400740001A700F4B0B4A1A60FFF792FE02F084F80C4B00221A6000BF0837BD4680BD00BF0CED00E00004FA0514ED00E000000000490600000080FF1FBC760040C480FF1F64
:4007800008ED00E0C080FF1F80B400AF054B1B78DBB203F020035B09DBB21846BD4680BC704700BF0151004080B500AF41F6FF734FF480420121022001F0B6FF03461A46E2
:4007C0000A4B1A7041F6FF7341F6FF720121102001F0DCFF03461A46054B1A70054802F007F8002002F016F800BF80BDA481FF1FA581FF1F8909000080B582B000AF414B13
:400800001B78184602F09CF83F4B1B78184602F097F83E4B1B78FF2B05D102F09DF903461A463A4B1A70394B1878384B1A780623102102F0BFF9354B1B78354A92B245F6AB
:40084000A231184602F0F6F92E4B1A782F4B1B781946104602F012F92E4B1B78FF2B05D102F07AF903461A462A4B1A70294B1878284B1A780723102102F09CF9254B1B7895
:40088000234A91B2244A92B2184602F0D3F91E4B1A78204B1B781946104602F0EFF8194B1B780121184602F005F8174B1B780121184601F0FFFF03F08BF80346FB71174ADD
:4008C000164B1B78DBB243F02003DBB21370FB79184603F081F8124A114B1B78DBB243F00103DBB213700E4A0D4B1B78DBB243F00203DBB213700B4B01221A6000BF0837AB
:40090000BD4680BDA481FF1FA581FF1FCC80FF1FA881FF1FCD80FF1FC881FF1F9A6400407865004080E200E080B500AF084B1B68002B04D1FFF738FF054B01221A6001F00B
:40094000A1FDFFF759FF034B1B7800BF80BD00BFA081FF1F6965004080B500AF01F046FE0346184680BD00BF80B582B000AF0346FB80B7F90630184601F090FE03461846A2
:400980000837BD4680BD00BF80B400AF00BFBD4680BC704780B582B000AF03460A46FB711346BB71094B1B78002B04D100F010F8064B01221A70BA79FB791146184600F098
:4009C000D9F800BF0837BD4680BD00BFB881FF1F80B582B000AF02F0FBFF0346FB71544A534B1B78DBB243F00103DBB21370514A504B1B78DBB243F00103DBB213704E4B42
:400A000001221A704D4B02221A704D4A4C4B1B78DBB203F07F03DBB21370002002F044F9484A484B1B78DBB223F00603DBB21370454A454B1B78DBB223F02003DBB21370AB
:400A4000404A404B1B78DBB243F00103DBB21370012002F029F9282002F026F93B4A3B4B1B78DBB203F07F03DBB21370374A374B1B78DBB223F04003DBB21370314A314B3C
:400A80001B78DBB243F00203DBB21370022002F00BF92C4A2B4B1B78DBB243F00403DBB213702B4B00221A702A4B00221A70FB79184602F091FF0721172002F031F92649DF
:400AC000172002F005F90721182002F029F92349182002F0FDF80721152002F021F92049152002F0F5F80721012002F019F91D49012002F0EDF80721022002F011F91A4996
:400B0000022002F0E5F80721032002F009F91749032002F0DDF807210C2002F001F914490C2002F0D5F800BF0837BD4680BD00BFA5430040B54300409D6000400960004070
:400B4000106000409443004012600040F85100408460004085600040F5130000DD0C0000E91300000113000049130000951300000114000080B582B000AF03460A46FB71F5
:400B80001346BB712E4AFB7913702E4B00221A702D4B00221A702D4B00221A702C4B00221A702C4B00221A702B4B00221A702B4B00221A702A4B4FF400021A60284B4FF064
:400BC00080721A60264B4FF400121A60244B02221A60234B04221A60214B08221A60BB79002B02D0012B09D011E01E4A1D4B1B78DBB223F00103DBB2137011E0194A194B28
:400C00001B78DBB243F00103DBB2137008E0154A144B1B78DBB243F00103DBB2137000BF114B03221A70114B80221A70012002F0C7FE0F4B04221A7000BF0837BD4680BDCE
:400C4000D981FF1FDC81FF1FF881FF1FFB81FF1FF081FF1FFA81FF1FFD81FF1FD881FF1F00E100E00960004028600040086000401260004080B400AF0F4B00221A700F4B46
:400C800000221A700E4B00221A700E4B00221A700D4B00221A700D4B00221A700C4B00221A700C4B03221A700B4B80221A7000BFBD4680BC704700BFDC81FF1FF881FF1F65
:400CC000FB81FF1FF081FF1FFA81FF1FFD81FF1FD881FF1F286000400860004080B582B000AF374B1B78BB71BB7903F01003002B62D00123FB7197F90630002B12DABB7920
:400D000003F00F03012B02D00023FB711CE000F061F82C4B1B78DBB25BB2002B14DA0023FB7111E0BB7903F04003002B02D000F095F809E0BB7903F02003002B02D000F09B
:400D4000B3F801E00023FB71FB79002B34D01C4B1B78BB7197F90630002B2DDB1A4B1B78DAB21A4B1B78DBB21343BB71184ABB791370174B1B78DBB2BA799A421CD1114B18
:400D80001B78FB710E4B1B78DBB223F07F03BB71BB79002B0AD10A4B0A4A1278D2B21A70074B1B78DBB203F00F03FB71054B1B78DBB2FA799A42E2D100BF0837BD4680BDEC
:400DC00028600040F981FF1F6E82FF1FFC81FF1F2960004080B582B000AF1D4B1B78FB711B4AFB7913701A4B1B78FB7197F90730002B03DA174AFB79137025E0022000F0A6
:400E000045FA154B1B78DBB203F06003202B08D0402B0BD0002B0ED100F0F8FA0346FB710CE002F0C7FE0346FB7107E001F000FB0346FB7102E00023FB7100BFFB79002BE4
:400E400002D1044B03221A7000BF0837BD4680BD28600040F981FF1F0060004080B500AF104B1B78DBB2062B19D801A252F823F09F0E00009F0E00008D0E00009F0E000040
:400E8000930E00009F0E0000990E000000F0F8F806E000F0A7F903E000F0D2F900E000BF00BF80BDDC81FF1F80B500AF124B1B78DBB2062B1DD801A252F823F0F30E0000AB
:400EC000F30E0000D90E0000F30E0000DF0E0000F30E0000E50E000000F0D8F80AE000F027F907E0032000F0D1F9044B03221A7000E000BF00BF80BDDC81FF1FF981FF1FFE
:400F000080B483B000AF0023FB71294B1B78DBB29AB2284B1B889BB213449AB2254B1A8015E02549FB79254A52681278D2B2CA54224B5B680133214A5360FB790133FB715A
:400F40001E4B1B889BB2013B9AB21C4B1A801B4B1B889BB2002B02D0FB79072BE1D9144B1B78DBB2082B02D0FB79002B0FD0144B1B78DBB283F07F03DB43DAB2104B1A70D7
:400F8000104B0F221A70104B02221A7005E00D4B02221A700C4B02221A700C4AFB791370034AFB79137000BF0C37BD4680BC7047D881FF1FDA81FF1F00600040E481FF1F86
:400FC0006E82FF1FF981FF1FDC81FF1FFC81FF1F80B582B000AF164B1B889BB2002B02D100F02EF81EE0134B02221A70124B00221A7000F06BF9114BDB79DBB29BB21B02AC
:401000009AB20E4B9B79DBB29BB21343FB80084B1B889BB2FA889A4202D2054AFB881380FFF76EFF012318460837BD4680BD00BFE481FF1FDC81FF1F6E82FF1F00600040A3
:4010400080B400AF094B02221A70094B80221A70084B0F221A70084B00221A70074B00221A7001231846BD4680BC7047DC81FF1F6E82FF1FF981FF1FD881FF1FFC81FF1F55
:4010800080B500AFFFF73CFF00BF80BD80B500AF0A4B1B78DBB29AB2094B1B889BB213449AB2074B1A80074B00221A70012000F0EDF8054B03221A7000BF80BDD881FF1F41
:4010C000DA81FF1FDC81FF1FF981FF1F80B582B000AF124B04221A70114B80221A7000F0F5F8104BDB79DBB29BB21B029AB20D4B9B79DBB29BB21343FB800B4B1B889BB28D
:40110000FA889A4202D2084AFB881380074B0B221A70012318460837BD4680BDDC81FF1F6E82FF1F00600040E481FF1FF981FF1F80B483B000AF0023BB71234B1B78DBB2D4
:4011400003F00F03DBB2023BFB71FB799AB21F4B1B889BB213449AB21C4B1A8018E01C4B5B681C49BA798A5CD2B21A70184B5B680133174A5360BB790133BB71FB79013B16
:40118000FB71134B1B889BB2013B9AB2104B1A800F4B1B889BB2002B02D0FB79002BDED10D4AFB7913700D4B1B78DBB283F07F03DB43DAB2094B1A70094B0B221A7000BF56
:4011C0000C37BD4680BC704729600040DA81FF1FE481FF1F00600040FC81FF1F6E82FF1FF981FF1F80B500AF054B00221A70012000F04CF8034B03221A7000BF80BD00BF23
:40120000DC81FF1FF981FF1F80B400AF084B06221A70084B06221A70074B80221A70074B00221A7001231846BD4680BC704700BFDC81FF1FF981FF1F6E82FF1FFC81FF1F3F
:4012400080B500AF0D4B1B78DBB2002B0AD00C4A0A4B1B78DBB263F07F03DBB21370074B00221A70074B00221A70012000F00EF8054B03221A7000BF80BD00BFFA81FF1FF7
:4012800008600040DC81FF1FF981FF1F80B483B000AF0346FB710B4B9B68002B0CD0094B9B68FA791A70074B9B68074A128892B25A80044B00229A6000BF0C37BD4680BCEA
:4012C000704700BFE481FF1FDA81FF1F80B400AF094B00221A80094B9B68002B07D0074B9B6800221A70054B9B6800225A8000BFBD4680BC704700BFDA81FF1FE481FF1F70
:4013000080B400AF0D4B01221A700D4B9B7C0D4B1B7BDBB203F00303012B08D0094BDB7BDBB283F07F03DB43DAB2064BDA73054B01225A7300BFBD4680BC70470B600040CA
:40134000FC5F00400082FF1F80B400AF0E4B02221A700E4B93F822300D4B1B7EDBB203F00303012B08D00A4BDB7EDBB283F07F03DB43DAB2064BDA76054B01225A7600BF1A
:40138000BD4680BC704700BF0B600040FC5F00400082FF1F80B400AF104B04221A70104B93F832300F4B93F82430DBB203F00303012B0AD00B4B93F82730DBB283F07F03DD
:4013C000DB43DAB2074B83F82720064B012283F8252000BFBD4680BC704700BF0B600040FC5F00400082FF1F80B400AF00BFBD4680BC704780B500AFFFF73CFC00BF80BDFB
:4014000080B500AF01F018FA00BF80BD80B586B000AF0023FB759D4B1B78FB7100233B619B4B00221A8097F90730002B80F20481964B5B78DBB20A2B00F21B8201A252F8F9
:4014400023F000BF8F15000073180000731800007318000073180000731800007114000073180000031600007318000019160000864BDB78DBB2012B0ED100F049FEB86051
:40148000BB685B68824A5360814B12221A80FFF79FFD0346FB75EEE17C4BDB78DBB2022B25D17A4B9B78DBB2184600F009FEB860BB68002B00F0DF81BB685B68744A536082
:4014C000734B5B6803331B78DBB29BB21B029AB26F4B5B6802331B78DBB29BB213439AB26B4B1A80FFF774FD0346FB75C3E1674BDB78DBB2032B45D10023FB73654B3B61D7
:4015000009E03B691B78BB71BB793A6913443B61FB7B0133FB735D4B9B78DBB2FA7B9A4204D23B691B78DBB2002BEAD1574B9B78DBB2EE2B01D1584B3B61544B9B78DBB2B9
:40154000002B0BD0514B9B78DAB2544B1B7C9A4204D1534800F0ACF9514B3B613B691B78DBB2002B00F087813B691B78DBB29AB2474B1A80464A3B695360FFF729FD03466C
:40158000FB7578E102F016FB0346FB7573E1FB7903F00303002B20D0022B00D030E03C4B02221A80394B1B79DBB203F07F023D4913465B0013449B000B4402331B78DAB290
:4015C000394B1A70384B00225A70314B364A5A60FFF7FEFC0346FB7512E02D4B02221A80324B1B78DAB2304B1A702F4B00225A70274B2D4A5A60FFF7EBFC0346FB7500BFE8
:4016000040E1234B01221A80214B294A5A60FFF7DFFC0346FB7535E11D4B01221A801B4B1B79DBB21A46234B1344194A5360FFF7CFFC0346FB7525E1144B5B78DBB2013BC3
:401640000A2B00F21A8101A252F823F0571700007B180000E51700007B180000791600007B1800007B1800007B180000BD1600007B18000013170000044B9B78DAB20E4BF9
:401680001A70FFF7C1FD0346FB75FBE000600040E481FF1F603D0000683E0000083D00009882FF1F0082FF1FBC81FF1FFD81FF1FFB81FF1F6C82FF1FFA81FF1F744B9B78CD
:4016C0007B717B79002B06D07B79013BDBB2184600F0F6FCB8607B79002B02D0BB68002B03D17B79002B40F0CA806A4B1B78DBB27A799A4208D0674A7B791370664B0122D0
:401700001A70012000F0DCF9FFF77EFD0346FB75B5E000F055FE0346002B00F0B2805C4B1B793B715A4B1B79DAB25C4B1A703B795B4AD35CDAB23B795A49CB5CDBB29A42C9
:4017400004D0554B01221A7000F08CFBFFF75CFD0346FB7595E0FB7903F00303012B20D0012B0CD3022B00D03BE0494B9B78DBB2002B31D100F078FD0346FB752CE0444B8E
:401780009B78DBB2012B29D1474B1B78DBB223F00203DAB2444B1A70FFF736FD0346FB751CE03B4B1B79DBB2012B19D8384B9B78DBB2DB43DBB2364A1279D2B21146104648
:4017C0003A4A125CD2B21340DAB2384B5A54FFF71BFD0346FB7503E000BF53E000BF51E000BF4FE0FB7903F00303012B20D0012B0CD3022B00D03BE0254B9B78DBB2002B02
:4018000031D100F0BDFC0346FB752CE0204B9B78DBB2012B29D1244B1B78DBB243F00203DAB2214B1A70FFF7EFFC0346FB751CE0174B1B79DBB2012B19D8154B9B78DBB288
:40184000DB43DBB2124A1279D2B211461046174A125CD2B21340DAB2144B5A54FFF7D4FC0346FB7503E000BF0CE000BF0AE000BF08E000BF06E000BF04E000BF02E000BF61
:4018800000E000BFFB7D18461837BD4680BD00BF00600040FB81FF1FF881FF1FF081FF1FE081FF1F6C82FF1FFD81FF1F7082FF1FB0B58AB000AF7860324B07F114041D46B8
:4018C0000FCD0FC42B682370002387F826307B68002B52D07B6822221A707B68013303221A7007F10C03184601F03EFA022387F827303EE097F827307A68134497F82620D9
:4019000007F128010A4412F81C2C1209D2B207F128010A4412F8142C1A7097F8273001337A68134400221A7097F8273002337A68134497F8262007F128010A4412F81C2C1B
:4019400002F00F0207F128010A4412F8142C1A7097F8273003337A68134400221A7097F82630013387F8263097F82730043387F8273097F82730212BBCD900BF2837BD4657
:40198000B0BD00BFF43C000090B482B000AF0123FB7180E0464AFB791B0113440C221A70FA79444913465B0013449B000B4405331B78DBB2002B1CD0FA793E4913465B0075
:4019C00013449B000B4404331B78DBB25BB2002B07DA394AFB791B01134402330C221A700EE0354AFB791B011344023308221A7006E0314AFB791B011344023380221A70F9
:401A00002B48F979FA792B4C13465B0013449B00234406331B889BB2DAB20B01034406331A702348F979FA79224C13465B0013449B00234406331B889BB21B0A9BB2DAB20D
:401A40000B01034407331A701948F979FA79194C13465B0013449B00234406331B889BB2DAB20B01034404331A701148F979FA79104C13465B0013449B00234406331B884B
:401A80009BB21B0A9BB2DAB20B01034405331A70FB790133FB71FB79082B7FF67BAF074BFF221A7000BF0837BD4690BC704700BF706000400082FF1FFC5F00400A600040B7
:401AC00080B58AB000AF0346FB7100237B84002387F8273050E097F82720B34913465B0013449B000B4400221A7097F82720AE4913465B0013449B000B44023300221A70B2
:401B000097F82720A84913465B0013449B000B44033300221A7097F82720A34913465B0013449B000B44083300221A8097F827209D4913465B0013449B000B440A33002249
:401B40001A7097F82720984913465B0013449B000B44013300221A7097F82720924913465B0013449B000B44053300221A7097F82730013387F8273097F82730082BAAD939
:401B8000FB79002B16D0002387F825300EE097F82530864A0021D15497F82530844A0021D15497F82530013387F8253097F82530012BECD97F4B1B78DBB2002B00F04A8138
:401BC0000023FB767B4B1B78DBB2013BDBB2184600F076FA78617B695B683B613B6907331B7803F04003002B08D0734B1B78DBB243F00103DAB2704B1A7007E06E4B1B7805
:401C0000DBB223F00103DAB26B4B1A707B6908337B617B691B7887F82730012387F82530B6E07B695B68FB61002387F82630A3E097F82520FB699B7803F07F039A4240F014
:401C4000938097F82520584913465B0013449B000B4408331B889AB2FB699B889A420CD297F82520FB6998884F4913465B0013449B000B44083302461A80FB691B781A4623
:401C80004A4B9B5CDAB2FB695B789A426CD197F82520FB699878444913465B0013449B000B44043302461A7097F82520FB69D8783D4913465B0013449B000B4402461A7014
:401CC000FB69DB7803F00303FB73FB699B785BB2002B1CDA97F82520FB7B012B01D1072000E00D20304913465B0013449B000B44053302461A7097F825202B4913465B0031
:401D000013449B000B44013301221A701BE097F82520FB7B012B01D1052000E00920224913465B0013449B000B44053302461A7097F825201C4913465B0013449B000B4478
:401D4000013300221A70FB699B790A2B03D0FB699B79022B08D1FA7E97F825301946F86901F0E0FE0346FB76FB690833FB6197F82630013387F8263097F8262097F827303C
:401D80009A42FFF455AF97F82530013387F8253097F82530082B7FF644AF7B695B68FB61002387F8253020E00082FF1F6C82FF1FE081FF1FFB81FF1FFD81FF1FFB699B7813
:401DC00003F07F02FB691878244913465B0013449B000B440A3302461A70FB690833FB6197F82530013387F8253097F8252097F827309A42E2D300F09DF90246184B1A602D
:401E000000237B84012387F827301DE097F82720124913465B0013449B000B4406337A8C1A8097F827200D4913465B0013449B000B4408331B889AB27B8C13447B8497F853
:401E40002730013387F8273097F82730082BDDD9FFF79AFD00BF2837BD4680BD0082FF1FF481FF1F90B585B000AF8F4B1B78DBB2002B00F015818C4B1B78DBB2013BDBB280
:401E8000184600F01DF978607B6808337B607B681B78FB707B685B68BB60844B1B78BB700023FB73F7E0BB681B78BA789A4240F0EC80BB787E4AD35CDAB2BB685B789A426E
:401EC00040F0E380BB689B7803F07F037B70BB68DB7803F003033B707A78764913465B0013449B000B44033300221A707A78BB689878704913465B0013449B000B4404330D
:401F000002461A707A78BB68D8786A4913465B0013449B000B4402461A707A78BB689888644913465B0013449B000B44083302461A80BB689B785BB2002B1ADA7A783B78F5
:401F4000012B01D1072000E00D205A4913465B0013449B000B44053302461A707A78554913465B0013449B000B44013301221A7019E07A783B78012B01D1052000E009205D
:401F80004C4913465B0013449B000B44053302461A707A78474913465B0013449B000B44013300221A70444A7B781B011344023301221A70404879787A783E4C13465B00B7
:401FC00013449B00234408331B889BB21B0A9BB2DAB20B0103441A70374879787A78354C13465B0013449B00234408331B889BB2DAB20B01034401331A70304879787A786F
:402000002C4C13465B0013449B00234406331B889BB2DAB20B01034406331A70274879787A78244C13465B0013449B00234406331B889BB21B0A9BB2DAB20B0103440733CD
:402040001A701E4879787A781A4C13465B0013449B00234406331B889BB2DAB20B01034404331A70154879787A78124C13465B0013449B00234406331B889BB21B0A9BB20B
:40208000DAB20B01034405331A70BB680833BB60FB7B0133FB73FA7BFB789A42FFF403AF00BF1437BD4690BDFB81FF1FF081FF1F6C82FF1F0082FF1FFC5F004070600040AB
:4020C00080B485B000AF0346FB710F4B1B78DBB20E4ADB0013445B68FB60FB681033FB60FB681B78FA799A4202D30023FB6005E0FB79DB00FA6813445B68FB60FB6818468C
:402100001437BD4680BC7047D981FF1F603E000080B400AF054B1B78DBB2054ADB0013445B681846BD4680BC704700BFD981FF1F603E000080B584B000AF104B1B78DBB2F5
:40214000013BDBB21846FFF7BBFFB860BB68002B0DD0BB685B681B79FB71FB790233DB00BA681344BB60BB685B68FB6001E00023FB60FB6818461037BD4680BDFB81FF1FC5
:4021800080B582B000AF0023FB71344B1B79DBB203F07F03BB71BB79002B5AD0BB79082B57D8BA79B9792E480B465B000B449B00034402331B78DBB243F00103D8B22849DB
:4021C00013465B0013449B000B44023302461A70BA79234913465B0013449B000B44033300221A70BA79B9791D480B465B000B449B00034401331B78DBB243F00203D8B2B0
:40220000174913465B0013449B000B44013302461A70BA79124913465B0013449B000B4404331B78DBB25BB2002B07DA0D4ABB791B01134402338D221A7006E0094ABB7977
:402240001B011344023389221A70FEF7DDFF0346FB71FB7918460837BD4680BD006000400082FF1FFC5F004080B582B000AF0023FB71504B1B79DBB203F07F03BB71BB7999
:40228000002B00F09280BB79082B00F28E80BA79B97949480B465B000B449B00034402331B78DBB223F00103D8B2434913465B0013449B000B44023302461A70BA793E497F
:4022C00013465B0013449B000B44033300221A703A49BB793948BA79120102441278D2B202F07F02D2B21B010B441A70BA79B97931480B465B000B449B00034401331B78C7
:40230000DBB223F00203D8B22B4913465B0013449B000B44013302461A70BA79264913465B0013449B000B4404331B78DBB25BB2002B1BDABA79204913465B0013449B00A2
:402340000B4401331B78DBB2012B07D11B4ABB791B01134402330C221A7022E0174ABB791B01134402330D221A701AE0BA79124913465B0013449B000B4401331B78DBB2F4
:40238000012B07D10D4ABB791B011344023308221A7006E0094ABB791B011344023309221A70FEF731FF0346FB71FB7918460837BD4680BD006000400082FF1FFC5F004062
:4023C00080B584B000AF0023FB73154B1B79BB73144B1B78DBB2013BDBB21846FFF770FEB860BB685B681B79FB71BA7BFB799A4202D9BB7B022B0ED8BB7BBA7B0A498A5CBD
:40240000D1B20A4AD154BB7B054A9278D1B2064AD1540123FB73FB7B18461037BD4680BD00600040FB81FF1F6C82FF1FE081FF1F80B582B000AF0023FB710F4B1B78DBB248
:402440005BB2002B12DA0C4B5B78DBB2012B00D00CE00A4B0A4A5A60094B1B789AB2074B1A80FEF7B5FD0346FB7100BFFB7918460837BD4680BD00BF00600040E481FF1FC9
:402480007C3E000080B500AF064B1B78002B04D100F00AF8034B01221A7000F01BF800BF80BD00BFBE81FF1F80B500AF074A074B1B78DBB243F00603DBB213700C2000F083
:4024C0006BF8034B00221A8000BF80BD095900407C82FF1F80B582B000AF01F079FA0346FB71254A244B1B78DBB243F00203DBB21370224A214B1B78DBB243F00203DBB283
:4025000013701F4B1B78BB71BB7943F00203BB71BB7943F00103BB71194ABB791370194B18221A70184A184B1B78DBB243F04003DBB21370144A144B1B78DBB223F003031D
:40254000DBB21370114BC8221A70114B02221A70104A104B1B78DBB243F00803DBB213700A2000F0A1FBFB79184601F035FA00BF0837BD4680BD00BFAB430040BB4300403D
:402580000B5900400E5900400D59004008590040164600402F5B004080B584B000AF0346FB71FB790A2B07D00C2B02D0082B06D008E0C223FB730BE08223FB7308E042233E
:4025C000FB7305E0C223FB73002000F061FB00BF054AFB7B1370FB79184600F01FF800BF1037BD4680BD00BF0A59004080B483B000AF084B1B88FB80074B1B881BB29BB2AB
:40260000FA88D31A9BB21BB218460C37BD4680BC704700BFA25B00407682FF1F80B584B000AF0346FB71FB790A2B08D00C2B02D0082B08D00BE04FF48053FB600DE04FF47A
:402640008063FB6009E04FF48073FB6005E00023FB60002000F01CFB00BF0C4B00221A80FB6842F2107202FB03F303F6C413084A82FB0312D212DB17D31A064A1360064BAF
:4026800000221A8000BF1037BD4680BD7482FF1FAD8BDB687882FF1F7682FF1F80B485B000AF0346FB801D4B1B881BB2002B09D01A4B1B881BB21A4613469B0013445B00C8
:4026C000FB6002E0164B1B68FB60164B1B881BB2FA889BB2D31A9BB2FB80B7F9063042F2107202FB03F2B7F90630002B04DDFB68D90F0B445B1004E0FB68D90F0B445B109B
:402700005B421A44FB6892FBF3F37B81B7F90A3018461437BD4680BC704700BF7482FF1F7882FF1F7C82FF1F90B585B002AF0446084611461A462346FB710346BB710B4627
:40274000BB8013467B80104B01221A700E4B1878BA79F9790023019300230093012300F0ABF9094B1B787A88B988184600F04AF9054B1B780221184600F012F9024B1B7815
:4027800018460C37BD4690BDCE80FF1F90B585B002AF0446084611461A462346FB710346BB710B46BB8013467B80104B00221A700E4B1878BA79F979002301930023009316
:4027C000002300F079F9094B1B787A88B988184600F018F9054B1B780221184600F0E0F8024B1B7818460C37BD4690BDCF80FF1F80B485B000AF7860054B1B68FB60FB68E0
:4028000040337A681A6000BF1437BD4680BC704708ED00E080B483B000AF0346FB71054AFB795B01DBB2137000BF0C37BD4680BC704700BF00E400E080B400AF054B1B78B9
:40284000DBB203F040039B09DBB21846BD4680BC704700BF8F45004080B483B000AF134B7F221A70124B80221A707F23FB710CE0FB79DB0003F1804303F5F043FA79013A3C
:40288000D2B21A70FB79013BFB71FB79002BEFD1FB79DB0003F1804303F5F04300221A7000BF0C37BD4680BC704700BFD180FF1FD080FF1F80B485B000AF03460A46FB7101
:4028C0001346BB710123FB60FB79172B2FD8BB79002B0ED0FB791A01184B1344FA791101164A0A441278D2B242F02002D2B21A700DE0FB791A01114B1344FA7911010F4AE1
:402900000A441278D2B222F02002D2B21A70FB791A010A4B1344FA791101084A0A441278D2B242F00102D2B21A700023FB60FB6818461437BD4680BC704700BF1070004049
:4029400080B485B000AF0346FB710123FB60FB79172B1DD8FB791A01104B1344FA7911010E4A0A441279D2B242F00402D2B21A71FB791A01094B1344FA791101074A0A4440
:402980001278D2B242F00102D2B21A700023FB60FB6818461437BD4680BC70471070004080B485B000AF03460A46FB711346BB710123FB60FB79172B1BD8FB791A01104BD2
:4029C00013441B78DBB223F00E03FB72FB791A010B4B1344BA795200D2B252B202F00E0251B297F90B200A4352B2D2B21A700023FB60FB6818461437BD4680BC704700BF28
:402A00001070004080B485B000AF0346FB710B46BB8013467B800123FB60BB8841F6FF72934202D14FF40053BB807B8841F6FF72934202D14FF400537B80FB79172B17D8BD
:402A4000FB79DB0003F1804303F5EC430433BB60BB68BA881A80FB79DB0003F1804303F5EC430633BB60BB687A881A800023FB60FB6818461437BD4680BC704780B485B0AF
:402A800000AF03460A46FB711346BB710123FB60FB79172B07D8FB791A01064B1344BA795A720023FB60FB6818461437BD4680BC704700BF1070004090B484B000AF044623
:402AC000084611461A462346FB710346BB710B467B7113463B710123FB60FB79172B34D8FB79DB0003F1804303F5EC43BA7902F07F02D1B27A79D201D2B20A43D2B21A7009
:402B0000FB79DB0003F1804303F5EC433A7E1201D1B23A7902F00F02D2B20A43D2B25A70FB79DB0003F1804303F5EC433A7F02F00F02D2B29A70FB79DB0003F1804303F5D0
:402B4000EC430022DA700023FB60FB6818461037BD4690BC704700BF80B582B000AFFF23FB7100F035FF0346BB71104B1B78182B12D90F4B1B78FB710C4B1B78013BDAB20B
:402B80000A4B1A70FB79DB0003F1804303F5F0431B78DAB2064B1A70BB79184600F01CFFFB7918460837BD4680BD00BFD080FF1FD180FF1F90B484B000AF0446084611466B
:402BC0001A462346FB710346BB800B46BB711346FB700123FB6097F90730002B23DBBB8823F47F6323F00F039BB2002B1BD1FB79DB0003F1804303F5F043BB60BB68BA88F6
:402C00001A80FB79DB0003F1804303F5F043BA799A70FB79DB0003F1804303F5F043FA78DA700023FB60FB6818461037BD4690BC704700BF80B485B000AF0346FB710B4636
:402C4000BB8013467B800123FB6097F90730002B17DBFB79DB0003F1804303F5F0430433BB60BB68BA881A80FB79DB0003F1804303F5F0430633BB60BB687A881A80002379
:402C8000FB60FB6818461437BD4680BC704700BF80B483B000AF0346FB7101BE00BF0C37BD4680BC704700BF80B582B000AF0346FB80FB88054A127802FB03F3184600F040
:402CC0007FFE00BF0837BD4680BD00BFE080FF1F80B584B000AF03463960FB710F4B1B68FB60FB791F2B02D90020FFF7D1FFFB7903F01F0310339B00FA6813441B68BB6001
:402D0000FB7903F01F0310339B00FA6813443A681A60BB6818461037BD4680BD08ED00E080B582B000AF03460A46FB711346BB71BB79072B02D90020FFF7AAFFFB791F2B1C
:402D400002D90020FFF7A4FFFB7903F01F0303F1604303F56443BA795201D2B21A7000BF0837BD4680BD00BF80B483B000AF7860264B1B78DBB21A467B681A60244B1B7831
:402D8000DBB21B027A6812681A437B681A60214B1B78DBB21B047A6812681A437B681A601D4B1B78DBB21B067A6812681A437B681A607B680433194A1278D2B21A60184B6B
:402DC0001B78DBB21A027B6804337968043109680A431A60134B1B78DBB21A047B6804337968043109680A431A600F4B1B78DBB21A067B6804337968043109680A431A6029
:402E000000BF0C37BD4680BC704700BF0301004904010049EC460040020100490101004900010049050100490601004980B500AF064B1B78002B04D100F00AF8034B012223
:402E40001A7000F063F800BF80BD00BFBF81FF1F80B582B000AF284A274B1B78DBB243F00203DBB21370254B1B78DBB223F07003FB71224AFB7943F01003DBB21370204AE0
:402E80001F4B1B78DBB223F03003DBB213701C4A1B4B1B78DBB243F03003DBB21370184A174B1B78DBB223F00F03DBB21370144A134B1B78DBB243F00F03DBB21370FF2067
:402EC00000F048F8002000F055F8002000F062F80C4A0C4B1B78DBB243F00103DBB21370094A094B1B78DBB243F00103DBB2137000BF0837BD4680BD004F0040024F00405B
:402F00000B4F0040A3430040014F004080B400AF0D4A0D4B1B78DBB243F00103DBB213700A4A0A4B1B78DBB243F00103DBB21370074A074B1B78DBB243F00103DBB213702E
:402F400000BFBD4680BC7047A3430040B3430040004F004080B483B000AF0346FB71044BFA7992B21A8000BF0C37BD4680BC7047044F004080B483B000AF0346FB71044BA1
:402F8000FA7992B21A8000BF0C37BD4680BC7047064F004080B483B000AF0346FB71044AFB79137000BF0C37BD4680BC704700BF034F004080B400AF094A094B1B78DBB230
:402FC00043F01003DBB21370064A064B1B78DBB243F01003DBB2137000BFBD4680BC7047A2430040B243004080B582B000AF786000F03CF8786800F009F8072000F018F84B
:4030000000F028F800BF0837BD4680BD80B485B000AF7860054B1B68FB60FB6858337A681A6000BF1437BD4680BC704708ED00E080B483B000AF0346FB71054AFB795B011B
:40304000DBB2137000BF0C37BD4680BC704700BF06E400E080B400AF034B40221A6000BFBD4680BC704700BF00E100E080B400AF034B40221A6000BFBD4680BC704700BFFC
:4030800080E100E080B500AF064B1B78002B04D100F00AF8034B01221A7000F063F800BF80BD00BFC081FF1F80B582B000AF284A274B1B78DBB243F00203DBB21370254BE3
:4030C0001B78DBB223F07003FB71224AFB7943F01003DBB21370204A1F4B1B78DBB223F03003DBB213701C4A1B4B1B78DBB243F03003DBB21370184A174B1B78DBB223F0E5
:403100000F03DBB21370144A134B1B78DBB243F00F03DBB21370FF2000F048F8002000F055F8002000F062F80C4A0C4B1B78DBB243F00203DBB21370094A094B1B78DBB24A
:4031400043F00103DBB2137000BF0837BD4680BD0C4F00400E4F0040174F0040A34300400D4F004080B400AF0D4A0D4B1B78DBB243F00203DBB213700A4A0A4B1B78DBB267
:4031800043F00203DBB21370074A074B1B78DBB243F00103DBB2137000BFBD4680BC7047A3430040B34300400C4F004080B483B000AF0346FB71044BFA7992B21A8000BFE7
:4031C0000C37BD4680BC7047104F004080B483B000AF0346FB71044BFA7992B21A8000BF0C37BD4680BC7047124F004080B483B000AF0346FB71044AFB79137000BF0C37E1
:40320000BD4680BC704700BF0F4F004080B485B000AF0346FB710B4B1B78DBB223F00203FB730849FB795B00DBB203F00203DAB2FB7B1343DBB20B7000BF1437BD4680BC24
:40324000704700BF2051004080B400AF00BFBD4680BC704780B582B000AF0F2000F03EF800F02EF800F0B4FB0346FB71074A074B1B78DBB243F01003DBB21370FB791846CF
:4032800000F0AAFB00BF0837BD4680BD9C64004080B500AF00F008F94FF4004000F032F9064B1B78002B04D1FFF7CEFF034B01221A70FFF7CFFF00BF80BD00BFC181FF1F07
:4032C00080B400AF044B1B78DBB203F00F03DBB21846BD4680BC70476C64004080B483B000AF0346FB71044AFB79137000BF0C37BD4680BC704700BF8C64004080B400AFAC
:4033000000BFBD4680BC704780B582B000AF0F2000F06AF800F05AF800F05AFB0346FB71074A074B1B78DBB243F01003DBB21370FB79184600F050FB00BF0837BD4680BDA1
:403340009664004080B500AF00F076F94FF4004000F0A0F9064B1B78002B04D1FFF7CEFF034B01221A70FFF7CFFF00BF80BD00BFC281FF1F80B582B000AF00F09BF903465F
:40338000FB80FB88A3F500439BB2BB80B7F9043018460837BD4680BD80B584B000AF0346FB80B7F90630002B04DBFB88A3F50043FB8103E0FB88A3F50043FB81FB891846A6
:4033C00000F068F900BF1037BD4680BD80B400AF044B1B78DBB203F00F03DBB21846BD4680BC70476664004080B483B000AF0346FB71044AFB79137000BF0C37BD4680BCA3
:40340000704700BF8664004080B582B000AF1C4B1B78DBB223F00703FB71194AFB791370174B1B78DBB223F00303FB71144AFB79137000F0A3F84FF4004000F07FF84FF458
:40344000004000F05FF8002000F040F800F04EF84FF4004000F082F800F0BAFA0346BB71084A084B1B78DBB243F01003DBB21370BB79184600F0B0FA00BF0837BD4680BDBC
:40348000756500409364004080B400AF054A054B1B78DBB263F07F03DBB2137000BFBD4680BC70477565004080B500AF064B1B78002B04D1FFF7A8FF034B01221A70FFF70F
:4034C000E3FF00BF80BD00BFC381FF1F80B483B000AF0346FB71044AFB79137000BF0C37BD4680BC704700BF8364004080B400AF034B1B78DBB21846BD4680BC704700BF7B
:403500006364004080B483B000AF0346FB80044AFB88138000BF0C37BD4680BC704700BF0868004080B400AF034B1B889BB21846BD4680BC704700BF8868004080B483B014
:4035400000AF0346FB80044AFB88138000BF0C37BD4680BC704700BF4868004080B483B000AF0346FB80044AFB88138000BF0C37BD4680BC704700BF6868004080B500AFE4
:4035800001E0FFF7CFFFFFF7B1FF034603F04003002BF6D100BF80BD80B582B000AF1C4B1B78DBB223F00703FB71194AFB791370174B1B78DBB223F00303FB71144AFB79FA
:4035C000137000F0B3F84FF4004000F08FF84FF4004000F05FF8002000F040F800F04EF84FF4004000F092F800F0F2F90346BB71084A084B1B78DBB243F01003DBB2137003
:40360000BB79184600F0E8F900BF0837BD4680BD756400409B64004080B400AF054A054B1B78DBB263F07F03DBB2137000BFBD4680BC70477564004080B500AF064B1B7874
:40364000002B04D1FFF7A8FF034B01221A70FFF7E3FF00BF80BD00BFC481FF1F80B483B000AF0346FB71044AFB79137000BF0C37BD4680BC704700BF8B64004080B400AFE3
:40368000034B1B78DBB21846BD4680BC704700BF6B64004080B483B000AF0346FB80044AFB88138000BF0C37BD4680BC704700BF0E68004080B400AF044B1B78044B1B8818
:4036C0009BB21846BD4680BC704700BF076400408E68004080B400AF034B1B889BB21846BD4680BC704700BF8E68004080B483B000AF0346FB80044AFB88138000BF0C37DF
:40370000BD4680BC704700BF4E68004080B483B000AF0346FB80044AFB88138000BF0C37BD4680BC704700BF6E68004080B500AF01E0FFF7CFFFFFF7A1FF034603F0400335
:40374000002BF6D100BF80BD80B483B000AF0346FB71044AFB79137000BF0C37BD4680BC704700BF7765004080B500AF224A224B1B78DBB203F00103DBB213701F4A1F4BC1
:403780001B78DBB223F00303DBB213701C4A1C4B1B78DBB223F03003DBB21370184A184B1B78DBB243F03003DBB21370144A144B1B78DBB223F00F03DBB21370104A104B5B
:4037C0001B78DBB243F00F03DBB213700D4A0D4B1B78DBB243F00103DBB2137040F2E73000F064F840F2E73000F072F8082000F041F800BF80BD00BF184F00401A4F0040AA
:40380000234F0040194F004080B400AF0D4A0D4B1B78DBB243F00403DBB213700A4A0A4B1B78DBB243F00403DBB21370074A074B1B78DBB243F00103DBB2137000BFBD4653
:4038400080BC7047A3430040B3430040184F004080B500AF064B1B78002B04D1FFF784FF034B01221A70FFF7CFFF00BF80BD00BFC581FF1F80B483B000AF0346FB71044A1A
:40388000FB79137000BF0C37BD4680BC704700BF1B4F004080B400AF034B1B78DBB21846BD4680BC704700BF1B4F004080B485B000AF0346FB80FB88FB81044AFB89138062
:4038C00000BF1437BD4680BC704700BF1C4F004080B483B000AF0346FB80044AFB88138000BF0C37BD4680BC704700BF1E4F004080B582B000AF786000F03CF8786800F0DA
:4039000009F8072000F018F800F028F800BF0837BD4680BD80B485B000AF7860054B1B68FB60FB688C337A681A6000BF1437BD4680BC704708ED00E080B483B000AF034641
:40394000FB71054AFB795B01DBB2137000BF0C37BD4680BC704700BF13E400E080B400AF034B4FF400221A6000BFBD4680BC704700E100E080B400AF034B4FF400221A6088
:4039800000BFBD4680BC704780E100E080B400AF094A094B1B78DBB243F02003DBB21370064A064B1B78DBB243F02003DBB2137000BFBD4680BC7047A2430040B2430040CB
:4039C0000230800803D000BF01380046FCD17047EFF3108072B6704780F31088704700BF80B582B000AF0023FB71314B1B79DBB2184600F067F80346BB712D4B1B78DBB2AA
:403A00005BB2002B15DA2A4B5B78DBB2212B00D048E0284B07221A80BA791346DB009B1A254A1344234A5360FDF7D2FA0346FB7138E01F4B5B78DBB2202B02D0222B1AD063
:403A400030E01C4B07221A80BA791346DB009B1A194A1344174A5360BB79BA7917498A5CD2B242F00102D1B2144AD154FDF72EFB0346FB7116E0BB790D4A9278D2B291B292
:403A80000F4A22F81310BB79BA790C498A5CD2B242F00202D1B2094AD154FDF7B5FB0346FB7100BFFB7918460837BD4680BD00BF00600040E481FF1FE880FF1F8082FF1F28
:403AC0009482FF1F80B485B000AF0346FB710023FB73FF23BB7317E0FB7B104AD35C7B737A7B0F4913465B0013449B000B440A331B78DBB2FA799A4203D1FB7BBB73022375
:403B0000FB73FB7B0133FB73FB7B012BE4D9BB7B18461437BD4680BC704700BF8882FF1F0082FF1F80B485B000AF78600B46FB701346BB707B68DB7803F00303FB737B6894
:403B40009B785BB2002B1ADAFB7B032B0AD0BB7803F001031449FA78CA54BB7843F00103BB701BE0BB789B08DBB203F001030F49FA78CA54BB7843F00403BB700EE0FB7BA3
:403B8000032B0BD0BB785B08DBB203F001030849FA78CA54BB7843F00203BB70BB7818461437BD4680BC70478482FF1F8882FF1F8C82FF1F80B582B000AF0023BB711B4B56
:403BC0001B78DBB203F00303012B02D0022B04D012E0164B1B79FB7111E0144B1B79DBB203F07F02124913465B0013449B000B440A331B78FB7102E00023FB7100BFFB7945
:403C0000022B0ED80B4B1A68FB7913441B78022B04D1FFF7E5FE0346BB7102E00023BB7100BFBB7918460837BD4680BD006000400082FF1FF481FF1F014B1868704700BFD5
:403C40006481FF1F0E4B70B51E460E4C0025E41AA410A54204D056F8253098470135F8E700F052F9084B094C1E46E41AA4100025A54204D056F8253098470135F8E770BD3F
:403C8000143F0000143F0000143F00001C3F000010B5431E0A44914204D011F8014B03F8014FF8E710BD03460244934202D003F8011BFAE77047000000000000004F0040D5
:403CC000300040510040300000000140001000140140000800400140000A004C01400002105001401000000000500140700F00481000000030313233343536373839414222
:403D000043444546000000001201000202000008B40432F2010001028001000009024300020101C032090400000102020103052400100104240202052406000105240100D7
:403D4000010705810308000A09040100020A000004070582024000000705030240000000040309042C0343007900700072006500730073002000530065006D006900630024
:403D80006F006E0064007500630074006F007200100355005300420055004100520054003803430044004300200043006F006D006D0075006E0069006300610074006900BE
:403DC0006F006E00200049006E007400650072006600610063006500260343004400430020004400610074006100200049006E0074006500720066006100630065000000F7
:403E00000203000000008103080002000100820240000A000100030240000A00020A0000010000001C3D000003000000043E00000000000000000000000000000000000025
:403E4000000000001C3E000001000000083D0000000000000000000001000000203E000001000000483E000012034D005300460054003100300030000100000028000000B3
:403E80000001040001000000000000000001435955534200000030303030310000000000000000000000000000000000000000000000000000000000000000000000000084
:403EC00000000000000000000000000000000000000000000000000000000000000000000000000000000000000000000000000000000000000000000000000000000000C2
:403F00000000000043000000F8B500BFF8BC08BC9E4670474D000000F5060000F8B500BFF8BC08BC9E46704729000000403F0000C880FF1FA00000005801000000000000F1
:403F400000000000FFFFFFFF807F0000030000000087930360EA00003C0000000000307500C2010000000800C201000000080000A1200000000002000000000000000000A2
:403F8000A43E0000C43E0000E43E000000000000000000000000000000000000043F00000000000000000000000000000000000000000000000000000000000000000000B8
:403FC000000000000000000000000000000000000000000000000000000000000481FF1F00000000000000000000000000000000000000000000000000000000000000001E
:404000000000000000000000000000000000000000000000000000000000000000000000000000000000000000000000000000000000000000000000000000000000000080
:404040000000000000000000000000000000000000000000000000000000000000000000000000000000000000000000000000000000000000000000000000000000000040
:404080000000000000000000000000000000000000000000000000000000000000000000000000000000000000000000000000000000000000000000000000000000000000
:4040C00000000000000000000000000000000000000000000000000000000000000000000000000000000000000000000000000000000000000000000000000000000000C0
:020000040003F7
:0200000480007A
:4000000001450040084F00400B520040015B004007640040016500405400014032010140450201404D0301405D040140430501404F0601404F0701403E080140510901407D
:40004000250A0140430B0140350C01404A0D01402D0E0140360F014058140140511501405C1601405817014037180140551901402E1A0140471B01400C400140194101401B
:400080000F4201400E4301400744014011450140064601400C4701401948014010490140174C0140014D014006500140035101407E0201400A360D4016361950223625308D
:4000C0002E3600A00120089409141001110118101910601861047C402F84836F860F877288388A078B6F8C0F8B0F0040010C023E0301054007800820090C0A400B020D0B59
:400100000E800F04101011801202134F14201641171019401B801C0E1D081F01201621072208242025202640281829402A022B802C182E042F20301E31C03201330F3480BE
:400140003510366037203A803B023F40580459045F018005810E822A83F0857F880789C58B3A8C238DA38E0C8F5C902C9196920393689B019DFE9F01A210A42AA605AA4022
:40018000AC2FB00FB210B3FFB460BF04D804D904DF010001030A054006080780088009080B400E40104011401314150816801760188119441A401B181CC01D181E8021055D
:4001C000220223D6272028802A202B12302031443202344035103642374038483B113C013D403E483F108A40C0DBC21DC4FFCA0FCCBFCEFFE6D00094026005100CCF0D048B
:400200000E300F0910FD110812021304149E166019041B0A1D041E0F1F08203022C9251028732D10310232FF33103501370C39083B803E043F045608580459045B045D90EC
:400240005F01800182028407870A8C0790049102960899059D019E079F04A010A410A801AA02AB05AE04B108B302B410B504B60FB701B820BF54D40FD804D904DB04DF0554
:4002800000890481060109080A010B400E810F1010801104120113101502160819201A011B801D0820022205230824102620274129202D042F0232113380362037413904EE
:4002C0003C083E083F8059405A085B125C4062146680788088108C209081910293509408988099109A089B029E80A040A240A420A702A8C0AA28AB01B310B640C09DC2BD2E
:40030000C45FCA54CCBDCE52D61FD816DE08E201E604E820EA04EC08EE011404220626013202340136043E404023410149FF4AFF4BFF4DA04F015018580459045A045C1034
:400340005F016040628064406540668068406A806C406D206E8080D18204830284D1860888018A048D1C907C9114932897429A029B019D02A13CA21DA50CA730A928AB14E4
:40038000ACADAD30AE10AF0CB0E0B13CB21DB302B403B501B740B802BF04C023C101C543C6C0C72EC83BC9FFCAFFCBFFCDAFCE07CF01D018D280D804D904DA04DB04DF0175
:4003C000E040E280E440E540E680E840EA80EC40ED20EE80050406880A200E4410A01741180819401A201D041E481F04250826802748280829082A012D022E882F04318084
:4004000032093510368437013B803C023E40401042034334460247144C804D04561457027401860190109201940895049620981099109B019D409E14A020A742A840AB1260
:40044000AC80AF02B001B708C070C254C49CCAF7CCFBCE98D07EE606E80100FE01940201036004C5063A070F0CA30DCF0E5C0F30107F159E17601A011C0E1DFD1EF01F02E5
:4004800020962130226823C92D7334FF35FF3E103F10540F580459045B045F018102871189068D398F069111993F9D04A50EA731A90FAB30B107B308B510B720B980BB02FD
:4004C000BF04C034C102C9FFCAFFCBFFCDA0CF01D018D602D712D804D904DA04DB04DC21DD20DF01E040E280E440E540E680E840EA80EC40ED20EE800128020B04C0050682
:4005000007400A020B800C010E480F0212A0144017011E042214234127042B182C402E403090310233103504374039093B503C443D023E803F024004410843025A085D0243
:400540005FA46954708071207310812083418508872089218B809242930896049780981099149B499C089D0A9E81A109A224A608A760A901AA08B180B220B508B640C0B7F8
:40058000C2D9C41CCA96CC5DCEDFD007D6F2E001E206E65BEE0109040C011C011F0120022104260227022D0430023301340135043702382039203E013F1040234105453C5C
:4005C0004640472E483B49FF4AFF4BFF4DAF4E074F01501854185604580459045A045B045D205F016040628064406540668068406A806C406D206E808B019F02A601B1028F
:40060000B201B301D608D804D904DB04DC11DD90DF01004001280201058008420A200F02110413401610170119081E482010210522022340271929282A012B802D812F22BD
:400640003254368039183B403E20460447084D014F865618572258805D0262806602670A80128140831084408540860488408D049040911492A294109542964097149820D0
:4006800099209A249C409D889E0A9F04A508A602A701AB08B101B504B624C087C28DC435CAD7CC1ECE2ED060D210D688D8B8E672EA20EC505602573A580459045B0C5C1158
:4006C0005D105F01800883028402860188018A028E0C90019202930197049E10A001A202A810B004B203B302B410B501B608B704BA08BE50D40FD804D904DB04DF05001015
:4007000001080202058507080A200B400E800F02104417111D051E0A1F082640271828042908304032103709381039023B403F025B045E4A5F10610866086704680A691438
:400740006A826B4071D079407D088202852090409220934094109506982499209B019C409D589F40A40AA580AB20B110B640C0F7C29CC45ACA06CCCCCE8DD6F2D862DE4872
:40078000E880EC40070109010D011D012101270129013301540F580459045B045C115F0181408204838084288508882289108B208C208F0190219180934095209610971033
:4007C00099019A019D049E02A024A304A420A708AA08AB02AD02AE20B21FB3FFB420B808BB20BE04BF04D804D904DC21DF0101280201034004500508081009880B400C40AC
:400800000D010F0810401140121414041A201B24200821082710284429682C042D082E02301A311033403440385039063A173B403C103F485C025D105E405F08833088043A
:400840008C408D408E10908093409410962098269B099C409D589E029F20A704AA20AB10AC08B080B340B404B740C0EFC2DFC44FCAEFCC1FCE7FD6F0E004E221E610E820BD
:40088000ECC006030A030C010E02100316031B011C0328032F023101320233023401580459045C115F018401850A8A018B018C018D0C900193209401971099069A019C0198
:4008C000A10CB110B201B301B50EB720B920D608D804D904DB04DC01DD90DF010050010804500508060208400A200B400C440D040F481004180819041D0821042340248037
:400900002628271929482A022B042F403040311034013628381039083B403D043E203F805C885F20642166206D106F02880289148B028D0CC0E7C2FDC402CA8FCCECCE7E16
:40094000D670D870E020E6D00010047C0682083C0AC10EC310CF1230140818FF1C042020260C28302C042E08307032B0343F3A28405341024206440445C047E0482249FFFC
:400980004AFF4BFF4C624DA04EF04F41500C580459045A045C125D025F016640670269106A306B106D106E106F12830884A1861688A18A0E8F1590409283941C950396A36B
:4009C000970499339B0C9E1CA533A680A704A92AAB04AE08B080B20FB30FB41AB660B730B880B980BA28BB08BE01BF40D280D804D904DB04DC22DF0100040181030805108E
:400A0000072008080A040B410E110F80108213141601170418041B1A1D111E111F242721282029202B012E082F2432A1372438403B803D803E013F80410642044310484089
:400A40004A084B4053017640820A83208460858489408A898B028C408D018F0491099202935596119782980899209A019B109E4A9F21A082A102A2A0A341A718B604C06F6D
:400A8000C2BFC4AFCA6ECC6DCE98D007D20CE003E210E401E60CEA40EC08010103F20420061807070A010C200DC00F24104012061438160417081C121D841E201F1021B76D
:400AC000220123402401281829C12A222B122C282D77303E31F032403401350F39083E143F044004474049FF4A074BFF4C404D204EF04F055008580459045A045C025D02EB
:400B00005F01604061A862406320831484F38501860489018C308D018EC3911493289480962297029A0C9C409E11A30CA8F3AA08AB28AC51AEA2B0F0B10EB301B40FB53077
:400B4000BA20BF01D608D804D904DB04DC22DD90DF010104030205100601072008080A080B010E5110021110164A170819011A081B021D081E401F202106230424C4260413
:400B8000280829012C012D022F04300232043440370439543B013C443D024701560157405A205B406008630168027A027B0180048108834187018E109155920293589484C0
:400BC00095089780984199329B1CA080A101A2A0A502A602A738A808AA80AB02AC01AF04B610C0E5C2B7C4F3CAB5CC53CEDFD080D60CD80CE005E280E4A4E649EA04EC01F8
:400C0000EE0C0101020104080D080E0211081210140217081A101E01201023032504260429043010310232013304340835013606370839083E153F44520353025804590CA9
:400C40005B045C195D105F01850689028B048F0693019B069D06A106A504A702B102B301B504D401D804D904DB0CDC11DD10DF010010010A020204020540061008800A2047
:400C80000D400E280F801201142017011C801D401F64210122042304254926102708290A2E042F48321133803604370138103A083B403D023F8059806D406F0E79407F0281
:400CC000800183408501860487808A108B208D01905091809222934095409608970A982099089A019B019F04A206A380A440A54CA610A740A880A908AB08AE10B312B50204
:400D0000C0BFC2F5C431CAE3CCCDCE9ED608DE18E001E2C2E4A2E641E8401D0137013F40580459045C115F01850189028D029102920195029D02A601A702AF02B001B302EA
:400D4000B501BE01BF10C034C101C5E0C6B0C7CEC83AC9FFCAFFCBFFCEF0CF44D00CD401D604D804D904DA04DB04DC11DD22DF01E6C0EA40EB02005A0450050208400A20EA
:400D80000C220E2011401202154016181F0122402404250428602C202D4030203292350A364038503A083C503F08468047444D01550257245C045D815F2065018364844036
:400DC0008502861488A789088AD88D828E508F209050922897029C809D039E08A282A504AE80AF04B580B708C0DFC275C4E1CA53CCDDCE7ED0D0D6F0D880E0A0E250E4E01C
:400E0000E610E802104016803142371439443E808A088C018F10C430CCF0CE7000080408331035405B085C01640880088304900195449D409F04A208A404A502AC40B004BD
:400E4000C030CC30D6C0D880E280E620EC1051088140900895449D489E049F18A208A502A908AA04D420E620E880EC201B011D0885048D028F08900895049D489E049F18EE
:400E8000A208A50AC630E640740188018D048F02DE04E009E60203080A20238051405C108110820190109B02A504B410C002C208C802D404D604E808922095809A019B82E0
:400EC000A308A51409140D0887108D08922095809A019B82A308A514C20EE608020405082310660269406D407202890A8B108F109D089E049F10A108A208A301A804AD40C4
:400F0000C060C840D880DAC0DC20EC80EE1052086302660875028E089902A208A301AF01B540B602D420D640D880DE20EC101F1037085F22618066018140830885808780C6
:400F40008B088E109220958097209A019B82A308C601CC01D607D801E202E401AF20100711011A071B011C061D0100AB013F100A07010000000000000101070007010701B1
:400F80000300000000E0E000001C1C001C0000004000060000000000C0000000000B0B0000B4B4000800140A0A00080101000000007B7B003800000000010000000000002D
:400FC00000000000000000000000000000000000000000000000000000000000000000000000000000000000000000000000000000000000000000000000000000000000F1
:4010000000000000000000000000000000000000000000000000000000000000000000000000000000000000000000000000000000000000000000000000000000000000B0
:401040000000000000000000000000000000000000000000000000000000000000000000000000000000000000000000000000000000000000000000000000000000000070
:401080000000000000000000000000000000000000000000000000000000000000000000000000000000000000000000000000000000000000000000000000000000000030
:0200000490006A
:0400000000004005B7
:0200000490105A
:04000000BC90ACAF55
:0200000490303A
:02000000AF301F
:0200000490402A
:4000000000000000000000000000000000000000000000000000000000000000000000000000000000000000000000000000000000000000000000000000000000000000C0
:400040000000000000000000000000000000000000000000000000000000000000000000000000000000000000000000000000000000000000000000000000000000000080
:400080000000000000000000000000000000000000000000000000000000000000000000000000000000000000000000000000000000000000000000000000000000000040
:4000C0000000000000000000000000000000000000000000000000000000000000000000000000000000000000000000000000000000000000000000000000000000000000
:0200000490501A
:0C00000000012E16106900012E32BF997D
:00000001FF