:400000000080002011000000ED200000ED20000080B500AF024A034B1B68136002F098F8BC760040FA46004010B5054C237833B9044B13B10448AFF300800123237010BD6B
:400040008886FF1F000000002C6B0000084B10B51BB108490848AFF300800848036803B910BD074B002BFBD0BDE81040184700BF000000008C86FF1F2C6B0000C880FF1F4A
:40008000000000000000000090B583B000AF364B01221A6003F0DEFF03461A46334B1A60334B1B78002B17D0314B1B78072B13D02F4B1B78072B0FD02D4B1B78022B0BD012
:4000C0002B4B1B78082B07D0294B1B78032B03D0274B1B78042B34D1244B1B68002B30D0224B1B68002BB8BF5B42184604F0AEFF19A3D3E9002305F00FF803460C461846D1
:40010000214617A3D3E9002305F006F803460C46184621464FF00002164B05F027F903460C461846214605F029FA03467B60124B1B687968184605F077FA03461A460E4B92
:400140001A60002003F098FF03F06CFF04F010FA00BF0C37BD4690BD182D4454FB2109400000000000205040CC86FF1FC886FF1FBC94FF1F00806C40C486FF1F80B400AFFA
:40018000034B01221A7000BFBD4680BC704700BFA095FF1F80B400AF034B01221A7000BFBD4680BC704700BF9195FF1F80B400AF034B01221A7000BFBD4680BC704700BF95
:4001C0009295FF1F80B400AF034B01221A7000BFBD4680BC704700BFBC86FF1F80B500AF0A4B1B78052B05D1094B1B680133084A136002E0064B00221A6000F02DF900F091
:4002000093F804F0E1FA00BF80BD00BFBC94FF1FD486FF1F80B500AF62B600F085F800F079F91F4804F0D2F91E4804F0FBFA1E4804F046FB1D4804F091FB1D4804F0DCFBD3
:400240001C4804F027FC04F09DFA00221A491B4801F022FA02461A4B1A6001F011FA03461A46184B1A600121002001F0BFFB002004F0DAF8144B1B68012B08D1124B0022A1
:400280001A60124B1B689BB2184600F023F8104B1B78012BEED10E4B00221A70EAE700BF89000000DD0100007D01000095010000AD010000C5010000A085FF1F2481FF1FCB
:4002C000C094FF1F4895FF1FCC86FF1FC886FF1FB486FF1F90B585B000AF0346FB80FB88184604F0B3FE4FF000020D4B05F03EF803460C461846214605F040F90346FB60F4
:400300000849F86805F098FA0346184605F0E4FB03467B81B7F90A3018461437BD4690BD00804C400000704180B400AF074B00221A70074B00221A70064B00221A70064BF8
:4003400000221A7000BFBD4680BC7047A095FF1F9195FF1F9295FF1FBC86FF1F80B483B000AF0A4B1B78002B03D0084B1B78012B03D1074B1B687B6002E0064B1B687B60BD
:40038000052318460C37BD4680BC70474495FF1F1881FF1F1481FF1F80B400AF044B1B680133034A136000BFBD4680BC704700BFB886FF1F90B488B000AFF860B9607A602E
:4003C0003B603B68FB6136E0FA6913465B0013449B001A467B6813441B78062B26D0FA6913465B0013449B001A467B6813441B783B74FA6913465B0013449B001A467B68BF
:4004000013445B687B61FA6913465B0013449B001A467B6813449B68BB61FB681C4607F1100393E8070084E8070010E0FB693B60FB690133FB61FA69BB689A42C4DBFB68F8
:400440001C4607F1100393E8070084E80700F8682037BD4690BC704790B585B000AFFFF79BFF274B1968274B1A68274B1B68274C3846FFF79FFF3B4693E8070084E80700CD
:40048000FFF76CFF03461A46214B1A70204B1B78092B30D801A252F823F000BFC5040000CB040000D1040000DD040000D7040000E3040000F5040000F5040000E904000054
:4004C000EF04000001F018FA15E001F0FDF912E001F0E4F90FE001F02BF90CE001F084F909E001F019F906E001F006FA03E001F071FA00E000BF00BF1437BD4690BD00BF52
:400500004895FF1FC094FF1FB886FF1F9495FF1FBC94FF1F80B500AF03F026FC03F05EFB4FF6FF7003F0F0FB03F038FC4FF6FF7003F0CAFC03F01CFD03F074FD03F0F6FF7A
:4005400004F092F800BF80BD80B485B000AF78600023FB6020E00023BB6017E0FB684C2202FB03F37A681344BA6853F82230012B09D0FB684C2202FB03F37A681344BA687E
:40058000002143F82210BB680133BB60BB68122BE4DDFB680133FB60FB680E2BDBDD00BF1437BD4680BC704780B485B000AFF860B9607A603B60FB68002B17DBFA687B6811
:4005C0009A4213DABB68002B10DBBA683B689A420CDAFB684C2202FB03F3BA691344BA6853F82230002B01D1012300E0002303F00103DBB218461437BD4680BC704700BF6F
:4006000082B090B5ADF5B65D81B002AF07F118040C3C206007F11800143880E8060007F5B65202F10C021360002307F5B55202F1140213603AE0002307F5B55202F11002A7
:40064000136021E007F58F5101F10C0107F5B55303F114031A681346DB0013445B00134407F5B55202F1100212681344012241F8232007F5B55303F110031B68013307F527
:40068000B55202F11002136007F5B55303F110031B68122BD6DD07F5B55303F114031B68013307F5B55202F11402136007F5B55303F114031B680E2BBDDD002307F5B5526D
:4006C00002F10C021360002307F5B55202F1080213603AE0002307F5B55202F10402136021E007F138021C3A07F5B55303F1080319680B46DB000B445B000B4407F5B55110
:4007000001F1040109680B444FF47A7142F8231007F5B55303F104031B68013307F5B55202F10402136007F5B55303F104031B68122BD6DD07F5B55303F108031B68013316
:4007400007F5B55202F10802136007F5B55303F108031B680E2BBDDD002307F5B552136007F11803143B196807F11803143B586807F138021C3A0B46DB000B445B000B4462
:400780000344002142F8231007F5B5531B68013307F5B552136007F59362083A07F5B55303F10C0319680B465B000B449B001A4407F11803143B93E8030082E8030007F53B
:4007C0009362083A07F5B55303F10C0319680B465B000B449B001344083300221A6007F5B55303F10C031B68013307F5B55202F10C021360F5E1002307F5B45202F11C0235
:400800001360012307F5B45202F11802136034E007F59362083A07F5B45303F1180319680B465B000B449B0013440833186807F59362083A07F5B45303F11C0319680B4602
:400840005B000B449B00134408331B68984209DA07F5B45303F118031B6807F5B45202F11C02136007F5B45303F118031B68013307F5B45202F11802136007F5B45303F104
:4008800018031A6807F5B55303F10C031B689A42BEDB07F11801083907F59362083A07F5B45303F11C03186803465B0003449B001A440B4607CA83E8070007F5B55303F111
:4008C0000C031B68591E07F59362083A07F5B45303F11C03186803465B0003449B00D01807F59362083A0B465B000B449B001A44034607CA83E8070007F5B55303F10C03FE
:400900001B68013B07F5B55202F10C02136007F11803083B1B6807F5B35202F11C02136007F11803083B5B6807F5B35202F11802136007F58F5101F10C0107F5B35303F1B8
:400940001C031A681346DB0013445B00134407F5B35202F118021268134451F82330012B40F03F8107F58F5101F10C0107F5B35303F11C031A681346DB0013445B00134453
:4009800007F5B35202F1180212681344002241F8232007F5B65303F10C031A6807F5B35303F11C031B689A420CD107F5B65303F110031A6807F5B35303F118031B689A42E1
:4009C00000F01881002307F5B45202F114021360FFE0D04A07F5B45303F114031B6852F8332007F5B35303F11C031B68134407F5B35202F114021360C64A07F5B45303F133
:400A000014031B68DB0013445A6807F5B35303F118031B68134407F5B35202F11002136007F118030C3B1B68009313230F2207F5B35101F11001096807F5B35000F1140075
:400A40000068FFF7B1FD0346002B00F0B78007F58F5101F10C0107F5B35303F114031A681346DB0013445B00134407F5B35202F110021268134451F82330012B40F09E803B
:400A800007F138021C3A07F5B35303F11C0319680B46DB000B445B000B4407F5B35101F1180109680B4452F82330013307F5B35202F10C02136007F138021C3A07F5B35358
:400AC00003F1140319680B46DB000B445B000B4407F5B35101F1100109680B4452F8232007F5B35303F10C031B689A4266DD07F138021C3A07F5B35303F1140319680B46E7
:400B0000DB000B445B000B4407F5B35101F1100109680B4407F5B35101F10C01096842F8231007F59362083A07F5B55303F10C0319680B465B000B449B00134407F5B35298
:400B400002F1140212681A6007F59362083A07F5B55303F10C0319680B465B000B449B001344043307F5B35202F1100212681A6007F59362083A07F5B55303F10C031968E4
:400B80000B465B000B449B001344083307F5B35202F10C0212681A6007F5B5531B68013307F5B552136007F5B55303F10C031B68013307F5B55202F10C02136007F5B453AE
:400BC00003F114031B68013307F5B45202F11402136007F5B45303F114031B68032B7FF6F8AE07F5B55303F10C031B68002B3FF702AE00E000BF07F5B65303F10C03196818
:400C000007F5B65303F11003186807F138021C3A0B46DB000B445B000B44034452F8233007F5B45202F1100213603B4A07F5B45303F110031B68136007F5B45303F110038E
:400C40001B68DB00184604F0B9FF034607F5B35202F10802136007F5B65303F10C031B6807F5B45202F10C02136007F5B65303F110031B6807F5B45202F10802136007F554
:400C8000B45303F110031B6803F10053013BDB0007F5B35202F108021268134407F5B45202F10C0212681A6007F5B45303F110031B6803F10053013BDB0007F5B35202F1A0
:400CC00008021268134407F5B45202F1080212685A6007F5B45303F10C031B684C2202FB03F207F118030C3B1B68134407F5B45202F108021268092143F82210002307F59A
:400D0000B45202F1040213600BE1002307F5B452136000E1C885FF1F3894FF1F894A07F5B4531B6852F8332007F5B45303F10C031B68134407F5B35202F104021360814A79
:400D400007F5B4531B68DB0013445A6807F5B45303F108031B68134407F5B352136007F118030C3B1B68009313230F2207F5B351096807F5B35000F104000068FFF714FCFF
:400D80000346002B00F0C08007F138021C3A07F5B35303F1040319680B46DB000B445B000B4407F5B35109680B4452F8232007F5B45303F110031B68013B9A4240F0A4801E
:400DC00007F5B35303F104031B684C2202FB03F207F118030C3B1B68134407F5B3521268082143F82210584907F5B45303F104031B6807F5B35202F10402126841F83320AC
:400E0000514A07F5B45303F104031B68DB00134407F5B35212685A6007F5B45303F104031B68013307F5B45202F10402136007F5B45303F110031B68013B07F5B45202F14E
:400E40001002136007F5B35303F104031B6807F5B45202F10C02136007F5B3531B6807F5B45202F10802136007F5B45303F110031B68DB0007F5B35202F1080212681344C9
:400E800007F5B45202F10C0212681A6007F5B45303F110031B68DB0007F5B35202F108021268134407F5B45202F1080212685A6007F11803143B1A6807F5B45303F10C03E7
:400EC0001B689A4220D107F11803143B5A6807F5B45303F108031B689A4215D107F5B45303F10C031B684C2202FB03F207F118030C3B1B68134407F5B45202F108021268A1
:400F0000022143F822100CE007F5B4531B68013307F5B452136007F5B4531B68032B7FF6FDAE07F5B45303F110031B68002B3FF7ECAE00BF07F5B5571C37BD46BDE8904018
:400F400002B07047C885FF1FA895FF1F80B58CB000AFF860B960394681E80C003B68FB627B68BB6200237B62BB6BFA6B1146184600F038FB03467B61C4E19A4B1B78BA6AF4
:400F8000F96A184600F09CFAFB6A4C2202FB03F3FA681344BA6A002143F82210914B1A78914B1A70B96AF86A00F004FA0346FB61BA6BFB6A9A420BD1FA6BBB6A9A4207D14D
:400FC000052387F82330894804F030FF0523FB61FB69032B00F26F8101A252F823F000BFF10F00008F100000391100000D1200007C4B00221A707C4B1B78022B0BD1022349
:4010000087F823307A4804F011FF7A4B00221A60794B00221A60744B1B78032B0BD1012387F82330754804F001FF724B00221A60714B00221A606C4B1B78002B19D17A6961
:40104000FB699A420AD1FA6BBB6A9A4206D1042387F823306A4804F0E9FE0AE0002387F82330644B1968644B1B681A46654804F06BFE5D4B1B78012B05D1032387F82330B2
:40108000614804F0D3FEFB6A013BFB6214E1554B01221A70544B1B78032B0BD1022387F82330534804F0C2FE524B00221A60524B00221A604C4B1B78022B0BD1012387F8B8
:4010C00023304E4804F0B2FE4A4B00221A604A4B00221A60444B1B78012B19D17A69FB699A420AD1FA6BBB6A9A4206D1042387F82330434804F09AFE0AE0002387F823309F
:401100003C4B19683C4B1B681A463E4804F01CFE354B1B78002B0BD1032387F82330354B00221A60344B00221A60374804F07EFEFB6A0133FB62BFE02A4B02221A702A4B44
:401140001B78002B0BD1012387F823302B4804F06DFE284B00221A60274B00221A60224B1B78012B0BD1022387F82330204804F05DFE204B00221A601F4B00221A601A4BC8
:401180001B78022B19D17A69FB699A420AD1BA6BFB6A9A4206D1042387F82330184804F045FE0AE0002387F82330124B1968124B1B681A46134804F0C7FD0B4B1B78032B93
:4011C0000BD1032387F823300A4B00221A600A4B00221A600C4804F029FEBB6A013BBB626AE000BF2081FF1FA495FF1F346B0000446B00004094FF1F3C94FF1F506B000044
:401200005C6B0000746B0000986B00005F4B03221A705F4B1B78002B0BD1022387F823305C4804F003FE5C4B00221A605B4B00221A60574B1B78012B0BD1012387F8233020
:40124000574804F0F3FD544B00221A60534B00221A604F4B1B78032B19D17A69FB699A420AD1BA6BFB6A9A4206D1042387F823304C4804F0DBFD0AE0002387F82330464B2D
:401280001968464B1B681A46474804F05DFD404B1B78022B0BD1032387F823303E4B00221A603E4B00221A60404804F0BFFDBB6A0133BB6200E000BF3D497A6A13465B0088
:4012C00013449B000B4497F823201A70324B196837487A6A13465B0013449B000344043319602E4B196832487A6A13465B0013449B000344083319607B6A01337B62BB6841
:40130000013BBB60BB68002BBFF637AE0023BB6132E02749BA6913465B0013449B000B441978BB695A1C224813465B0013449B0003441B7899421CD11D49BA6913465B007B
:4013400013449B000B4406221A701949BA6913465B0013449B000B44043300221A601449BA6913465B0013449B000B44083300221A60BB690133BB617B6A5A1EBB699A4210
:40138000C7DC00BF3037BD4680BD00BF2081FF1FA495FF1F446B00004094FF1F3C94FF1F506B00005C6B0000746B0000986B0000DC86FF1F80B483B000AF786039607B6872
:4013C0005A1E3E491346DB0013445B0013443A68134451F82330082B0DD07B685A1E37491346DB0013445B0013443A68134451F82330092B01D100235AE07B685A1C2F492B
:401400001346DB0013445B0013443A68134451F82330082B0DD07B685A1C28491346DB0013445B0013443A68134451F82330092B01D101233CE03B68591E20487A6813462B
:40144000DB0013445B0013440B4450F82330082B0DD03B68591E19487A681346DB0013445B0013440B4450F82330092B01D102231EE03B68591C11487A681346DB00134403
:401480005B0013440B4450F82330082B0DD03B68591C0A487A681346DB0013445B0013440B4450F82330092B01D1032300E0052318460C37BD4680BC704700BF2481FF1FC0
:4014C00080B485B000AF0346B9607A60FB73BB685A1E41491346DB0013445B0013447A68134451F82330002B11D1FB7B022B02D0032B06D00BE0394B1B680133374A136053
:4015000005E0374B1B680133354A136000BFBB685A1C31491346DB0013445B0013447A68134451F82330002B11D1FB7B022B02D0032B06D00BE02A4B1B680133284A136035
:4015400005E0264B1B680133244A136000BF7B68591E2148BA681346DB0013445B0013440B4450F82330002B11D1FB7B002B02D0012B06D00BE01A4B1B680133184A136054
:4015800005E0164B1B680133144A136000BF7B68591C1148BA681346DB0013445B0013440B4450F82330002B11D1FB7B002B02D0012B06D00BE0094B1B680133074A136068
:4015C00005E0074B1B680133054A136000BF00BF1437BD4680BC70472481FF1F3C94FF1F4094FF1F80B483B000AF786039607B685A1C22491346DB0013445B0013443A68AF
:40160000134451F82330082B01D1002330E07B685A1E1A491346DB0013445B0013443A68134451F82330082B01D1012320E03B68591C12487A681346DB0013445B00134435
:401640000B4450F82330082B01D1022310E03B68591E0A487A681346DB0013445B0013440B4450F82330082B01D1032300E0052318460C37BD4680BC704700BF2481FF1FA5
:4016800080B400AF034B1B68DBB21846BD4680BC704700BF3894FF1F90B58BB002AFF860B9607A60F868FEF74FFF184B1B68BB61164B5B68FB617B68DB00BA6813441B6891
:4016C0003B617B68DB00BA6813445B687B617B6900933B6907F1180206CAF868FEF790FF0B4B1C686A4607F1100393E8030082E8030007F118030CCB2146F868FFF726FC4E
:40170000044B18462437BD4690BD00BF9885FF1F3894FF1FDC86FF1F80B500AF4FF4004002F002FB4FF4004002F0DEFB00BF80BDB0B582B000AF264B1B68184603F098FC2E
:4017400004460D46234B1B68184603F091FC1EA3D3E9002303F0E0FC02460B462046294603F028FB03460C461846214603F006FF03467B601849786804F05EF8034617495A
:40178000184603F051FF0346184604F0CBF903467B801349786804F04FF8034619460F4803F040FF0346184604F0BCF903463B807B88184602F0B8FA3B88184602F094FB42
:4017C00000BF0837BD46B0BDCDCCCCCCCCCCEC3FEC85FF1FE885FF1F0098194600FEFF4600C8CC4500000000B0B582B000AF264B1B68184603F03CFC04460D46234B1B6809
:40180000184603F035FC1EA3D3E9002303F084FC02460B462046294603F0CCFA03460C461846214603F0AAFE03467B601849786804F002F803461749184603F0F5FE034668
:40184000184604F06FF903467B801349786803F0F3FF034619460F4803F0E4FE0346184604F060F903463B807B88184602F05CFA3B88184602F038FB00BF0837BD46B0BD20
:40188000CDCCCCCCCCCCEC3FEC85FF1FE885FF1F00C8CC4500FEFF460098194680B582B000AF46F6F503FB8046F6F503BB80FB88184602F039FABB88184602F015FB00BF6B
:4018C0000837BD4680BD00BF80B582B000AF49F20873FB8049F20873BB80FB88184602F023FABB88184602F0FFFA00BF0837BD4680BD00BF00000000B0B582B000AF304B38
:401900001B68184603F0B4FB04460D462D4B1B68184603F0ADFB26A3D3E9002303F0FCFB02460B462046294603F044FA03460C461846214603F022FE03467B602249786880
:4019400003F07AFF03462149184603F06DFE0346184604F0E7F803467B801B49786803F06BFF0346184603F083FB4FF00002184B03F0D2FB03460C461A4623460EA1D1E9E4
:40198000000103F015FA03460C461846214603F0D5FD03463B807B88184602F0C5F93B88184602F0A1FA00BF0837BD46B0BD00BFCDCCCCCCCCCCEC3F00000000C0FFDF403D
:4019C000EC85FF1FE885FF1F0098194600FEFF460000E03F80B500AF45F6991002F0A4F94AF2666002F080FA00BF80BD80B582B000AF03460A46FB711346BB71094B1B782C
:401A0000002B04D100F010F8064B01221A70BA79FB791146184600F0D9F800BF0837BD4680BD00BF4494FF1F80B582B000AF03F087F80346FB71544A534B1B78DBB243F0D4
:401A40000103DBB21370514A504B1B78DBB243F00103DBB213704E4B01221A704D4B02221A704D4A4C4B1B78DBB203F07F03DBB21370002001F0F0FF484A484B1B78DBB211
:401A800023F00603DBB21370454A454B1B78DBB223F02003DBB21370404A404B1B78DBB243F00103DBB21370012001F0D5FF282001F0D2FF3B4A3B4B1B78DBB203F07F0369
:401AC000DBB21370374A374B1B78DBB223F04003DBB21370314A314B1B78DBB243F00203DBB21370022001F0B7FF2C4A2B4B1B78DBB243F00403DBB213702B4B00221A70AD
:401B00002A4B00221A70FB79184603F01DF80721172001F0DDFF2649172001F0B1FF0721182001F0D5FF2349182001F0A9FF0721152001F0CDFF2049152001F0A1FF072164
:401B4000042001F0C5FF1D49042001F099FF0721052001F0BDFF1A49052001F091FF0721062001F0B5FF1749062001F089FF07210C2001F0ADFF14490C2001F081FF00BFDA
:401B80000837BD4680BD00BFA5430040B54300409D60004009600040106000409443004012600040F851004084600040856000409129000079220000852900009D2800008E
:401BC000E5280000312900009D29000080B582B000AF03460A46FB711346BB712E4AFB7913702E4B00221A702D4B00221A702D4B00221A702C4B00221A702C4B00221A70F6
:401C00002B4B00221A702B4B00221A702A4B4FF400021A60284B4FF080721A60264B4FF400121A60244B10221A60234B20221A60214B40221A60BB79002B02D0012B09D00B
:401C400011E01E4A1D4B1B78DBB223F00103DBB2137011E0194A194B1B78DBB243F00103DBB2137008E0154A144B1B78DBB243F00103DBB2137000BF114B03221A70114B0A
:401C800080221A70012002F053FF0F4B04221A7000BF0837BD4680BD919EFF1F949EFF1FB09EFF1FB39EFF1FA89EFF1FB29EFF1FB59EFF1F909EFF1F00E100E009600040DA
:401CC00028600040086000401260004080B400AF0F4B00221A700F4B00221A700E4B00221A700E4B00221A700D4B00221A700D4B00221A700C4B00221A700C4B03221A70B8
:401D00000B4B80221A7000BFBD4680BC704700BF949EFF1FB09EFF1FB39EFF1FA89EFF1FB29EFF1FB59EFF1F909EFF1F286000400860004080B582B000AF786039603A685A
:401D40000021786803F04DFF00BF0837BD4680BD80B584B000AFF860B9607A607A68B968F86803F033FF00BF1037BD4680BD00BF80B483B000AF0346FB71FEE780B487B0DA
:401D800000AF7860396000233B6100237B6127E07B699B007A6813441B68BB60BB68FB73BB6823F0FF03BB6014E03B695B003A6813441B781A46BB68134419463B695B004D
:401DC0003A6813445B780B703B6901333B61FB7B013BFB73FB7B002BE7D17B6901337B617B69272BD4D900BF1C37BD4680BC704780B582B000AF3D4B00221A803C4B1B22B2
:401E00001A703C4B00221A803B4B19221A703B4B04221A803A4B18221A703A4B81221A80394B18221A70394B4EF65F221A80384B18221A70374B06221A70374B52221A7013
:401E4000364B374A1278D2B21A70364B40F619121A80354B41F251221A800023FB7019237B6014E0FB785B00DAB2304B1B78DBB203F00103DBB21343DBB203F00303FB7033
:401E80004FF4F07002F054FE7B68013B7B607B68002B02D0FB78032BE4D17B68002B02D10320FFF765FF224B4FF480721A80204B07221A701F4B00221A701F4B48221A70DF
:401EC0001B4B00221A701D4B00221A701C4B02221A701C4A1B4B1B78DBB243F01F03DBB2137000BF0837BD4680BD00BF804000408240004084400040864000408840004045
:401F00008A4000408C4000408E40004090400040924000400043004000420040A14600400F01004922420040204200402542004004400040064000400840004009400040CE
:401F400001400040A243004080B483B000AF0B4B1B78FB710A4AFB7903F00703DBB21370084AFB791B09DBB21370074B44221A7000BF0C37BD4680BC704700BFCF0100496F
:401F80006E5800406F5800407658004080B582B000AF72B63F4B61221A70FFF729FF3D4B01221A703C4A3C4B1B78DBB243F00403DBB213700023FB7113E0FA7913465B00BE
:401FC00013445B00354A13443B603B681A683B689B889BB219461046FFF7ACFEFB790133FB71FB79062BE8D92D494FF09040FFF7C5FE2C4A2B4B1B78DBB243F00203DBB2A8
:402000001370294A284B1B78DBB243F00203DBB21370264A254B1B78DBB243F04003DBB21370234A224B1B78DBB243F01003DBB2137008221F492048FFF78AFE08221F49EF
:402040001F48FFF785FE0A221E491F48FFF780FE08221E491E48FFF77BFE0A221D491E48FFF776FE08221D491D48FFF771FE1D4A1C4B1B78DBB243F00803DBB21370FFF7BE
:4020800063FF0E2209491848FFF762FE00BF0837BD4680BD00480040E8460040A06B0000A00000480350014013500140A0430040C2430040400D004802510040480D0048FA
:4020C000C2510040500D0048F05100405C0D004812510040640D004820510040700D00483251004022430040B043004080B500AF03F038FD03461B680C2B00D1FEE7FEE79F
:4021000080B584B000AF78600F4B1A687B6813441A460E4BD31A802B09DC0B4B1B68FB60094B1A687B681344074A136007E003F019FD02460C2313604FF0FF33FB60FB6852
:4021400018461037BD4680BDF485FF1F709FFF1F80B586B000AF224B7B61224B3B61204B7B6135E03B691B68FB603B695B68BB603B699B683B6000237B600CE0FB681A68D9
:40218000BB681A60BB680433BB60FB680433FB607B6804337B607A683B689A42EED13B69DB683B6000237B6008E0BB6800221A60BB680433BB607B6804337B607A683B68ED
:4021C0009A42F2D13B6910333B617B69013B7B617B69002BC6D103F0CBFCFEF71BF8FEE7010000003C6E000080B582B000AF184B184A1A60184A184B1B6843F4007313600F
:4022000000237B600FE07B68032B04D8134A7B6852F8233000E0124B12497A6841F822307B6801337B607B682F2BECD90E4B1B78DAB20E4B1A700E4B0A4A1A60FFF7A6FED2
:402240000C4B00221A6000BF0837BD4680BD00BF0CED00E00004FA0514ED00E000000000ED2000000080FF1FBC760040C480FF1F08ED00E0C080FF1F80B582B000AF374B67
:402280001B78BB71BB7903F01003002B62D00123FB7197F90630002B12DABB7903F00F03012B02D00023FB711CE000F061F82C4B1B78DBB25BB2002B14DA0023FB7111E013
:4022C000BB7903F04003002B02D000F095F809E0BB7903F02003002B02D000F0B3F801E00023FB71FB79002B34D01C4B1B78BB7197F90630002B2DDB1A4B1B78DAB21A4B14
:402300001B78DBB21343BB71184ABB791370174B1B78DBB2BA799A421CD1114B1B78FB710E4B1B78DBB223F07F03BB71BB79002B0AD10A4B0A4A1278D2B21A70074B1B786F
:40234000DBB203F00F03FB71054B1B78DBB2FA799A42E2D100BF0837BD4680BD28600040B19EFF1F269FFF1FB49EFF1F2960004080B582B000AF1D4B1B78FB711B4AFB7908
:4023800013701A4B1B78FB7197F90730002B03DA174AFB79137025E0022000F045FA154B1B78DBB203F06003202B08D0402B0BD0002B0ED100F0F8FA0346FB710CE002F0FB
:4023C000B1FC0346FB7107E001F000FB0346FB7102E00023FB7100BFFB79002B02D1044B03221A7000BF0837BD4680BD28600040B19EFF1F0060004080B500AF104B1B786E
:40240000DBB2062B19D801A252F823F03B2400003B240000292400003B2400002F2400003B2400003524000000F0F8F806E000F0A7F903E000F0D2F900E000BF00BF80BDE9
:40244000949EFF1F80B500AF124B1B78DBB2062B1DD801A252F823F08F2400008F240000752400008F2400007B2400008F2400008124000000F0D8F80AE000F027F907E03B
:40248000032000F0D1F9044B03221A7000E000BF00BF80BD949EFF1FB19EFF1F80B483B000AF0023FB71294B1B78DBB29AB2284B1B889BB213449AB2254B1A8015E02549F1
:4024C000FB79254A52681278D2B2CA54224B5B680133214A5360FB790133FB711E4B1B889BB2013B9AB21C4B1A801B4B1B889BB2002B02D0FB79072BE1D9144B1B78DBB269
:40250000082B02D0FB79002B0FD0144B1B78DBB283F07F03DB43DAB2104B1A70104B0F221A70104B02221A7005E00D4B02221A700C4B02221A700C4AFB791370034AFB79F8
:40254000137000BF0C37BD4680BC7047909EFF1F929EFF1F006000409C9EFF1F269FFF1FB19EFF1F949EFF1FB49EFF1F80B582B000AF164B1B889BB2002B02D100F02EF8C3
:402580001EE0134B02221A70124B00221A7000F06BF9114BDB79DBB29BB21B029AB20E4B9B79DBB29BB21343FB80084B1B889BB2FA889A4202D2054AFB881380FFF76EFF6C
:4025C000012318460837BD4680BD00BF9C9EFF1F949EFF1F269FFF1F0060004080B400AF094B02221A70094B80221A70084B0F221A70084B00221A70074B00221A7001235C
:402600001846BD4680BC7047949EFF1F269FFF1FB19EFF1F909EFF1FB49EFF1F80B500AFFFF73CFF00BF80BD80B500AF0A4B1B78DBB29AB2094B1B889BB213449AB2074BFB
:402640001A80074B00221A70012000F0EDF8054B03221A7000BF80BD909EFF1F929EFF1F949EFF1FB19EFF1F80B582B000AF124B04221A70114B80221A7000F0F5F8104B97
:40268000DB79DBB29BB21B029AB20D4B9B79DBB29BB21343FB800B4B1B889BB2FA889A4202D2084AFB881380074B0B221A70012318460837BD4680BD949EFF1F269FFF1F4F
:4026C000006000409C9EFF1FB19EFF1F80B483B000AF0023BB71234B1B78DBB203F00F03DBB2023BFB71FB799AB21F4B1B889BB213449AB21C4B1A8018E01C4B5B681C4902
:40270000BA798A5CD2B21A70184B5B680133174A5360BB790133BB71FB79013BFB71134B1B889BB2013B9AB2104B1A800F4B1B889BB2002B02D0FB79002BDED10D4AFB7929
:4027400013700D4B1B78DBB283F07F03DB43DAB2094B1A70094B0B221A7000BF0C37BD4680BC704729600040929EFF1F9C9EFF1F00600040B49EFF1F269FFF1FB19EFF1F0F
:4027800080B500AF054B00221A70012000F04CF8034B03221A7000BF80BD00BF949EFF1FB19EFF1F80B400AF084B06221A70084B06221A70074B80221A70074B00221A7006
:4027C00001231846BD4680BC704700BF949EFF1FB19EFF1F269FFF1FB49EFF1F80B500AF0D4B1B78DBB2002B0AD00C4A0A4B1B78DBB263F07F03DBB21370074B00221A7083
:40280000074B00221A70012000F00EF8054B03221A7000BF80BD00BFB29EFF1F08600040949EFF1FB19EFF1F80B483B000AF0346FB710B4B9B68002B0CD0094B9B68FA7901
:402840001A70074B9B68074A128892B25A80044B00229A6000BF0C37BD4680BC704700BF9C9EFF1F929EFF1F80B400AF094B00221A80094B9B68002B07D0074B9B680022E5
:402880001A70054B9B6800225A8000BFBD4680BC704700BF929EFF1F9C9EFF1F80B400AF0D4B01221A700D4B9B7C0D4B1B7BDBB203F00303012B08D0094BDB7BDBB283F0AC
:4028C0007F03DB43DAB2064BDA73054B01225A7300BFBD4680BC70470B600040FC5F0040B89EFF1F80B400AF0E4B02221A700E4B93F822300D4B1B7EDBB203F00303012B9C
:4029000008D00A4BDB7EDBB283F07F03DB43DAB2064BDA76054B01225A7600BFBD4680BC704700BF0B600040FC5F0040B89EFF1F80B400AF104B04221A70104B93F832309D
:402940000F4B93F82430DBB203F00303012B0AD00B4B93F82730DBB283F07F03DB43DAB2074B83F82720064B012283F8252000BFBD4680BC704700BF0B600040FC5F00402C
:40298000B89EFF1F80B400AF00BFBD4680BC704780B500AFFFF79AF900BF80BD80B500AF01F03EF800BF80BD80B586B000AF0023FB759D4B1B78FB7100233B619B4B002240
:4029C0001A8097F90730002B80F20481964B5B78DBB20A2B00F21B8201A252F823F000BF2B2B00000F2E00000F2E00000F2E00000F2E00000F2E00000D2A00000F2E000095
:402A00009F2B00000F2E0000B52B0000864BDB78DBB2012B0ED100F049FEB860BB685B68824A5360814B12221A80FFF79FFD0346FB75EEE17C4BDB78DBB2022B25D17A4BFC
:402A40009B78DBB2184600F009FEB860BB68002B00F0DF81BB685B68744A5360734B5B6803331B78DBB29BB21B029AB26F4B5B6802331B78DBB29BB213439AB26B4B1A80B6
:402A8000FFF774FD0346FB75C3E1674BDB78DBB2032B45D10023FB73654B3B6109E03B691B78BB71BB793A6913443B61FB7B0133FB735D4B9B78DBB2FA7B9A4204D23B695E
:402AC0001B78DBB2002BEAD1574B9B78DBB2EE2B01D1584B3B61544B9B78DBB2002B0BD0514B9B78DAB2544B1B7C9A4204D1534800F0ACF9514B3B613B691B78DBB2002BA6
:402B000000F087813B691B78DBB29AB2474B1A80464A3B695360FFF729FD0346FB7578E102F000F90346FB7573E1FB7903F00303002B20D0022B00D030E03C4B02221A807A
:402B4000394B1B79DBB203F07F023D4913465B0013449B000B4402331B78DAB2394B1A70384B00225A70314B364A5A60FFF7FEFC0346FB7512E02D4B02221A80324B1B7859
:402B8000DAB2304B1A702F4B00225A70274B2D4A5A60FFF7EBFC0346FB7500BF40E1234B01221A80214B294A5A60FFF7DFFC0346FB7535E11D4B01221A801B4B1B79DBB2F5
:402BC0001A46234B1344194A5360FFF7CFFC0346FB7525E1144B5B78DBB2013B0A2B00F21A8101A252F823F0F32C0000172E0000812D0000172E0000152C0000172E000080
:402C0000172E0000172E0000592C0000172E0000AF2C0000044B9B78DAB20E4B1A70FFF7C1FD0346FB75FBE0006000409C9EFF1F386C0000406D0000E06B0000449FFF1FB7
:402C4000B89EFF1F4894FF1FB59EFF1FB39EFF1F249FFF1FB29EFF1F744B9B787B717B79002B06D07B79013BDBB2184600F0F6FCB8607B79002B02D0BB68002B03D17B79E8
:402C8000002B40F0CA806A4B1B78DBB27A799A4208D0674A7B791370664B01221A70012000F0DCF9FFF77EFD0346FB75B5E000F055FE0346002B00F0B2805C4B1B793B7108
:402CC0005A4B1B79DAB25C4B1A703B795B4AD35CDAB23B795A49CB5CDBB29A4204D0554B01221A7000F08CFBFFF75CFD0346FB7595E0FB7903F00303012B20D0012B0CD33A
:402D0000022B00D03BE0494B9B78DBB2002B31D100F078FD0346FB752CE0444B9B78DBB2012B29D1474B1B78DBB223F00203DAB2444B1A70FFF736FD0346FB751CE03B4BC8
:402D40001B79DBB2012B19D8384B9B78DBB2DB43DBB2364A1279D2B2114610463A4A125CD2B21340DAB2384B5A54FFF71BFD0346FB7503E000BF53E000BF51E000BF4FE00B
:402D8000FB7903F00303012B20D0012B0CD3022B00D03BE0254B9B78DBB2002B31D100F0BDFC0346FB752CE0204B9B78DBB2012B29D1244B1B78DBB243F00203DAB2214BCC
:402DC0001A70FFF7EFFC0346FB751CE0174B1B79DBB2012B19D8154B9B78DBB2DB43DBB2124A1279D2B211461046174A125CD2B21340DAB2144B5A54FFF7D4FC0346FB7592
:402E000003E000BF0CE000BF0AE000BF08E000BF06E000BF04E000BF02E000BF00E000BFFB7D18461837BD4680BD00BF00600040B39EFF1FB09EFF1FA89EFF1F989EFF1F16
:402E4000249FFF1FB59EFF1F289FFF1FB0B58AB000AF7860324B07F114041D460FCD0FC42B682370002387F826307B68002B52D07B6822221A707B68013303221A7007F199
:402E80000C03184600F048FE022387F827303EE097F827307A68134497F8262007F128010A4412F81C2C1209D2B207F128010A4412F8142C1A7097F8273001337A6813446C
:402EC00000221A7097F8273002337A68134497F8262007F128010A4412F81C2C02F00F0207F128010A4412F8142C1A7097F8273003337A68134400221A7097F826300133DC
:402F000087F8263097F82730043387F8273097F82730212BBCD900BF2837BD46B0BD00BFCC6B000090B482B000AF0123FB7180E0464AFB791B0113440C221A70FA7944493A
:402F400013465B0013449B000B4405331B78DBB2002B1CD0FA793E4913465B0013449B000B4404331B78DBB25BB2002B07DA394AFB791B01134402330C221A700EE0354ACA
:402F8000FB791B011344023308221A7006E0314AFB791B011344023380221A702B48F979FA792B4C13465B0013449B00234406331B889BB2DAB20B01034406331A70234886
:402FC000F979FA79224C13465B0013449B00234406331B889BB21B0A9BB2DAB20B01034407331A701948F979FA79194C13465B0013449B00234406331B889BB2DAB20B01BA
:40300000034404331A701148F979FA79104C13465B0013449B00234406331B889BB21B0A9BB2DAB20B01034405331A70FB790133FB71FB79082B7FF67BAF074BFF221A704E
:4030400000BF0837BD4690BC704700BF70600040B89EFF1FFC5F00400A60004080B58AB000AF0346FB7100237B84002387F8273050E097F82720B34913465B0013449B002E
:403080000B4400221A7097F82720AE4913465B0013449B000B44023300221A7097F82720A84913465B0013449B000B44033300221A7097F82720A34913465B0013449B006C
:4030C0000B44083300221A8097F827209D4913465B0013449B000B440A3300221A7097F82720984913465B0013449B000B44013300221A7097F82720924913465B001344A8
:403100009B000B44053300221A7097F82730013387F8273097F82730082BAAD9FB79002B16D0002387F825300EE097F82530864A0021D15497F82530844A0021D15497F84A
:403140002530013387F8253097F82530012BECD97F4B1B78DBB2002B00F04A810023FB767B4B1B78DBB2013BDBB2184600F076FA78617B695B683B613B6907331B7803F0CC
:403180004003002B08D0734B1B78DBB243F00103DAB2704B1A7007E06E4B1B78DBB223F00103DAB26B4B1A707B6908337B617B691B7887F82730012387F82530B6E07B6986
:4031C0005B68FB61002387F82630A3E097F82520FB699B7803F07F039A4240F0938097F82520584913465B0013449B000B4408331B889AB2FB699B889A420CD297F82520AD
:40320000FB6998884F4913465B0013449B000B44083302461A80FB691B781A464A4B9B5CDAB2FB695B789A426CD197F82520FB699878444913465B0013449B000B440433A0
:4032400002461A7097F82520FB69D8783D4913465B0013449B000B4402461A70FB69DB7803F00303FB73FB699B785BB2002B1CDA97F82520FB7B012B01D1072000E00D2068
:40328000304913465B0013449B000B44053302461A7097F825202B4913465B0013449B000B44013301221A701BE097F82520FB7B012B01D1052000E00920224913465B00E8
:4032C00013449B000B44053302461A7097F825201C4913465B0013449B000B44013300221A70FB699B790A2B03D0FB699B79022B08D1FA7E97F825301946F86901F0CAFCA4
:403300000346FB76FB690833FB6197F82630013387F8263097F8262097F827309A42FFF455AF97F82530013387F8253097F82530082B7FF644AF7B695B68FB61002387F84C
:40334000253020E0B89EFF1F249FFF1F989EFF1FB39EFF1FB59EFF1FFB699B7803F07F02FB691878244913465B0013449B000B440A3302461A70FB690833FB6197F8253040
:40338000013387F8253097F8252097F827309A42E2D300F09DF90246184B1A6000237B84012387F827301DE097F82720124913465B0013449B000B4406337A8C1A8097F868
:4033C00027200D4913465B0013449B000B4408331B889AB27B8C13447B8497F82730013387F8273097F82730082BDDD9FFF79AFD00BF2837BD4680BDB89EFF1FAC9EFF1F2E
:4034000090B585B000AF8F4B1B78DBB2002B00F015818C4B1B78DBB2013BDBB2184600F01DF978607B6808337B607B681B78FB707B685B68BB60844B1B78BB700023FB7303
:40344000F7E0BB681B78BA789A4240F0EC80BB787E4AD35CDAB2BB685B789A4240F0E380BB689B7803F07F037B70BB68DB7803F003033B707A78764913465B0013449B00F3
:403480000B44033300221A707A78BB689878704913465B0013449B000B44043302461A707A78BB68D8786A4913465B0013449B000B4402461A707A78BB68988864491346E5
:4034C0005B0013449B000B44083302461A80BB689B785BB2002B1ADA7A783B78012B01D1072000E00D205A4913465B0013449B000B44053302461A707A78554913465B00F4
:4035000013449B000B44013301221A7019E07A783B78012B01D1052000E009204C4913465B0013449B000B44053302461A707A78474913465B0013449B000B44013300223E
:403540001A70444A7B781B011344023301221A70404879787A783E4C13465B0013449B00234408331B889BB21B0A9BB2DAB20B0103441A70374879787A78354C13465B004C
:4035800013449B00234408331B889BB2DAB20B01034401331A70304879787A782C4C13465B0013449B00234406331B889BB2DAB20B01034406331A70274879787A78244C7D
:4035C00013465B0013449B00234406331B889BB21B0A9BB2DAB20B01034407331A701E4879787A781A4C13465B0013449B00234406331B889BB2DAB20B01034404331A70FB
:40360000154879787A78124C13465B0013449B00234406331B889BB21B0A9BB2DAB20B01034405331A70BB680833BB60FB7B0133FB73FA7BFB789A42FFF403AF00BF14379F
:40364000BD4690BDB39EFF1FA89EFF1F249FFF1FB89EFF1FFC5F00407060004080B485B000AF0346FB710F4B1B78DBB20E4ADB0013445B68FB60FB681033FB60FB681B7841
:40368000FA799A4202D30023FB6005E0FB79DB00FA6813445B68FB60FB6818461437BD4680BC7047919EFF1F386D000080B400AF054B1B78DBB2054ADB0013445B68184674
:4036C000BD4680BC704700BF919EFF1F386D000080B584B000AF104B1B78DBB2013BDBB21846FFF7BBFFB860BB68002B0DD0BB685B681B79FB71FB790233DB00BA68134493
:40370000BB60BB685B68FB6001E00023FB60FB6818461037BD4680BDB39EFF1F80B582B000AF0023FB71344B1B79DBB203F07F03BB71BB79002B5AD0BB79082B57D8BA79DF
:40374000B9792E480B465B000B449B00034402331B78DBB243F00103D8B2284913465B0013449B000B44023302461A70BA79234913465B0013449B000B44033300221A70CB
:40378000BA79B9791D480B465B000B449B00034401331B78DBB243F00203D8B2174913465B0013449B000B44013302461A70BA79124913465B0013449B000B4404331B78A4
:4037C000DBB25BB2002B07DA0D4ABB791B01134402338D221A7006E0094ABB791B011344023389221A70FEF7DDFF0346FB71FB7918460837BD4680BD00600040B89EFF1F82
:40380000FC5F004080B582B000AF0023FB71504B1B79DBB203F07F03BB71BB79002B00F09280BB79082B00F28E80BA79B97949480B465B000B449B00034402331B78DBB2FB
:4038400023F00103D8B2434913465B0013449B000B44023302461A70BA793E4913465B0013449B000B44033300221A703A49BB793948BA79120102441278D2B202F07F0249
:40388000D2B21B010B441A70BA79B97931480B465B000B449B00034401331B78DBB223F00203D8B22B4913465B0013449B000B44013302461A70BA79264913465B001344C2
:4038C0009B000B4404331B78DBB25BB2002B1BDABA79204913465B0013449B000B4401331B78DBB2012B07D11B4ABB791B01134402330C221A7022E0174ABB791B0113446E
:4039000002330D221A701AE0BA79124913465B0013449B000B4401331B78DBB2012B07D10D4ABB791B011344023308221A7006E0094ABB791B011344023309221A70FEF71E
:4039400031FF0346FB71FB7918460837BD4680BD00600040B89EFF1FFC5F004080B584B000AF0023FB73154B1B79BB73144B1B78DBB2013BDBB21846FFF770FEB860BB6852
:403980005B681B79FB71BA7BFB799A4202D9BB7B022B0ED8BB7BBA7B0A498A5CD1B20A4AD154BB7B054A9278D1B2064AD1540123FB73FB7B18461037BD4680BD00600040E7
:4039C000B39EFF1F249FFF1F989EFF1F80B582B000AF0023FB710F4B1B78DBB25BB2002B12DA0C4B5B78DBB2012B00D00CE00A4B0A4A5A60094B1B789AB2074B1A80FEF7CA
:403A0000B5FD0346FB7100BFFB7918460837BD4680BD00BF006000409C9EFF1F546D000080B400AF054B1B78DBB203F040039B09DBB21846BD4680BC704700BF8F450040B6
:403A400080B483B000AF0346FB7101BE00BF0C37BD4680BC704700BF80B582B000AF0346FB80FB88054A127802FB03F3184601F05FF800BF0837BD4680BD00BF0086FF1F95
:403A800080B584B000AF03463960FB710F4B1B68FB60FB791F2B02D90020FFF7D1FFFB7903F01F0310339B00FA6813441B68BB60FB7903F01F0310339B00FA6813443A6869
:403AC0001A60BB6818461037BD4680BD08ED00E080B582B000AF03460A46FB711346BB71BB79072B02D90020FFF7AAFFFB791F2B02D90020FFF7A4FFFB7903F01F0303F100
:403B0000604303F56443BA795201D2B21A7000BF0837BD4680BD00BF80B483B000AF7860264B1B78DBB21A467B681A60244B1B78DBB21B027A6812681A437B681A60214B48
:403B40001B78DBB21B047A6812681A437B681A601D4B1B78DBB21B067A6812681A437B681A607B680433194A1278D2B21A60184B1B78DBB21A027B680433796804310968EC
:403B80000A431A60134B1B78DBB21A047B6804337968043109680A431A600F4B1B78DBB21A067B6804337968043109680A431A6000BF0C37BD4680BC704700BF0301004934
:403BC00004010049EC460040020100490101004900010049050100490601004980B500AF064B1B78002B04D100F00AF8034B01221A7000F065F800BF80BD00BF4A94FF1FCC
:403C000080B582B000AF294A284B1B78DBB243F00203DBB21370264B1B78DBB223F07003FB71234AFB7943F01003DBB21370214A204B1B78DBB223F03003DBB213701D4AB3
:403C40001C4B1B78DBB243F03003DBB21370194A184B1B78DBB223F00F03DBB21370154A144B1B78DBB243F00F03DBB213704FF6FF7000F049F8002000F056F8002000F0A6
:403C800063F80D4A0C4B1B78DBB243F00103DBB213700A4A094B1B78DBB243F00103DBB2137000BF0837BD4680BD00BF004F0040024F00400B4F0040A3430040014F004018
:403CC00080B400AF0D4A0D4B1B78DBB243F00103DBB213700A4A0A4B1B78DBB243F00103DBB21370074A074B1B78DBB243F00103DBB2137000BFBD4680BC7047A3430040D6
:403D0000B3430040004F004080B483B000AF0346FB80044AFB88138000BF0C37BD4680BC704700BF044F004080B483B000AF0346FB80044AFB88138000BF0C37BD4680BCB7
:403D4000704700BF064F004080B483B000AF0346FB71044AFB79137000BF0C37BD4680BC704700BF034F004080B400AF094A094B1B78DBB243F00203DBB21370064A064B4C
:403D80001B78DBB243F00203DBB2137000BFBD4680BC7047A2430040B243004080B500AF064B1B78002B04D100F00AF8034B01221A7000F065F800BF80BD00BF4B94FF1FD2
:403DC00080B582B000AF294A284B1B78DBB243F00203DBB21370264B1B78DBB223F07003FB71234AFB7943F01003DBB21370214A204B1B78DBB223F03003DBB213701D4AF2
:403E00001C4B1B78DBB243F03003DBB21370194A184B1B78DBB223F00F03DBB21370154A144B1B78DBB243F00F03DBB213704FF6FF7000F049F8002000F056F8002000F0E4
:403E400063F80D4A0C4B1B78DBB243F00203DBB213700A4A094B1B78DBB243F00103DBB2137000BF0837BD4680BD00BF0C4F00400E4F0040174F0040A34300400D4F004025
:403E800080B400AF0D4A0D4B1B78DBB243F00203DBB213700A4A0A4B1B78DBB243F00203DBB21370074A074B1B78DBB243F00103DBB2137000BFBD4680BC7047A343004012
:403EC000B34300400C4F004080B483B000AF0346FB80044AFB88138000BF0C37BD4680BC704700BF104F004080B483B000AF0346FB80044AFB88138000BF0C37BD4680BCDE
:403F0000704700BF124F004080B483B000AF0346FB71044AFB79137000BF0C37BD4680BC704700BF0F4F004080B400AF00BFBD4680BC704780B582B000AF0F2000F03EF802
:403F400000F02EF800F0FCFD0346FB71074A074B1B78DBB243F01003DBB21370FB79184600F0F2FD00BF0837BD4680BD9764004080B500AF00F008F94FF4004000F032F9D7
:403F8000064B1B78002B04D1FFF7CEFF034B01221A70FFF7CFFF00BF80BD00BF4C94FF1F80B400AF044B1B78DBB203F00F03DBB21846BD4680BC70476764004080B483B038
:403FC00000AF0346FB71044AFB79137000BF0C37BD4680BC704700BF8764004080B400AF00BFBD4680BC704780B582B000AF0F2000F06AF800F05AF800F0A2FD0346FB7181
:40400000074A074B1B78DBB243F01003DBB21370FB79184600F098FD00BF0837BD4680BD9264004080B500AF00F076F94FF4004000F0A0F9064B1B78002B04D1FFF7CEFFA6
:40404000034B01221A70FFF7CFFF00BF80BD00BF4D94FF1F80B582B000AF00F09BF90346FB80FB88A3F500439BB2BB80B7F9043018460837BD4680BD80B584B000AF034661
:40408000FB80B7F90630002B04DBFB88A3F50043FB8103E0FB88A3F50043FB81FB89184600F068F900BF1037BD4680BD80B400AF044B1B78DBB203F00F03DBB21846BD4640
:4040C00080BC70476264004080B483B000AF0346FB71044AFB79137000BF0C37BD4680BC704700BF8264004080B582B000AF1C4B1B78DBB223F00703FB71194AFB7913705A
:40410000174B1B78DBB223F00303FB71144AFB79137000F0A3F84FF4004000F07FF84FF4004000F05FF8002000F040F800F04EF84FF4004000F082F800F002FD0346BB7115
:40414000084A084B1B78DBB243F01003DBB21370BB79184600F0F8FC00BF0837BD4680BD776500409565004080B400AF054A054B1B78DBB263F07F03DBB2137000BFBD46D1
:4041800080BC70477765004080B500AF064B1B78002B04D1FFF7A8FF034B01221A70FFF7E3FF00BF80BD00BF4E94FF1F80B483B000AF0346FB71044AFB79137000BF0C37EB
:4041C000BD4680BC704700BF8565004080B400AF034B1B78DBB21846BD4680BC704700BF6565004080B483B000AF0346FB80044AFB88138000BF0C37BD4680BC704700BF7D
:40420000086A004080B400AF034B1B889BB21846BD4680BC704700BF886A004080B483B000AF0346FB80044AFB88138000BF0C37BD4680BC704700BF486A004080B483B018
:4042400000AF0346FB80044AFB88138000BF0C37BD4680BC704700BF686A004080B500AF01E0FFF7CFFFFFF7B1FF034603F04003002BF6D100BF80BD80B582B000AF1C4B85
:404280001B78DBB223F00703FB71194AFB791370174B1B78DBB223F00303FB71144AFB79137000F0B3F84FF4004000F08FF84FF4004000F05FF8002000F040F800F04EF8C2
:4042C0004FF4004000F092F800F03AFC0346BB71084A084B1B78DBB243F01003DBB21370BB79184600F030FC00BF0837BD4680BD756400409164004080B400AF054A054B4F
:404300001B78DBB263F07F03DBB2137000BFBD4680BC70477564004080B500AF064B1B78002B04D1FFF7A8FF034B01221A70FFF7E3FF00BF80BD00BF4F94FF1F80B483B04F
:4043400000AF0346FB71044AFB79137000BF0C37BD4680BC704700BF8164004080B400AF034B1B78DBB21846BD4680BC704700BF6164004080B483B000AF0346FB80044A27
:40438000FB88138000BF0C37BD4680BC704700BF0068004080B400AF044B1B78044B1B889BB21846BD4680BC704700BF006400408068004080B400AF034B1B889BB2184626
:4043C000BD4680BC704700BF8068004080B483B000AF0346FB80044AFB88138000BF0C37BD4680BC704700BF4068004080B483B000AF0346FB80044AFB88138000BF0C37C3
:40440000BD4680BC704700BF6068004080B500AF01E0FFF7CFFFFFF7A1FF034603F04003002BF6D100BF80BD80B483B000AF0346FB71044AFB79137000BF0C37BD4680BCE2
:40444000704700BF7964004080B500AF214A214B1B78DBB203F00103DBB213701E4A1E4B1B78DBB223F00303DBB213701B4A1B4B1B78DBB223F03003DBB21370174A174BA9
:404480001B78DBB243F03003DBB21370134A134B1B78DBB223F00F03DBB213700F4A0F4B1B78DBB243F00F03DBB213700C4A0C4B1B78DBB243F00103DBB21370312000F0D9
:4044C00063F8312000F072F8082000F041F800BF80BD00BF184F00401A4F0040234F0040194F004080B400AF0D4A0D4B1B78DBB243F00403DBB213700A4A0A4B1B78DBB23B
:4045000043F00403DBB21370074A074B1B78DBB243F00103DBB2137000BFBD4680BC7047A3430040B3430040184F004080B500AF064B1B78002B04D1FFF786FF034B0122BB
:404540001A70FFF7CFFF00BF80BD00BF5094FF1F80B483B000AF0346FB71044AFB79137000BF0C37BD4680BC704700BF1B4F004080B400AF034B1B78DBB21846BD4680BCD1
:40458000704700BF1B4F004080B485B000AF0346FB80FB88FB81044AFB89138000BF1437BD4680BC704700BF1C4F004080B483B000AF0346FB80044AFB88138000BF0C37F1
:4045C000BD4680BC704700BF1E4F004080B582B000AF786000F03CF8786800F009F8072000F018F800F028F800BF0837BD4680BD80B485B000AF7860054B1B68FB60FB6880
:404600008C337A681A6000BF1437BD4680BC704708ED00E080B483B000AF0346FB71054AFB795B01DBB2137000BF0C37BD4680BC704700BF13E400E080B400AF034B4FF48E
:4046400000221A6000BFBD4680BC704700E100E080B400AF034B4FF400221A6000BFBD4680BC704780E100E080B400AF094A094B1B78DBB243F01003DBB21370064A064B81
:404680001B78DBB243F01003DBB2137000BFBD4680BC7047A2430040B243004080B500AF224A224B1B78DBB203F00103DBB213701F4A1F4B1B78DBB223F00303DBB2137075
:4046C0001C4A1C4B1B78DBB223F03003DBB21370184A184B1B78DBB243F03003DBB21370144A144B1B78DBB223F00F03DBB21370104A104B1B78DBB243F00F03DBB21370E0
:404700000D4A0D4B1B78DBB243F00103DBB2137040F2C93000F064F840F2C93000F072F8082000F041F800BF80BD00BF244F0040264F00402F4F0040254F004080B400AF9E
:404740000D4A0D4B1B78DBB243F00803DBB213700A4A0A4B1B78DBB243F00803DBB21370074A074B1B78DBB243F00103DBB2137000BFBD4680BC7047A3430040B3430040EA
:40478000244F004080B500AF064B1B78002B04D1FFF784FF034B01221A70FFF7CFFF00BF80BD00BF5194FF1F80B483B000AF0346FB71044AFB79137000BF0C37BD4680BC37
:4047C000704700BF274F004080B400AF034B1B78DBB21846BD4680BC704700BF274F004080B485B000AF0346FB80FB88FB81044AFB89138000BF1437BD4680BC704700BF74
:40480000284F004080B483B000AF0346FB80044AFB88138000BF0C37BD4680BC704700BF2A4F004080B582B000AF786000F03CF8786800F009F8072000F018F800F028F8F9
:4048400000BF0837BD4680BD80B485B000AF7860054B1B68FB60FB6890337A681A6000BF1437BD4680BC704708ED00E080B483B000AF0346FB71054AFB795B01DBB213708B
:4048800000BF0C37BD4680BC704700BF14E400E080B400AF034B4FF480121A6000BFBD4680BC704700E100E080B400AF034B4FF480121A6000BFBD4680BC704780E100E0FD
:4048C00080B582B000AF786000F03CF8786800F009F8072000F018F800F028F800BF0837BD4680BD80B485B000AF7860054B1B68FB60FB6840337A681A6000BF1437BD4603
:4049000080BC704708ED00E080B483B000AF0346FB71054AFB795B01DBB2137000BF0C37BD4680BC704700BF00E400E080B400AF034B01221A6000BFBD4680BC704700BFF8
:4049400000E100E080B400AF034B01221A6000BFBD4680BC704700BF80E100E080B582B000AF786000F03CF8786800F009F8072000F018F800F028F800BF0837BD4680BD9B
:4049800080B485B000AF7860054B1B68FB60FB6844337A681A6000BF1437BD4680BC704708ED00E080B483B000AF0346FB71054AFB795B01DBB2137000BF0C37BD4680BC93
:4049C000704700BF01E400E080B400AF034B02221A6000BFBD4680BC704700BF00E100E080B400AF034B02221A6000BFBD4680BC704700BF80E100E080B582B000AF786006
:404A000000F03CF8786800F009F8072000F018F800F028F800BF0837BD4680BD80B485B000AF7860054B1B68FB60FB6848337A681A6000BF1437BD4680BC704708ED00E0DF
:404A400080B483B000AF0346FB71054AFB795B01DBB2137000BF0C37BD4680BC704700BF02E400E080B400AF034B04221A6000BFBD4680BC704700BF00E100E080B400AFD6
:404A8000034B04221A6000BFBD4680BC704700BF80E100E080B582B000AF786000F03CF8786800F009F8072000F018F800F028F800BF0837BD4680BD80B485B000AF78600B
:404AC000054B1B68FB60FB684C337A681A6000BF1437BD4680BC704708ED00E080B483B000AF0346FB71054AFB795B01DBB2137000BF0C37BD4680BC704700BF03E400E0FD
:404B000080B400AF034B08221A6000BFBD4680BC704700BF00E100E080B400AF034B08221A6000BFBD4680BC704700BF80E100E00230800803D000BF01380046FCD1704792
:404B4000EFF3108072B6704780F31088704700BF80B582B000AF0023FB71314B1B79DBB2184600F067F80346BB712D4B1B78DBB25BB2002B15DA2A4B5B78DBB2212B00D04F
:404B800048E0284B07221A80BA791346DB009B1A254A1344234A5360FDF7E8FC0346FB7138E01F4B5B78DBB2202B02D0222B1AD030E01C4B07221A80BA791346DB009B1A7C
:404BC000194A1344174A5360BB79BA7917498A5CD2B242F00102D1B2144AD154FDF744FD0346FB7116E0BB790D4A9278D2B291B20F4A22F81310BB79BA790C498A5CD2B283
:404C000042F00202D1B2094AD154FDF7CBFD0346FB7100BFFB7918460837BD4680BD00BF006000409C9EFF1F0886FF1F2C9FFF1F409FFF1F80B485B000AF0346FB71002389
:404C4000FB73FF23BB7317E0FB7B104AD35C7B737A7B0F4913465B0013449B000B440A331B78DBB2FA799A4203D1FB7BBB730223FB73FB7B0133FB73FB7B012BE4D9BB7BEC
:404C800018461437BD4680BC704700BF349FFF1FB89EFF1F80B485B000AF78600B46FB701346BB707B68DB7803F00303FB737B689B785BB2002B1ADAFB7B032B0AD0BB7891
:404CC00003F001031449FA78CA54BB7843F00103BB701BE0BB789B08DBB203F001030F49FA78CA54BB7843F00403BB700EE0FB7B032B0BD0BB785B08DBB203F0010308498E
:404D0000FA78CA54BB7843F00203BB70BB7818461437BD4680BC7047309FFF1F349FFF1F389FFF1F80B582B000AF0023BB711B4B1B78DBB203F00303012B02D0022B04D0C5
:404D400012E0164B1B79FB7111E0144B1B79DBB203F07F02124913465B0013449B000B440A331B78FB7102E00023FB7100BFFB79022B0ED80B4B1A68FB7913441B78022B55
:404D800004D1FFF7E5FE0346BB7102E00023BB7100BFBB7918460837BD4680BD00600040B89EFF1FAC9EFF1F81F0004102E000BF83F0004330B54FEA41044FEA430594EAE8
:404DC000050F08BF90EA020F1FBF54EA000C55EA020C7FEA645C7FEA655C00F0E2804FEA5454D4EB5555B8BF6D420CDD2C4480EA020281EA030382EA000083EA010180EA46
:404E0000020281EA0303362D88BF30BD11F0004F4FEA01314FF4801C4CEA113102D0404261EB410113F0004F4FEA03334CEA133302D0524263EB430394EA050F00F0A78092
:404E4000A4F10104D5F1200E0DDB02FA0EFC22FA05F2801841F1000103FA0EF2801843FA05F359410EE0A5F120050EF1200E012A03FA0EFC28BF4CF0020C43FA05F3C0182E
:404E800051EBE37101F0004507D54FF0000EDCF1000C7EEB00006EEB0101B1F5801F1BD3B1F5001F0CD349085FEA30004FEA3C0C04F101044FEA445212F5800F80F09A805B
:404EC000BCF1004F08BF5FEA500C50F1000041EB045141EA050130BD5FEA4C0C404141EB010111F4801FA4F10104E9D191F0000F04BF01460020B1FA81F308BF2033A3F19B
:404F00000B03B3F120020CDA0C3208DD02F1140CC2F10C0201FA0CF021FA02F10CE002F11402D8BFC2F1200C01FA02F120FA0CFCDCBF41EA0C019040E41AA2BF01EB0451FD
:404F4000294330BD6FEA04041F3C1CDA0C340EDC04F11404C4F1200220FA04F001FA02F340EA030021FA04F345EA030130BDC4F10C04C4F1200220FA02F001FA04F340EAF7
:404F80000300294630BD21FA04F0294630BD94F0000F83F4801306BF81F480110134013D4EE77FEA645C18BF7FEA655C29D094EA050F08BF90EA020F05D054EA000C04BF2E
:404FC0001946104630BD91EA030F1EBF0021002030BD5FEA545C05D14000494128BF41F0004130BD14F580043CBF01F5801130BD01F0004545F0FE4141F470014FF000000D
:4050000030BD7FEA645C1ABF194610467FEA655C1CBF0B46024650EA013406BF52EA033591EA030F41F4002130BD00BF90F0000F04BF0021704730B54FF4806404F1320496
:405040004FF000054FF0000150E700BF90F0000F04BF0021704730B54FF4806404F1320410F0004548BF40424FF000013EE700BF42004FEAE2014FEA31014FEA02701FBF11
:4050800012F07F4393F07F4F81F06051704792F0000F14BF93F07F4F704730B54FF4607401F0004521F0004120E700BF50EA010208BF704730B54FF000050AE050EA010241
:4050C00008BF704730B511F0004502D5404261EB41014FF4806404F132045FEA915C3FF4DCAE4FF003025FEADC0C18BF03325FEADC0C18BF033202EBDC02C2F1200300FA82
:4051000003FC20FA02F001FA03FE40EA0E0021FA02F11444C1E600BF70B54FF0FF0C4CF4E06C1CEA11541DBF1CEA135594EA0C0F95EA0C0F00F0DEF82C4481EA030621EACC
:405140004C5123EA4C5350EA013518BF52EA033541F4801143F4801338D0A0FB02CE4FF00005E1FB02E506F00042E0FB03E54FF00006E1FB03569CF0000F18BF4EF0010EED
:40518000A4F1FF04B6F5007F64F5407404D25FEA4E0E6D4146EB060642EAC62141EA55514FEAC52040EA5E504FEACE2EB4F1FD0C88BFBCF5E06F1ED8BEF1004F08BF5FEAB2
:4051C000500E50F1000041EB045170BD06F0004646EA010140EA020081EA0301B4EB5C04C2BFD4EB0C0541EA045170BD41F480114FF0000E013C00F3AB8014F1360FDEBF07
:40520000002001F0004170BDC4F10004203C35DA0C341BDC04F11404C4F1200500FA05F320FA04F001FA05F240EA020001F0004221F0004110EBD37021FA04F642EB060183
:405240005EEA430E08BF20EAD37070BDC4F10C04C4F1200500FA04F320FA05F001FA04F240EA020001F0004110EBD37041F100015EEA430E08BF20EAD37070BDC4F1200541
:4052800000FA05F24EEA020E20FA04F301FA05F243EA020321FA04F001F0004121FA04F220EA020000EBD3705EEA430E08BF20EAD37070BD94F0000F0FD101F00046400030
:4052C00041EB010111F4801F08BF013CF7D041EA060195F0000F18BF704703F00046520043EB030313F4801F08BF013DF7D043EA0603704794EA0C0F0CEA135518BF95EA52
:405300000C0F0CD050EA410618BF52EA4306D1D181EA030101F000414FF0000070BD50EA410606BF1046194652EA430619D094EA0C0F02D150EA013613D195EA0C0F05D150
:4053400052EA03361CBF104619460AD181EA030101F0004141F0FE4141F470014FF0000070BD41F0FE4141F4780170BD70B54FF0FF0C4CF4E06C1CEA11541DBF1CEA13552F
:4053800094EA0C0F95EA0C0F00F0A7F8A4EB050481EA030E52EA03354FEA013100F088804FEA03334FF0805545EA131343EA12634FEA022245EA111545EA10654FEA002611
:4053C0000EF000419D4208BF964244F1FD0404F5407402D25B084FEA3202B61A65EB03055B084FEA32024FF480104FF4002CB6EB020E75EB030E22BFB61A754640EA0C006B
:405400005B084FEA3202B6EB020E75EB030E22BFB61A754640EA5C005B084FEA3202B6EB020E75EB030E22BFB61A754640EA9C005B084FEA3202B6EB020E75EB030E22BF91
:40544000B61A754640EADC0055EA060E18D04FEA051545EA16754FEA06164FEAC30343EA52734FEAC2025FEA1C1CC0D111F4801F0BD141EA00014FF000004FF0004CB6E7EB
:4054800011F4801F04BF01430020B4F1FD0C88BFBCF5E06F3FF6AFAEB5EB030C04BFB6EB020C5FEA500C50F1000041EB045170BD0EF0004E4EEA113114EB5C04C2BFD4EB80
:4054C0000C0541EA045170BD41F480114FF0000E013C90E645EA060E8DE60CEA135594EA0C0F08BF95EA0C0F3FF43BAF94EA0C0F0AD150EA01347FF434AF95EA0C0F7FF4B7
:4055000025AF104619462CE795EA0C0F06D152EA03353FF4FDAE1046194622E750EA410618BF52EA43067FF4C5AE50EA41047FF40DAF52EA43057FF4EBAE12E74A0011D227
:4055400012F5001211D20DD56FF47873B3EB62520ED44FEAC12343F0004343EA505323FA02F070474FF00000704750EA013002D14FF0FF3070474FF0000070474FEA4102D7
:40558000B2F1E04324BFB3F5001CDCF1FE5C0DD901F0004C4FEAC0024CEA5070B2F1004F40EB830008BF20F00100704711F0804F21D113F13872BCBF01F00040704741F40C
:4055C00080114FEA5252C2F11802C2F1200C10FA0CF320FA02F018BF40F001004FEAC1234FEAD32303FA0CFC40EA0C0023FA02F34FEA4303CCE77FEA625307D150EA013345
:405600001EBF4FF0FE4040F44000704701F0004040F0FE4040F40000704700BF80F0004002E000BF81F0004142001FBF5FEA410392EA030F7FEA226C7FEA236C6AD04FEAFC
:405640001262D2EB1363C1BFD218414048404140B8BF5B42192B88BF704710F0004F40F4000020F07F4018BF404211F0004F41F4000121F07F4118BF494292EA030F3FD038
:40568000A2F1010241FA03FC10EB0C00C3F1200301FA03F100F0004302D5494260EB4000B0F5000F13D3B0F1807F06D340084FEA310102F10102FE2A51D2B1F1004F40EB0A
:4056C000C25008BF20F0010040EA03007047490040EB000010F4000FA2F10102EDD1B0FA80FCACF1080CB2EB0C0200FA0CF0AABF00EBC25052421843BCBFD0401843704797
:4057000092F0000F81F4000106BF80F400000132013BB5E74FEA41037FEA226C18BF7FEA236C21D092EA030F04D092F0000F08BF0846704790EA010F1CBF0020704712F0ED
:405740007F4F04D1400028BF40F00040704712F100723CBF00F50000704700F0004343F0FE4040F4000070477FEA226216BF08467FEA23630146420206BF5FEA412390EA17
:40578000010F40F4800070474FF0000304E000BF10F0004348BF40425FEA000C08BF704743F0964301464FF000001CE050EA010208BF70474FF000030AE000BF50EA010279
:4057C00008BF704711F0004302D5404261EB41015FEA010C02BF84460146002043F0B64308BFA3F18053A3F50003BCFA8CF2083AA3EBC25310DB01FA02FC634400FA02FC27
:40580000C2F12002BCF1004F20FA02F243EB020008BF20F00100704702F1200201FA02FCC2F1200250EA4C0021FA02F243EB020008BF20EADC7070474FF0FF0C1CEAD052DC
:405840001EBF1CEAD15392EA0C0F93EA0C0F6FD01A4480EA010C400218BF5FEA41211ED04FF0006343EA501043EA5111A0FB01310CF00040B1F5000F3EBF490041EAD371FB
:405880005B0040EA010062F17F02FD2A1DD8B3F1004F40EBC25008BF20F00100704790F0000F0CF0004C08BF49024CEA502040EA51207F3AC2BFD2F1FF0340EAC250704797
:4058C00040F400004FF00003013A5DDC12F1190FDCBF00F000407047C2F10002410021FA02F1C2F1200200FA02FC5FEA310040F1000053EA4C0308BF20EADC70704792F0B3
:40590000000F00F0004C02BF400010F4000F013AF9D040EA0C0093F0000F01F0004C02BF490011F4000F013BF9D041EA0C018FE70CEAD15392EA0C0F18BF93EA0C0F0AD034
:4059400030F0004C18BF31F0004CD8D180EA010000F00040704790F0000F17BF90F0004F084691F0000F91F0004F14D092EA0C0F01D142020FD193EA0C0F03D14B0218BF99
:40598000084608D180EA010000F0004040F0FE4040F40000704740F0FE4040F4400070474FF0FF0C1CEAD0521EBF1CEAD15392EA0C0F93EA0C0F69D0A2EB030280EA010C49
:4059C00049024FEA402037D04FF0805343EA111143EA10130CF000408B4238BF5B0042F17D024FF4000C8B4224BF5B1A40EA0C00B3EB510F24BFA3EB510340EA5C00B3EB6D
:405A0000910F24BFA3EB910340EA9C00B3EBD10F24BFA3EBD10340EADC001B0118BF5FEA1C1CE0D1FD2A3FF650AF8B4240EBC25008BF20F0010070470CF0004C4CEA50202B
:405A40007F32C2BFD2F1FF0340EAC250704740F400004FF00003013A37E792F0000F00F0004C02BF400010F4000F013AF9D040EA0C0093F0000F01F0004C02BF490011F474
:405A8000000F013BF9D041EA0C0195E70CEAD15392EA0C0F08D142027FF47DAF93EA0C0F7FF470AF084676E793EA0C0F04D14B023FF44CAF08466EE730F0004C18BF31F0ED
:405AC000004CCAD130F000427FF45CAF31F000437FF43CAF5FE700BF4FEA4002B2F1FE4F0FD34FF09E03B3EB12620DD94FEA002343F0004310F0004F23FA02F018BF40426A
:405B000070474FF00000704712F1610F01D1420205D110F0004008BF6FF0004070474FF00000704742000ED2B2F1FE4F0BD34FF09E03B3EB126209D44FEA002343F0004375
:405B400023FA02F070474FF00000704712F1610F01D1420202D14FF0FF3070474FF00000704700BF014B1868704700BF8486FF1F0E4B70B51E460E4C0025E41AA410A542CF
:405B800004D056F8253098470135F8E701F044F9084B094C1E46E41AA4100025A54204D056F8253098470135F8E770BD246E0000246E0000246E00002C6E0000024B014606
:405BC000186800F063B800BF8486FF1F10B5431E0A44914204D011F8014B03F8014FF8E710BD03460244934202D003F8011BFAE77047000038B50546002944D051F8043CE9
:405C00000C1F002BB8BFE41800F0C4FB1E4A1368114613B96360146030E0A3420DD92268A018834201BF18685B681218226063600C6023E0A24203D813465A68002AF9D11E
:405C400018681918A1420BD12168014458188242196013D110685268014419605A600DE002D90C232B6009E021686018824201BF106852680918216062605C602846BDE856
:405C8000384000F088BB38BD5894FF1F70B5CD1C25F0030508350C2D38BF0C25002D064601DBA94202D90C23336046E000F072FB234B1C681A462146A1B10B685B1B0ED43B
:405CC0000B2B03D90B60CC18CD501EE08C420BBF63684B681360636018BF0C4615E00C464968E9E7174C23681BB9304600F0A6F820602946304600F0A1F8431C18D0C41C10
:405D000024F00304A0420DD12560304600F043FB04F10B00231D20F00700C31A0ED05A42E25070BD211A304600F088F80130EBD10C233360304600F02EFB002070BD00BFE7
:405D40005894FF1F5494FF1F0FB40A4B13B51C6824B1A36913B9204600F032FA05AB049AA1682046019300F03FFB02B0BDE8104004B070478486FF1F70B50E46054618B13E
:405D800083690BB900F01CFAAB69AC6813B9284600F016FA224B9C4201D16C6808E0214B9C4201D1AC6803E01F4B9C4208BFEC68A3891B0701D523693BB92146284600F013
:405DC000A1F810B14FF0FF3070BD013EA36816F8011F013BA36091B1002B04DAA269934206DB0A2904D023685A1C22601970EDE72246284600F032F80130E7D1E2E7002B37
:405E000008DA22460A21284600F028F80130D9D00A2070BD23680A205A1C2260187070BD846D0000A46D0000C46D0000024B01461868FFF7A1BF00BF8486FF1F38B5064C19
:405E40000023054608462360FCF75AF9431C02D1236803B12B6038BD689FFF1FF8B50F461446064618B183690BB900F0A9F9224B9C4201D1746808E0204B9C4201D1B468BC
:405E800003E01F4B9C4208BFF468A369A360A3891A0709D523693BB123682069FDB2181A636998420FDB08E02146304600F02AF80028F1D04FF0FF30F8BD2146304600F0AD
:405EC00015F90028F6D1A368013BA36023685A1C22601F706269431C934204D0A389DB0707D50A2D05D12146304600F0FFF80028E0D12846F8BD00BF846D0000A46D0000FE
:405F0000C46D0000324B70B51D6806460C4625B1AB6913B9284600F053F92E4B9C4201D16C6808E02C4B9C4201D1AC6803E02B4B9C4208BFEC68B4F90C309AB215071DD457
:405F4000D00602D4092232603AE0510712D5616B41B104F14403994202D03046FFF74AFE00236363A38923F02403A3810023636023692360A38943F00803A38123694BB97E
:405F8000A38903F42073B3F5007F03D02146304600F0C4F9A28912F0010305D00023A36063695B42A36103E0920758BF6369A36023695BB9B4F90C3003F0800080B230B19D
:405FC00043F04003A3814FF0FF3070BD002070BD8486FF1F846D0000A46D0000C46D00008A892DE9F041054610070C4659D44B68002B02DC0B6C002B17DDE66AAEB102F492
:406000008052002392B22F682B600AB1606D15E0216A01232846B047411C0FD12B686BB11D2B01D0162B03D12F600020BDE8F081A38943F04003A381BDE8F081A3895A072C
:4060400005D56368C01A636B0BB1236CC01A00230246E66A216A2846B047431CA38906D129681D2939D8204ACA40D60735D5002262602269D904226004D5421C01D12B68F4
:4060800003B96065616B2F600029CED004F14403994202D02846FFF7ADFD00206063BDE8F0810F69002FC0D093070E680CBF4B690023C7EB06080F608B6002E00744C0EB72
:4060C0000808B8F1000FB0DD43463A46216A2846A66AB0470028F1DCA38943F04003A3814FF0FF30BDE8F0810100402038B50B6905460C46DBB118B183690BB900F060F857
:406100000C4B9C4201D16C6808E00B4B9C4201D1AC6803E0094B9C4208BFEC68B4F90C302BB121462846BDE83840FFF759BF002038BD00BF846D0000A46D0000C46D000086
:40614000014900F0A9B800BFED60000010B50446002303604360836081814366C281036143618361194608225C30FFF73AFD054B24626362044BA362044BE362044B2363E9
:4061800010BD00BF596900007B690000B3690000D769000070B568234D1E5D430E4605F17401FFF773FD044640B1002180E842000C30A06005F16802FFF713FD204670BD36
:4061C000836910B5044633BB8364C3640365124B124A1B688262984204BF0123836100F01FF86060204600F01BF8A060204600F017F80022E06004216068FFF7A7FF0122D8
:406200000921A068FFF7A2FF02221221E068FFF79DFF0123A36110BD806D000041610000F8B51C4B07461E68B36913B93046FFF7C7FF4836B4687368013B04D4B4F90C504D
:406240007DB16834F8E733680BB13668F2E704213846FFF79FFF30600028F6D10C233B60F8BD4FF6FF73E3810123A38165662560A560656025616561A5610822294604F115
:406280005C00FFF7AEFC6563A563A564E5642046F8BD00BF806D00002DE9F8438046894600F14804002694B1A5686768013F0CD4AB89012B07D9B5F90E30013303D02946CD
:4062C0004046C84706436835F0E72468EBE73046BDE8F88370B50E46B1F90E1090B0002914461D4606DA00232B60B3891A060ED540230EE001AA00F095FB0028F3DB029A16
:4063000002F47042A2F500535A425A412A604FF480630020236010B070BD00008B8973B59E0705460C4610D401AB6A46FFF7D2FF009906462846FFF7A9FC68B9B4F90C30D7
:406340009A0522D443F00203A38104F14703236023610123636118E00D4BAB62A389206043F08003A381009B20616361019B4BB1B4F90E10284600F067FB18B1A38943F0F0
:406380000103A381A0893043A08102B070BD00BF4161000070477047936810B4013B002B936008DA9469A34202DBCBB20A2B02D110BCFFF753BD1368581C10601970C8B2D7
:4063C00010BC7047F8B506460F461446D518AC4208D03A4614F8011B3046FFF7DDFF431CF5D100E00020F8BD2DE9F04F9DB00C4617460393064618B183690BB9FFF7E0FE75
:406400007F4B9C4201D1746808E07E4B9C4201D1B46803E07C4B9C4208BFF468A38918070CD5236953B10023099320238DF8293030238DF82A30DFF8D4B144E021463046B3
:40644000FFF760FD0028EED04FF0FF30D5E0039A111D12680391002A80F28C80524243F002000792049098F800302E2B00F08480032298F80010654800F008FB48B140237B
:40648000CBEB000003FA00F0049B08F101081843049098F8001006225D4808F101078DF8281000F0F3FA002800F09580594B002B40F08880039B073323F0070308330393A7
:4064C000099B53440993B846454615F8013B1BB9B8EB07090FD003E0252BF9D0A846F3E74B463A4621463046FFF76CFF01307FD0099B4B44099398F80030002B78D00023D5
:406500004FF0FF3204930793059206938DF853301A930127052229783F4800F0B7FA05F10108049B38B13C4A4546801A07FA00F018430490EEE7D90644BF20228DF85320BA
:406540001A0744BF2B228DF853202A782A2A3FF47EAF079A00210A20A84698F800300135303B092B03D800FB02320121F4E700293FF479AF079276E798F801302A2B0BD17A
:40658000039B08F102081A1D1B680392002BB8BF4FF0FF3305936BE700231946059308F101000A25804698F800200130303A092A03D805FB01210123F4E7002B3FF458AF06
:4065C000059155E703AB00932246144B04A93046AFF3008007E003AB009322460F4B04A9304600F093F8B0F1FF3F82467FF468AFA3895B063FF528AF09981DB0BDE8F08F99
:40660000846D0000A46D0000C46D0000EA6D0000EE6D000000000000E46D0000C56300002DE9F04791461F460A698B6806469342B8BF1346C9F8003091F843200C46DDF818
:40664000208012B10133C9F800302368990642BFD9F800300233C9F80030256815F0060510D104F1190A07E00123524639463046C04701301AD00135E368D9F800209B1AC9
:406680009D42F1DB94F843302268003318BF012392060FD5E118302081F843005A1C94F845102244023382F8431003E04FF0FF30BDE8F08704F1430239463046C047013064
:4066C000F4D02268D9F80050E36802F00602042A08BF5D1B2269A3680CBF25EAE57500259342C4BF9B1AED184FF000091A344D4509D00123224639463046C0470130D5D019
:4067000009F10109F3E70020BDE8F0872DE9F04317460A7E85B06E2A984606460C460C9B01F1430E00F0AE8011D8632A22D009D8002A00F0BB80582A40F0CA8081F8452048
:40674000834955E0642A1ED0692A1CD0C0E0732A00F0B08009D86F2A2ED0702A40F0B8800A6842F020020A603EE0752A24D0782A3AD0ADE01A6801F14205111D196013684F
:4067800084F84230A8E021681A6811F0800F02D0111D196008E011F0400F02F10401196002D0B2F9003000E01368002B3CDA2D225B4284F8432037E021681A6811F0800FE0
:4067C00002D0111D196007E011F0400F02F10401196001D0138800E01368227E5C496F2A14BF0A2208221BE078225A4984F845202268186812F0800F00F104051D6003D1AB
:40680000550601D5038800E00368D00744BF42F0200222601BB9226822F0200222601022002084F8430001E049490A226568002DA56008DB206820F0040020602BB9002DCE
:406840007DD175460CE0002B79D07546B3FBF2F002FB1033CB5C05F8013D03460028F5D1082A0BD12368DA0708D5236962689A42DEBF302305F8013C05F1FF35C5EB0E03ED
:4068800023612EE008681A6810F0800F496903D0101D1860136808E010F0400F02F104001860136801D0198000E0196000232361754616E01A68111D196015680021626853
:4068C000284600F0E3F808B1401B6060636804E004F1420584F8422001232361002384F84330CDF800803B4603AA21463046FFF797FE013002D14FF0FF3026E023692A46B9
:4069000039463046C0470130F5D023689B0710D5002504F1190907E001234A4639463046C0470130E7D00135E368039A9B1A9D42F2DBE068039B9842B8BF184605E00B781C
:4069400004F1420584F842308AE705B0BDE8F083F56D0000066E000010B50C46B1F90E1000F0A2F80028ABBF636DA3891B1823F48053ACBF6365A38110BD2DE9F0411F46F5
:406980008B890546DB050C46164605D502230022B1F90E1000F068F8A389324623F48053A381B4F90E103B462846BDE8F04100F017B810B50C46B1F90E1000F055F8431C35
:4069C000A38915BF606523F4805343F48053A38118BFA38110BDB1F90E1000F013B8000038B5074C054608461146002222601A4600F094F8431C02D1236803B12B6038BDCE
:406A0000689FFF1F38B5064C002305460846236000F05CF8431C02D1236803B12B6038BD689FFF1F38B5074C0023054608461146236000F053F8431C02D1236803B12B604C
:406A400038BD00BF689FFF1F38B5064C002305460846236000F04AF8431C02D1236803B12B6038BD689FFF1F38B5074C054608461146002222601A4600F040F8431C02D1E9
:406A8000236803B12B6038BD689FFF1F10B5C9B202449042034605D01C7801308C42F8D1184610BD002010BD38B5074C054608461146002222601A4600F028F8431C02D192
:406AC000236803B12B6038BD689FFF1F024B58221A604FF0FF307047689FFF1F024B58221A604FF0FF307047689FFF1F024B58221A600020704700BF689FFF1F024B5822D9
:406B00001A604FF0FF307047689FFF1F024B58221A604FF0FF307047689FFF1F024B58221A604FF0FF307047689FFF1F000000002564000053746F70206174207461726789
:406B4000657400005269676874205475726E00004C656674205475726E000000466F727761726420756E74696C2074617267657400000000466F72776172643B2069676EEB
:406B80006F72652025644C2C2069676E6F7265202564520A00000000552D7475726E0000004F0040300040510040300000000140001000140140000800400140000A004C35
:406BC00001400002005001402000000030313233343536373839414243444546000000001201000202000008B40432F2010001028001000009024300020101C0320904002E
:406C0000000102020103052400100104240202052406000105240100010705810308000A09040100020A000004070582024000000705030240000000040309042C03430023
:406C40007900700072006500730073002000530065006D00690063006F006E0064007500630074006F007200100355005300420055004100520054003803430044004300B1
:406C8000200043006F006D006D0075006E00690063006100740069006F006E00200049006E0074006500720066006100630065002603430044004300200044006100740081
:406CC0006100200049006E00740065007200660061006300650000000203000000008103080002000100820240000A000100030240000A00020A000001000000F46B000064
:406D000003000000DC6C00000000000000000000000000000000000000000000F46C000001000000E06B0000000000000000000001000000F86C000001000000206D000069
:406D400012034D0053004600540031003000300001000000280000000001040001000000000000000001435955534200000030303030310000000000000000004300000049
:406D80002486FF1F0000000000000000000000000000000000000000000000000000000000000000000000000000000000000000000000000000000000000000000000000B
:406DC000000000000000000000000000000000000000000000000000000000000000000000000000232D302B2000686C4C0065666745464700303132333435363738394156
:406E0000424344454600303132333435363738396162636465660000F8B500BFF8BC08BC9E4670474D000000E9210000F8B500BFF8BC08BC9E46704729000000506E000060
:406E4000C880FF1FC0050000E818000000000000000000000A000000435333303120323031360A0D00000000000000000000000000000000000000000000000000000000B3
:406E8000000000000000000000000000000000000000000000000000030000000000FF420000A04201010000010000000100000001000000010000000100000001000000A4
:406EC0000100000001000000010000000100000001000000010000000100000001000000010000000100000001000000010000000100000001000000010000000000000083
:406F00000100000000000000000000000000000000000000000000000000000000000000000000000000000000000000000000000000000000000000000000000000000050
:406F40000100000001000000000000000100000000000000010000000100000001000000010000000100000000000000010000000100000001000000000000000100000005
:406F800001000000010000000000000001000000010000000000000000000000000000000100000000000000000000000000000001000000000000000000000000000000CB
:406FC0000000000000000000000000000000000001000000000000000100000001000000010000000100000000000000010000000000000001000000000000000100000089
:407000000100000001000000000000000100000000000000010000000100000001000000000000000100000001000000000000000000000000000000010000000000000047
:40704000010000000000000000000000000000000100000000000000010000000000000000000000000000000000000000000000010000000100000000000000010000000A
:4070800001000000010000000000000001000000000000000100000000000000010000000000000001000000000000000100000001000000010000000000000001000000C6
:4070C0000100000000000000010000000000000001000000000000000000000000000000010000000000000001000000000000000100000000000000010000000000000089
:407100000000000000000000010000000100000000000000010000000000000001000000000000000100000001000000010000000000000001000000000000000100000046
:407140000000000001000000000000000100000001000000010000000100000000000000000000000000000001000000000000000100000000000000000000000000000008
:4071800001000000000000000000000000000000010000000000000000000000000000000100000001000000010000000100000000000000010000000000000001000000C7
:4071C0000100000001000000010000000100000001000000010000000100000001000000010000000100000000000000010000000100000000000000000000000000000083
:40720000000000000000000000000000000000000000000000000000000000000000000000000000000000000000000000000000000000000000000001000000010000004C
