:400000000080002011000000A5280000A528000080B500AF024A034B1B68136002F074FCBC760040FA46004010B5054C237833B9044B13B10448AFF300800123237010BD0B
:400040006086FF1F00000000184A0000084B10B51BB108490848AFF300800848036803B910BD074B002BFBD0BDE81040184700BF000000006486FF1F184A0000C880FF1F04
:40008000000000000000000090B583B000AF344B01221A6002F034FF03461A46314B1A60314B1B78002B13D02F4B1B78082B0FD02D4B1B78072B0BD02B4B1B78032B07D0D7
:4000C000294B1B78042B03D0274B1B78092B34D1244B1B68002B30D0224B1B68002BB8BF5B42184603F0DEFD19A3D3E9002303F03FFE03460C461846214617A3D3E900237D
:4001000003F036FE03460C46184621464FF00002164B03F057FF03460C461846214604F059F803467B60124B1B687968184604F0A7F803461A460E4B1A60002002F0F2FE54
:4001400002F0C6FE03F06AF900BF0C37BD4690BD182D4454FB2109400000000000205040A486FF1FA086FF1FE0B3FF1F00806C409C86FF1F80B400AF034B01221A7000BFE9
:40018000BD4680BC704700BFE1B4FF1F80B400AF034B01221A7000BFBD4680BC704700BFB1B4FF1F80B400AF034B01221A7000BFBD4680BC704700BFC8B4FF1F80B400AF33
:4001C000034B01221A7000BFBD4680BC704700BF9486FF1F80B500AF174B1B78052B05D1164B1B680133154A136002E0134B00221A60114B1B78002B0BD00F4B1B78032BA3
:4002000007D00D4B1B78042B03D00B4B1B78082B06D10B4B1B8801339AB2094B1A8002E0074B00221A8000F0E5FD00F0B7F803F021FA00BF80BD00BFE0B3FF1FAC86FF1F75
:40024000B086FF1FB0B586B000AF62B600F0A6F800F036FE2B4B1B781A4601232A492B4801F0D8FF02462A4B1A6001F0C7FF03461A46284B1A60284C3B46184600F0E6FC32
:4002800025463C460FCC0FC523682B60204B1968224B1A6813469B0013449B000B445B68DAB21F4B1A701A4B19681C4B1A6813469B0013449B000B449B68DAB2194B1A70B8
:4002C000194803F0D9F8194803F002FA184803F04DFA184803F098FA174803F0E3FA174803F02EFB03F0A4F9154B1B68012BFBD1134B00221A60134B1B689BB2184600F07F
:4003000023F8F1E7C886FF1F9C85FF1F2081FF1FE4B3FF1F68B4FF1FCCB4FF1F9086FF1FBA86FF1FBB86FF1F89000000D5010000750100008D010000A5010000BD0100001B
:40034000A486FF1FA086FF1F90B585B000AF0346FB80FB88184603F0A5FC4FF000020D4B03F030FE03460C461846214603F032FF0346FB600849F86804F08AF803461846DF
:4003800004F04CFA03467B81B7F90A3018461437BD4690BD00804C400000704180B400AF074B00221A70074B00221A70064B00221A70064B00221A7000BFBD4680BC704790
:4003C000E1B4FF1FB1B4FF1FC8B4FF1F9486FF1F80B400AF1C4B1B78002B0FD11B4B1B78002B0BD11A4B1B78032B01D0032326E0174B1B78042B01D0042320E0124B1B78DE
:40040000002B0FD0114B1B78002B0BD0104B1B78032B01D0032312E00D4B1B78042B01D004230CE0084B1B78002B01D0042306E0064B1B78002B01D0032300E0052318465F
:40044000BD4680BC704700BFC8B4FF1F9486FF1F8E86FF1F80B400AF184B1B78DBB2002B06D1164B01221A70154B1A78154B1A70154B1B78002B0FD0144B1B78002B0BD07C
:40048000104B1B78022B01D0022312E00D4B1B78012B01D001230CE00B4B1B78002B01D0012306E0094B1B78002B01D0022300E005231846BD4680BC704700BFB986FF1FD2
:4004C000E0B3FF1F1E81FF1FC8B4FF1F9486FF1FB0B58AB000AFA14B1B7C002B03D09F4B1B7C012B03D19E4B1B687B6202E09D4B1B687B62994B1B7887F8233097F82330CE
:40050000052B00F2428301A252F823F0250500002F060000AD070000F90A0000D9080000EB090000904B1B78052B08D18F4B1B68192B01D8052329E38C4B64221A608C4B16
:400540001B78002B02D08B4B01221A708A4B1B78002B02D0894B01221A70864B1B78DBB2002B2DD0824B1B78002B29D1814B00221A70834B1B78DBB2002B0CD0814B1B7818
:40058000DBB2002B07D07F4B1B78DBB2013BDAB27C4B1A7014E07A4B1B78DBB2002B03D100F020FB0523F1E2754B1B78DBB2002B06D0734B1B78DBB2013BDAB2704B1A70FF
:4005C0006E4B1B78DBB2002B2DD06B4B1B78002B29D16A4B00221A706B4B1B78DBB2002B0CD06A4B1B78DBB2002B07D0674B1B78DBB2013BDAB2654B1A7014E0624B1B786F
:40060000DBB2002B03D100F0EDFA0523BEE25E4B1B78DBB2002B06D05B4B1B78DBB2013BDAB2594B1A70FFF7D3FE0346AEE2584B1B78002B08D14E4B1B78002B04D1544B64
:4006400001221A700523A1E2524B1B78DBB2002B31D0474B1B78002B0BD14F4B1B78002B07D14E4B1B78002B03D1FFF7B1FE03468CE2494B1B78002B03D1484B1B78002BDF
:4006800003D0FFF7E7FE034680E2454B1B880A2B03D8FFF79DFE034678E2414B64221A80334B1B78002B06D03A4B00221A7000F099FA05236AE22C4B1B78052B09D12B4BFA
:4006C0001B68192B01D8052360E2FFF781FE03465CE2254B1B78022B32D1324B1B78DBB2002B0ED0224B1B78002B0AD02A4B1B78002B06D0294B1B78002B02D0294B002273
:400700001A70284B1B78DBB2002B17D1184B1B78002B13D1204B1B78002B03D01F4B1B78002B0BD11B4B01221A70194B00221A701D4B4FF000021A60082327E2022325E2DE
:400740000B4B1B78002B04D1164B01221A7002231CE2FFF73DFE034618E200BFCCB4FF1F1881FF1F1481FF1FE0B3FF1FAC86FF1FE1B4FF1FB786FF1FB1B4FF1FB886FF1F36
:40078000BA86FF1FD386FF1FBB86FF1FD486FF1FD286FF1FB386FF1FC8B4FF1F9486FF1FB086FF1FB286FF1F9C86FF1F9E4B1B78002B08D19D4B1B78002B04D19A4B012201
:4007C0001A700523E2E19A4B1B78DBB2002B34D0964B1B78002B0BD1964B1B78002B07D1954B1B78002B03D1FFF7F2FD0346CDE1904B1B78002B03D18F4B1B78002B03D038
:40080000FFF728FE0346C1E18C4B1B88092B03D8FFF7DEFD0346B9E1884B64221A80834B1B78002B09D0804B00221A70804B00221A7000F0D7F90523A8E1814B1B78052B2E
:4008400009D1804B1B68192B01D805239EE1FFF7BFFD03469AE17A4B1B78012B2FD17A4B1B78DBB2002B0ED0704B1B78002B0AD0704B1B78002B06D06F4B1B78002B02D0B8
:40088000714B00221A70704B1B78DBB2002B14D1664B1B78002B10D1664B1B78002B03D0654B1B78002B08D1614B01221A70674B4FF000021A60082368E1012366E15B4BC1
:4008C0001B78002B04D1604B01221A7001235DE1FFF77EFD034659E15D4B1B78DBB2002B11D15B4B01221A705A4BDB68FB61F86903F07AFD0346796A184603F0C9FD0346F4
:400900001A46554B1A60554B1B78002B02D0544B01221A70454B1B78002B02D0514B01221A704F4B1B78DBB2002B13D0494B5B68002B0FD1494B1B78002B0BD1484B00224B
:400940001A70494B1B78DBB20133DAB2464B1A7009231BE1434B1B78DBB2002B13D03D4B9B68002B0FD1314B1B78002B0BD13D4B00221A703D4B1B78DBB20133DAB23B4BAC
:400980001A70092302E1314B1A68334B1B681946104603F02FFF0346002B0BD02D4B5B68002B07DD2B4B9B68002B03DD00F01AF90523EBE0254B1A68274B1B68194610461A
:4009C00003F018FF0346002B07D1224B5B68002B03D0204B9B68002B03D100F003F90523D4E0FFF7F5FC0346D0E0184B4FF000021A60174B00221A70174B4FF000021A6015
:400A00000F4B1B78052B08D10E4B1B68642B01D80523BBE00B4BFA221A60154B1B78042B28D10523B2E000BFD286FF1FB1B4FF1FB386FF1FC8B4FF1F9486FF1FB086FF1FC3
:400A4000E0B3FF1FAC86FF1FB286FF1F9C86FF1FB486FF1FCCB4FF1FCC86FF1FE1B4FF1FB786FF1FB886FF1FD486FF1FD386FF1FC886FF1F474B1B780133DAB2454B1A70B5
:400A8000454B00221A60434B1B781A46434B1B7C4349444801F0BEFB0246434B1A6001F0ADFB03461A46414B1A603C4C3B46184600F0CCF825463C460FCC0FC523682B603D
:400AC000394B1968344B1A6813469B0013449B000B445B68DAB2364B1A70334B19682E4B1A6813469B0013449B000B449B68DAB2304B1A70052349E02F4B1B78052B08D137
:400B00002E4B1B68322B01D805233FE02B4B64221A602B4B1B78DBB2002B07D1284B01221A70284B00221A700A232FE0264B1B78DBB2002B09D0244B00221A70204B002275
:400B40001A7000F04FF8052320E01D4B1B78DBB2002B16D01D4B1B78002B12D11C4B1B78002B0ED11B4B00221A701B4B00221A701A4B00221A701A4B00221A70124B012220
:400B80001A70FFF767FC034600E0052318462837BD46B0BDC886FF1F9086FF1FCCB4FF1F9C85FF1F2081FF1FE4B3FF1F68B4FF1FBA86FF1FBB86FF1FE0B3FF1FAC86FF1FEB
:400BC000B586FF1FB986FF1FB686FF1FC8B4FF1F9486FF1FBC86FF1FBD86FF1FBF86FF1FC086FF1F80B400AF144B00221A70144B00221A70134B1B680133124A1360124B51
:400C00001968104B1A6813469B0013449B000B445B68DAB2094B1A700B4B1968094B1A6813469B0013449B000B449B68DAB2044B1A7000BFBD4680BC704700BFBA86FF1FD8
:400C4000BB86FF1F9086FF1FE4B3FF1FB0B489B000AF7860164B1968164B1A6813469B0013449B000B441B783B73114B1968114B1A6813469B0013449B000B441B7C3B7794
:400C80000B4B19680B4B1A6813469B0013449B000B44DB68BB617B681D4607F10C040FCC0FC523682B6078682437BD46B0BC7047E4B3FF1F9086FF1F80B582B000AF49F243
:400CC00008737B8049F208733B807B88184601F055FF3B88184602F031F800237B60002002F09AF83A4B1B78002B06D1394B1B78DBB20133DAB2374B1A70374B1B78002BBF
:400D000006D1344B1B78DBB20133DAB2314B1A70324B1B78002B03D0314B1B78002B2AD12C4B1B78DBB20133DAB22A4B1A7022E002F060F803467B60254B1B78002B02D16D
:400D4000284B01221A70274B1B78DBB2002B06D0254B1B78DBB20133DAB2234B1A70214B1B78DBB2002B06D1194B1B78002B02D01C4B00221A707B68D12BD9DD154B1B785B
:400D8000DBB2002B06D1194B01221A70002002F043F819E0144B1B78DAB20E4B1B78DBB29A4203D9124B01221A700AE00E4B1B78DAB2084B1B78DBB29A4202D20B4B012296
:400DC0001A70002002F028F80837BD4680BD00BFE1B4FF1FBC86FF1FB1B4FF1FC8B4FF1F9486FF1FBE86FF1FBD86FF1FBF86FF1FC086FF1FB0B586B000AF2D4A2D4B144674
:400E00001D460FCD0FC42B6823602A4C3B461846FFF71CFF25463C460FCC0FC523682B60254B1A78254B1A70FFF752FB03461A46214B1A70204B1B780A2B35D801A252F867
:400E400023F000BF710E0000770E00007D0E0000890E0000830E00008F0E0000A70E0000A70E0000950E00009B0E0000A10E000001F0DAFA18E001F0BFFA15E001F0A6FAFA
:400E800012E001F01FFA0FE001F05EFA0CE001F00DFA09E001F0C8FA06E001F01BFB03E0FFF70AFF00E000BF00BF1837BD46B0BDB4B4FF1FCCB4FF1FE0B3FF1F8E86FF1F8B
:400EC00080B500AF01F07AFE01F0B2FD4FF6FF7001F044FE01F08CFE4FF6FF7001F01EFF01F070FF01F0F4FF02F076FA02F012FB00BF80BD80B485B000AF78600023FB60D2
:400F000020E00023BB6017E0FB684C2202FB03F37A681344BA6853F82230012B09D0FB684C2202FB03F37A681344BA68002143F82210BB680133BB60BB68122BE4DDFB6818
:400F40000133FB60FB680E2BDBDD00BF1437BD4680BC704780B485B000AFF860B9607A603B60FB68002B17DBFA687B689A4213DABB68002B10DBBA683B689A420CDAFB68DF
:400F80004C2202FB03F3BA691344BA6853F82230002B01D1012300E0002303F00103DBB218461437BD4680BC704700BF82B090B5ADF5B65D81B002AF07F118040C3C2060A7
:400FC00007F11800143880E8060007F5B65202F10C021360002307F5B55202F1140213603AE0002307F5B55202F11002136021E007F58F5101F10C0107F5B55303F114036A
:401000001A681346DB0013445B00134407F5B55202F1100212681344012241F8232007F5B55303F110031B68013307F5B55202F11002136007F5B55303F110031B68122B71
:40104000D6DD07F5B55303F114031B68013307F5B55202F11402136007F5B55303F114031B680E2BBDDD002307F5B55202F10C021360002307F5B55202F1080213603AE0C9
:40108000002307F5B55202F10402136021E007F138021C3A07F5B55303F1080319680B46DB000B445B000B4407F5B55101F1040109680B444FF47A7142F8231007F5B55314
:4010C00003F104031B68013307F5B55202F10402136007F5B55303F104031B68122BD6DD07F5B55303F108031B68013307F5B55202F10802136007F5B55303F108031B68AA
:401100000E2BBDDD002307F5B552136007F11803143B196807F11803143B586807F138021C3A0B46DB000B445B000B440344002142F8231007F5B5531B68013307F5B552FE
:40114000136007F59362083A07F5B55303F10C0319680B465B000B449B001A4407F11803143B93E8030082E8030007F59362083A07F5B55303F10C0319680B465B000B444A
:401180009B001344083300221A6007F5B55303F10C031B68013307F5B55202F10C021360F5E1002307F5B45202F11C021360012307F5B45202F11802136034E007F5936207
:4011C000083A07F5B45303F1180319680B465B000B449B0013440833186807F59362083A07F5B45303F11C0319680B465B000B449B00134408331B68984209DA07F5B4533D
:4012000003F118031B6807F5B45202F11C02136007F5B45303F118031B68013307F5B45202F11802136007F5B45303F118031A6807F5B55303F10C031B689A42BEDB07F1C0
:401240001801083907F59362083A07F5B45303F11C03186803465B0003449B001A440B4607CA83E8070007F5B55303F10C031B68591E07F59362083A07F5B45303F11C0389
:40128000186803465B0003449B00D01807F59362083A0B465B000B449B001A44034607CA83E8070007F5B55303F10C031B68013B07F5B55202F10C02136007F11803083BFA
:4012C0001B6807F5B35202F11C02136007F11803083B5B6807F5B35202F11802136007F58F5101F10C0107F5B35303F11C031A681346DB0013445B00134407F5B35202F1A9
:4013000018021268134451F82330012B40F03F8107F58F5101F10C0107F5B35303F11C031A681346DB0013445B00134407F5B35202F1180212681344002241F8232007F5E2
:40134000B65303F10C031A6807F5B35303F11C031B689A420CD107F5B65303F110031A6807F5B35303F118031B689A4200F01881002307F5B45202F114021360FFE0D04A6D
:4013800007F5B45303F114031B6852F8332007F5B35303F11C031B68134407F5B35202F114021360C64A07F5B45303F114031B68DB0013445A6807F5B35303F118031B686A
:4013C000134407F5B35202F11002136007F118030C3B1B68009313230F2207F5B35101F11001096807F5B35000F114000068FFF7B1FD0346002B00F0B78007F58F5101F159
:401400000C0107F5B35303F114031A681346DB0013445B00134407F5B35202F110021268134451F82330012B40F09E8007F138021C3A07F5B35303F11C0319680B46DB009C
:401440000B445B000B4407F5B35101F1180109680B4452F82330013307F5B35202F10C02136007F138021C3A07F5B35303F1140319680B46DB000B445B000B4407F5B35127
:4014800001F1100109680B4452F8232007F5B35303F10C031B689A4266DD07F138021C3A07F5B35303F1140319680B46DB000B445B000B4407F5B35101F1100109680B4437
:4014C00007F5B35101F10C01096842F8231007F59362083A07F5B55303F10C0319680B465B000B449B00134407F5B35202F1140212681A6007F59362083A07F5B55303F13E
:401500000C0319680B465B000B449B001344043307F5B35202F1100212681A6007F59362083A07F5B55303F10C0319680B465B000B449B001344083307F5B35202F10C0218
:4015400012681A6007F5B5531B68013307F5B552136007F5B55303F10C031B68013307F5B55202F10C02136007F5B45303F114031B68013307F5B45202F11402136007F5D2
:40158000B45303F114031B68032B7FF6F8AE07F5B55303F10C031B68002B3FF702AE00E000BF07F5B65303F10C03196807F5B65303F11003186807F138021C3A0B46DB004A
:4015C0000B445B000B44034452F8233007F5B45202F1100213603B4A07F5B45303F110031B68136007F5B45303F110031B68DB00184603F085F9034607F5B35202F1080291
:40160000136007F5B65303F10C031B6807F5B45202F10C02136007F5B65303F110031B6807F5B45202F10802136007F5B45303F110031B6803F10053013BDB0007F5B35249
:4016400002F108021268134407F5B45202F10C0212681A6007F5B45303F110031B6803F10053013BDB0007F5B35202F108021268134407F5B45202F1080212685A6007F5BC
:40168000B45303F10C031B684C2202FB03F207F118030C3B1B68134407F5B45202F108021268092143F82210002307F5B45202F104021360F2E0002307F5B4521360E7E037
:4016C000CC85FF1F60B3FF1F7D4A07F5B4531B6852F8332007F5B45303F10C031B68134407F5B35202F104021360754A07F5B4531B68DB0013445A6807F5B45303F10803D8
:401700001B68134407F5B352136007F118030C3B1B68009313230F2207F5B351096807F5B35000F104000068FFF714FC0346002B00F0A78007F138021C3A07F5B35303F1A8
:40174000040319680B46DB000B445B000B4407F5B35109680B4452F8232007F5B45303F110031B68013B9A4240F08B8007F5B35303F104031B684C2202FB03F207F118039C
:401780000C3B1B68134407F5B3521268082143F8221007F5B45303F104031B68013307F5B45202F10402136007F5B45303F110031B68013B07F5B45202F11002136007F595
:4017C000B35303F104031B6807F5B45202F10C02136007F5B3531B6807F5B45202F10802136007F5B45303F110031B68DB0007F5B35202F108021268134407F5B45202F1CC
:401800000C0212681A6007F5B45303F110031B68DB0007F5B35202F108021268134407F5B45202F1080212685A6007F11803143B1A6807F5B45303F10C031B689A4220D102
:4018400007F11803143B5A6807F5B45303F108031B689A4215D107F5B45303F10C031B684C2202FB03F207F118030C3B1B68134407F5B45202F108021268022143F82210D7
:401880000CE007F5B4531B68013307F5B452136007F5B4531B68032B7FF616AF07F5B45303F110031B68002B3FF705AF00BF07F5B5571C37BD46BDE8904002B0704700BFC3
:4018C000CC85FF1F80B596B000AFF860B960394681E80C003B687B657B683B650023FB643B6E7A6E1146184600F03AFC03467B618BE2A64B1B783A6D796D184600F09EFB6C
:401900007B6D4C2202FB03F3FA6813443A6D002143F822109D4B1A789D4B1A7000237B64396D786D00F004FB03463B643A6E7B6D9A423ED17A6E3B6D9A423AD1052387F887
:401940004B309449FA6C13469B0013449B000B4497F84B201A708F49FA6C13469B0013449B000B440C3300221A60894B18788949FA6C13469B0013449B000B441033024646
:401980001A708449FA6C13469B0013449B000B44043300221A607F49FA6C13469B0013449B000B44083300221A60FB6C0133FB642FE2FB6C5A1E774913469B0013449B0098
:4019C0000B441B78042B09D197F84B30052B05D03B6E7B657B6E3B6505233B643B6C032B00F2D28101A252F823F000BFFD190000D51A0000C91B0000AB1C0000634B0022BB
:401A00001A70634B1B78022B08D1022387F84B30614B00221A60614B00221A605C4B1B78032B08D1012387F84B305B4B00221A605A4B00221A60564B1B78002B3FD17A69F2
:401A40003B6C9A4238D17A6E3B6D9A4234D10123FB630123BB631EE07A6DBB6BD31A1A464C2303FB02F3FA6813443A6D53F82230012B02D10023FB6313E07A6DBB6BD21A82
:401A80003B6E9A4204D10123FB63BB6B7B6408E0BB6B0133BB633B6E7A6DD21ABB6B9A42DADAFB6B002B03D0042387F84B3006E0002387F84B3002E0002387F84B30344BAD
:401AC0001B78012B02D1032387F84B307B6D013B7B655AE12D4B01221A702D4B1B78032B08D1022387F84B302B4B00221A602B4B00221A60264B1B78022B08D1012387F8CE
:401B00004B30254B00221A60244B00221A60204B1B78012B47D17A693B6C9A4240D17A6E3B6D9A423CD101237B6301233B631EE07A6D3B6B13441A464C2303FB02F3FA6817
:401B400013443A6D53F82230012B02D100237B6311E07A6D3B6B1A443B6E9A4204D101237B633B6B7B6406E03B6B01333B633A6E3B6B9A42DCDA7B6B002B03D0042387F845
:401B80004B3010E0002387F84B300CE0E0B4FF1FE2B4FF1FD886FF1F68B3FF1F64B3FF1F002387F84B309D4B1B78002B08D1032387F84B309A4B00221A609A4B00221A60A3
:401BC0007B6D01337B65E0E0974B02221A70934B1B78002B08D1012387F84B30904B00221A60904B00221A608C4B1B78012B08D1022387F84B308A4B00221A60894B002223
:401C00001A60864B1B78022B3ED17A693B6C9A4237D13A6E7B6D9A4233D10123FB620123BB621DE07B6D4C2202FB03F3FA681344396DBA6A8A1A53F82230012B02D10023BE
:401C4000FB6213E03A6DBB6AD21A7B6E9A4204D10123FB62BB6A7B6408E0BB6A0133BB627B6E3A6DD21ABB6A9A42DBDAFB6A002B03D0042387F84B3006E0002387F84B3026
:401C800002E0002387F84B30644B1B78032B08D1032387F84B30624B00221A60614B00221A603B6D013B3B656FE05F4B03221A705A4B1B78002B08D1022387F84B30584B01
:401CC00000221A60574B00221A60544B1B78012B08D1012387F84B30514B00221A60514B00221A604D4B1B78032B3CD17A693B6C9A4235D13A6E7B6D9A4231D101237B6204
:401D000001233B621DE07B6D4C2202FB03F3FA681344396D3A6A0A4453F82230012B02D100237B6211E03A6D3B6A1A447B6E9A4204D101237B623B6A7B6406E03B6A013336
:401D40003B627A6E3B6A9A42DDDA7B6A002B03D0042387F84B3006E0002387F84B3002E0002387F84B302D4B1B78022B08D1032387F84B302A4B00221A602A4B00221A604D
:401D80003B6D01333B6500E000BF3B6C052B39D02649FA6C13469B0013449B000B4497F84B201A701E4B19682048FA6C13469B0013449B000344043319601A4B19681B48BC
:401DC000FA6C13469B0013449B000344083319607B6C591C1548FA6C13469B0013449B0003440C3319600D4B18781049FA6C13469B0013449B000B44103302461A70FB6C40
:401E00000133FB64BB68013BBB60BB68002BBFF670AD0023FB610023BB617CE0E2B4FF1F68B3FF1F64B3FF1FE0B4FF1FD886FF1F3D49BA6913469B0013449B000B4419789C
:401E4000BB695A1C384813469B0013449B0003441B7899425CD03449BA6913469B0013449B000B4418783149FA6913469B0013449B000B4402461A702B49BA6913469B00AD
:401E800013449B000B44043319682848FA6913469B0013449B000344043319602249BA6913469B0013449B000B44083319681F48FA6913469B0013449B000344083319604F
:401EC0001949BA6913469B0013449B000B44103318781649FA6913469B0013449B000B44103302461A701049BA6913469B0013449B000B440C3319680C48FA6913469B002D
:401F000013449B0003440C331960FB690133FB61BB690133BB61BA69FB6C9A4288DB00BF5837BD4680BD00BFD886FF1F1C9DFF1F80B483B000AF786039607B685A1E3E4976
:401F40001346DB0013445B0013443A68134451F82330082B0DD07B685A1E37491346DB0013445B0013443A68134451F82330092B01D100235AE07B685A1C2F491346DB006A
:401F800013445B0013443A68134451F82330082B0DD07B685A1C28491346DB0013445B0013443A68134451F82330092B01D101233CE03B68591E20487A681346DB001344A2
:401FC0005B0013440B4450F82330082B0DD03B68591E19487A681346DB0013445B0013440B4450F82330092B01D102231EE03B68591C11487A681346DB0013445B001344F8
:402000000B4450F82330082B0DD03B68591C0A487A681346DB0013445B0013440B4450F82330092B01D1032300E0052318460C37BD4680BC704700BF2081FF1F80B485B081
:4020400000AF0346B9607A60FB73BB685A1E41491346DB0013445B0013447A68134451F82330002B11D1FB7B022B02D0032B06D00BE0394B1B680133374A136005E0374BC9
:402080001B680133354A136000BFBB685A1C31491346DB0013445B0013447A68134451F82330002B11D1FB7B022B02D0032B06D00BE02A4B1B680133284A136005E0264BBB
:4020C0001B680133244A136000BF7B68591E2148BA681346DB0013445B0013440B4450F82330002B11D1FB7B002B02D0012B06D00BE01A4B1B680133184A136005E0164BD9
:402100001B680133144A136000BF7B68591C1148BA681346DB0013445B0013440B4450F82330002B11D1FB7B002B02D0012B06D00BE0094B1B680133074A136005E0074BEB
:402140001B680133054A136000BF00BF1437BD4680BC70472081FF1F64B3FF1F68B3FF1F80B483B000AF786039607B685A1C22491346DB0013445B0013443A68134451F830
:402180002330082B01D1002330E07B685A1E1A491346DB0013445B0013443A68134451F82330082B01D1012320E03B68591C12487A681346DB0013445B0013440B4450F8B3
:4021C0002330082B01D1022310E03B68591E0A487A681346DB0013445B0013440B4450F82330082B01D1032300E0052318460C37BD4680BC704700BF2081FF1F80B400AFD2
:40220000034B1B68DBB21846BD4680BC704700BF60B3FF1F90B58BB002AFF860B9607A60FB70F868FEF766FE1D4AFB7813707B68DB00BA6813441B68BB617B68DB00BA6849
:4022400013445B68FB617B680133DB00BA6813441B683B617B680133DB00BA6813445B687B617B6900933B6907F1180206CAF868FEF79CFE0B4B1C686A4607F1100393E858
:40228000030082E8030007F118030CCB2146F868FFF718FB044B18462437BD4690BD00BFE0B4FF1F60B3FF1F1C9DFF1F80B500AF4FF4004000F062FC4FF4004000F03EFDC0
:4022C00000BF80BD80B582B000AF1A4B1A681A4B1B681946104601F0D3FF03467B601749786802F0D5F803461549184601F0C8FF0346184602F0B8FA03467B8011497868DC
:4023000002F0C6F8034619460D4801F0B7FF0346184602F0A9FA03463B807B88184600F02DFC3B88184600F009FD00BF0837BD4680BD00BFF085FF1FEC85FF1F0098194662
:4023400000FEFF4600C8CC4580B582B000AF1A4B1A681A4B1B681946104601F091FF03467B601749786802F093F803461549184601F086FF0346184602F076FA03467B807D
:402380001149786802F084F8034619460D4801F075FF0346184602F067FA03463B807B88184600F0EBFB3B88184600F0C7FC00BF0837BD4680BD00BFF085FF1FEC85FF1FEB
:4023C00000C8CC4500FEFF460098194680B582B000AF46F6F503FB8046F6F503BB80FB88184600F0CBFBBB88184600F0A7FC00BF0837BD4680BD00BF80B582B000AF49F27D
:402400000873FB8049F20873BB80FB88184600F0B5FBBB88184600F091FC00BF0837BD4680BD00BF0000000090B583B000AF244B1A68244B1B681946104601F021FF034600
:402440007B602149786802F023F803461F49184601F016FF0346184602F006FA03467B801949786802F014F80346184601F02CFC4FF00002164B01F07BFC03460C461A4633
:4024800023460DA1D1E9000101F0BEFA03460C461846214601F07EFE03463B807B88184600F06CFB3B88184600F048FC00BF0C37BD4690BDAFF3008000000000C0FFDF4071
:4024C000F085FF1FEC85FF1F0098194600FEFF460000E03F80B500AF45F6991000F04EFB4AF2666000F02AFC00BF80BD80B582B000AF786039603A680021786802F013FA23
:4025000000BF0837BD4680BD80B584B000AFF860B9607A607A68B968F86802F0F9F900BF1037BD4680BD00BF80B483B000AF0346FB71FEE780B487B000AF78603960002350
:402540003B6100237B6127E07B699B007A6813441B68BB60BB68FB73BB6823F0FF03BB6014E03B695B003A6813441B781A46BB68134419463B695B003A6813445B780B7081
:402580003B6901333B61FB7B013BFB73FB7B002BE7D17B6901337B617B69272BD4D900BF1C37BD4680BC704780B582B000AF3D4B00221A803C4B1B221A703C4B00221A8064
:4025C0003B4B19221A703B4B04221A803A4B18221A703A4B81221A80394B18221A70394B4EF65F221A80384B18221A70374B06221A70374B52221A70364B374A1278D2B209
:402600001A70364B40F619121A80354B41F251221A800023FB7019237B6014E0FB785B00DAB2304B1B78DBB203F00103DBB21343DBB203F00303FB704FF4F07001F0D0F91E
:402640007B68013B7B607B68002B02D0FB78032BE4D17B68002B02D10320FFF765FF224B4FF480721A80204B07221A701F4B00221A701F4B48221A701B4B00221A701D4B84
:4026800000221A701C4B02221A701C4A1B4B1B78DBB243F01F03DBB2137000BF0837BD4680BD00BF80400040824000408440004086400040884000408A4000408C400040E1
:4026C0008E40004090400040924000400043004000420040A14600400F0100492242004020420040254200400440004006400040084000400940004001400040A243004077
:4027000080B483B000AF0B4B1B78FB710A4AFB7903F00703DBB21370084AFB791B09DBB21370074B44221A7000BF0C37BD4680BC704700BFCF0100496E5800406F58004040
:402740007658004080B582B000AF72B63F4B61221A70FFF729FF3D4B01221A703C4A3C4B1B78DBB243F00403DBB213700023FB7113E0FA7913465B0013445B00354A13447B
:402780003B603B681A683B689B889BB219461046FFF7ACFEFB790133FB71FB79062BE8D92D494FF09040FFF7C5FE2C4A2B4B1B78DBB243F00203DBB21370294A284B1B786C
:4027C000DBB243F00203DBB21370264A254B1B78DBB243F04003DBB21370234A224B1B78DBB243F01003DBB2137008221F492048FFF78AFE08221F491F48FFF785FE0A2218
:402800001E491F48FFF780FE08221E491E48FFF77BFE0A221D491E48FFF776FE08221D491D48FFF771FE1D4A1C4B1B78DBB243F00803DBB21370FFF763FF0E2209491848BE
:40284000FFF762FE00BF0837BD4680BD00480040E84600401C4A0000A00000480350014013500140A0430040C2430040400D004802510040480D0048C2510040500D004823
:40288000F05100405C0D004812510040640D004820510040700D00483251004022430040B043004080B500AF01F0FEFF03461B680C2B00D1FEE7FEE780B584B000AF786019
:4028C0000F4B1A687B6813441A460E4BD31A802B09DC0B4B1B68FB60094B1A687B681344074A136007E001F0DFFF02460C2313604FF0FF33FB60FB6818461037BD4680BDD0
:40290000F885FF1FE8B4FF1F80B586B000AF224B7B61224B3B61204B7B6135E03B691B68FB603B695B68BB603B699B683B6000237B600CE0FB681A68BB681A60BB6804336E
:40294000BB60FB680433FB607B6804337B607A683B689A42EED13B69DB683B6000237B6008E0BB6800221A60BB680433BB607B6804337B607A683B689A42F2D13B69103396
:402980003B617B69013B7B617B69002BC6D101F091FFFDF757FCFEE701000000CC4A000080B582B000AF184B184A1A60184A184B1B6843F40073136000237B600FE07B688B
:4029C000032B04D8134A7B6852F8233000E0124B12497A6841F822307B6801337B607B682F2BECD90E4B1B78DAB20E4B1A700E4B0A4A1A60FFF7A6FE0C4B00221A6000BF29
:402A00000837BD4680BD00BF0CED00E00004FA0514ED00E000000000A52800000080FF1FBC760040C480FF1F08ED00E0C080FF1F80B500AF064B1B78002B04D100F00AF86F
:402A4000034B01221A7000F065F800BF80BD00BF70B3FF1F80B582B000AF294A284B1B78DBB243F00203DBB21370264B1B78DBB223F07003FB71234AFB7943F01003DBB277
:402A80001370214A204B1B78DBB223F03003DBB213701D4A1C4B1B78DBB243F03003DBB21370194A184B1B78DBB223F00F03DBB21370154A144B1B78DBB243F00F03DBB218
:402AC00013704FF6FF7000F049F8002000F056F8002000F063F80D4A0C4B1B78DBB243F00103DBB213700A4A094B1B78DBB243F00103DBB2137000BF0837BD4680BD00BF84
:402B0000004F0040024F00400B4F0040A3430040014F004080B400AF0D4A0D4B1B78DBB243F00103DBB213700A4A0A4B1B78DBB243F00103DBB21370074A074B1B78DBB259
:402B400043F00103DBB2137000BFBD4680BC7047A3430040B3430040004F004080B483B000AF0346FB80044AFB88138000BF0C37BD4680BC704700BF044F004080B483B07F
:402B800000AF0346FB80044AFB88138000BF0C37BD4680BC704700BF064F004080B483B000AF0346FB71044AFB79137000BF0C37BD4680BC704700BF034F004080B400AFB6
:402BC000094A094B1B78DBB243F00203DBB21370064A064B1B78DBB243F00203DBB2137000BFBD4680BC7047A2430040B243004080B500AF064B1B78002B04D100F00AF8F4
:402C0000034B01221A7000F065F800BF80BD00BF71B3FF1F80B582B000AF294A284B1B78DBB243F00203DBB21370264B1B78DBB223F07003FB71234AFB7943F01003DBB2B4
:402C40001370214A204B1B78DBB223F03003DBB213701D4A1C4B1B78DBB243F03003DBB21370194A184B1B78DBB223F00F03DBB21370154A144B1B78DBB243F00F03DBB256
:402C800013704FF6FF7000F049F8002000F056F8002000F063F80D4A0C4B1B78DBB243F00203DBB213700A4A094B1B78DBB243F00103DBB2137000BF0837BD4680BD00BFC1
:402CC0000C4F00400E4F0040174F0040A34300400D4F004080B400AF0D4A0D4B1B78DBB243F00203DBB213700A4A0A4B1B78DBB243F00203DBB21370074A074B1B78DBB266
:402D000043F00103DBB2137000BFBD4680BC7047A3430040B34300400C4F004080B483B000AF0346FB80044AFB88138000BF0C37BD4680BC704700BF104F004080B483B0A5
:402D400000AF0346FB80044AFB88138000BF0C37BD4680BC704700BF124F004080B483B000AF0346FB71044AFB79137000BF0C37BD4680BC704700BF0F4F004080B400AFDC
:402D800000BFBD4680BC704780B582B000AF0F2000F06AF800F05AF800F02AFE0346FB71074A074B1B78DBB243F01003DBB21370FB79184600F020FE00BF0837BD4680BD81
:402DC0009764004080B500AF00F034F94FF4004000F05EF9064B1B78002B04D1FFF7CEFF034B01221A70FFF7CFFF00BF80BD00BF72B3FF1F80B582B000AF00F059F90346C8
:402E0000FB80FB88A3F500439BB2BB80B7F9043018460837BD4680BD80B584B000AF0346FB80B7F90630002B04DBFB88A3F50043FB8103E0FB88A3F50043FB81FB8918462B
:402E400000F026F900BF1037BD4680BD80B400AF044B1B78DBB203F00F03DBB21846BD4680BC70476764004080B483B000AF0346FB71044AFB79137000BF0C37BD4680BC69
:402E8000704700BF8764004080B400AF00BFBD4680BC704780B582B000AF0F2000F06AF800F05AF800F0A4FD0346FB71074A074B1B78DBB243F01003DBB21370FB791846CF
:402EC00000F09AFD00BF0837BD4680BD9264004080B500AF00F086F94FF4004000F0B0F9064B1B78002B04D1FFF7CEFF034B01221A70FFF7CFFF00BF80BD00BF73B3FF1F03
:402F000080B582B000AF00F0ABF90346FB80FB88A3F500439BB2BB80B7F9043018460837BD4680BD80B584B000AF0346FB80B7F90630002B04DBFB88A3F50043FB8103E0F3
:402F4000FB88A3F50043FB81FB89184600F078F900BF1037BD4680BD80B400AF044B1B78DBB203F00F03DBB21846BD4680BC70476264004080B483B000AF0346FB71044A97
:402F8000FB79137000BF0C37BD4680BC704700BF8264004080B582B000AF1C4B1B78DBB223F00703FB71194AFB791370174B1B78DBB223F00303FB71144AFB79137000F071
:402FC000B3F84FF4004000F08FF84FF4004000F05FF8002000F040F800F04EF84FF4004000F092F800F004FD0346BB71084A084B1B78DBB243F01003DBB21370BB791846D4
:4030000000F0FAFC00BF0837BD4680BD776500409565004080B400AF054A054B1B78DBB263F07F03DBB2137000BFBD4680BC70477765004080B500AF064B1B78002B04D1F6
:40304000FFF7A8FF034B01221A70FFF7E3FF00BF80BD00BF74B3FF1F80B483B000AF0346FB71044AFB79137000BF0C37BD4680BC704700BF8565004080B400AF034B1B782B
:40308000DBB21846BD4680BC704700BF6565004080B483B000AF0346FB80044AFB88138000BF0C37BD4680BC704700BF086A004080B400AF044B1B78044B1B889BB218465D
:4030C000BD4680BC704700BF04650040886A004080B400AF034B1B889BB21846BD4680BC704700BF886A004080B483B000AF0346FB80044AFB88138000BF0C37BD4680BC5B
:40310000704700BF486A004080B483B000AF0346FB80044AFB88138000BF0C37BD4680BC704700BF686A004080B500AF01E0FFF7CFFFFFF7A1FF034603F04003002BF6D190
:4031400000BF80BD80B582B000AF1C4B1B78DBB223F00703FB71194AFB791370174B1B78DBB223F00303FB71144AFB79137000F0B3F84FF4004000F08FF84FF4004000F06F
:403180005FF8002000F040F800F04EF84FF4004000F092F800F02CFC0346BB71084A084B1B78DBB243F01003DBB21370BB79184600F022FC00BF0837BD4680BD756400409E
:4031C0009164004080B400AF054A054B1B78DBB263F07F03DBB2137000BFBD4680BC70477564004080B500AF064B1B78002B04D1FFF7A8FF034B01221A70FFF7E3FF00BF4E
:4032000080BD00BF75B3FF1F80B483B000AF0346FB71044AFB79137000BF0C37BD4680BC704700BF8164004080B400AF034B1B78DBB21846BD4680BC704700BF61640040F7
:4032400080B483B000AF0346FB80044AFB88138000BF0C37BD4680BC704700BF0068004080B400AF044B1B78044B1B889BB21846BD4680BC704700BF0064004080680040CE
:4032800080B400AF034B1B889BB21846BD4680BC704700BF8068004080B483B000AF0346FB80044AFB88138000BF0C37BD4680BC704700BF4068004080B483B000AF034676
:4032C000FB80044AFB88138000BF0C37BD4680BC704700BF6068004080B500AF01E0FFF7CFFFFFF7A1FF034603F04003002BF6D100BF80BD80B500AF214A214B1B78DBB2C9
:4033000003F00103DBB213701E4A1E4B1B78DBB223F00303DBB213701B4A1B4B1B78DBB223F03003DBB21370174A174B1B78DBB243F03003DBB21370134A134B1B78DBB2F7
:4033400023F00F03DBB213700F4A0F4B1B78DBB243F00F03DBB213700C4A0C4B1B78DBB243F00103DBB21370312000F063F8312000F072F8082000F041F800BF80BD00BF89
:40338000184F00401A4F0040234F0040194F004080B400AF0D4A0D4B1B78DBB243F00403DBB213700A4A0A4B1B78DBB243F00403DBB21370074A074B1B78DBB243F001035A
:4033C000DBB2137000BFBD4680BC7047A3430040B3430040184F004080B500AF064B1B78002B04D1FFF786FF034B01221A70FFF7CFFF00BF80BD00BF76B3FF1F80B483B09A
:4034000000AF0346FB71044AFB79137000BF0C37BD4680BC704700BF1B4F004080B400AF034B1B78DBB21846BD4680BC704700BF1B4F004080B485B000AF0346FB80FB8815
:40344000FB81044AFB89138000BF1437BD4680BC704700BF1C4F004080B483B000AF0346FB80044AFB88138000BF0C37BD4680BC704700BF1E4F004080B582B000AF786071
:4034800000F03CF8786800F009F8072000F018F800F028F800BF0837BD4680BD80B485B000AF7860054B1B68FB60FB688C337A681A6000BF1437BD4680BC704708ED00E031
:4034C00080B483B000AF0346FB71054AFB795B01DBB2137000BF0C37BD4680BC704700BF13E400E080B400AF034B4FF400221A6000BFBD4680BC704700E100E080B400AFDB
:40350000034B4FF400221A6000BFBD4680BC704780E100E080B400AF094A094B1B78DBB243F01003DBB21370064A064B1B78DBB243F01003DBB2137000BFBD4680BC70479C
:40354000A2430040B243004080B500AF224A224B1B78DBB203F00103DBB213701F4A1F4B1B78DBB223F00303DBB213701C4A1C4B1B78DBB223F03003DBB21370184A184BE9
:403580001B78DBB243F03003DBB21370144A144B1B78DBB223F00F03DBB21370104A104B1B78DBB243F00F03DBB213700D4A0D4B1B78DBB243F00103DBB2137040F2C930F8
:4035C00000F064F840F2C93000F072F8082000F041F800BF80BD00BF244F0040264F00402F4F0040254F004080B400AF0D4A0D4B1B78DBB243F00803DBB213700A4A0A4B6B
:403600001B78DBB243F00803DBB21370074A074B1B78DBB243F00103DBB2137000BFBD4680BC7047A3430040B3430040244F004080B500AF064B1B78002B04D1FFF784FF0D
:40364000034B01221A70FFF7CFFF00BF80BD00BF77B3FF1F80B483B000AF0346FB71044AFB79137000BF0C37BD4680BC704700BF274F004080B400AF034B1B78DBB218465C
:40368000BD4680BC704700BF274F004080B485B000AF0346FB80FB88FB81044AFB89138000BF1437BD4680BC704700BF284F004080B483B000AF0346FB80044AFB881380AB
:4036C00000BF0C37BD4680BC704700BF2A4F004080B582B000AF786000F03CF8786800F009F8072000F018F800F028F800BF0837BD4680BD80B485B000AF7860054B1B683F
:40370000FB60FB6890337A681A6000BF1437BD4680BC704708ED00E080B483B000AF0346FB71054AFB795B01DBB2137000BF0C37BD4680BC704700BF14E400E080B400AF6B
:40374000034B4FF480121A6000BFBD4680BC704700E100E080B400AF034B4FF480121A6000BFBD4680BC704780E100E080B582B000AF786000F03CF8786800F009F80720B6
:4037800000F018F800F028F800BF0837BD4680BD80B485B000AF7860054B1B68FB60FB6840337A681A6000BF1437BD4680BC704708ED00E080B483B000AF0346FB71054A7C
:4037C000FB795B01DBB2137000BF0C37BD4680BC704700BF00E400E080B400AF034B01221A6000BFBD4680BC704700BF00E100E080B400AF034B01221A6000BFBD4680BC9F
:40380000704700BF80E100E080B582B000AF786000F03CF8786800F009F8072000F018F800F028F800BF0837BD4680BD80B485B000AF7860054B1B68FB60FB6844337A689F
:403840001A6000BF1437BD4680BC704708ED00E080B483B000AF0346FB71054AFB795B01DBB2137000BF0C37BD4680BC704700BF01E400E080B400AF034B02221A6000BFF5
:40388000BD4680BC704700BF00E100E080B400AF034B02221A6000BFBD4680BC704700BF80E100E080B582B000AF786000F03CF8786800F009F8072000F018F800F028F8F4
:4038C00000BF0837BD4680BD80B485B000AF7860054B1B68FB60FB6848337A681A6000BF1437BD4680BC704708ED00E080B483B000AF0346FB71054AFB795B01DBB2137063
:4039000000BF0C37BD4680BC704700BF02E400E080B400AF034B04221A6000BFBD4680BC704700BF00E100E080B400AF034B04221A6000BFBD4680BC704700BF80E100E07E
:4039400080B582B000AF786000F03CF8786800F009F8072000F018F800F028F800BF0837BD4680BD80B485B000AF7860054B1B68FB60FB684C337A681A6000BF1437BD4686
:4039800080BC704708ED00E080B483B000AF0346FB71054AFB795B01DBB2137000BF0C37BD4680BC704700BF03E400E080B400AF034B08221A6000BFBD4680BC704700BF7E
:4039C00000E100E080B400AF034B08221A6000BFBD4680BC704700BF80E100E0000000000230800803D000BF01380046FCD17047EFF3108072B6704780F31088704700BF5B
:403A000081F0004102E000BF83F0004330B54FEA41044FEA430594EA050F08BF90EA020F1FBF54EA000C55EA020C7FEA645C7FEA655C00F0E2804FEA5454D4EB5555B8BFDA
:403A40006D420CDD2C4480EA020281EA030382EA000083EA010180EA020281EA0303362D88BF30BD11F0004F4FEA01314FF4801C4CEA113102D0404261EB410113F0004FC8
:403A80004FEA03334CEA133302D0524263EB430394EA050F00F0A780A4F10104D5F1200E0DDB02FA0EFC22FA05F2801841F1000103FA0EF2801843FA05F359410EE0A5F136
:403AC00020050EF1200E012A03FA0EFC28BF4CF0020C43FA05F3C01851EBE37101F0004507D54FF0000EDCF1000C7EEB00006EEB0101B1F5801F1BD3B1F5001F0CD3490850
:403B00005FEA30004FEA3C0C04F101044FEA445212F5800F80F09A80BCF1004F08BF5FEA500C50F1000041EB045141EA050130BD5FEA4C0C404141EB010111F4801FA4F1D1
:403B40000104E9D191F0000F04BF01460020B1FA81F308BF2033A3F10B03B3F120020CDA0C3208DD02F1140CC2F10C0201FA0CF021FA02F10CE002F11402D8BFC2F1200CDE
:403B800001FA02F120FA0CFCDCBF41EA0C019040E41AA2BF01EB0451294330BD6FEA04041F3C1CDA0C340EDC04F11404C4F1200220FA04F001FA02F340EA030021FA04F35C
:403BC00045EA030130BDC4F10C04C4F1200220FA02F001FA04F340EA0300294630BD21FA04F0294630BD94F0000F83F4801306BF81F480110134013D4EE77FEA645C18BF07
:403C00007FEA655C29D094EA050F08BF90EA020F05D054EA000C04BF1946104630BD91EA030F1EBF0021002030BD5FEA545C05D14000494128BF41F0004130BD14F58004F5
:403C40003CBF01F5801130BD01F0004545F0FE4141F470014FF0000030BD7FEA645C1ABF194610467FEA655C1CBF0B46024650EA013406BF52EA033591EA030F41F4002179
:403C800030BD00BF90F0000F04BF0021704730B54FF4806404F132044FF000054FF0000150E700BF90F0000F04BF0021704730B54FF4806404F1320410F0004548BF40424E
:403CC0004FF000013EE700BF42004FEAE2014FEA31014FEA02701FBF12F07F4393F07F4F81F06051704792F0000F14BF93F07F4F704730B54FF4607401F0004521F0004170
:403D000020E700BF50EA010208BF704730B54FF000050AE050EA010208BF704730B511F0004502D5404261EB41014FF4806404F132045FEA915C3FF4DCAE4FF003025FEA50
:403D4000DC0C18BF03325FEADC0C18BF033202EBDC02C2F1200300FA03FC20FA02F001FA03FE40EA0E0021FA02F11444C1E600BF70B54FF0FF0C4CF4E06C1CEA11541DBF2A
:403D80001CEA135594EA0C0F95EA0C0F00F0DEF82C4481EA030621EA4C5123EA4C5350EA013518BF52EA033541F4801143F4801338D0A0FB02CE4FF00005E1FB02E506F0A9
:403DC0000042E0FB03E54FF00006E1FB03569CF0000F18BF4EF0010EA4F1FF04B6F5007F64F5407404D25FEA4E0E6D4146EB060642EAC62141EA55514FEAC52040EA5E5076
:403E00004FEACE2EB4F1FD0C88BFBCF5E06F1ED8BEF1004F08BF5FEA500E50F1000041EB045170BD06F0004646EA010140EA020081EA0301B4EB5C04C2BFD4EB0C0541EA83
:403E4000045170BD41F480114FF0000E013C00F3AB8014F1360FDEBF002001F0004170BDC4F10004203C35DA0C341BDC04F11404C4F1200500FA05F320FA04F001FA05F2B8
:403E800040EA020001F0004221F0004110EBD37021FA04F642EB06015EEA430E08BF20EAD37070BDC4F10C04C4F1200500FA04F320FA05F001FA04F240EA020001F0004102
:403EC00010EBD37041F100015EEA430E08BF20EAD37070BDC4F1200500FA05F24EEA020E20FA04F301FA05F243EA020321FA04F001F0004121FA04F220EA020000EBD370A3
:403F00005EEA430E08BF20EAD37070BD94F0000F0FD101F00046400041EB010111F4801F08BF013CF7D041EA060195F0000F18BF704703F00046520043EB030313F4801F67
:403F400008BF013DF7D043EA0603704794EA0C0F0CEA135518BF95EA0C0F0CD050EA410618BF52EA4306D1D181EA030101F000414FF0000070BD50EA410606BF10461946BD
:403F800052EA430619D094EA0C0F02D150EA013613D195EA0C0F05D152EA03361CBF104619460AD181EA030101F0004141F0FE4141F470014FF0000070BD41F0FE4141F4BA
:403FC000780170BD70B54FF0FF0C4CF4E06C1CEA11541DBF1CEA135594EA0C0F95EA0C0F00F0A7F8A4EB050481EA030E52EA03354FEA013100F088804FEA03334FF080553B
:4040000045EA131343EA12634FEA022245EA111545EA10654FEA00260EF000419D4208BF964244F1FD0404F5407402D25B084FEA3202B61A65EB03055B084FEA32024FF455
:4040400080104FF4002CB6EB020E75EB030E22BFB61A754640EA0C005B084FEA3202B6EB020E75EB030E22BFB61A754640EA5C005B084FEA3202B6EB020E75EB030E22BFC6
:40408000B61A754640EA9C005B084FEA3202B6EB020E75EB030E22BFB61A754640EADC0055EA060E18D04FEA051545EA16754FEA06164FEAC30343EA52734FEAC2025FEA77
:4040C0001C1CC0D111F4801F0BD141EA00014FF000004FF0004CB6E711F4801F04BF01430020B4F1FD0C88BFBCF5E06F3FF6AFAEB5EB030C04BFB6EB020C5FEA500C50F18B
:40410000000041EB045170BD0EF0004E4EEA113114EB5C04C2BFD4EB0C0541EA045170BD41F480114FF0000E013C90E645EA060E8DE60CEA135594EA0C0F08BF95EA0C0FDA
:404140003FF43BAF94EA0C0F0AD150EA01347FF434AF95EA0C0F7FF425AF104619462CE795EA0C0F06D152EA03353FF4FDAE1046194622E750EA410618BF52EA43067FF46F
:40418000C5AE50EA41047FF40DAF52EA43057FF4EBAE12E74A0011D212F5001211D20DD56FF47873B3EB62520ED44FEAC12343F0004343EA505323FA02F070474FF0000060
:4041C000704750EA013002D14FF0FF3070474FF0000070474FEA4102B2F1E04324BFB3F5001CDCF1FE5C0DD901F0004C4FEAC0024CEA5070B2F1004F40EB830008BF20F014
:404200000100704711F0804F21D113F13872BCBF01F00040704741F480114FEA5252C2F11802C2F1200C10FA0CF320FA02F018BF40F001004FEAC1234FEAD32303FA0CFC36
:4042400040EA0C0023FA02F34FEA4303CCE77FEA625307D150EA01331EBF4FF0FE4040F44000704701F0004040F0FE4040F40000704700BF80F0004002E000BF81F000418F
:4042800042001FBF5FEA410392EA030F7FEA226C7FEA236C6AD04FEA1262D2EB1363C1BFD218414048404140B8BF5B42192B88BF704710F0004F40F4000020F07F4018BF47
:4042C000404211F0004F41F4000121F07F4118BF494292EA030F3FD0A2F1010241FA03FC10EB0C00C3F1200301FA03F100F0004302D5494260EB4000B0F5000F13D3B0F1EE
:40430000807F06D340084FEA310102F10102FE2A51D2B1F1004F40EBC25008BF20F0010040EA03007047490040EB000010F4000FA2F10102EDD1B0FA80FCACF1080CB2EB78
:404340000C0200FA0CF0AABF00EBC25052421843BCBFD0401843704792F0000F81F4000106BF80F400000132013BB5E74FEA41037FEA226C18BF7FEA236C21D092EA030F3A
:4043800004D092F0000F08BF0846704790EA010F1CBF0020704712F07F4F04D1400028BF40F00040704712F100723CBF00F50000704700F0004343F0FE4040F400007047F2
:4043C0007FEA226216BF08467FEA23630146420206BF5FEA412390EA010F40F4800070474FF0000304E000BF10F0004348BF40425FEA000C08BF704743F0964301464FF0B6
:4044000000001CE050EA010208BF70474FF000030AE000BF50EA010208BF704711F0004302D5404261EB41015FEA010C02BF84460146002043F0B64308BFA3F18053A3F5BA
:404440000003BCFA8CF2083AA3EBC25310DB01FA02FC634400FA02FCC2F12002BCF1004F20FA02F243EB020008BF20F00100704702F1200201FA02FCC2F1200250EA4C0096
:4044800021FA02F243EB020008BF20EADC7070474FF0FF0C1CEAD0521EBF1CEAD15392EA0C0F93EA0C0F6FD01A4480EA010C400218BF5FEA41211ED04FF0006343EA50104C
:4044C00043EA5111A0FB01310CF00040B1F5000F3EBF490041EAD3715B0040EA010062F17F02FD2A1DD8B3F1004F40EBC25008BF20F00100704790F0000F0CF0004C08BFE7
:4045000049024CEA502040EA51207F3AC2BFD2F1FF0340EAC250704740F400004FF00003013A5DDC12F1190FDCBF00F000407047C2F10002410021FA02F1C2F1200200FA93
:4045400002FC5FEA310040F1000053EA4C0308BF20EADC70704792F0000F00F0004C02BF400010F4000F013AF9D040EA0C0093F0000F01F0004C02BF490011F4000F013BEE
:40458000F9D041EA0C018FE70CEAD15392EA0C0F18BF93EA0C0F0AD030F0004C18BF31F0004CD8D180EA010000F00040704790F0000F17BF90F0004F084691F0000F91F04C
:4045C000004F14D092EA0C0F01D142020FD193EA0C0F03D14B0218BF084608D180EA010000F0004040F0FE4040F40000704740F0FE4040F4400070474FF0FF0C1CEAD05245
:404600001EBF1CEAD15392EA0C0F93EA0C0F69D0A2EB030280EA010C49024FEA402037D04FF0805343EA111143EA10130CF000408B4238BF5B0042F17D024FF4000C8B423D
:4046400024BF5B1A40EA0C00B3EB510F24BFA3EB510340EA5C00B3EB910F24BFA3EB910340EA9C00B3EBD10F24BFA3EBD10340EADC001B0118BF5FEA1C1CE0D1FD2A3FF610
:4046800050AF8B4240EBC25008BF20F0010070470CF0004C4CEA50207F32C2BFD2F1FF0340EAC250704740F400004FF00003013A37E792F0000F00F0004C02BF400010F4E9
:4046C000000F013AF9D040EA0C0093F0000F01F0004C02BF490011F4000F013BF9D041EA0C0195E70CEAD15392EA0C0F08D142027FF47DAF93EA0C0F7FF470AF084676E789
:4047000093EA0C0F04D14B023FF44CAF08466EE730F0004C18BF31F0004CCAD130F000427FF45CAF31F000437FF43CAF5FE700BF4FF0FF3C06E000BF4FF0010C02E000BFF0
:404740004FF0010C4DF804CD4FEA40024FEA41037FEA226C18BF7FEA236C11D001B052EA530C18BF90EA010F58BFB2EB030088BFC81738BF6FEAE17018BF40F0010070474E
:404780007FEA226C02D15FEA402C05D17FEA236CE4D15FEA412CE1D05DF8040B704700BF844608466146FFE70FB5FFF7C9FF002848BF10F1000F0FBD4DF808EDFFF7F4FF61
:4047C0000CBF012000205DF808FB00BF4DF808EDFFF7EAFF34BF012000205DF808FB00BF4DF808EDFFF7E0FF94BF012000205DF808FB00BF4DF808EDFFF7D2FF94BF012003
:4048000000205DF808FB00BF4DF808EDFFF7C8FF34BF012000205DF808FB00BF4FEA4002B2F1FE4F0FD34FF09E03B3EB12620DD94FEA002343F0004310F0004F23FA02F0AA
:4048400018BF404270474FF00000704712F1610F01D1420205D110F0004008BF6FF0004070474FF00000704742000ED2B2F1FE4F0BD34FF09E03B3EB126209D44FEA002365
:4048800043F0004323FA02F070474FF00000704712F1610F01D1420202D14FF0FF3070474FF00000704700BF014B1868704700BF5C86FF1F0E4B70B51E460E4C0025E41AEF
:4048C000A410A54204D056F8253098470135F8E700F0EAF8084B094C1E46E41AA4100025A54204D056F8253098470135F8E770BDB44A0000B44A0000B44A0000BC4A00007E
:40490000024B0146186800F017B800BF5C86FF1F10B5431E0A44914204D011F8014B03F8014FF8E710BD03460244934202D003F8011BFAE77047000070B5CD1C25F003056E
:4049400008350C2D38BF0C25002D064601DBA94202D90C23336046E000F05CF8234B1C681A462146A1B10B685B1B0ED40B2B03D90B60CC18CD501EE08C420BBF63684B68EA
:404980001360636018BF0C4615E00C464968E9E7174C23681BB9304600F02CF820602946304600F027F8431C18D0C41C24F00304A0420DD12560304600F02DF804F10B00FE
:4049C000231D20F00700C31A0ED05A42E25070BD211A304600F00EF80130EBD10C233360304600F018F8002070BD00BF7CB3FF1F78B3FF1F38B5064C0023054608462360BE
:404A0000FDF75AFF431C02D1236803B12B6038BDE4B4FF1F7047704700000000004F0040300040510040300000000140001000140140000800400140000A004C014000028C
:404A40000050014020004300000000000000000000000000000000000000000000000000000000000000000000000000000000000000000000000000000000000000000042
:404A800000000000000000000000000000000000000000000000000000000000000000000000000000000000F8B500BFF8BC08BC9E4670474D000000A1290000F8B500BFF4
:404AC000F8BC08BC9E46704729000000E04A0000C880FF1F98050000882E000000000000000000000A000000435333303120323031360A0D00000000000000000000000063
:404B000000000000000000000000000000000000000000000000000000000000000000000000000000000000010000000000E842000090420101060001000000010000006E
:404B40000100000001000000010000000100000001000000010000000100000001000000010000000100000001000000010000000100000001000000010000000100000025
:404B800001000000010000000000000001000000000000000000000000000000000000000000000000000000000000000000000000000000000000000000000000000000F2
:404BC00000000000000000000000000001000000010000000000000001000000000000000100000001000000010000000100000001000000000000000100000001000000AB
:404C0000010000000000000001000000010000000100000000000000010000000100000000000000000000000000000001000000000000000000000000000000010000006C
:404C4000000000000000000000000000000000000000000000000000000000000100000000000000010000000100000001000000010000000000000001000000000000002E
:404C800001000000000000000100000001000000010000000000000001000000000000000100000001000000010000000000000001000000010000000000000000000000EA
:404CC00000000000010000000000000001000000000000000000000000000000010000000000000001000000000000000000000000000000000000000000000001000000AF
:404D00000100000000000000010000000100000001000000000000000100000000000000010000000000000001000000000000000100000000000000010000000100000069
:404D4000010000000000000001000000010000000000000001000000000000000100000000000000000000000000000001000000000000000100000000000000010000002B
:404D800000000000010000000000000000000000000000000100000001000000000000000100000000000000010000000000000001000000010000000100000000000000EB
:404DC00001000000000000000100000000000000010000000000000001000000010000000100000001000000000000000000000000000000010000000000000001000000AA
:404E0000000000000000000000000000010000000000000000000000000000000100000000000000000000000000000001000000010000000100000001000000000000006C
:404E40000100000000000000010000000100000001000000010000000100000001000000010000000100000001000000010000000100000000000000010000000100000024
:404E800000000000000000000000000000000000000000000000000000000000000000000000000000000000000000000000000000000000000000000000000000000000F2
:404EC00000000000010000000100000000000000010000000100000001000000010000000100000001000000010000000100000001000000010000000100000000000000A5
:404F0000010000000100000001000000010000000100000001000000000000000000000000000000000000000000000000000000000000000100000000000000000000006A
:404F40000000000000000000000000000000000000000000000000000000000001000000010000000100000001000000010000000100000001000000010000000100000028
:404F80000100000001000000010000000100000001000000010000000100000001000000010000000100000001000000010000000100000001000000010000000D000000D5
:404FC00011000000030000000F0000000D0000000700000009000000070000000100000001000000000000000100000000000000FFFFFFFF0100000000000000FFFFFFFF6E
:4050000000000000CDCCCC3E3333333F19000000E8B4FF1F00000000484A0000684A0000884A000000000000000000000000000000000000464A000000000000000000007C
:4050400000000000000000000000000000000000000000000000000000000000000000000000000000000000000000000000000000000000FC85FF1F000000000000000091
:4050800000000000000000000000000000000000000000000000000000000000000000000000000000000000000000000000000000000000000000000000000000000000F0
:4050C00000000000000000000000000000000000000000000000000000000000000000000000000000000000000000000000000000000000000000000000000000000000B0
:40510000000000000000000000000000000000000000000000000000000000000000000000000000000000000000000000000000000000000000000000000000000000006F
:40514000000000000000000000000000000000000000000000000000000000000000000000000000000000000000000000000000000000000000000000000000000000002F
:020000040003F7
:0200000480007A
:4000000001450040074F00400552004004640040036500405E0001403A010140480201403C0301404404014045050140420601403B0701404708014045090140480A0140C5
:400040003A0B0140010D0140010F01405D140140511501404F160140471701404C180140541901404A1A01404B1B0140084001400D4101401242014014430140064501404C
:4000800007460140054701401448014012490140074C0140084D01400C500140035101407E0201100A360D10161B194022362E36182819206018611C7C40816F820F870F1B
:4000C000890F856F89728A38040C0601080C0A020B020C0B0E0410081201210126102A0F2B012C073010320F350137023F104042410149FF4AFF4BFF4DA04F015018580450
:4001000059045A045C225D025F016040628064406540668068406A806C406D206E8081028F049002930499049C02A201A301A402A801A902B001B301B402B504B702B8203D
:40014000B980BE11BF10C042C101C54CC630C72EC83BC9FFCAFFCBFFCDAFCE07CF01D018D40FD804D904DA04DB04DC20DD22DF05E040E280E440E540E680E840EA80EC405A
:40018000ED20EE800018030108010F421020120A1340150116201710181019011C041D201E802240230824082540271029012A202D012E203402371239203D803F0240069E
:4001C00042C04402452046804D014F045420562857015D105E825F08660867047E0285108701C007C298C477CAA5CCA0CE94D0BDD6F0D860DE10E208030804C50502063A60
:4002000008A309020A5C0CFE0E010F01109611011268150219011D081E01207F2102240E26F027042F023108330134FF37063E103F05540F580459045B045C205D205F0129
:40024000849E8506866088CF89088A308B108CFD8D038E02903092C99510970899089B109D089F10A105A20FA506A894AA60AC73AF20B107B318B4FFB720B902BB08BE1077
:40028000D804D904DC20DF0100180214030104100612070108010C010D8012081342150A18041F202105228823402580260127202A062B012C012E032F20325836883712D7
:4002C00039203A083B403C183D803E083F025C805D045E015F209010928095209640974098809B109C019F03A140A301A404A609A884C0E7C298C43BCADBCCFECEFED6F016
:400300000710080209020B040E030F20110E150217041B011D0E210827082F0E3002320133203501371E3E01580459045C285F118201850A8620870588208B208C168D0719
:400340008E08900E9105930A94019503970C98189A049D0F9E01A310A410A540A602A818A90CAA02AB03AE1EB001B140B310B41EB520B620B70FBE41BF01D280D804D904AC
:40038000DB04DC22DD20DF0100100302062007490C020D880E090F4011081308140115101605170418101A801C081E481F50211023222508268227092A852D102E053002C4
:4003C000329833043401368838043A403B203C083E203F404680470277407B088202830887028A04900493509520966098409A049C019F03A180A208A404AC40AD04AF5082
:40040000C0F3C2F0C4E0CAEBCCDFCE7EDE04E208E42101FD02010302041C070F09940A100B600D7314041530160817C91810199E1B601C1C2202261C280429CF2A082B3054
:400440002E20300231FF343C36013F015608580459045B045C025D905F01810284108701880C9006941097019A109C0A9D02A201A40CA801A901B00EB201B302B410B70188
:40048000B802B908BE14BF40D40FD804D904DB04DC22DD20DF010008012004040525080409040A490E280F01110112601320151416801740188019181A401C881D011E02BB
:4004C00021082244274028042D20310832803634370839053C1A3D143E413F0159145A815D4066809390962098409B209C019E60A104AA40C076C2EFC4FECA24CC6ACEF366
:40050000D61FD810E214E602EC10EE08001C02020410060C08140B030C10100C121113081603170C180919011A101B061D0C1F032101230E310F321F3B02580459045C33B2
:400540005F018104821083218508860C8742880389038A088B6C8E0390109125934A950F9610990F9A429E21A210A403A580A604A810AB10AC21AE42B170B260B380B40F06
:40058000B50FB610BA22BE40BF05D401D604D804D904DB04DC33DD30DF0100800364042005010601076108080A500B850E6810A21248188019A01A201B201E201F08211276
:4005C0002204274029202A0C2F40302233043604376139203B053E1059805A085B126340680269408740884089108F1091099202938594809680971098089A019CA09D10DE
:400600009E029F40A280A50AA60CA708AF20B720C0FFC27FC40FCA86CCF7CE27D60FD801E214EC1001040511070609060D171111171119021D071E011F1023202506271100
:4006400029082D20311033073520360137083B083F505608580459045B045C385D905F31820283028A0A8E04900195069A0C9B019D049E06A106AA01AC0CAE02B306B40153
:40068000B60EB701B908BA80BE10BF04C002C740C9FFCA07CBFFCC40CD20CEF0CF05D008D804D904DA04DC83DD03DF31E040E1A8E240E32005020601070408800E8A17603F
:4006C00019801E021F6021042201230A2640271028A029802B082F40311A324036083764388039083A023B103F0247104D024F02560158105A406280630579017D03810130
:40070000870288088B01924098109F08B010B640C0D0C2D1C4C0CA8FCC7FCE8FD020D60CD80CDE81E208E4029F0887080002040408040E011002130114041A081D012002B5
:40074000230126042C042F02300C3402350236013701382039083E103F444052410649FF4AFF4BFF4DA04F0150185608580459045A045B045C225D925F0160406280644028
:400780006540668068406A806C406D206E8089088B01910B9304970F990C9B02A110A90CAB01AD07B110B50FBF01C052C106C53CC640C72EC83BC9FFCAFFCBFFCDAFCE072E
:4007C000CF01D018D40FD904DA04DB04DC20DD22DF05E040E280E440E540E680E840EA80EC40ED20EE8001010221030809280A40110212821308180419412002210422101F
:400800002621280229012A012E422F0A300231403622370839403B803C1040044310471048054B504D014F545501562458405D6A6002660467047F028121820288018902A7
:400840008E0190109240938095099620984099089B089C019D019E20A006A128A202A308A6A0A880AB04AD04C00FC20EC40DCAB9CCE9CE20D024D23CD6F8D868DE10E210E9
:40088000E401E640EA01EC04001C03010602083009040A0C0B020D080F1011081310140C1510163017081D021E011F04203C2414250826282710282829022A142B042D02EA
:4008C0002E402F04300231013240330634013518363C3B285608580459045B045C225D905F01800B82048408859686018768880C8A028D7F90079301950E960F97F099C5FE
:400900009B3AA40CA601A9A3AA10AB5CADFEAF01B210B40FB5FFBF10D280D804D904DB04DC02DD20DF01000601200524068009080A400D080E0210041220164017581920DC
:400940001B041C021D441F25212024142508274829602A402B082F253109322033103601374838843A803C903F0149404A025C805F106404670170029080924093909410F4
:4009800095019620984099089C019D209E209F08A044A201A401A6A0A804AA40B540C07EC2ACC4F6CA7CCCD7CEBAD630D830E840EA02EE020201100114021701180420044B
:4009C000240428013204330134033820580459045C235F01800484CF850286308AC38C048D028E08903C92C19301960C987C9A829C10A020A408A830A902ACFFAD02B0B025
:400A0000B302B43FB501B670BA22BF04C023C105C201C404C5C0C6E0C80AC9FFCAFFCBFFCC62CDA0CEF0CF41D00CD602D712D804D904DA04DB04DC83DD33DF31E640E702FD
:400A4000E910EA30EB10ED10EE10EF1200200144028004800501060108200AA00B020C200E50108012011314172519201A811B011C201D081E081F202224271029202B01DD
:400A8000330235043880390C3A083B40410A420948404B405120582059205A0868206B05708071107202731079018D108F01908091499272938494209680971098089901EA
:400AC0009CA09D109E469F24A102A280A420A508A60CA710AA08AB02B480B710C01FC27FC47FCA0CCC41CE0AD00FD208D602DE01EA02EE02012005200B050E020F10110A63
:400B000013041503170C1B101E021F20210322012304240127082B202D032F043002330F34013510372039803B083E113F104062410546BC470E481C49FF4AFF4BFF4EF0CE
:400B40004F44500C54185604580459045A045B045C305D335F0166C06A406B0280028204860193019402960498049A029C029E049F02A801B201B406B502B701BA20BE0404
:400B8000D804D904DC22DF01008005060A010D800E241080122017101B111E041F042140220823242580269029602BA0312132483502368039A83A014008411049404A0825
:400BC0004B805010524453805A026202630668026B088080810483028A048B0C8C029108928393809420980899239A019B109D049E449F20A040A120A220A320A60AA712B6
:400C0000A902AA02B080C031C2E1C44CCA0FCC9FCE0FD004D20CD601D80DE284E6603002332037423B208402CCF0CE10E210038006200F01320233103402372097209F428E
:400C4000A720C030C280CCF051085680812082808908930197209C029F72A602A720AE20AF80D460E280E480E810EC1019021D086404831084028F0297209C029D209F32D3
:400C8000A508A602AB40AF20B701C630D880E220E640EE9001800B205220C002C208D40486208702A620B310B580EA04EE020B440F808340A702C20E0040074029206404DA
:400CC0006F027120944099029C049D20A602AF30B440C060CA10D880DA80DC20EA40EE4056205B02650281028E208F029902AA02AB40AC04AD20AF02D440D640D880E420C9
:400D0000EA90EC8003020B400F80A702AF44C002C20C764083408A40A340B340DE04E401EA04000C010108040A040B010C080D01100C11011A041B011C0C00FF01EA02031F
:400D40008300000000000000001C1C001C0000004000060000000000C0000000340B0B00000000000800140A0A00080000000000007B7B00380000000000000000000000E6
:400D80000000000000000000000000000000000000000000000000000000000000000000000000000000000000000000000000000000000000000000000000000000000033
:400DC00000000000000000000000000000000000000000000000000000000000000000000000000000000000000000000000000000000000000000000000000000000000F3
:400E000000000000000000000000000000000000000000000000000000000000000000000000000000000000000000000000000000000000000000000000000000000000B2
:400E40000000000000000000000000000000000000000000000000000000000000000000000000000000000000000000000000000000000000000000000000000000000072
:0200000490006A
:0400000000004005B7
:0200000490105A
:04000000BC90ACAF55
:0200000490303A
:020000004FA609
:0200000490402A
:4000000000000000000000000000000000000000000000000000000000000000000000000000000000000000000000000000000000000000000000000000000000000000C0
:400040000000000000000000000000000000000000000000000000000000000000000000000000000000000000000000000000000000000000000000000000000000000080
:400080000000000000000000000000000000000000000000000000000000000000000000000000000000000000000000000000000000000000000000000000000000000040
:4000C0000000000000000000000000000000000000000000000000000000000000000000000000000000000000000000000000000000000000000000000000000000000000
:0200000490501A
:0C00000000012E16106900012E36600F62
:00000001FF