:400000000080002011000000590600005906000080B500AF024A034B1B68136000F026FBBC760040FA46004010B5054C237833B9044B13B10448AFF300800123237010BD38
:400040006881FF1F00000000203E0000084B10B51BB108490848AFF300800848036803B910BD074B002BFBD0BDE81040184700BF000000006C81FF1F203E0000C880FF1F06
:400080000000000080B500AF084B01221A6003F0D1F803461A46064B1A60002003F0DCF803F0B0F803F056FB00BF80BD9C81FF1F9881FF1F80B500AF03F018FC024B0122AD
:4000C0001A6000BF80BD00BFA081FF1F80B500AF002000F049FC0346B3F57A7F03DD012002F0F4FF02E0002002F0F0FF00F02CFC03F01EFC00BF80BD80B500AF62B600F093
:4001000027F80E4803F054FB00F006FC0C4803F051FC0C4B00221A600B4803F099FC0121002000F043FC002003F06EFA074B1B78012BFBD1054B00221A70F7E7850000008C
:40014000CD000000A081FF1FB50000009481FF1F80B500AF02F0DCFE02F016FE642002F0A7FE02F0EFFE642002F080FF02F0F0FF03F048F803F0CCFA03F068FB00BF80BDC7
:4001800080B582B000AF786039603A680021786803F03DFE00BF0837BD4680BD80B584B000AFF860B9607A607A68B968F86803F023FE00BF1037BD4680BD00BF80B483B063
:4001C00000AF0346FB71FEE780B487B000AF7860396000233B6100237B6127E07B699B007A6813441B68BB60BB68FB73BB6823F0FF03BB6014E03B695B003A6813441B78AD
:400200001A46BB68134419463B695B003A6813445B780B703B6901333B61FB7B013BFB73FB7B002BE7D17B6901337B617B692B2BD4D900BF1C37BD4680BC704780B582B008
:4002400000AF404B04221A803F4B18221A703F4B3A221A803E4B18221A703E4B81221A803D4B18221A703D4B00221A803C4B1B221A703C4B40F6B7321A803B4B1C221A7037
:400280003A4B4EF65F221A80394B18221A70394B06221A70384B52221A70384B384A1278D2B21A70374B40F619121A80364B41F251221A800023FB7019237B6014E0FB7874
:4002C0005B00DAB2314B1B78DBB203F00103DBB21343DBB203F00303FB704FF4F07003F007FC7B68013B7B607B68002B02D0FB78032BE4D17B68002B02D10320FFF75EFF90
:40030000234B4FF480721A80214B07221A70214B00221A70204B48221A701D4B00221A701E4B00221A701E4B02221A701D4A1D4B1B78DBB243F03F03DBB2137000BF083738
:40034000BD4680BD80400040824000408440004086400040884000408A4000408C4000408E400040904000409240004094400040964000400043004000420040A14600408D
:400380000F0100492242004020420040254200400440004006400040084000400940004001400040A243004080B582B000AF254B1B78FB71244B1B78BB71244B1B787B7195
:4003C000234AFB7903F00703DBB21370214AFB791B09DBB213701C4ABB7943F00303DBB213701A4A7B7943F00303DBB213701A4BE0221A70194BB4221A70194B01221A70B2
:40040000184B40221A70184B40221A70174BA0221A70174BCF221A70164B20221A70164BC1221A700A2002F0EDFB084A7B791370054ABB791370114B44221A7000BF08377B
:40044000BD4680BDCF010049F8460040F94600406E5800406F5800400D5100401D5100402D510040095900400B590040045B0040285B00402B5B0040585B004076580040A0
:4004800080B586B000AF72B6574B61221A70FFF7D5FE554B01221A70544A544B1B78DBB243F00403DBB213700023FB7513E0FA7D13465B0013445B004D4A13443B613B69FD
:4004C0001A683B699B889BB219461046FFF758FEFB7D0133FB75FB7D062BE8D90023FB751CE0FA7D13469B0013445B00414A1344FB60FB681B68BB60FB685B687B60FB6891
:400500001A7A5B7A1B0213437B807B881A467968B868FFF743FEFB7D0133FB75FB7D002BDFD035494FF09040FFF74EFE04213348FFF726FE042232493248FFF72FFE324B97
:40054000324A1A60324A324B1B78DBB243F00203DBB213702F4A2F4B1B78DBB243F00203DBB213702C4A2C4B1B78DBB243F04003DBB21370294A294B1B78DBB243F01003E9
:40058000DBB21370082226492648FFF707FE082225492648FFF702FE0A2225492548FFF7FDFD082224492548FFF7F8FD0A2224492448FFF7F3FD082223492448FFF7EEFD79
:4005C000234A234B1B78DBB243F00803DBB21370FFF7EAFE0E2210491E48FFF7DFFD00BF1837BD4680BD00BF00480040E8460040243E0000503E0000B00000480076004072
:40060000341100480876004058140140040400440350014013500140A0430040C2430040FC1000480251004004110048C25100400C110048F0510040181100481251004045
:4006400020110048205100402C1100483251004022430040B043004080B500AF03F0A0FB03461B680C2B00D1FEE7FEE780B586B000AF224B7B61224B3B61204B7B6135E058
:400680003B691B68FB603B695B68BB603B699B683B6000237B600CE0FB681A68BB681A60BB680433BB60FB680433FB607B6804337B607A683B689A42EED13B69DB683B6087
:4006C00000237B6008E0BB6800221A60BB680433BB607B6804337B607A683B689A42F2D13B6910333B617B69013B7B617B69002BC6D103F05BFBFFF7FFFCFEE70100000082
:400700009440000080B582B000AF194B194A1A60194A194B1B6843F40073136000237B600FE07B68032B04D8144A7B6852F8233000E0134B13497A6841F822307B68013351
:400740007B607B682F2BECD90F4B1B78DAB20F4B1A700F4B0B4A1A60FFF792FE02F02AF80C4B00221A6000BF0837BD4680BD00BF0CED00E00004FA0514ED00E000000000CF
:40078000590600000080FF1FBC760040C480FF1F08ED00E0C080FF1F80B500AF41F6FF734FF480420121022001F06CFF03461A460A4B1A7041F6FF7341F6FF7201211020D8
:4007C00001F092FF03461A46054B1A70054801F0BDFF002001F0CCFF00BF80BDA881FF1FA981FF1FA109000080B582B000AF414B1B78184602F052F83F4B1B78184602F0AD
:400800004DF83E4B1B78FF2B05D102F053F903461A463A4B1A70394B1878384B1A780623102102F075F9354B1B78354A92B245F6A231184602F0ACF92E4B1A782F4B1B788D
:400840001946104602F0C8F82E4B1B78FF2B05D102F030F903461A462A4B1A70294B1878284B1A780723102102F052F9254B1B78234A91B2244A92B2184602F089F91E4B01
:400880001A78204B1B781946104602F0A5F8194B1B780121184601F0BBFF174B1B780121184601F0B5FF03F02BF90346FB71174A164B1B78DBB243F02003DBB21370FB79A0
:4008C000184603F021F9124A114B1B78DBB243F00103DBB213700E4A0D4B1B78DBB243F00203DBB213700B4B01221A6000BF0837BD4680BDA881FF1FA981FF1FCC80FF1F2C
:40090000AC81FF1FCD80FF1FCC81FF1F9C6400407B64004080E200E080B500AF084B1B68002B04D1FFF738FF054B01221A6001F0B5FDFFF759FF034B1B7800BF80BD00BF94
:40094000A481FF1F6A65004080B400AF054A054B1B78DBB243F00403DBB2137000BFBD4680BC70477B64004080B483B000AF0346FB80FB88C3F10703074A32F913309AB23F
:40098000064B1B881BB29BB2D31A9BB21BB218460C37BD4680BC7047CC81FF1F7A82FF1F80B400AF00BFBD4680BC704780B582B000AF03460A46FB711346BB71094B1B78E7
:4009C000002B04D100F010F8064B01221A70BA79FB791146184600F0D9F800BF0837BD4680BD00BFBC81FF1F80B582B000AF03F087F80346FB71544A534B1B78DBB243F0C0
:400A00000103DBB21370514A504B1B78DBB243F00103DBB213704E4B01221A704D4B02221A704D4A4C4B1B78DBB203F07F03DBB21370002002F0E6F8484A484B1B78DBB271
:400A400023F00603DBB21370454A454B1B78DBB223F02003DBB21370404A404B1B78DBB243F00103DBB21370012002F0CBF8282002F0C8F83B4A3B4B1B78DBB203F07F03D9
:400A8000DBB21370374A374B1B78DBB223F04003DBB21370314A314B1B78DBB243F00203DBB21370022002F0ADF82C4A2B4B1B78DBB243F00403DBB213702B4B00221A700D
:400AC0002A4B00221A70FB79184603F01DF80721172002F0D3F82649172002F0A7F80721182002F0CBF82349182002F09FF80721152002F0C3F82049152002F097F8072115
:400B0000012002F0BBF81D49012002F08FF80721022002F0B3F81A49022002F087F80721032002F0ABF81749032002F07FF807210C2002F0A3F814490C2002F077F800BFBC
:400B40000837BD4680BD00BFA5430040B54300409D60004009600040106000409443004012600040F851004084600040856000400D140000F50C0000011400001913000043
:400B800061130000AD1300001914000080B582B000AF03460A46FB711346BB712E4AFB7913702E4B00221A702D4B00221A702D4B00221A702C4B00221A702C4B00221A7012
:400BC0002B4B00221A702B4B00221A702A4B4FF400021A60284B4FF080721A60264B4FF400121A60244B02221A60234B04221A60214B08221A60BB79002B02D0012B09D0BE
:400C000011E01E4A1D4B1B78DBB223F00103DBB2137011E0194A194B1B78DBB243F00103DBB2137008E0154A144B1B78DBB243F00103DBB2137000BF114B03221A70114B5A
:400C400080221A70012002F053FF0F4B04221A7000BF0837BD4680BDDD81FF1FE081FF1FFC81FF1FFF81FF1FF481FF1FFE81FF1F0182FF1FDC81FF1F00E100E009600040B1
:400C800028600040086000401260004080B400AF0F4B00221A700F4B00221A700E4B00221A700E4B00221A700D4B00221A700D4B00221A700C4B00221A700C4B03221A7008
:400CC0000B4B80221A7000BFBD4680BC704700BFE081FF1FFC81FF1FFF81FF1FF481FF1FFE81FF1F0182FF1FDC81FF1F286000400860004080B582B000AF374B1B78BB7133
:400D0000BB7903F01003002B62D00123FB7197F90630002B12DABB7903F00F03012B02D00023FB711CE000F061F82C4B1B78DBB25BB2002B14DA0023FB7111E0BB7903F040
:400D40004003002B02D000F095F809E0BB7903F02003002B02D000F0B3F801E00023FB71FB79002B34D01C4B1B78BB7197F90630002B2DDB1A4B1B78DAB21A4B1B78DBB2B0
:400D80001343BB71184ABB791370174B1B78DBB2BA799A421CD1114B1B78FB710E4B1B78DBB223F07F03BB71BB79002B0AD10A4B0A4A1278D2B21A70074B1B78DBB203F0A5
:400DC0000F03FB71054B1B78DBB2FA799A42E2D100BF0837BD4680BD28600040FD81FF1F7282FF1F0082FF1F2960004080B582B000AF1D4B1B78FB711B4AFB7913701A4BA8
:400E00001B78FB7197F90730002B03DA174AFB79137025E0022000F045FA154B1B78DBB203F06003202B08D0402B0BD0002B0ED100F0F8FA0346FB710CE002F053FF0346DD
:400E4000FB7107E001F000FB0346FB7102E00023FB7100BFFB79002B02D1044B03221A7000BF0837BD4680BD28600040FD81FF1F0060004080B500AF104B1B78DBB2062B0C
:400E800019D801A252F823F0B70E0000B70E0000A50E0000B70E0000AB0E0000B70E0000B10E000000F0F8F806E000F0A7F903E000F0D2F900E000BF00BF80BDE081FF1FF4
:400EC00080B500AF124B1B78DBB2062B1DD801A252F823F00B0F00000B0F0000F10E00000B0F0000F70E00000B0F0000FD0E000000F0D8F80AE000F027F907E0032000F040
:400F0000D1F9044B03221A7000E000BF00BF80BDE081FF1FFD81FF1F80B483B000AF0023FB71294B1B78DBB29AB2284B1B889BB213449AB2254B1A8015E02549FB79254A58
:400F400052681278D2B2CA54224B5B680133214A5360FB790133FB711E4B1B889BB2013B9AB21C4B1A801B4B1B889BB2002B02D0FB79072BE1D9144B1B78DBB2082B02D0DC
:400F8000FB79002B0FD0144B1B78DBB283F07F03DB43DAB2104B1A70104B0F221A70104B02221A7005E00D4B02221A700C4B02221A700C4AFB791370034AFB79137000BF51
:400FC0000C37BD4680BC7047DC81FF1FDE81FF1F00600040E881FF1F7282FF1FFD81FF1FE081FF1F0082FF1F80B582B000AF164B1B889BB2002B02D100F02EF81EE0134BF5
:4010000002221A70124B00221A7000F06BF9114BDB79DBB29BB21B029AB20E4B9B79DBB29BB21343FB80084B1B889BB2FA889A4202D2054AFB881380FFF76EFF01231846DB
:401040000837BD4680BD00BFE881FF1FE081FF1F7282FF1F0060004080B400AF094B02221A70094B80221A70084B0F221A70084B00221A70074B00221A7001231846BD4685
:4010800080BC7047E081FF1F7282FF1FFD81FF1FDC81FF1F0082FF1F80B500AFFFF73CFF00BF80BD80B500AF0A4B1B78DBB29AB2094B1B889BB213449AB2074B1A80074B1A
:4010C00000221A70012000F0EDF8054B03221A7000BF80BDDC81FF1FDE81FF1FE081FF1FFD81FF1F80B582B000AF124B04221A70114B80221A7000F0F5F8104BDB79DBB27C
:401100009BB21B029AB20D4B9B79DBB29BB21343FB800B4B1B889BB2FA889A4202D2084AFB881380074B0B221A70012318460837BD4680BDE081FF1F7282FF1F00600040C7
:40114000E881FF1FFD81FF1F80B483B000AF0023BB71234B1B78DBB203F00F03DBB2023BFB71FB799AB21F4B1B889BB213449AB21C4B1A8018E01C4B5B681C49BA798A5CC0
:40118000D2B21A70184B5B680133174A5360BB790133BB71FB79013BFB71134B1B889BB2013B9AB2104B1A800F4B1B889BB2002B02D0FB79002BDED10D4AFB7913700D4BFD
:4011C0001B78DBB283F07F03DB43DAB2094B1A70094B0B221A7000BF0C37BD4680BC704729600040DE81FF1FE881FF1F006000400082FF1F7282FF1FFD81FF1F80B500AFB0
:40120000054B00221A70012000F04CF8034B03221A7000BF80BD00BFE081FF1FFD81FF1F80B400AF084B06221A70084B06221A70074B80221A70074B00221A70012318469F
:40124000BD4680BC704700BFE081FF1FFD81FF1F7282FF1F0082FF1F80B500AF0D4B1B78DBB2002B0AD00C4A0A4B1B78DBB263F07F03DBB21370074B00221A70074B002269
:401280001A70012000F00EF8054B03221A7000BF80BD00BFFE81FF1F08600040E081FF1FFD81FF1F80B483B000AF0346FB710B4B9B68002B0CD0094B9B68FA791A70074BA2
:4012C0009B68074A128892B25A80044B00229A6000BF0C37BD4680BC704700BFE881FF1FDE81FF1F80B400AF094B00221A80094B9B68002B07D0074B9B6800221A70054B1F
:401300009B6800225A8000BFBD4680BC704700BFDE81FF1FE881FF1F80B400AF0D4B01221A700D4B9B7C0D4B1B7BDBB203F00303012B08D0094BDB7BDBB283F07F03DB431D
:40134000DAB2064BDA73054B01225A7300BFBD4680BC70470B600040FC5F00400482FF1F80B400AF0E4B02221A700E4B93F822300D4B1B7EDBB203F00303012B08D00A4B74
:40138000DB7EDBB283F07F03DB43DAB2064BDA76054B01225A7600BFBD4680BC704700BF0B600040FC5F00400482FF1F80B400AF104B04221A70104B93F832300F4B93F84B
:4013C0002430DBB203F00303012B0AD00B4B93F82730DBB283F07F03DB43DAB2074B83F82720064B012283F8252000BFBD4680BC704700BF0B600040FC5F00400482FF1F03
:4014000080B400AF00BFBD4680BC704780B500AFFFF73CFC00BF80BD80B500AF01F0BAF900BF80BD80B586B000AF0023FB759D4B1B78FB7100233B619B4B00221A8097F9FD
:401440000730002B80F20481964B5B78DBB20A2B00F21B8201A252F823F000BFA71500008B1800008B1800008B1800008B1800008B180000891400008B1800001B160000F3
:401480008B18000031160000864BDB78DBB2012B0ED100F049FEB860BB685B68824A5360814B12221A80FFF79FFD0346FB75EEE17C4BDB78DBB2022B25D17A4B9B78DBB2EF
:4014C000184600F009FEB860BB68002B00F0DF81BB685B68744A5360734B5B6803331B78DBB29BB21B029AB26F4B5B6802331B78DBB29BB213439AB26B4B1A80FFF774FD85
:401500000346FB75C3E1674BDB78DBB2032B45D10023FB73654B3B6109E03B691B78BB71BB793A6913443B61FB7B0133FB735D4B9B78DBB2FA7B9A4204D23B691B78DBB23A
:40154000002BEAD1574B9B78DBB2EE2B01D1584B3B61544B9B78DBB2002B0BD0514B9B78DAB2544B1B7C9A4204D1534800F0ACF9514B3B613B691B78DBB2002B00F0878163
:401580003B691B78DBB29AB2474B1A80464A3B695360FFF729FD0346FB7578E102F0A2FB0346FB7573E1FB7903F00303002B20D0022B00D030E03C4B02221A80394B1B794C
:4015C000DBB203F07F023D4913465B0013449B000B4402331B78DAB2394B1A70384B00225A70314B364A5A60FFF7FEFC0346FB7512E02D4B02221A80324B1B78DAB2304B00
:401600001A702F4B00225A70274B2D4A5A60FFF7EBFC0346FB7500BF40E1234B01221A80214B294A5A60FFF7DFFC0346FB7535E11D4B01221A801B4B1B79DBB21A46234BC3
:401640001344194A5360FFF7CFFC0346FB7525E1144B5B78DBB2013B0A2B00F21A8101A252F823F06F17000093180000FD17000093180000911600009318000093180000D3
:4016800093180000D5160000931800002B170000044B9B78DAB20E4B1A70FFF7C1FD0346FB75FBE000600040E881FF1FC83E0000D03F0000703E00009C82FF1F0482FF1FC4
:4016C000C081FF1F0182FF1FFF81FF1F7082FF1FFE81FF1F744B9B787B717B79002B06D07B79013BDBB2184600F0F6FCB8607B79002B02D0BB68002B03D17B79002B40F075
:40170000CA806A4B1B78DBB27A799A4208D0674A7B791370664B01221A70012000F0DCF9FFF77EFD0346FB75B5E000F055FE0346002B00F0B2805C4B1B793B715A4B1B79BF
:40174000DAB25C4B1A703B795B4AD35CDAB23B795A49CB5CDBB29A4204D0554B01221A7000F08CFBFFF75CFD0346FB7595E0FB7903F00303012B20D0012B0CD3022B00D00B
:401780003BE0494B9B78DBB2002B31D100F078FD0346FB752CE0444B9B78DBB2012B29D1474B1B78DBB223F00203DAB2444B1A70FFF736FD0346FB751CE03B4B1B79DBB23A
:4017C000012B19D8384B9B78DBB2DB43DBB2364A1279D2B2114610463A4A125CD2B21340DAB2384B5A54FFF71BFD0346FB7503E000BF53E000BF51E000BF4FE0FB7903F05B
:401800000303012B20D0012B0CD3022B00D03BE0254B9B78DBB2002B31D100F0BDFC0346FB752CE0204B9B78DBB2012B29D1244B1B78DBB243F00203DAB2214B1A70FFF748
:40184000EFFC0346FB751CE0174B1B79DBB2012B19D8154B9B78DBB2DB43DBB2124A1279D2B211461046174A125CD2B21340DAB2144B5A54FFF7D4FC0346FB7503E000BF05
:401880000CE000BF0AE000BF08E000BF06E000BF04E000BF02E000BF00E000BFFB7D18461837BD4680BD00BF00600040FF81FF1FFC81FF1FF481FF1FE481FF1F7082FF1F82
:4018C0000182FF1F7482FF1FB0B58AB000AF7860324B07F114041D460FCD0FC42B682370002387F826307B68002B52D07B6822221A707B68013303221A7007F10C03184644
:4019000001F0E0F9022387F827303EE097F827307A68134497F8262007F128010A4412F81C2C1209D2B207F128010A4412F8142C1A7097F8273001337A68134400221A702E
:4019400097F8273002337A68134497F8262007F128010A4412F81C2C02F00F0207F128010A4412F8142C1A7097F8273003337A68134400221A7097F82630013387F8263048
:4019800097F82730043387F8273097F82730212BBCD900BF2837BD46B0BD00BF5C3E000090B482B000AF0123FB7180E0464AFB791B0113440C221A70FA79444913465B008E
:4019C00013449B000B4405331B78DBB2002B1CD0FA793E4913465B0013449B000B4404331B78DBB25BB2002B07DA394AFB791B01134402330C221A700EE0354AFB791B0184
:401A00001344023308221A7006E0314AFB791B011344023380221A702B48F979FA792B4C13465B0013449B00234406331B889BB2DAB20B01034406331A702348F979FA79C6
:401A4000224C13465B0013449B00234406331B889BB21B0A9BB2DAB20B01034407331A701948F979FA79194C13465B0013449B00234406331B889BB2DAB20B0103440433B6
:401A80001A701148F979FA79104C13465B0013449B00234406331B889BB21B0A9BB2DAB20B01034405331A70FB790133FB71FB79082B7FF67BAF074BFF221A7000BF083764
:401AC000BD4690BC704700BF706000400482FF1FFC5F00400A60004080B58AB000AF0346FB7100237B84002387F8273050E097F82720B34913465B0013449B000B44002221
:401B00001A7097F82720AE4913465B0013449B000B44023300221A7097F82720A84913465B0013449B000B44033300221A7097F82720A34913465B0013449B000B440833E8
:401B400000221A8097F827209D4913465B0013449B000B440A3300221A7097F82720984913465B0013449B000B44013300221A7097F82720924913465B0013449B000B44DD
:401B8000053300221A7097F82730013387F8273097F82730082BAAD9FB79002B16D0002387F825300EE097F82530864A0021D15497F82530844A0021D15497F82530013341
:401BC00087F8253097F82530012BECD97F4B1B78DBB2002B00F04A810023FB767B4B1B78DBB2013BDBB2184600F076FA78617B695B683B613B6907331B7803F04003002B7D
:401C000008D0734B1B78DBB243F00103DAB2704B1A7007E06E4B1B78DBB223F00103DAB26B4B1A707B6908337B617B691B7887F82730012387F82530B6E07B695B68FB616A
:401C4000002387F82630A3E097F82520FB699B7803F07F039A4240F0938097F82520584913465B0013449B000B4408331B889AB2FB699B889A420CD297F82520FB699888DD
:401C80004F4913465B0013449B000B44083302461A80FB691B781A464A4B9B5CDAB2FB695B789A426CD197F82520FB699878444913465B0013449B000B44043302461A70E8
:401CC00097F82520FB69D8783D4913465B0013449B000B4402461A70FB69DB7803F00303FB73FB699B785BB2002B1CDA97F82520FB7B012B01D1072000E00D2030491346FE
:401D00005B0013449B000B44053302461A7097F825202B4913465B0013449B000B44013301221A701BE097F82520FB7B012B01D1052000E00920224913465B0013449B005D
:401D40000B44053302461A7097F825201C4913465B0013449B000B44013300221A70FB699B790A2B03D0FB699B79022B08D1FA7E97F825301946F86901F06CFF0346FB76CC
:401D8000FB690833FB6197F82630013387F8263097F8262097F827309A42FFF455AF97F82530013387F8253097F82530082B7FF644AF7B695B68FB61002387F8253020E047
:401DC0000482FF1F7082FF1FE481FF1FFF81FF1F0182FF1FFB699B7803F07F02FB691878244913465B0013449B000B440A3302461A70FB690833FB6197F82530013387F88B
:401E0000253097F8252097F827309A42E2D300F09DF90246184B1A6000237B84012387F827301DE097F82720124913465B0013449B000B4406337A8C1A8097F827200D4913
:401E400013465B0013449B000B4408331B889AB27B8C13447B8497F82730013387F8273097F82730082BDDD9FFF79AFD00BF2837BD4680BD0482FF1FF881FF1F90B585B087
:401E800000AF8F4B1B78DBB2002B00F015818C4B1B78DBB2013BDBB2184600F01DF978607B6808337B607B681B78FB707B685B68BB60844B1B78BB700023FB73F7E0BB6819
:401EC0001B78BA789A4240F0EC80BB787E4AD35CDAB2BB685B789A4240F0E380BB689B7803F07F037B70BB68DB7803F003033B707A78764913465B0013449B000B440333FE
:401F000000221A707A78BB689878704913465B0013449B000B44043302461A707A78BB68D8786A4913465B0013449B000B4402461A707A78BB689888644913465B0013444D
:401F40009B000B44083302461A80BB689B785BB2002B1ADA7A783B78012B01D1072000E00D205A4913465B0013449B000B44053302461A707A78554913465B0013449B0049
:401F80000B44013301221A7019E07A783B78012B01D1052000E009204C4913465B0013449B000B44053302461A707A78474913465B0013449B000B44013300221A70444AAE
:401FC0007B781B011344023301221A70404879787A783E4C13465B0013449B00234408331B889BB21B0A9BB2DAB20B0103441A70374879787A78354C13465B0013449B0008
:40200000234408331B889BB2DAB20B01034401331A70304879787A782C4C13465B0013449B00234406331B889BB2DAB20B01034406331A70274879787A78244C13465B0050
:4020400013449B00234406331B889BB21B0A9BB2DAB20B01034407331A701E4879787A781A4C13465B0013449B00234406331B889BB2DAB20B01034404331A7015487978F6
:402080007A78124C13465B0013449B00234406331B889BB21B0A9BB2DAB20B01034405331A70BB680833BB60FB7B0133FB73FA7BFB789A42FFF403AF00BF1437BD4690BD33
:4020C000FF81FF1FF481FF1F7082FF1F0482FF1FFC5F00407060004080B485B000AF0346FB710F4B1B78DBB20E4ADB0013445B68FB60FB681033FB60FB681B78FA799A421B
:4021000002D30023FB6005E0FB79DB00FA6813445B68FB60FB6818461437BD4680BC7047DD81FF1FC83F000080B400AF054B1B78DBB2054ADB0013445B681846BD4680BC88
:40214000704700BFDD81FF1FC83F000080B584B000AF104B1B78DBB2013BDBB21846FFF7BBFFB860BB68002B0DD0BB685B681B79FB71FB790233DB00BA681344BB60BB6898
:402180005B68FB6001E00023FB60FB6818461037BD4680BDFF81FF1F80B582B000AF0023FB71344B1B79DBB203F07F03BB71BB79002B5AD0BB79082B57D8BA79B9792E48DC
:4021C0000B465B000B449B00034402331B78DBB243F00103D8B2284913465B0013449B000B44023302461A70BA79234913465B0013449B000B44033300221A70BA79B979A4
:402200001D480B465B000B449B00034401331B78DBB243F00203D8B2174913465B0013449B000B44013302461A70BA79124913465B0013449B000B4404331B78DBB25BB204
:40224000002B07DA0D4ABB791B01134402338D221A7006E0094ABB791B011344023389221A70FEF7DDFF0346FB71FB7918460837BD4680BD006000400482FF1FFC5F0040E6
:4022800080B582B000AF0023FB71504B1B79DBB203F07F03BB71BB79002B00F09280BB79082B00F28E80BA79B97949480B465B000B449B00034402331B78DBB223F0010315
:4022C000D8B2434913465B0013449B000B44023302461A70BA793E4913465B0013449B000B44033300221A703A49BB793948BA79120102441278D2B202F07F02D2B21B0156
:402300000B441A70BA79B97931480B465B000B449B00034401331B78DBB223F00203D8B22B4913465B0013449B000B44013302461A70BA79264913465B0013449B000B440D
:4023400004331B78DBB25BB2002B1BDABA79204913465B0013449B000B4401331B78DBB2012B07D11B4ABB791B01134402330C221A7022E0174ABB791B01134402330D2289
:402380001A701AE0BA79124913465B0013449B000B4401331B78DBB2012B07D10D4ABB791B011344023308221A7006E0094ABB791B011344023309221A70FEF731FF03469F
:4023C000FB71FB7918460837BD4680BD006000400482FF1FFC5F004080B584B000AF0023FB73154B1B79BB73144B1B78DBB2013BDBB21846FFF770FEB860BB685B681B79DA
:40240000FB71BA7BFB799A4202D9BB7B022B0ED8BB7BBA7B0A498A5CD1B20A4AD154BB7B054A9278D1B2064AD1540123FB73FB7B18461037BD4680BD00600040FF81FF1F35
:402440007082FF1FE481FF1F80B582B000AF0023FB710F4B1B78DBB25BB2002B12DA0C4B5B78DBB2012B00D00CE00A4B0A4A5A60094B1B789AB2074B1A80FEF7B5FD034675
:40248000FB7100BFFB7918460837BD4680BD00BF00600040E881FF1FE43F000080B500AF064B1B78002B04D100F00AF8034B01221A7000F01BF800BF80BD00BFC281FF1FC3
:4024C00080B500AF074A074B1B78DBB243F00603DBB213700C2000F06BF8034B00221A8000BF80BD095900408082FF1F80B582B000AF01F005FB0346FB71254A244B1B7875
:40250000DBB243F00203DBB21370224A214B1B78DBB243F00203DBB213701F4B1B78BB71BB7943F00203BB71BB7943F00103BB71194ABB791370194B18221A70184A184B27
:402540001B78DBB243F04003DBB21370144A144B1B78DBB223F00303DBB21370114BCE221A70114B02221A70104A104B1B78DBB243F00803DBB213700A2000F043FBFB79E0
:40258000184601F0C1FA00BF0837BD4680BD00BFAB430040BB4300400B5900400E5900400D59004008590040164600402F5B004080B584B000AF0346FB71FB790A2B07D063
:4025C0000C2B02D0082B06D008E0C223FB730BE08223FB7308E04223FB7305E0C223FB73002000F003FB00BF054AFB7B1370FB79184600F007F800BF1037BD4680BD00BFC2
:402600000A59004080B584B000AF0346FB71FB790A2B08D00C2B02D0082B08D00BE04FF48053FB600DE04FF48063FB6009E04FF48073FB6005E00023FB60002000F0D6FA0E
:4026400000BF0C4B00221A80FB6842F2107202FB03F303F6C413084A82FB0312D212DB17D31A064A1360064B00221A8000BF1037BD4680BD7882FF1FAD8BDB687C82FF1F40
:402680007A82FF1F90B585B002AF0446084611461A462346FB710346BB710B46BB8013467B80104B01221A700E4B1878BA79F9790023019300230093012300F0ABF9094B4D
:4026C0001B787A88B988184600F04AF9054B1B780221184600F012F9024B1B7818460C37BD4690BDCE80FF1F90B585B002AF0446084611461A462346FB710346BB710B46C2
:40270000BB8013467B80104B00221A700E4B1878BA79F9790023019300230093002300F079F9094B1B787A88B988184600F018F9054B1B780221184600F0E0F8024B1B78EE
:4027400018460C37BD4690BDCF80FF1F80B485B000AF7860054B1B68FB60FB6840337A681A6000BF1437BD4680BC704708ED00E080B483B000AF0346FB71054AFB795B01EC
:40278000DBB2137000BF0C37BD4680BC704700BF00E400E080B400AF054B1B78DBB203F040039B09DBB21846BD4680BC704700BF8F45004080B483B000AF134B7F221A700E
:4027C000124B80221A707F23FB710CE0FB79DB0003F1804303F5F043FA79013AD2B21A70FB79013BFB71FB79002BEFD1FB79DB0003F1804303F5F04300221A7000BF0C370F
:40280000BD4680BC704700BFD180FF1FD080FF1F80B485B000AF03460A46FB711346BB710123FB60FB79172B2FD8BB79002B0ED0FB791A01184B1344FA791101164A0A446F
:402840001278D2B242F02002D2B21A700DE0FB791A01114B1344FA7911010F4A0A441278D2B222F02002D2B21A70FB791A010A4B1344FA791101084A0A441278D2B242F09D
:402880000102D2B21A700023FB60FB6818461437BD4680BC704700BF1070004080B485B000AF0346FB710123FB60FB79172B1DD8FB791A01104B1344FA7911010E4A0A44A5
:4028C0001279D2B242F00402D2B21A71FB791A01094B1344FA791101074A0A441278D2B242F00102D2B21A700023FB60FB6818461437BD4680BC70471070004080B485B02A
:4029000000AF03460A46FB711346BB710123FB60FB79172B1BD8FB791A01104B13441B78DBB223F00E03FB72FB791A010B4B1344BA795200D2B252B202F00E0251B297F966
:402940000B200A4352B2D2B21A700023FB60FB6818461437BD4680BC704700BF1070004080B485B000AF0346FB710B46BB8013467B800123FB60BB8841F6FF72934202D10F
:402980004FF40053BB807B8841F6FF72934202D14FF400537B80FB79172B17D8FB79DB0003F1804303F5EC430433BB60BB68BA881A80FB79DB0003F1804303F5EC430633D9
:4029C000BB60BB687A881A800023FB60FB6818461437BD4680BC704780B485B000AF03460A46FB711346BB710123FB60FB79172B07D8FB791A01064B1344BA795A7200236E
:402A0000FB60FB6818461437BD4680BC704700BF1070004090B484B000AF0446084611461A462346FB710346BB710B467B7113463B710123FB60FB79172B34D8FB79DB0028
:402A400003F1804303F5EC43BA7902F07F02D1B27A79D201D2B20A43D2B21A70FB79DB0003F1804303F5EC433A7E1201D1B23A7902F00F02D2B20A43D2B25A70FB79DB000B
:402A800003F1804303F5EC433A7F02F00F02D2B29A70FB79DB0003F1804303F5EC430022DA700023FB60FB6818461037BD4690BC704700BF80B582B000AFFF23FB7101F075
:402AC0001FF80346BB71104B1B78182B12D90F4B1B78FB710C4B1B78013BDAB20A4B1A70FB79DB0003F1804303F5F0431B78DAB2064B1A70BB79184601F006F8FB791846C6
:402B00000837BD4680BD00BFD080FF1FD180FF1F90B484B000AF0446084611461A462346FB710346BB800B46BB711346FB700123FB6097F90730002B23DBBB8823F47F63BF
:402B400023F00F039BB2002B1BD1FB79DB0003F1804303F5F043BB60BB68BA881A80FB79DB0003F1804303F5F043BA799A70FB79DB0003F1804303F5F043FA78DA70002303
:402B8000FB60FB6818461037BD4690BC704700BF80B485B000AF0346FB710B46BB8013467B800123FB6097F90730002B17DBFB79DB0003F1804303F5F0430433BB60BB6837
:402BC000BA881A80FB79DB0003F1804303F5F0430633BB60BB687A881A800023FB60FB6818461437BD4680BC704700BF80B483B000AF0346FB7101BE00BF0C37BD4680BCAB
:402C0000704700BF80B582B000AF0346FB80FB88054A127802FB03F3184600F069FF00BF0837BD4680BD00BFE080FF1F80B584B000AF03463960FB710F4B1B68FB60FB79B2
:402C40001F2B02D90020FFF7D1FFFB7903F01F0310339B00FA6813441B68BB60FB7903F01F0310339B00FA6813443A681A60BB6818461037BD4680BD08ED00E080B582B00B
:402C800000AF03460A46FB711346BB71BB79072B02D90020FFF7AAFFFB791F2B02D90020FFF7A4FFFB7903F01F0303F1604303F56443BA795201D2B21A7000BF0837BD4635
:402CC00080BD00BF80B483B000AF7860264B1B78DBB21A467B681A60244B1B78DBB21B027A6812681A437B681A60214B1B78DBB21B047A6812681A437B681A601D4B1B781E
:402D0000DBB21B067A6812681A437B681A607B680433194A1278D2B21A60184B1B78DBB21A027B6804337968043109680A431A60134B1B78DBB21A047B68043379680431F7
:402D400009680A431A600F4B1B78DBB21A067B6804337968043109680A431A6000BF0C37BD4680BC704700BF0301004904010049EC46004002010049010100490001004974
:402D8000050100490601004980B500AF064B1B78002B04D100F00AF8034B01221A7000F063F800BF80BD00BFC381FF1F80B582B000AF284A274B1B78DBB243F00203DBB278
:402DC0001370254B1B78DBB223F07003FB71224AFB7943F01003DBB21370204A1F4B1B78DBB223F03003DBB213701C4A1B4B1B78DBB243F03003DBB21370184A174B1B7895
:402E0000DBB223F00F03DBB21370144A134B1B78DBB243F00F03DBB21370FF2000F048F8002000F055F8002000F062F80C4A0C4B1B78DBB243F00103DBB21370094A094BCE
:402E40001B78DBB243F00103DBB2137000BF0837BD4680BD004F0040024F00400B4F0040A3430040014F004080B400AF0D4A0D4B1B78DBB243F00103DBB213700A4A0A4B9B
:402E80001B78DBB243F00103DBB21370074A074B1B78DBB243F00103DBB2137000BFBD4680BC7047A3430040B3430040004F004080B483B000AF0346FB71044BFA7992B230
:402EC0001A8000BF0C37BD4680BC7047044F004080B483B000AF0346FB71044BFA7992B21A8000BF0C37BD4680BC7047064F004080B483B000AF0346FB71044AFB791370A5
:402F000000BF0C37BD4680BC704700BF034F004080B400AF094A094B1B78DBB243F01003DBB21370064A064B1B78DBB243F01003DBB2137000BFBD4680BC7047A243004057
:402F4000B243004080B500AF064B1B78002B04D100F00AF8034B01221A7000F063F800BF80BD00BFC481FF1F80B582B000AF284A274B1B78DBB243F00203DBB21370254B2C
:402F80001B78DBB223F07003FB71224AFB7943F01003DBB21370204A1F4B1B78DBB223F03003DBB213701C4A1B4B1B78DBB243F03003DBB21370184A174B1B78DBB223F026
:402FC0000F03DBB21370144A134B1B78DBB243F00F03DBB21370FF2000F048F8002000F055F8002000F062F80C4A0C4B1B78DBB243F00203DBB21370094A094B1B78DBB28C
:4030000043F00103DBB2137000BF0837BD4680BD0C4F00400E4F0040174F0040A34300400D4F004080B400AF0D4A0D4B1B78DBB243F00203DBB213700A4A0A4B1B78DBB2A8
:4030400043F00203DBB21370074A074B1B78DBB243F00103DBB2137000BFBD4680BC7047A3430040B34300400C4F004080B483B000AF0346FB71044BFA7992B21A8000BF28
:403080000C37BD4680BC7047104F004080B483B000AF0346FB71044BFA7992B21A8000BF0C37BD4680BC7047124F004080B483B000AF0346FB71044AFB79137000BF0C3722
:4030C000BD4680BC704700BF0F4F004080B485B000AF0346FB710B4B1B78DBB223F00203FB730849FB795B00DBB203F00203DAB2FB7B1343DBB20B7000BF1437BD4680BC66
:40310000704700BF2051004080B400AF00BFBD4680BC704780B582B000AF0F2000F03EF800F02EF800F0ECFC0346FB71074A074B1B78DBB243F01003DBB21370FB791846D7
:4031400000F0E2FC00BF0837BD4680BD9864004080B500AF00F008F94FF4004000F032F9064B1B78002B04D1FFF7CEFF034B01221A70FFF7CFFF00BF80BD00BFC581FF1F0F
:4031800080B400AF044B1B78DBB203F00F03DBB21846BD4680BC70476864004080B483B000AF0346FB71044AFB79137000BF0C37BD4680BC704700BF8864004080B400AFF5
:4031C00000BFBD4680BC704780B582B000AF0F2000F06AF800F05AF800F092FC0346FB71074A074B1B78DBB243F01003DBB21370FB79184600F088FC00BF0837BD4680BD71
:403200009565004080B500AF00F076F94FF4004000F0A0F9064B1B78002B04D1FFF7CEFF034B01221A70FFF7CFFF00BF80BD00BFC681FF1F80B582B000AF00F09BF903469C
:40324000FB80FB88A3F500439BB2BB80B7F9043018460837BD4680BD80B584B000AF0346FB80B7F90630002B04DBFB88A3F50043FB8103E0FB88A3F50043FB81FB891846E7
:4032800000F068F900BF1037BD4680BD80B400AF044B1B78DBB203F00F03DBB21846BD4680BC70476565004080B483B000AF0346FB71044AFB79137000BF0C37BD4680BCE4
:4032C000704700BF8565004080B582B000AF1C4B1B78DBB223F00703FB71194AFB791370174B1B78DBB223F00303FB71144AFB79137000F0A3F84FF4004000F07FF84FF49A
:40330000004000F05FF8002000F040F800F04EF84FF4004000F082F800F0F2FB0346BB71084A084B1B78DBB243F01003DBB21370BB79184600F0E8FB00BF0837BD4680BD8B
:40334000706400409064004080B400AF054A054B1B78DBB263F07F03DBB2137000BFBD4680BC70477064004080B500AF064B1B78002B04D1FFF7A8FF034B01221A70FFF75F
:40338000E3FF00BF80BD00BFC781FF1F80B483B000AF0346FB71044AFB79137000BF0C37BD4680BC704700BF8064004080B400AF034B1B78DBB21846BD4680BC704700BFBB
:4033C0006064004080B483B000AF0346FB80044AFB88138000BF0C37BD4680BC704700BF0468004080B400AF034B1B889BB21846BD4680BC704700BF8468004080B483B061
:4034000000AF0346FB80044AFB88138000BF0C37BD4680BC704700BF4468004080B483B000AF0346FB80044AFB88138000BF0C37BD4680BC704700BF6468004080B500AF2D
:4034400001E0FFF7CFFFFFF7B1FF034603F04003002BF6D100BF80BD80B582B000AF1C4B1B78DBB223F00703FB71194AFB791370174B1B78DBB223F00303FB71144AFB793B
:40348000137000F0B3F84FF4004000F08FF84FF4004000F05FF8002000F040F800F04EF84FF4004000F092F800F02AFB0346BB71084A084B1B78DBB243F01003DBB213700A
:4034C000BB79184600F020FB00BF0837BD4680BD746500409465004080B400AF054A054B1B78DBB263F07F03DBB2137000BFBD4680BC70477465004080B500AF064B1B7882
:40350000002B04D1FFF7A8FF034B01221A70FFF7E3FF00BF80BD00BFC881FF1F80B483B000AF0346FB71044AFB79137000BF0C37BD4680BC704700BF8465004080B400AF26
:40354000034B1B78DBB21846BD4680BC704700BF6465004080B483B000AF0346FB80044AFB88138000BF0C37BD4680BC704700BF0C6A004080B400AF044B1B78044B1B885F
:403580009BB21846BD4680BC704700BF066500408C6A004080B400AF034B1B889BB21846BD4680BC704700BF8C6A004080B483B000AF0346FB80044AFB88138000BF0C3720
:4035C000BD4680BC704700BF4C6A004080B483B000AF0346FB80044AFB88138000BF0C37BD4680BC704700BF6C6A004080B500AF01E0FFF7CFFFFFF7A1FF034603F0400377
:40360000002BF6D100BF80BD80B483B000AF0346FB71044AFB79137000BF0C37BD4680BC704700BF7865004080B500AF224A224B1B78DBB203F00103DBB213701F4A1F4B01
:403640001B78DBB223F00303DBB213701C4A1C4B1B78DBB223F03003DBB21370184A184B1B78DBB243F03003DBB21370144A144B1B78DBB223F00F03DBB21370104A104B9C
:403680001B78DBB243F00F03DBB213700D4A0D4B1B78DBB243F00103DBB2137040F2E73000F064F840F2E73000F072F8082000F041F800BF80BD00BF184F00401A4F0040EB
:4036C000234F0040194F004080B400AF0D4A0D4B1B78DBB243F00403DBB213700A4A0A4B1B78DBB243F00403DBB21370074A074B1B78DBB243F00103DBB2137000BFBD4695
:4037000080BC7047A3430040B3430040184F004080B500AF064B1B78002B04D1FFF784FF034B01221A70FFF7CFFF00BF80BD00BFC981FF1F80B483B000AF0346FB71044A57
:40374000FB79137000BF0C37BD4680BC704700BF1B4F004080B400AF034B1B78DBB21846BD4680BC704700BF1B4F004080B485B000AF0346FB80FB88FB81044AFB891380A3
:4037800000BF1437BD4680BC704700BF1C4F004080B483B000AF0346FB80044AFB88138000BF0C37BD4680BC704700BF1E4F004080B582B000AF786000F03CF8786800F01B
:4037C00009F8072000F018F800F028F800BF0837BD4680BD80B485B000AF7860054B1B68FB60FB688C337A681A6000BF1437BD4680BC704708ED00E080B483B000AF034683
:40380000FB71054AFB795B01DBB2137000BF0C37BD4680BC704700BF13E400E080B400AF034B4FF400221A6000BFBD4680BC704700E100E080B400AF034B4FF400221A60C9
:4038400000BFBD4680BC704780E100E080B400AF094A094B1B78DBB243F02003DBB21370064A064B1B78DBB243F02003DBB2137000BFBD4680BC7047A2430040B24300400C
:4038800080B582B000AF4FF4E87000F05DF84FF4E87000F073F800F033F90346FB710A4A094B1B78DBB243F01003DBB21370FB79184600F029F900F06FF8002000F028F8C2
:4038C00000BF0837BD4680BD9564004080B400AF054A054B1B78DBB263F07F03DBB2137000BFBD4680BC70477364004080B500AF064B1B78002B04D1FFF7C2FF034B01220E
:403900001A70FFF7E3FF00BF80BD00BFCA81FF1F80B483B000AF0346FB71044AFB79137000BF0C37BD4680BC704700BF8564004080B400AF034B1B78DBB21846BD4680BC23
:40394000704700BF6564004080B582B000AF78607968034800F008FA00BF0837BD4680BD2464004080B400AF034B1B6823F07F431846BD4680BC70474464004080B582B08A
:4039800000AF78607968034800F0EEF900BF0837BD4680BD0464004080B500AF01E0FFF7E1FFFFF7C5FF034603F00803002BF6D100BF80BD80B582B000AF786000F03CF8FB
:4039C000786800F009F8072000F018F800F028F800BF0837BD4680BD80B485B000AF7860054B1B68FB60FB6858337A681A6000BF1437BD4680BC704708ED00E080B483B0DD
:403A000000AF0346FB71054AFB795B01DBB2137000BF0C37BD4680BC704700BF06E400E080B400AF034B40221A6000BFBD4680BC704700BF00E100E080B400AF034B40229D
:403A40001A6000BFBD4680BC704700BF80E100E080B582B000AF786000F03CF8786800F009F8072000F018F800F028F800BF0837BD4680BD80B485B000AF7860054B1B68FC
:403A8000FB60FB6860337A681A6000BF1437BD4680BC704708ED00E080B483B000AF0346FB71054AFB795B01DBB2137000BF0C37BD4680BC704700BF08E400E080B400AF24
:403AC000034B4FF480721A6000BFBD4680BC704700E100E080B400AF034B4FF480721A6000BFBD4680BC704780E100E0000000000230800803D000BF01380046FCD170472E
:403B0000EFF3108072B6704780F31088704700BF80B582B000AF0023FB71314B1B79DBB2184600F067F80346BB712D4B1B78DBB25BB2002B15DA2A4B5B78DBB2212B00D09F
:403B400048E0284B07221A80BA791346DB009B1A254A1344234A5360FDF746FA0346FB7138E01F4B5B78DBB2202B02D0222B1AD030E01C4B07221A80BA791346DB009B1A70
:403B8000194A1344174A5360BB79BA7917498A5CD2B242F00102D1B2144AD154FDF7A2FA0346FB7116E0BB790D4A9278D2B291B20F4A22F81310BB79BA790C498A5CD2B278
:403BC00042F00202D1B2094AD154FDF729FB0346FB7100BFFB7918460837BD4680BD00BF00600040E881FF1FE880FF1F8482FF1F9882FF1F80B485B000AF0346FB710023FF
:403C0000FB73FF23BB7317E0FB7B104AD35C7B737A7B0F4913465B0013449B000B440A331B78DBB2FA799A4203D1FB7BBB730223FB73FB7B0133FB73FB7B012BE4D9BB7B3C
:403C400018461437BD4680BC704700BF8C82FF1F0482FF1F80B485B000AF78600B46FB701346BB707B68DB7803F00303FB737B689B785BB2002B1ADAFB7B032B0AD0BB7876
:403C800003F001031449FA78CA54BB7843F00103BB701BE0BB789B08DBB203F001030F49FA78CA54BB7843F00403BB700EE0FB7B032B0BD0BB785B08DBB203F001030849DE
:403CC000FA78CA54BB7843F00203BB70BB7818461437BD4680BC70478882FF1F8C82FF1F9082FF1F80B582B000AF0023BB711B4B1B78DBB203F00303012B02D0022B04D065
:403D000012E0164B1B79FB7111E0144B1B79DBB203F07F02124913465B0013449B000B440A331B78FB7102E00023FB7100BFFB79022B0ED80B4B1A68FB7913441B78022BA5
:403D400004D1FFF7E5FE0346BB7102E00023BB7100BFBB7918460837BD4680BD006000400482FF1FF881FF1F80B485B000AF786039607B68FB603B68DAB2FB681A70FB68FE
:403D800001333A68120AD2B21A70FB6802333A68120CD2B21A7000BF1437BD4680BC7047014B1868704700BF6481FF1F0E4B70B51E460E4C0025E41AA410A54204D056F83C
:403DC000253098470135F8E700F052F9084B094C1E46E41AA4100025A54204D056F8253098470135F8E770BD7C4000007C4000007C4000008440000010B5431E0A4491429E
:403E000004D011F8014B03F8014FF8E710BD03460244934202D003F8011BFAE77047000000000000004F00403000405100403000000001400010001401400008004001408E
:403E4000000A004C01400002105001401000000000500140EC1000481000000030313233343536373839414243444546000000001201000202000008B40432F20100010272
:403E80008001000009024300020101C032090400000102020103052400100104240202052406000105240100010705810308000A09040100020A00000407058202400000D6
:403EC0000705030240000000040309042C0343007900700072006500730073002000530065006D00690063006F006E0064007500630074006F0072001003550053004200C9
:403F000055004100520054003803430044004300200043006F006D006D0075006E00690063006100740069006F006E00200049006E00740065007200660061006300650019
:403F4000260343004400430020004400610074006100200049006E00740065007200660061006300650000000203000000008103080002000100820240000A00010003029B
:403F800040000A00020A000001000000843E0000030000006C3F00000000000000000000000000000000000000000000843F000001000000703E00000000000000000000C8
:403FC00001000000883F000001000000B03F000012034D00530046005400310030003000010000002800000000010400010000000000000000014359555342000000303013
:4040000030303100000000000000000000000000000000000000000000000000000000000000000000000000000000000000000000000000000000000000000000000000EF
:40404000000000000000000000000000000000000000000000000000000000000000000000000000000000000000000043000000F8B500BFF8BC08BC9E4670474D00000031
:4040800005070000F8B500BFF8BC08BC9E46704729000000A8400000C880FF1FA0000000580100000000000000000000FFFFFFFF807F0000030000000087930360EA0000A0
:4040C0003C0000000000307500C2010000000800C201000000080000A12000000000020000000000000000000C4000002C4000004C40000000000000000000000000000042
:40410000000000006C4000000000000000000000000000000000000000000000000000000000000000000000000000000000000000000000000000000000000000000000D3
:40414000000000000481FF1F00000000000000000000000000000000000000000000000000000000000000000000000000000000000000000000000000000000000000009C
:4041800000000000000000000000000000000000000000000000000000000000000000000000000000000000000000000000000000000000000000000000000000000000FF
:4041C00000000000000000000000000000000000000000000000000000000000000000000000000000000000000000000000000000000000000000000000000000000000BF
:40420000000000000000000000000000000000000000000000000000000000000000000000000000000000000000000000000000000000000000000000000000000000007E
:40424000000000000000000000000000000000000000000000000000000000000000000000000000000000000000000000000000000000000000000000000000000000003E
:020000040003F7
:0200000480007A
:4000000001450040084F00400B520040015B00400664004003650040460001403E0101406102014050030140560401405A0501405D060140540701403C0801405609014039
:40004000470A0140660B0140380C0140510D0140360E0140360F014034140140471501406D1601404B1701404718014062190140431A01405A1B01400E4001401B410140A4
:400080001042014014430140044401400B4501400B4601400B4701401148014010490140154C01400B4D014006500140045101407E0201400A360D4016361950223625308A
:4000C0002E3600A00120082409A010091101181819106014610C7C402F84806F850D880F890F8C078F72846F850F8B380320071008940A600B0E0C9E0D020E600F0410FD04
:400100001202150217041830190E1AC91CCF1E301F0123082508260F287329012D0E310134FF351E37203E103F014001454049FF4A074BFF4C404D204EF04F055008528046
:40014000540F580459045A045B045D025F05604061A8624063208C03920394019602A003A403A803AC03B002B401D608D804D904DB04DC11DD90DF01004003080580082110
:400180000A810B080C080D01131415111624174018041F1221102201230628292B802DC02E203080311033083740384439203B013C083D113E80400249124A104B105940B1
:4001C0005A0A5B105C8061246701724079808080831084028702880C89818A808E04C083C23BC4F6CA3FCC1ECEFFD008D61FD816DE08E60A011003030F3C111E15041702D2
:4002000019081B0331023320351C37013B023F404023410649FF4AFF4BFF4DA04F0150185804590B5A045C915F016040628064406540668068406A806C406D206E808040F5
:400240008503870C8A3C8C308E0491089240941C950198209A049C309D039E08A201AA42AC2CAE10B002B104B201B308B440B501B63CB702B9A0BE10BF14C062C103C52E14
:40028000C6C4C703C81FC9FFCAFFCBFFCDAFCE07CF01D018D280D804D904DA04DB08DD90DF01E040E280E440E540E680E840EA80EC40ED20EE8000400102030806010A417C
:4002C0000B180C080D01100111201240150116241740191A1A011B8020062205230826412724280429103080310832013601372439083E023F404024440447084880491438
:400300004E085124534073407B017E808080844086808888912192409320944095429689971898419B029C889D449E249F40A008A210A304A480A568A788AB04B040B1419A
:40034000B54AC08BC23FC4FBCCEBCE92D066D224DE88E21AEE040110020C05040F021203140E1720180819081A042310270429022F093004313E320134083501360239025A
:400380003E513F01403149FF4AFF4BFF4F0150185608580459045A0B5B045C105D995F016040624064406540668068806A806C806E80850E87F08B018DC58F3A95A3975CD4
:4003C000997FA1FEA301AD96AF68B7FFBF40C031C9FFCAFFCBFFCD83CE03CF01D018D401D604D804D904DA0BDB0BDC01DD99DF01E040E240E440E540E680E880EA80EC80D9
:40040000EE80000206150A180B800D211408174019501A101B02212122022701280829892A202C612D0831243202334037283A953DA03F0841104202431446024704588012
:400440005A405D025E805F04630267407A807C207E8C808081018401852087408F08912093829440954296809718984099809A809B069C209D409E679F40A071A101A24098
:40048000A384A558A688A709AB01AC20B010B180B210B310B509C0E8C25EC4C0CA9FCC6FCE7FD05AD6D8D888DE81E008E206E608E804EA22EE44009E02600473050107044A
:4004C00008CF0A300DD10F08103012C9130215D1160F17041894197C1A6020FD21AD220223102F1D33E0350336FF371D39083E40403145EC4720482349FF4AFF4BFF4D83A5
:400500004E034F015018580459045A0B5D095F016040624064406540668068806A806C806E80804081C18280831284108620870788048C019020918492109310957796018A
:4005400099C09A049B249C809DB79E409F40A008A402A901AA02ABF2AE08AF08B2FFB30FB5F0BE04D608D804D904DB04DD90DF0100A40101021003400402072808280921C3
:400580000B020C010D040F0810A01150120D1440150219041D4021042214230824022558272029402B042C452F043041310832103729380239083D803F08460247044D028B
:4005C0004F0456025A4062807E8086108D108F4093029440954096C8971C984199109B179C089D069E579F68A0F0A121A202A384A558A680A708A880B302B408C07FC27F06
:40060000C41FCA9CCCEFCE53D050D608D808DE80E203E420E686EC010304041008200A030B300C090D100E100F2011021410160C17081B201C1C1E021F10200C221124143C
:400640002F013138321F33013420350237043A803E103F11540F580459045B045C025F0183018B028C048E0A9404960898089A049C049E09B001B202B302B40CB701BA20A5
:40068000D401D604D804D904DB04DC10DD20DF0100400490050809800A280D080E0214401540161218401A281C101FA0210422402301242025812602270429022B042E8023
:4006C00030063240331036A83701380239283D203E403F8244104620581059455C225D805F0463408110830487608B418C208E40908F91749420950A97219844998C9A1181
:400700009B489C089F10A0AAA148A2BDA30BA440A510A602A7C0A802B004B181B424B501C0E1C2A7C430CA15CCFFCEB7D6FFD801E040E212E428E680E840EC800E03100265
:4007400020043001320434023E145608580459045B045C185D905F3181048680870989278B188D398EC88F06910994139502966C99269B199CCA9E34A013A13FA2E4A90693
:40078000AA35AC03AE04B107B20FB320B4A8B510B6F0B708B920BAA8BB02BF04C036C104C6BEC7C0C82CC9FFCAFFCBFFCEF0CF44D00CD207D306D804D904DA04DB04DC2284
:4007C000DD12DF01E6C0EA40EB020080048005080A400D080E02108014401510160119041A401B101D081E021F2024442541272028202E212F80300633103510360237041B
:4008000039083B113C583E82444045084D105480561158105A80614062A063086E286F02780281048308840286048740884189088B208D01909391749284931094209502F7
:40084000960197A1981499189A229B449C299D419E809F30A028A104A208A309A402A510A631A776A801A980AA40AC44AD10B010B113B709C0A1C2A8C4D8CAA2CCE7CEF717
:40088000D0C0D220D60CD80CDE01E440E608E8C0EA10EC02EEC10503070408010A0A0B030C010D410E020F821310170C18021A011B821C011E061F412120251026102903F5
:4008C0002B082D10300431303210330F340335C0360839023A203B0856025735580459045B0C5C205D105F01810187018B0191019B01A101A501B501D608D804D904DB04A8
:40090000DC11DD90DF0102130310046008600B910D800E081004120417081C401D801E0C1F0420082484260828602C092D022F2030023310354036293A053B103D243F808F
:4009400059805E20630264086C016D096F08746077407F0284208B0C8F10901191449310940495029601972299189A269B049C609D419E909F20A008A202A402A604A74419
:40098000AA80AB20B042B210B518C0C5C2CFC422CAF3CCF5CE77D628D828DE10E298E480E840EA80EC30EE80580459045B045C115F0180CF8110823083208510860C8760F4
:4009C000887C89078A828C048D0A8F059004910C92089303943C950596C1970A9808990F9CFFA2C3A410A523A71CA830AC20AD10AFA0B140B2B0B380B43FB50FB670B73058
:400A0000BA28BB80D602D711D804D904DB04DC02DD20DF0101010206030804040550068008200A080D080E010F88105212101502160217141C111D182505269028502B08CE
:400A40002F21302232043501361439013C803D2A5F20680169106C086D44762277148401871089118A108B188C208E02C0FBC2F2C4FDCA57CCE7CEF1D620E020E490E620B6
:400A80000060021808010B0A0C500E28107811041438181819021A601F05200423022428265028042A033078310132023302340135083604370438803E103F445280540FEE
:400AC000580459045B045F05980E9E0CA203A808AA04B004B208B401B602BE45D40FD804D904DB04DC10DF010040038809080A800B080E091080110A120415021710190258
:400B00001A891B081D401EA82219230229012D51308032113428360239203C0444104508470859605A085B025D025EA05F08610462107101781081218910904491739308F9
:400B40009680982899049A149B10A080A10CA202A380A608B040B510B640C00BC2CEC45ECAB1CCEDCE44D6FFD806DE04E210E408E880EA40EC62050108040A020C020E1458
:400B80001001130114011501180219011A041C021E0C2301280129012D013001320634083501361038023A083E014064410249FF4AFF4BFF4DA04F015018580459045A044C
:400BC0005C105F016040628064406540668068406A806C406D206E8080A3825C8302880E897C8AF08CC58DD18E3A8F0890FE920194969668971D9A019DAD9F10A1D1A3046C
:400C0000A87FA901AB04B11DB3E0B503B6FFB820B908BE50C064C102C52EC6C0C743C83BC9FFCAFFCBFFCDAFCE07CF01D018D608D804D904DA04DB04DD90DF01E040E280CB
:400C4000E440E540E680E840EA80EC40ED20EE800040038804100702080409040A800B040D080E8A13101604180219101C101D021E0A1F0C20402118231426102B882D51F0
:400C8000300432403428360238423B103C044102431045024710488049044A484E085101521458406240800C8D4091119444954096C0971098249B129C089E40A202A3807B
:400CC000A610A708AE08B101B324C0CBC2FEC442CAB5CCEACE4DD0A5D224D608D808E204E480E604EA080204060108011438170119081A041C201D081E0820382602270277
:400D00002A182B042E0830043101320333043430350836083702382039203E513F104061410542034404450C460E480549FF4AFF4BFF4C624DA04EF04F41500C56085804D3
:400D400059045A045B045C195D925F016640670269106A306B106D106E106F12860188018C0194019C01A201AA01B001D804D904DC11DF01004002040310040105140A2285
:400D80000D080E020F041004130114401510162118801D441F112462252027102A042B042C202F08300632013310342035803610370838403B014401450147044C044D4077
:400DC0004F0457405F506008612066A06E407801790280118210830484508B118C418D028F04900D911493019502964097A098449A039B489C089D529E809F10A02AA149D6
:400E0000A2B5A38AA440A510A704AA21AD04B002B204B304B480B501C077C2E5C4FACA66CC77CE09D0D0D230D630D830E008E242E480E820EA80EC200001050306010E01C2
:400E40000F0311031401170319031C0121022201230129032A013001310233015401580459045B0C5C115D105F018020811086308720880789038A088B0C8F2099089A021E
:400E80009B029C0A9D049E059F01A004A140A201A40FA51FA91FAC01AD05AF0AB010B140B203B320B420B50FB60CB710BF05D418D604D80CD904DB04DC21DD20DF010040EE
:400EC00003900410050508080A020E0A104413011420164017401B011C381D111E02210222042519270128482B042C082D062E4030063201331036A038403A043B083C0428
:400F00003D203E023F804101430144024548462058805C02662067827B027F028502864088848B848D039044910492409303950296089780982499049A029B509D109E04AF
:400F4000A00AA140A2A4A346A410A510A701AE04AF40B180B440B540B780C07DC2C5C4BACAF5CC37CEFAD688D8B0DE18E080E218EC281080168031183508371039013B80B6
:400F80003E808788C430CCF0CE70E210E6100340062032213520370258085F0864106A027110834085018F02950197809B089D189F10A080A380A508C030CCF0D6C0D88004
:400FC000E210E48051405440852897809C089D38A080A380A508A620AA20B010B710D460E650E8201B011C80815084088508862088408B40958097809C089D10A080A38025
:40100000A440A508A620C630E2C0E67074018801DE04E00103080B20220857805F408740C002C208C802D402D60486049780A208A504A780AB08AF40B310B504EA04EE02F0
:4010400009040A080D028502878096089780A208A504A780C20E0308050820802980660269406D4072028880A080A381C060C840CA10D880DAC0DC205780630266088701B4
:401080008E08A381AF08B040B108B5C0B602D440D640D880E410EC400B041F4034013A4054205B04602066028640870488209780A208C202C601CC01CE08D402D602D803FE
:4010C000E00187408F0493809F04AE02B001B208B420E408EC0CEE01100711011A031B011C061D0100AB01FF0203100A0701000000000000070103010701070103000000AA
:4011000000E0E000001C1C001C0000004000060000000000C0000000400B0B0000B4B4000800140A0A00080101000000007B7B00380000000001000000000000000000006E
:40114000000000000000000000000000000000000000000000000000000000000000000000000000000000000000000000000000000000000000000000000000000000006F
:40118000000000000000000000000000000000000000000000000000000000000000000000000000000000000000000000000000000000000000000000000000000000002F
:4011C00000000000000000000000000000000000000000000000000000000000000000000000000000000000000000000000000000000000000000000000000000000000EF
:4012000000000000000000000000000000000000000000000000000000000000000000000000000000000000000000000000000000000000000000000000000000000000AE
:0200000490006A
:0400000000004005B7
:0200000490105A
:04000000BC90ACAF55
:0200000490303A
:02000000E79384
:0200000490402A
:4000000000000000000000000000000000000000000000000000000000000000000000000000000000000000000000000000000000000000000000000000000000000000C0
:400040000000000000000000000000000000000000000000000000000000000000000000000000000000000000000000000000000000000000000000000000000000000080
:400080000000000000000000000000000000000000000000000000000000000000000000000000000000000000000000000000000000000000000000000000000000000040
:4000C0000000000000000000000000000000000000000000000000000000000000000000000000000000000000000000000000000000000000000000000000000000000000
:0200000490501A
:0C00000000012E16106900012E33F7FCE1
:00000001FF