:4000000000800020110000009D2A00009D2A000080B500AF024A034B1B68136002F070FDBC760040FA46004010B5054C237833B9044B13B10448AFF300800123237010BD1A
:400040009086FF1F00000000E8670000084B10B51BB108490848AFF300800848036803B910BD074B002BFBD0BDE81040184700BF000000009486FF1FE8670000C880FF1FCA
:40008000000000000000000090B583B000AF344B01221A6004F0E2FC03461A46314B1A60314B1B78002B13D02F4B1B78082B0FD02D4B1B78072B0BD02B4B1B78032B07D02A
:4000C000294B1B78042B03D0274B1B78092B34D1244B1B68002B30D0224B1B68002BB8BF5B42184605F0C6FC19A3D3E9002305F027FD03460C461846214617A3D3E90023AB
:4001000005F01EFD03460C46184621464FF00002164B05F03FFE03460C461846214605F041FF03467B60124B1B687968184605F08FFF03461A460E4B1A60002004F0A0FCF4
:4001400004F074FC04F028FF00BF0C37BD4690BD182D4454FB2109400000000000205040D486FF1FD086FF1F10B4FF1F00806C40CC86FF1F80B400AF034B01221A7000BFB5
:40018000BD4680BC704700BFF9B4FF1F80B400AF034B01221A7000BFBD4680BC704700BFE1B4FF1F80B400AF034B01221A7000BFBD4680BC704700BFE2B4FF1F80B400AFD1
:4001C000034B01221A7000BFBD4680BC704700BFC486FF1F80B500AF154B1B78052B05D1144B1B680133134A136002E0114B00221A600F4B1B78002B07D00D4B1B78032B83
:4002000003D00B4B1B78042B06D10B4B1B8801339AB2094B1A8002E0074B00221A8000F04BFD00F0C7F804F0E3FF00BF80BD00BF10B4FF1FDC86FF1FE086FF1FB0B586B0AC
:4002400000AF62B600F0B6F800F094FD324B1B781A4601233149324801F036FF0246314B1A6001F025FF03461A462F4B1A602F4C3B46184600F04CFC25463C460FCC0FC5CC
:4002800023682B60274B1968294B1A6813469B0013449B000B445B68DAB2264B1A70214B1968234B1A6813469B0013449B000B449B68DAB2204B1A70204804F09BFE2048CD
:4002C00004F0C4FF1F4805F00FF81F4805F05AF81E4805F0A5F81E4805F0F0F804F066FF0121002002F05AF8002004F0B1FD194B1B68012B08D1174B00221A60164B1B688C
:400300009BB2184600F02CF8144B1B78012BEED1124B00221A70EAE7F486FF1F9C85FF1F2081FF1F14B4FF1F98B4FF1FE4B4FF1FC086FF1FEA86FF1F1181FF1F8900000080
:40034000D5010000750100008D010000A5010000BD010000D486FF1FD086FF1FBC86FF1F90B585B000AF0346FB80FB88184605F081FB4FF000020D4B05F00CFD03460C4682
:400380001846214605F00EFE0346FB600849F86805F066FF0346184606F028F903467B81B7F90A3018461437BD4690BD00804C400000704180B400AF074B00221A70074BF2
:4003C00000221A70064B00221A70064B00221A7000BFBD4680BC7047F9B4FF1FE1B4FF1FE2B4FF1FC486FF1F80B400AF1C4B1B78002B0FD11B4B1B78002B0BD11A4B1B7828
:40040000032B01D0032326E0174B1B78042B01D0042320E0124B1B78002B0FD0114B1B78002B0BD0104B1B78032B01D0032312E00D4B1B78042B01D004230CE0084B1B789D
:40044000002B01D0042306E0064B1B78002B01D0032300E005231846BD4680BC704700BFE2B4FF1FC486FF1FBE86FF1F80B400AF184B1B78DBB2002B06D1164B01221A705E
:40048000154B1A78154B1A70154B1B78002B0FD0144B1B78002B0BD0104B1B78022B01D0022312E00D4B1B78012B01D001230CE00B4B1B78002B01D0012306E0094B1B789A
:4004C000002B01D0022300E005231846BD4680BC704700BFE986FF1F10B4FF1F1E81FF1FE2B4FF1FC486FF1FB0B58AB000AF9E4B1B7C002B03D09C4B1B7C012B03D19B4B48
:400500001B687B6202E09A4B1B687B62964B1B7887F8233097F82330052B00F2888201A252F823F03D050000FF05000023070000A90900008D080000E90800008D4B1B78CD
:40054000052B08D18C4B1B68192B01D805236FE2894B64221A60894B1B78002B02D0884B01221A70874B1B78002B02D0864B01221A70834B1B78DBB2002B1BD07F4B1B7889
:40058000002B17D17E4B00221A70804B1B78DBB2002B03D100F088FA052349E27B4B1B78DBB2002B06D0794B1B78DBB2013BDAB2764B1A70744B1B78DBB2002B1BD0714B75
:4005C0001B78002B17D1704B00221A70704B1B78DBB2002B03D100F067FA052328E26C4B1B78DBB2002B06D0694B1B78DBB2013BDAB2674B1A70FFF7F7FE034618E2654B03
:400600001B78002B08D15D4B1B78002B04D1614B01221A7005230BE25F4B1B78DBB2002B31D0564B1B78002B0BD15C4B1B78002B07D15B4B1B78002B03D1FFF7D5FE0346C2
:40064000F6E1564B1B78002B03D1554B1B78002B03D0FFF70BFF0346EAE1524B1B880A2B03D8FFF7C1FE0346E2E14E4B64221A80424B1B78002B06D0474B00221A7000F012
:4006800013FA0523D4E13B4B1B78052B09D13A4B1B68192B01D80523CAE1FFF7A5FE0346C6E1344B1B78022B2ED13F4B1B78DBB2002B0ED0314B1B78002B0AD0374B1B7892
:4006C000002B06D0364B1B78002B02D0364B00221A70354B1B78DBB2002B13D1274B1B78002B0FD12D4B1B78002B03D02C4B1B78002B07D1284B01221A70264B00221A70A9
:40070000082395E1022393E11C4B1B78002B04D1254B01221A7002238AE1FFF765FE034686E11C4B1B78002B08D1164B1B78002B04D1184B01221A70052379E1164B1B7857
:40074000DBB2002B57D00F4B1B78002B2ED1134B1B78002B2AD1124B1B78002B26D1FFF743FE034664E100BFE4B4FF1F1881FF1F1481FF1F10B4FF1FDC86FF1FF9B4FF1F89
:40078000E786FF1FE1B4FF1FE886FF1FEA86FF1F1181FF1FFE86FF1FE386FF1FE2B4FF1FC486FF1FE086FF1FE286FF1FA24B1B78002B03D1A14B1B78002B03D0FFF756FE9C
:4007C000034635E19E4B1B880A2B03D8FFF70CFE03462DE19A4B64221A809A4B1B78002B09D0994B00221A70984B00221A7000F05BF905231CE1964B1B78052B09D1954B40
:400800001B68192B01D8052312E1FFF7EDFD03460EE18F4B1B78012B2BD18F4B1B78DBB2002B0ED0874B1B78002B0AD0824B1B78002B06D0814B1B78002B02D0864B002233
:400840001A70854B1B78DBB2002B10D17D4B1B78002B0CD1784B1B78002B03D0774B1B78002B04D1794B01221A700823E0E00123DEE0744B1B78002B04D1774B01221A70E7
:400880000123D5E0FFF7B0FD0346D1E0734B1B78DBB2002B15D1714B01221A70704B4FF000021A606F4BDB68FB61F86905F084FC0346796A184605F0D3FC03461A466A4B19
:4008C0001A60674B1A68684B1B681946104605F079FE0346002B03D000F0E6F80523A7E0FFF782FD0346A3E05D4B4FF000021A605A4B00221A705C4B4FF000021A60544B39
:400900001B78052B08D1534B1B68012B01D805238EE0504BFA221A60544B1B78042B01D1052385E0514B1B780133DAB24F4B1A704F4B00221A604D4B1B781A46494B1B7C6F
:400940004C494D4801F0C0FB02464C4B1A6001F0AFFB03461A464A4B1A60424C3B46184600F0D6F825463C460FCC0FC523682B60424B19683E4B1A6813469B0013449B0019
:400980000B445B68DAB23F4B1A703C4B1968384B1A6813469B0013449B000B449B68DAB2394B1A70052343E0294B1B78052B08D1284B1B68322B01D8052339E0254B6422E8
:4009C0001A60324B1B78DBB2002B07D12F4B01221A702F4B00221A700A2329E02D4B1B78DBB2002B03D000F05FF8052320E0274B1B78DBB2002B16D00F4B1B78002B12D1B7
:400A00000E4B1B78002B0ED1234B00221A70234B00221A70224B00221A70224B00221A701C4B01221A70FFF721FD034600E0052318462837BD46B0BDE2B4FF1FC486FF1F98
:400A4000E086FF1FE1B4FF1FFE86FF1FE386FF1F10B4FF1FDC86FF1FE286FF1FE486FF1FCC86FF1FE4B4FF1FF886FF1FF486FF1FC086FF1F9C85FF1F2081FF1F14B4FF1F04
:400A800098B4FF1FEA86FF1F1181FF1FE586FF1FE986FF1FE686FF1FEB86FF1FEC86FF1FEE86FF1FEF86FF1F80B400AF144B00221A70144B00221A70134B1B680133124A40
:400AC0001360124B1968104B1A6813469B0013449B000B445B68DAB2094B1A700B4B1968094B1A6813469B0013449B000B449B68DAB2044B1A7000BFBD4680BC704700BFA8
:400B0000EA86FF1F1181FF1FC086FF1F14B4FF1FB0B489B000AF7860164B1968164B1A6813469B0013449B000B441B783B73114B1968114B1A6813469B0013449B000B44DE
:400B40001B7C3B770B4B19680B4B1A6813469B0013449B000B44DB68BB617B681D4607F10C040FCC0FC523682B6078682437BD46B0BC704714B4FF1FC086FF1F80B582B0C4
:400B800000AF49F208737B8049F208733B807B88184603F0A1FD3B88184603F07DFE00237B60002003F0E6FE3A4B1B78002B06D1394B1B78DBB20133DAB2374B1A70374BE2
:400BC0001B78002B06D1344B1B78DBB20133DAB2314B1A70324B1B78002B03D0314B1B78002B2AD12C4B1B78DBB20133DAB22A4B1A7022E003F0ACFE03467B60254B1B789C
:400C0000002B02D1284B01221A70274B1B78DBB2002B06D0254B1B78DBB20133DAB2234B1A70214B1B78DBB2002B06D1194B1B78002B02D01C4B00221A707B68D12BD9DD91
:400C4000154B1B78DBB2002B06D1194B01221A70002003F08FFE19E0144B1B78DAB20E4B1B78DBB29A4203D9124B01221A700AE00E4B1B78DAB2084B1B78DBB29A4202D20A
:400C80000B4B01221A70002003F074FE0837BD4680BD00BFF9B4FF1FEB86FF1FE1B4FF1FE2B4FF1FC486FF1FED86FF1FEC86FF1FEE86FF1FEF86FF1FB0B586B000AFFFF7BF
:400CC000F3FE294C3B461846FFF722FF25463C460FCC0FC523682B60244B1A78244B1A70FFF702FC03461A46204B1A701F4B1B780A2B35D801A252F823F000BF290D000026
:400D00002F0D0000350D0000410D00003B0D0000470D00005F0D00005F0D00004D0D0000530D0000590D000001F0D6FA18E001F0BBFA15E001F0A2FA12E001F01BFA0FE08B
:400D400001F05AFA0CE001F009FA09E001F0C4FA06E001F017FB03E0FFF710FF00E000BF00BF1837BD46B0BDE4B4FF1F10B4FF1FBE86FF1F80B500AF03F0CEFC03F006FC38
:400D80004FF6FF7003F098FC03F0E0FC4FF6FF7003F072FD03F0C4FD03F048FE04F0DAF804F076F900BF80BD80B485B000AF78600023FB6020E00023BB6017E0FB684C228D
:400DC00002FB03F37A681344BA6853F82230012B09D0FB684C2202FB03F37A681344BA68002143F82210BB680133BB60BB68122BE4DDFB680133FB60FB680E2BDBDD00BFBE
:400E00001437BD4680BC704780B485B000AFF860B9607A603B60FB68002B17DBFA687B689A4213DABB68002B10DBBA683B689A420CDAFB684C2202FB03F3BA691344BA68C5
:400E400053F82230002B01D1012300E0002303F00103DBB218461437BD4680BC704700BF82B090B5ADF5B65D81B002AF07F118040C3C206007F11800143880E8060007F51F
:400E8000B65202F10C021360002307F5B55202F1140213603AE0002307F5B55202F11002136021E007F58F5101F10C0107F5B55303F114031A681346DB0013445B001344B2
:400EC00007F5B55202F1100212681344012241F8232007F5B55303F110031B68013307F5B55202F11002136007F5B55303F110031B68122BD6DD07F5B55303F114031B682D
:400F0000013307F5B55202F11402136007F5B55303F114031B680E2BBDDD002307F5B55202F10C021360002307F5B55202F1080213603AE0002307F5B55202F104021360BD
:400F400021E007F138021C3A07F5B55303F1080319680B46DB000B445B000B4407F5B55101F1040109680B444FF47A7142F8231007F5B55303F104031B68013307F5B55232
:400F800002F10402136007F5B55303F104031B68122BD6DD07F5B55303F108031B68013307F5B55202F10802136007F5B55303F108031B680E2BBDDD002307F5B552136034
:400FC00007F11803143B196807F11803143B586807F138021C3A0B46DB000B445B000B440344002142F8231007F5B5531B68013307F5B552136007F59362083A07F5B55302
:4010000003F10C0319680B465B000B449B001A4407F11803143B93E8030082E8030007F59362083A07F5B55303F10C0319680B465B000B449B001344083300221A6007F570
:40104000B55303F10C031B68013307F5B55202F10C021360F5E1002307F5B45202F11C021360012307F5B45202F11802136034E007F59362083A07F5B45303F11803196838
:401080000B465B000B449B0013440833186807F59362083A07F5B45303F11C0319680B465B000B449B00134408331B68984209DA07F5B45303F118031B6807F5B45202F1CC
:4010C0001C02136007F5B45303F118031B68013307F5B45202F11802136007F5B45303F118031A6807F5B55303F10C031B689A42BEDB07F11801083907F59362083A07F500
:40110000B45303F11C03186803465B0003449B001A440B4607CA83E8070007F5B55303F10C031B68591E07F59362083A07F5B45303F11C03186803465B0003449B00D01865
:4011400007F59362083A0B465B000B449B001A44034607CA83E8070007F5B55303F10C031B68013B07F5B55202F10C02136007F11803083B1B6807F5B35202F11C02136021
:4011800007F11803083B5B6807F5B35202F11802136007F58F5101F10C0107F5B35303F11C031A681346DB0013445B00134407F5B35202F118021268134451F82330012B3F
:4011C00040F03F8107F58F5101F10C0107F5B35303F11C031A681346DB0013445B00134407F5B35202F1180212681344002241F8232007F5B65303F10C031A6807F5B35347
:4012000003F11C031B689A420CD107F5B65303F110031A6807F5B35303F118031B689A4200F01881002307F5B45202F114021360FFE0D04A07F5B45303F114031B6852F863
:40124000332007F5B35303F11C031B68134407F5B35202F114021360C64A07F5B45303F114031B68DB0013445A6807F5B35303F118031B68134407F5B35202F110021360B6
:4012800007F118030C3B1B68009313230F2207F5B35101F11001096807F5B35000F114000068FFF7B1FD0346002B00F0B78007F58F5101F10C0107F5B35303F114031A68CE
:4012C0001346DB0013445B00134407F5B35202F110021268134451F82330012B40F09E8007F138021C3A07F5B35303F11C0319680B46DB000B445B000B4407F5B35101F18F
:40130000180109680B4452F82330013307F5B35202F10C02136007F138021C3A07F5B35303F1140319680B46DB000B445B000B4407F5B35101F1100109680B4452F8232003
:4013400007F5B35303F10C031B689A4266DD07F138021C3A07F5B35303F1140319680B46DB000B445B000B4407F5B35101F1100109680B4407F5B35101F10C01096842F81E
:40138000231007F59362083A07F5B55303F10C0319680B465B000B449B00134407F5B35202F1140212681A6007F59362083A07F5B55303F10C0319680B465B000B449B0003
:4013C0001344043307F5B35202F1100212681A6007F59362083A07F5B55303F10C0319680B465B000B449B001344083307F5B35202F10C0212681A6007F5B5531B680133D1
:4014000007F5B552136007F5B55303F10C031B68013307F5B55202F10C02136007F5B45303F114031B68013307F5B45202F11402136007F5B45303F114031B68032B7FF68A
:40144000F8AE07F5B55303F10C031B68002B3FF702AE00E000BF07F5B65303F10C03196807F5B65303F11003186807F138021C3A0B46DB000B445B000B44034452F82330E6
:4014800007F5B45202F1100213603B4A07F5B45303F110031B68136007F5B45303F110031B68DB00184605F013F9034607F5B35202F10802136007F5B65303F10C031B6821
:4014C00007F5B45202F10C02136007F5B65303F110031B6807F5B45202F10802136007F5B45303F110031B6803F10053013BDB0007F5B35202F108021268134407F5B452B9
:4015000002F10C0212681A6007F5B45303F110031B6803F10053013BDB0007F5B35202F108021268134407F5B45202F1080212685A6007F5B45303F10C031B684C2202FBD5
:4015400003F207F118030C3B1B68134407F5B45202F108021268092143F82210002307F5B45202F104021360F2E0002307F5B4521360E7E0CC85FF1F88B3FF1F7D4A07F5E5
:40158000B4531B6852F8332007F5B45303F10C031B68134407F5B35202F104021360754A07F5B4531B68DB0013445A6807F5B45303F108031B68134407F5B352136007F136
:4015C00018030C3B1B68009313230F2207F5B351096807F5B35000F104000068FFF714FC0346002B00F0A78007F138021C3A07F5B35303F1040319680B46DB000B445B00D2
:401600000B4407F5B35109680B4452F8232007F5B45303F110031B68013B9A4240F08B8007F5B35303F104031B684C2202FB03F207F118030C3B1B68134407F5B35212689F
:40164000082143F8221007F5B45303F104031B68013307F5B45202F10402136007F5B45303F110031B68013B07F5B45202F11002136007F5B35303F104031B6807F5B452EC
:4016800002F10C02136007F5B3531B6807F5B45202F10802136007F5B45303F110031B68DB0007F5B35202F108021268134407F5B45202F10C0212681A6007F5B45303F19A
:4016C00010031B68DB0007F5B35202F108021268134407F5B45202F1080212685A6007F11803143B1A6807F5B45303F10C031B689A4220D107F11803143B5A6807F5B45316
:4017000003F108031B689A4215D107F5B45303F10C031B684C2202FB03F207F118030C3B1B68134407F5B45202F108021268022143F822100CE007F5B4531B68013307F59D
:40174000B452136007F5B4531B68032B7FF616AF07F5B45303F110031B68002B3FF705AF00BF07F5B5571C37BD46BDE8904002B0704700BFCC85FF1F80B596B000AFF860B5
:40178000B960394681E80C003B687B657B683B650023FB643B6E7A6E1146184600F03AFC03467B618BE2A64B1B783A6D796D184600F09EFB7B6D4C2202FB03F3FA6813449C
:4017C0003A6D002143F822109D4B1A789D4B1A7000237B64396D786D00F004FB03463B643A6E7B6D9A423ED17A6E3B6D9A423AD1052387F84B309449FA6C13469B001344C2
:401800009B000B4497F84B201A708F49FA6C13469B0013449B000B440C3300221A60894B18788949FA6C13469B0013449B000B44103302461A708449FA6C13469B00134488
:401840009B000B44043300221A607F49FA6C13469B0013449B000B44083300221A60FB6C0133FB642FE2FB6C5A1E774913469B0013449B000B441B78042B09D197F84B30EC
:40188000052B05D03B6E7B657B6E3B6505233B643B6C032B00F2D28101A252F823F000BFB1180000891900007D1A00005F1B0000634B00221A70634B1B78022B08D102232F
:4018C00087F84B30614B00221A60614B00221A605C4B1B78032B08D1012387F84B305B4B00221A605A4B00221A60564B1B78002B3FD17A693B6C9A4238D17A6E3B6D9A4232
:4019000034D10123FB630123BB631EE07A6DBB6BD31A1A464C2303FB02F3FA6813443A6D53F82230012B02D10023FB6313E07A6DBB6BD21A3B6E9A4204D10123FB63BB6BB9
:401940007B6408E0BB6B0133BB633B6E7A6DD21ABB6B9A42DADAFB6B002B03D0042387F84B3006E0002387F84B3002E0002387F84B30344B1B78012B02D1032387F84B303E
:401980007B6D013B7B655AE12D4B01221A702D4B1B78032B08D1022387F84B302B4B00221A602B4B00221A60264B1B78022B08D1012387F84B30254B00221A60244B0022A9
:4019C0001A60204B1B78012B47D17A693B6C9A4240D17A6E3B6D9A423CD101237B6301233B631EE07A6D3B6B13441A464C2303FB02F3FA6813443A6D53F82230012B02D1D7
:401A000000237B6311E07A6D3B6B1A443B6E9A4204D101237B633B6B7B6406E03B6B01333B633A6E3B6B9A42DCDA7B6B002B03D0042387F84B3010E0002387F84B300CE0AC
:401A4000F8B4FF1FFAB4FF1F0087FF1F90B3FF1F8CB3FF1F002387F84B309D4B1B78002B08D1032387F84B309A4B00221A609A4B00221A607B6D01337B65E0E0974B0222ED
:401A80001A70934B1B78002B08D1012387F84B30904B00221A60904B00221A608C4B1B78012B08D1022387F84B308A4B00221A60894B00221A60864B1B78022B3ED17A6929
:401AC0003B6C9A4237D13A6E7B6D9A4233D10123FB620123BB621DE07B6D4C2202FB03F3FA681344396DBA6A8A1A53F82230012B02D10023FB6213E03A6DBB6AD21A7B6E0C
:401B00009A4204D10123FB62BB6A7B6408E0BB6A0133BB627B6E3A6DD21ABB6A9A42DBDAFB6A002B03D0042387F84B3006E0002387F84B3002E0002387F84B30644B1B7817
:401B4000032B08D1032387F84B30624B00221A60614B00221A603B6D013B3B656FE05F4B03221A705A4B1B78002B08D1022387F84B30584B00221A60574B00221A60544B0A
:401B80001B78012B08D1012387F84B30514B00221A60514B00221A604D4B1B78032B3CD17A693B6C9A4235D13A6E7B6D9A4231D101237B6201233B621DE07B6D4C2202FBAD
:401BC00003F3FA681344396D3A6A0A4453F82230012B02D100237B6211E03A6D3B6A1A447B6E9A4204D101237B623B6A7B6406E03B6A01333B627A6E3B6A9A42DDDA7B6AE7
:401C0000002B03D0042387F84B3006E0002387F84B3002E0002387F84B302D4B1B78022B08D1032387F84B302A4B00221A602A4B00221A603B6D01333B6500E000BF3B6C6E
:401C4000052B39D02649FA6C13469B0013449B000B4497F84B201A701E4B19682048FA6C13469B0013449B000344043319601A4B19681B48FA6C13469B0013449B0003442C
:401C8000083319607B6C591C1548FA6C13469B0013449B0003440C3319600D4B18781049FA6C13469B0013449B000B44103302461A70FB6C0133FB64BB68013BBB60BB68E4
:401CC000002BBFF670AD0023FB610023BB617CE0FAB4FF1F90B3FF1F8CB3FF1FF8B4FF1F0087FF1F3D49BA6913469B0013449B000B441978BB695A1C384813469B00134400
:401D00009B0003441B7899425CD03449BA6913469B0013449B000B4418783149FA6913469B0013449B000B4402461A702B49BA6913469B0013449B000B44043319682848EA
:401D4000FA6913469B0013449B000344043319602249BA6913469B0013449B000B44083319681F48FA6913469B0013449B000344083319601949BA6913469B0013449B008E
:401D80000B44103318781649FA6913469B0013449B000B44103302461A701049BA6913469B0013449B000B440C3319680C48FA6913469B0013449B0003440C331960FB6984
:401DC0000133FB61BB690133BB61BA69FB6C9A4288DB00BF5837BD4680BD00BF0087FF1F449DFF1F80B483B000AF786039607B685A1E3E491346DB0013445B0013443A68DD
:401E0000134451F82330082B0DD07B685A1E37491346DB0013445B0013443A68134451F82330092B01D100235AE07B685A1C2F491346DB0013445B0013443A68134451F83F
:401E40002330082B0DD07B685A1C28491346DB0013445B0013443A68134451F82330092B01D101233CE03B68591E20487A681346DB0013445B0013440B4450F82330082B5F
:401E80000DD03B68591E19487A681346DB0013445B0013440B4450F82330092B01D102231EE03B68591C11487A681346DB0013445B0013440B4450F82330082B0DD03B686B
:401EC000591C0A487A681346DB0013445B0013440B4450F82330092B01D1032300E0052318460C37BD4680BC704700BF2081FF1F80B485B000AF0346B9607A60FB73BB68E4
:401F00005A1E41491346DB0013445B0013447A68134451F82330002B11D1FB7B022B02D0032B06D00BE0394B1B680133374A136005E0374B1B680133354A136000BFBB68FB
:401F40005A1C31491346DB0013445B0013447A68134451F82330002B11D1FB7B022B02D0032B06D00BE02A4B1B680133284A136005E0264B1B680133244A136000BF7B684D
:401F8000591E2148BA681346DB0013445B0013440B4450F82330002B11D1FB7B002B02D0012B06D00BE01A4B1B680133184A136005E0164B1B680133144A136000BF7B682A
:401FC000591C1148BA681346DB0013445B0013440B4450F82330002B11D1FB7B002B02D0012B06D00BE0094B1B680133074A136005E0074B1B680133054A136000BF00BF60
:402000001437BD4680BC70472081FF1F8CB3FF1F90B3FF1F80B483B000AF786039607B685A1C22491346DB0013445B0013443A68134451F82330082B01D1002330E07B68AA
:402040005A1E1A491346DB0013445B0013443A68134451F82330082B01D1012320E03B68591C12487A681346DB0013445B0013440B4450F82330082B01D1022310E03B6852
:40208000591E0A487A681346DB0013445B0013440B4450F82330082B01D1032300E0052318460C37BD4680BC704700BF2081FF1F80B400AF034B1B68DBB21846BD4680BC28
:4020C000704700BF88B3FF1F90B58BB002AFF860B9607A60FB70F868FEF766FE1C4AFB7813707B68DB00BA6813441B68BB61BB6808335B68FB617B680133DB00BA68134457
:402100001B683B617B680133DB00BA6813445B687B617B6900933B6907F1180206CAF868FEF79EFE0B4B1C686A4607F1100393E8030082E8030007F118030CCB2146F86857
:40214000FFF71AFB044B18462437BD4690BD00BFF8B4FF1F88B3FF1F449DFF1F80B500AF4FF4004002F0B8FA4FF4004002F094FB00BF80BD80B582B000AF1A4B1A681A4BAE
:402180001B681946104603F063FF03467B601749786804F065F803461549184603F058FF0346184604F048FA03467B801149786804F056F8034619460D4803F047FF034672
:4021C000184604F039FA03463B807B88184602F083FA3B88184602F05FFB00BF0837BD4680BD00BFF085FF1FEC85FF1F0098194600FEFF4600C8CC4580B582B000AF1A4B6C
:402200001A681A4B1B681946104603F021FF03467B601749786804F023F803461549184603F016FF0346184604F006FA03467B801149786804F014F8034619460D4803F0E3
:4022400005FF0346184604F0F7F903463B807B88184602F041FA3B88184602F01DFB00BF0837BD4680BD00BFF085FF1FEC85FF1F00C8CC4500FEFF460098194680B582B079
:4022800000AF46F6F503FB8046F6F503BB80FB88184602F021FABB88184602F0FDFA00BF0837BD4680BD00BF80B582B000AF49F20873FB8049F20873BB80FB88184602F0D1
:4022C0000BFABB88184602F0E7FA00BF0837BD4680BD00BF0000000090B583B000AF244B1A68244B1B681946104603F0B1FE03467B602149786803F0B3FF03461F491846E5
:4023000003F0A6FE0346184604F096F903467B801949786803F0A4FF0346184603F0BCFB4FF00002164B03F00BFC03460C461A4623460DA1D1E9000103F04EFA03460C4630
:402340001846214603F00EFE03463B807B88184602F0C2F93B88184602F09EFA00BF0C37BD4690BDAFF3008000000000C0FFDF40F085FF1FEC85FF1F0098194600FEFF462E
:402380000000E03F80B500AF45F6991002F0A4F94AF2666002F080FA00BF80BD80B582B000AF03460A46FB711346BB71094B1B78002B04D100F010F8064B01221A70BA798D
:4023C000FB791146184600F0D9F800BF0837BD4680BD00BF98B3FF1F80B582B000AF03F0C3F80346FB71544A534B1B78DBB243F00103DBB21370514A504B1B78DBB243F0E8
:402400000103DBB213704E4B01221A704D4B02221A704D4A4C4B1B78DBB203F07F03DBB21370002001F0F0FF484A484B1B78DBB223F00603DBB21370454A454B1B78DBB279
:4024400023F02003DBB21370404A404B1B78DBB243F00103DBB21370012001F0D5FF282001F0D2FF3B4A3B4B1B78DBB203F07F03DBB21370374A374B1B78DBB223F0400381
:40248000DBB21370314A314B1B78DBB243F00203DBB21370022001F0B7FF2C4A2B4B1B78DBB243F00403DBB213702B4B00221A702A4B00221A70FB79184603F059F807210D
:4024C000172001F0DDFF2649172001F0B1FF0721182001F0D5FF2349182001F0A9FF0721152001F0CDFF2049152001F0A1FF0721042001F0C5FF1D49042001F099FF0721AA
:40250000052001F0BDFF1A49052001F091FF0721062001F0B5FF1749062001F089FF07210C2001F0ADFF14490C2001F081FF00BF0837BD4680BD00BFA5430040B543004086
:402540009D60004009600040106000409443004012600040F8510040846000408560004041330000292C0000353300004D32000095320000E13200004D33000080B582B0B9
:4025800000AF03460A46FB711346BB712E4AFB7913702E4B00221A702D4B00221A702D4B00221A702C4B00221A702C4B00221A702B4B00221A702B4B00221A702A4B4FF4C4
:4025C00000021A60284B4FF080721A60264B4FF400121A60244B10221A60234B20221A60214B40221A60BB79002B02D0012B09D011E01E4A1D4B1B78DBB223F00103DBB2B9
:40260000137011E0194A194B1B78DBB243F00103DBB2137008E0154A144B1B78DBB243F00103DBB2137000BF114B03221A70114B80221A70012002F08FFF0F4B04221A70EE
:4026400000BF0837BD4680BDFDB4FF1F00B5FF1F1CB5FF1F1FB5FF1F14B5FF1F1EB5FF1F21B5FF1FFCB4FF1F00E100E00960004028600040086000401260004080B400AF90
:402680000F4B00221A700F4B00221A700E4B00221A700E4B00221A700D4B00221A700D4B00221A700C4B00221A700C4B03221A700B4B80221A7000BFBD4680BC704700BFFD
:4026C00000B5FF1F1CB5FF1F1FB5FF1F14B5FF1F1EB5FF1F21B5FF1FFCB4FF1F286000400860004080B582B000AF786039603A680021786803F0FFFF00BF0837BD4680BDC3
:4027000080B584B000AFF860B9607A607A68B968F86803F0E5FF00BF1037BD4680BD00BF80B483B000AF0346FB71FEE780B487B000AF7860396000233B6100237B6127E0F7
:402740007B699B007A6813441B68BB60BB68FB73BB6823F0FF03BB6014E03B695B003A6813441B781A46BB68134419463B695B003A6813445B780B703B6901333B61FB7B37
:40278000013BFB73FB7B002BE7D17B6901337B617B69272BD4D900BF1C37BD4680BC704780B582B000AF3D4B00221A803C4B1B221A703C4B00221A803B4B19221A703B4B7B
:4027C00004221A803A4B18221A703A4B81221A80394B18221A70394B4EF65F221A80384B18221A70374B06221A70374B52221A70364B374A1278D2B21A70364B40F619126C
:402800001A80354B41F251221A800023FB7019237B6014E0FB785B00DAB2304B1B78DBB203F00103DBB21343DBB203F00303FB704FF4F07002F090FE7B68013B7B607B68E5
:40284000002B02D0FB78032BE4D17B68002B02D10320FFF765FF224B4FF480721A80204B07221A701F4B00221A701F4B48221A701B4B00221A701D4B00221A701C4B022228
:402880001A701C4A1B4B1B78DBB243F01F03DBB2137000BF0837BD4680BD00BF80400040824000408440004086400040884000408A4000408C4000408E40004090400040F8
:4028C000924000400043004000420040A14600400F0100492242004020420040254200400440004006400040084000400940004001400040A243004080B483B000AF0B4B27
:402900001B78FB710A4AFB7903F00703DBB21370084AFB791B09DBB21370074B44221A7000BF0C37BD4680BC704700BFCF0100496E5800406F5800407658004080B582B035
:4029400000AF72B63F4B61221A70FFF729FF3D4B01221A703C4A3C4B1B78DBB243F00403DBB213700023FB7113E0FA7913465B0013445B00354A13443B603B681A683B688B
:402980009B889BB219461046FFF7ACFEFB790133FB71FB79062BE8D92D494FF09040FFF7C5FE2C4A2B4B1B78DBB243F00203DBB21370294A284B1B78DBB243F00203DBB27B
:4029C0001370264A254B1B78DBB243F04003DBB21370234A224B1B78DBB243F01003DBB2137008221F492048FFF78AFE08221F491F48FFF785FE0A221E491F48FFF780FE26
:402A000008221E491E48FFF77BFE0A221D491E48FFF776FE08221D491D48FFF771FE1D4A1C4B1B78DBB243F00803DBB21370FFF763FF0E2209491848FFF762FE00BF0837AA
:402A4000BD4680BD00480040E8460040EC670000A00000480350014013500140A0430040C2430040400D004802510040480D0048C2510040500D0048F05100405C0D004856
:402A800012510040640D004820510040700D00483251004022430040B043004080B500AF03F0EAFD03461B680C2B00D1FEE7FEE780B584B000AF78600F4B1A687B68134447
:402AC0001A460E4BD31A802B09DC0B4B1B68FB60094B1A687B681344074A136007E003F0CBFD02460C2313604FF0FF33FB60FB6818461037BD4680BDF885FF1FD8B5FF1FB2
:402B000080B586B000AF224B7B61224B3B61204B7B6135E03B691B68FB603B695B68BB603B699B683B6000237B600CE0FB681A68BB681A60BB680433BB60FB680433FB60B1
:402B40007B6804337B607A683B689A42EED13B69DB683B6000237B6008E0BB6800221A60BB680433BB607B6804337B607A683B689A42F2D13B6910333B617B69013B7B610C
:402B80007B69002BC6D103F07DFDFDF757FBFEE701000000506A000080B582B000AF184B184A1A60184A184B1B6843F40073136000237B600FE07B68032B04D8134A7B6848
:402BC00052F8233000E0124B12497A6841F822307B6801337B607B682F2BECD90E4B1B78DAB20E4B1A700E4B0A4A1A60FFF7A6FE0C4B00221A6000BF0837BD4680BD00BF33
:402C00000CED00E00004FA0514ED00E0000000009D2A00000080FF1FBC760040C480FF1F08ED00E0C080FF1F80B582B000AF374B1B78BB71BB7903F01003002B62D0012359
:402C4000FB7197F90630002B12DABB7903F00F03012B02D00023FB711CE000F061F82C4B1B78DBB25BB2002B14DA0023FB7111E0BB7903F04003002B02D000F095F809E0F6
:402C8000BB7903F02003002B02D000F0B3F801E00023FB71FB79002B34D01C4B1B78BB7197F90630002B2DDB1A4B1B78DAB21A4B1B78DBB21343BB71184ABB791370174BFA
:402CC0001B78DBB2BA799A421CD1114B1B78FB710E4B1B78DBB223F07F03BB71BB79002B0AD10A4B0A4A1278D2B21A70074B1B78DBB203F00F03FB71054B1B78DBB2FA79E2
:402D00009A42E2D100BF0837BD4680BD286000401DB5FF1F92B5FF1F20B5FF1F2960004080B582B000AF1D4B1B78FB711B4AFB7913701A4B1B78FB7197F90730002B03DAE1
:402D4000174AFB79137025E0022000F045FA154B1B78DBB203F06003202B08D0402B0BD0002B0ED100F0F8FA0346FB710CE002F0EDFC0346FB7107E001F000FB0346FB71C1
:402D800002E00023FB7100BFFB79002B02D1044B03221A7000BF0837BD4680BD286000401DB5FF1F0060004080B500AF104B1B78DBB2062B19D801A252F823F0EB2D000044
:402DC000EB2D0000D92D0000EB2D0000DF2D0000EB2D0000E52D000000F0F8F806E000F0A7F903E000F0D2F900E000BF00BF80BD00B5FF1F80B500AF124B1B78DBB2062B73
:402E00001DD801A252F823F03F2E00003F2E0000252E00003F2E00002B2E00003F2E0000312E000000F0D8F80AE000F027F907E0032000F0D1F9044B03221A7000E000BFC3
:402E400000BF80BD00B5FF1F1DB5FF1F80B483B000AF0023FB71294B1B78DBB29AB2284B1B889BB213449AB2254B1A8015E02549FB79254A52681278D2B2CA54224B5B68A2
:402E80000133214A5360FB790133FB711E4B1B889BB2013B9AB21C4B1A801B4B1B889BB2002B02D0FB79072BE1D9144B1B78DBB2082B02D0FB79002B0FD0144B1B78DBB296
:402EC00083F07F03DB43DAB2104B1A70104B0F221A70104B02221A7005E00D4B02221A700C4B02221A700C4AFB791370034AFB79137000BF0C37BD4680BC7047FCB4FF1FE8
:402F0000FEB4FF1F0060004008B5FF1F92B5FF1F1DB5FF1F00B5FF1F20B5FF1F80B582B000AF164B1B889BB2002B02D100F02EF81EE0134B02221A70124B00221A7000F0AD
:402F40006BF9114BDB79DBB29BB21B029AB20E4B9B79DBB29BB21343FB80084B1B889BB2FA889A4202D2054AFB881380FFF76EFF012318460837BD4680BD00BF08B5FF1F0A
:402F800000B5FF1F92B5FF1F0060004080B400AF094B02221A70094B80221A70084B0F221A70084B00221A70074B00221A7001231846BD4680BC704700B5FF1F92B5FF1F19
:402FC0001DB5FF1FFCB4FF1F20B5FF1F80B500AFFFF73CFF00BF80BD80B500AF0A4B1B78DBB29AB2094B1B889BB213449AB2074B1A80074B00221A70012000F0EDF8054B53
:4030000003221A7000BF80BDFCB4FF1FFEB4FF1F00B5FF1F1DB5FF1F80B582B000AF124B04221A70114B80221A7000F0F5F8104BDB79DBB29BB21B029AB20D4B9B79DBB211
:403040009BB21343FB800B4B1B889BB2FA889A4202D2084AFB881380074B0B221A70012318460837BD4680BD00B5FF1F92B5FF1F0060004008B5FF1F1DB5FF1F80B483B03E
:4030800000AF0023BB71234B1B78DBB203F00F03DBB2023BFB71FB799AB21F4B1B889BB213449AB21C4B1A8018E01C4B5B681C49BA798A5CD2B21A70184B5B680133174A22
:4030C0005360BB790133BB71FB79013BFB71134B1B889BB2013B9AB2104B1A800F4B1B889BB2002B02D0FB79002BDED10D4AFB7913700D4B1B78DBB283F07F03DB43DAB2A8
:40310000094B1A70094B0B221A7000BF0C37BD4680BC704729600040FEB4FF1F08B5FF1F0060004020B5FF1F92B5FF1F1DB5FF1F80B500AF054B00221A70012000F04CF81D
:40314000034B03221A7000BF80BD00BF00B5FF1F1DB5FF1F80B400AF084B06221A70084B06221A70074B80221A70074B00221A7001231846BD4680BC704700BF00B5FF1F61
:403180001DB5FF1F92B5FF1F20B5FF1F80B500AF0D4B1B78DBB2002B0AD00C4A0A4B1B78DBB263F07F03DBB21370074B00221A70074B00221A70012000F00EF8054B03222E
:4031C0001A7000BF80BD00BF1EB5FF1F0860004000B5FF1F1DB5FF1F80B483B000AF0346FB710B4B9B68002B0CD0094B9B68FA791A70074B9B68074A128892B25A80044B02
:4032000000229A6000BF0C37BD4680BC704700BF08B5FF1FFEB4FF1F80B400AF094B00221A80094B9B68002B07D0074B9B6800221A70054B9B6800225A8000BFBD4680BC76
:40324000704700BFFEB4FF1F08B5FF1F80B400AF0D4B01221A700D4B9B7C0D4B1B7BDBB203F00303012B08D0094BDB7BDBB283F07F03DB43DAB2064BDA73054B01225A73AA
:4032800000BFBD4680BC70470B600040FC5F004024B5FF1F80B400AF0E4B02221A700E4B93F822300D4B1B7EDBB203F00303012B08D00A4BDB7EDBB283F07F03DB43DAB2A7
:4032C000064BDA76054B01225A7600BFBD4680BC704700BF0B600040FC5F004024B5FF1F80B400AF104B04221A70104B93F832300F4B93F82430DBB203F00303012B0AD03E
:403300000B4B93F82730DBB283F07F03DB43DAB2074B83F82720064B012283F8252000BFBD4680BC704700BF0B600040FC5F004024B5FF1F80B400AF00BFBD4680BC704798
:4033400080B500AFFFF79AF900BF80BD80B500AF01F03EF800BF80BD80B586B000AF0023FB759D4B1B78FB7100233B619B4B00221A8097F90730002B80F20481964B5B784B
:40338000DBB20A2B00F21B8201A252F823F000BFDB340000BF370000BF370000BF370000BF370000BF370000BD330000BF3700004F350000BF37000065350000864BDB7802
:4033C000DBB2012B0ED100F049FEB860BB685B68824A5360814B12221A80FFF79FFD0346FB75EEE17C4BDB78DBB2022B25D17A4B9B78DBB2184600F009FEB860BB68002BE3
:4034000000F0DF81BB685B68744A5360734B5B6803331B78DBB29BB21B029AB26F4B5B6802331B78DBB29BB213439AB26B4B1A80FFF774FD0346FB75C3E1674BDB78DBB2F1
:40344000032B45D10023FB73654B3B6109E03B691B78BB71BB793A6913443B61FB7B0133FB735D4B9B78DBB2FA7B9A4204D23B691B78DBB2002BEAD1574B9B78DBB2EE2B89
:4034800001D1584B3B61544B9B78DBB2002B0BD0514B9B78DAB2544B1B7C9A4204D1534800F0ACF9514B3B613B691B78DBB2002B00F087813B691B78DBB29AB2474B1A8009
:4034C000464A3B695360FFF729FD0346FB7578E102F03CF90346FB7573E1FB7903F00303002B20D0022B00D030E03C4B02221A80394B1B79DBB203F07F023D4913465B0056
:4035000013449B000B4402331B78DAB2394B1A70384B00225A70314B364A5A60FFF7FEFC0346FB7512E02D4B02221A80324B1B78DAB2304B1A702F4B00225A70274B2D4A02
:403540005A60FFF7EBFC0346FB7500BF40E1234B01221A80214B294A5A60FFF7DFFC0346FB7535E11D4B01221A801B4B1B79DBB21A46234B1344194A5360FFF7CFFC0346C6
:40358000FB7525E1144B5B78DBB2013B0A2B00F21A8101A252F823F0A3360000C737000031370000C7370000C5350000C7370000C7370000C737000009360000C73700006A
:4035C0005F360000044B9B78DAB20E4B1A70FFF7C1FD0346FB75FBE00060004008B5FF1F846800008C6900002C680000B0B5FF1F24B5FF1F9CB3FF1F21B5FF1F1FB5FF1F60
:4036000090B5FF1F1EB5FF1F744B9B787B717B79002B06D07B79013BDBB2184600F0F6FCB8607B79002B02D0BB68002B03D17B79002B40F0CA806A4B1B78DBB27A799A421E
:4036400008D0674A7B791370664B01221A70012000F0DCF9FFF77EFD0346FB75B5E000F055FE0346002B00F0B2805C4B1B793B715A4B1B79DAB25C4B1A703B795B4AD35C09
:40368000DAB23B795A49CB5CDBB29A4204D0554B01221A7000F08CFBFFF75CFD0346FB7595E0FB7903F00303012B20D0012B0CD3022B00D03BE0494B9B78DBB2002B31D175
:4036C00000F078FD0346FB752CE0444B9B78DBB2012B29D1474B1B78DBB223F00203DAB2444B1A70FFF736FD0346FB751CE03B4B1B79DBB2012B19D8384B9B78DBB2DB43F9
:40370000DBB2364A1279D2B2114610463A4A125CD2B21340DAB2384B5A54FFF71BFD0346FB7503E000BF53E000BF51E000BF4FE0FB7903F00303012B20D0012B0CD3022BFF
:4037400000D03BE0254B9B78DBB2002B31D100F0BDFC0346FB752CE0204B9B78DBB2012B29D1244B1B78DBB243F00203DAB2214B1A70FFF7EFFC0346FB751CE0174B1B79AD
:40378000DBB2012B19D8154B9B78DBB2DB43DBB2124A1279D2B211461046174A125CD2B21340DAB2144B5A54FFF7D4FC0346FB7503E000BF0CE000BF0AE000BF08E000BF41
:4037C00006E000BF04E000BF02E000BF00E000BFFB7D18461837BD4680BD00BF006000401FB5FF1F1CB5FF1F14B5FF1F04B5FF1F90B5FF1F21B5FF1F94B5FF1FB0B58AB081
:4038000000AF7860324B07F114041D460FCD0FC42B682370002387F826307B68002B52D07B6822221A707B68013303221A7007F10C03184600F048FE022387F827303EE0E9
:4038400097F827307A68134497F8262007F128010A4412F81C2C1209D2B207F128010A4412F8142C1A7097F8273001337A68134400221A7097F8273002337A68134497F8CF
:40388000262007F128010A4412F81C2C02F00F0207F128010A4412F8142C1A7097F8273003337A68134400221A7097F82630013387F8263097F82730043387F8273097F84A
:4038C0002730212BBCD900BF2837BD46B0BD00BF1868000090B482B000AF0123FB7180E0464AFB791B0113440C221A70FA79444913465B0013449B000B4405331B78DBB232
:40390000002B1CD0FA793E4913465B0013449B000B4404331B78DBB25BB2002B07DA394AFB791B01134402330C221A700EE0354AFB791B011344023308221A7006E0314A1C
:40394000FB791B011344023380221A702B48F979FA792B4C13465B0013449B00234406331B889BB2DAB20B01034406331A702348F979FA79224C13465B0013449B0023448D
:4039800006331B889BB21B0A9BB2DAB20B01034407331A701948F979FA79194C13465B0013449B00234406331B889BB2DAB20B01034404331A701148F979FA79104C134655
:4039C0005B0013449B00234406331B889BB21B0A9BB2DAB20B01034405331A70FB790133FB71FB79082B7FF67BAF074BFF221A7000BF0837BD4690BC704700BF70600040AD
:403A000024B5FF1FFC5F00400A60004080B58AB000AF0346FB7100237B84002387F8273050E097F82720B34913465B0013449B000B4400221A7097F82720AE4913465B0038
:403A400013449B000B44023300221A7097F82720A84913465B0013449B000B44033300221A7097F82720A34913465B0013449B000B44083300221A8097F827209D491346C3
:403A80005B0013449B000B440A3300221A7097F82720984913465B0013449B000B44013300221A7097F82720924913465B0013449B000B44053300221A7097F82730013351
:403AC00087F8273097F82730082BAAD9FB79002B16D0002387F825300EE097F82530864A0021D15497F82530844A0021D15497F82530013387F8253097F82530012BECD937
:403B00007F4B1B78DBB2002B00F04A810023FB767B4B1B78DBB2013BDBB2184600F076FA78617B695B683B613B6907331B7803F04003002B08D0734B1B78DBB243F00103D9
:403B4000DAB2704B1A7007E06E4B1B78DBB223F00103DAB26B4B1A707B6908337B617B691B7887F82730012387F82530B6E07B695B68FB61002387F82630A3E097F82520A9
:403B8000FB699B7803F07F039A4240F0938097F82520584913465B0013449B000B4408331B889AB2FB699B889A420CD297F82520FB6998884F4913465B0013449B000B4440
:403BC000083302461A80FB691B781A464A4B9B5CDAB2FB695B789A426CD197F82520FB699878444913465B0013449B000B44043302461A7097F82520FB69D8783D491346AF
:403C00005B0013449B000B4402461A70FB69DB7803F00303FB73FB699B785BB2002B1CDA97F82520FB7B012B01D1072000E00D20304913465B0013449B000B4405330246E9
:403C40001A7097F825202B4913465B0013449B000B44013301221A701BE097F82520FB7B012B01D1052000E00920224913465B0013449B000B44053302461A7097F82520ED
:403C80001C4913465B0013449B000B44013300221A70FB699B790A2B03D0FB699B79022B08D1FA7E97F825301946F86901F006FD0346FB76FB690833FB6197F826300133EE
:403CC00087F8263097F8262097F827309A42FFF455AF97F82530013387F8253097F82530082B7FF644AF7B695B68FB61002387F8253020E024B5FF1F90B5FF1F04B5FF1FCB
:403D00001FB5FF1F21B5FF1FFB699B7803F07F02FB691878244913465B0013449B000B440A3302461A70FB690833FB6197F82530013387F8253097F8252097F827309A42D0
:403D4000E2D300F09DF90246184B1A6000237B84012387F827301DE097F82720124913465B0013449B000B4406337A8C1A8097F827200D4913465B0013449B000B4408336F
:403D80001B889AB27B8C13447B8497F82730013387F8273097F82730082BDDD9FFF79AFD00BF2837BD4680BD24B5FF1F18B5FF1F90B585B000AF8F4B1B78DBB2002B00F0ED
:403DC00015818C4B1B78DBB2013BDBB2184600F01DF978607B6808337B607B681B78FB707B685B68BB60844B1B78BB700023FB73F7E0BB681B78BA789A4240F0EC80BB780E
:403E00007E4AD35CDAB2BB685B789A4240F0E380BB689B7803F07F037B70BB68DB7803F003033B707A78764913465B0013449B000B44033300221A707A78BB689878704984
:403E400013465B0013449B000B44043302461A707A78BB68D8786A4913465B0013449B000B4402461A707A78BB689888644913465B0013449B000B44083302461A80BB684E
:403E80009B785BB2002B1ADA7A783B78012B01D1072000E00D205A4913465B0013449B000B44053302461A707A78554913465B0013449B000B44013301221A7019E07A78F9
:403EC0003B78012B01D1052000E009204C4913465B0013449B000B44053302461A707A78474913465B0013449B000B44013300221A70444A7B781B011344023301221A7022
:403F0000404879787A783E4C13465B0013449B00234408331B889BB21B0A9BB2DAB20B0103441A70374879787A78354C13465B0013449B00234408331B889BB2DAB20B01C6
:403F4000034401331A70304879787A782C4C13465B0013449B00234406331B889BB2DAB20B01034406331A70274879787A78244C13465B0013449B00234406331B889BB299
:403F80001B0A9BB2DAB20B01034407331A701E4879787A781A4C13465B0013449B00234406331B889BB2DAB20B01034404331A70154879787A78124C13465B0013449B0023
:403FC000234406331B889BB21B0A9BB2DAB20B01034405331A70BB680833BB60FB7B0133FB73FA7BFB789A42FFF403AF00BF1437BD4690BD1FB5FF1F14B5FF1F90B5FF1F8E
:4040000024B5FF1FFC5F00407060004080B485B000AF0346FB710F4B1B78DBB20E4ADB0013445B68FB60FB681033FB60FB681B78FA799A4202D30023FB6005E0FB79DB0022
:40404000FA6813445B68FB60FB6818461437BD4680BC7047FDB4FF1F8469000080B400AF054B1B78DBB2054ADB0013445B681846BD4680BC704700BFFDB4FF1F8469000045
:4040800080B584B000AF104B1B78DBB2013BDBB21846FFF7BBFFB860BB68002B0DD0BB685B681B79FB71FB790233DB00BA681344BB60BB685B68FB6001E00023FB60FB6852
:4040C00018461037BD4680BD1FB5FF1F80B582B000AF0023FB71344B1B79DBB203F07F03BB71BB79002B5AD0BB79082B57D8BA79B9792E480B465B000B449B0003440233F7
:404100001B78DBB243F00103D8B2284913465B0013449B000B44023302461A70BA79234913465B0013449B000B44033300221A70BA79B9791D480B465B000B449B00034414
:4041400001331B78DBB243F00203D8B2174913465B0013449B000B44013302461A70BA79124913465B0013449B000B4404331B78DBB25BB2002B07DA0D4ABB791B011344DD
:4041800002338D221A7006E0094ABB791B011344023389221A70FEF7DDFF0346FB71FB7918460837BD4680BD0060004024B5FF1FFC5F004080B582B000AF0023FB71504BFE
:4041C0001B79DBB203F07F03BB71BB79002B00F09280BB79082B00F28E80BA79B97949480B465B000B449B00034402331B78DBB223F00103D8B2434913465B0013449B003A
:404200000B44023302461A70BA793E4913465B0013449B000B44033300221A703A49BB793948BA79120102441278D2B202F07F02D2B21B010B441A70BA79B97931480B46AA
:404240005B000B449B00034401331B78DBB223F00203D8B22B4913465B0013449B000B44013302461A70BA79264913465B0013449B000B4404331B78DBB25BB2002B1BDA32
:40428000BA79204913465B0013449B000B4401331B78DBB2012B07D11B4ABB791B01134402330C221A7022E0174ABB791B01134402330D221A701AE0BA79124913465B00E8
:4042C00013449B000B4401331B78DBB2012B07D10D4ABB791B011344023308221A7006E0094ABB791B011344023309221A70FEF731FF0346FB71FB7918460837BD4680BD49
:404300000060004024B5FF1FFC5F004080B584B000AF0023FB73154B1B79BB73144B1B78DBB2013BDBB21846FFF770FEB860BB685B681B79FB71BA7BFB799A4202D9BB7BE2
:40434000022B0ED8BB7BBA7B0A498A5CD1B20A4AD154BB7B054A9278D1B2064AD1540123FB73FB7B18461037BD4680BD006000401FB5FF1F90B5FF1F04B5FF1F80B582B0E3
:4043800000AF0023FB710F4B1B78DBB25BB2002B12DA0C4B5B78DBB2012B00D00CE00A4B0A4A5A60094B1B789AB2074B1A80FEF7B5FD0346FB7100BFFB7918460837BD46D1
:4043C00080BD00BF0060004008B5FF1FA069000080B400AF054B1B78DBB203F040039B09DBB21846BD4680BC704700BF8F45004080B483B000AF0346FB7101BE00BF0C37D0
:40440000BD4680BC704700BF80B582B000AF0346FB80FB88054A127802FB03F3184601F09BF800BF0837BD4680BD00BF0486FF1F80B584B000AF03463960FB710F4B1B68D4
:40444000FB60FB791F2B02D90020FFF7D1FFFB7903F01F0310339B00FA6813441B68BB60FB7903F01F0310339B00FA6813443A681A60BB6818461037BD4680BD08ED00E08B
:4044800080B582B000AF03460A46FB711346BB71BB79072B02D90020FFF7AAFFFB791F2B02D90020FFF7A4FFFB7903F01F0303F1604303F56443BA795201D2B21A7000BFF8
:4044C0000837BD4680BD00BF80B483B000AF7860264B1B78DBB21A467B681A60244B1B78DBB21B027A6812681A437B681A60214B1B78DBB21B047A6812681A437B681A60BF
:404500001D4B1B78DBB21B067A6812681A437B681A607B680433194A1278D2B21A60184B1B78DBB21A027B6804337968043109680A431A60134B1B78DBB21A047B680433FA
:404540007968043109680A431A600F4B1B78DBB21A067B6804337968043109680A431A6000BF0C37BD4680BC704700BF0301004904010049EC460040020100490101004990
:4045800000010049050100490601004980B500AF064B1B78002B04D100F00AF8034B01221A7000F065F800BF80BD00BF9EB3FF1F80B582B000AF294A284B1B78DBB243F097
:4045C0000203DBB21370264B1B78DBB223F07003FB71234AFB7943F01003DBB21370214A204B1B78DBB223F03003DBB213701D4A1C4B1B78DBB243F03003DBB21370194AD9
:40460000184B1B78DBB223F00F03DBB21370154A144B1B78DBB243F00F03DBB213704FF6FF7000F049F8002000F056F8002000F063F80D4A0C4B1B78DBB243F00103DBB24F
:4046400013700A4A094B1B78DBB243F00103DBB2137000BF0837BD4680BD00BF004F0040024F00400B4F0040A3430040014F004080B400AF0D4A0D4B1B78DBB243F0010352
:40468000DBB213700A4A0A4B1B78DBB243F00103DBB21370074A074B1B78DBB243F00103DBB2137000BFBD4680BC7047A3430040B3430040004F004080B483B000AF0346D1
:4046C000FB80044AFB88138000BF0C37BD4680BC704700BF044F004080B483B000AF0346FB80044AFB88138000BF0C37BD4680BC704700BF064F004080B483B000AF0346A8
:40470000FB71044AFB79137000BF0C37BD4680BC704700BF034F004080B400AF094A094B1B78DBB243F00203DBB21370064A064B1B78DBB243F00203DBB2137000BFBD46C2
:4047400080BC7047A2430040B243004080B500AF064B1B78002B04D100F00AF8034B01221A7000F065F800BF80BD00BF9FB3FF1F80B582B000AF294A284B1B78DBB243F070
:404780000203DBB21370264B1B78DBB223F07003FB71234AFB7943F01003DBB21370214A204B1B78DBB223F03003DBB213701D4A1C4B1B78DBB243F03003DBB21370194A17
:4047C000184B1B78DBB223F00F03DBB21370154A144B1B78DBB243F00F03DBB213704FF6FF7000F049F8002000F056F8002000F063F80D4A0C4B1B78DBB243F00203DBB28D
:4048000013700A4A094B1B78DBB243F00103DBB2137000BF0837BD4680BD00BF0C4F00400E4F0040174F0040A34300400D4F004080B400AF0D4A0D4B1B78DBB243F002035F
:40484000DBB213700A4A0A4B1B78DBB243F00203DBB21370074A074B1B78DBB243F00103DBB2137000BFBD4680BC7047A3430040B34300400C4F004080B483B000AF034602
:40488000FB80044AFB88138000BF0C37BD4680BC704700BF104F004080B483B000AF0346FB80044AFB88138000BF0C37BD4680BC704700BF124F004080B483B000AF0346CE
:4048C000FB71044AFB79137000BF0C37BD4680BC704700BF0F4F004080B400AF00BFBD4680BC704780B582B000AF0F2000F06AF800F05AF800F038FE0346FB71074A074BC3
:404900001B78DBB243F01003DBB21370FB79184600F02EFE00BF0837BD4680BD9764004080B500AF00F034F94FF4004000F05EF9064B1B78002B04D1FFF7CEFF034B0122B7
:404940001A70FFF7CFFF00BF80BD00BFA0B3FF1F80B582B000AF00F059F90346FB80FB88A3F500439BB2BB80B7F9043018460837BD4680BD80B584B000AF0346FB80B7F96E
:404980000630002B04DBFB88A3F50043FB8103E0FB88A3F50043FB81FB89184600F026F900BF1037BD4680BD80B400AF044B1B78DBB203F00F03DBB21846BD4680BC7047B1
:4049C0006764004080B483B000AF0346FB71044AFB79137000BF0C37BD4680BC704700BF8764004080B400AF00BFBD4680BC704780B582B000AF0F2000F06AF800F05AF849
:404A000000F0B2FD0346FB71074A074B1B78DBB243F01003DBB21370FB79184600F0A8FD00BF0837BD4680BD9264004080B500AF00F086F94FF4004000F0B0F9064B1B78DB
:404A4000002B04D1FFF7CEFF034B01221A70FFF7CFFF00BF80BD00BFA1B3FF1F80B582B000AF00F0ABF90346FB80FB88A3F500439BB2BB80B7F9043018460837BD4680BD72
:404A800080B584B000AF0346FB80B7F90630002B04DBFB88A3F50043FB8103E0FB88A3F50043FB81FB89184600F078F900BF1037BD4680BD80B400AF044B1B78DBB203F0C5
:404AC0000F03DBB21846BD4680BC70476264004080B483B000AF0346FB71044AFB79137000BF0C37BD4680BC704700BF8264004080B582B000AF1C4B1B78DBB223F0070316
:404B0000FB71194AFB791370174B1B78DBB223F00303FB71144AFB79137000F0B3F84FF4004000F08FF84FF4004000F05FF8002000F040F800F04EF84FF4004000F092F879
:404B400000F012FD0346BB71084A084B1B78DBB243F01003DBB21370BB79184600F008FD00BF0837BD4680BD776500409565004080B400AF054A054B1B78DBB263F07F0314
:404B8000DBB2137000BFBD4680BC70477765004080B500AF064B1B78002B04D1FFF7A8FF034B01221A70FFF7E3FF00BF80BD00BFA2B3FF1F80B483B000AF0346FB71044A95
:404BC000FB79137000BF0C37BD4680BC704700BF8565004080B400AF034B1B78DBB21846BD4680BC704700BF6565004080B483B000AF0346FB80044AFB88138000BF0C372F
:404C0000BD4680BC704700BF086A004080B400AF044B1B78044B1B889BB21846BD4680BC704700BF04650040886A004080B400AF034B1B889BB21846BD4680BC704700BFE7
:404C4000886A004080B483B000AF0346FB80044AFB88138000BF0C37BD4680BC704700BF486A004080B483B000AF0346FB80044AFB88138000BF0C37BD4680BC704700BF26
:404C8000686A004080B500AF01E0FFF7CFFFFFF7A1FF034603F04003002BF6D100BF80BD80B582B000AF1C4B1B78DBB223F00703FB71194AFB791370174B1B78DBB223F041
:404CC0000303FB71144AFB79137000F0B3F84FF4004000F08FF84FF4004000F05FF8002000F040F800F04EF84FF4004000F092F800F03AFC0346BB71084A084B1B78DBB2B3
:404D000043F01003DBB21370BB79184600F030FC00BF0837BD4680BD756400409164004080B400AF054A054B1B78DBB263F07F03DBB2137000BFBD4680BC7047756400408E
:404D400080B500AF064B1B78002B04D1FFF7A8FF034B01221A70FFF7E3FF00BF80BD00BFA3B3FF1F80B483B000AF0346FB71044AFB79137000BF0C37BD4680BC704700BF05
:404D80008164004080B400AF034B1B78DBB21846BD4680BC704700BF6164004080B483B000AF0346FB80044AFB88138000BF0C37BD4680BC704700BF0068004080B400AFE5
:404DC000044B1B78044B1B889BB21846BD4680BC704700BF006400408068004080B400AF034B1B889BB21846BD4680BC704700BF8068004080B483B000AF0346FB80044A2F
:404E0000FB88138000BF0C37BD4680BC704700BF4068004080B483B000AF0346FB80044AFB88138000BF0C37BD4680BC704700BF6068004080B500AF01E0FFF7CFFFFFF741
:404E4000A1FF034603F04003002BF6D100BF80BD80B483B000AF0346FB71044AFB79137000BF0C37BD4680BC704700BF7964004080B500AF214A214B1B78DBB203F001036F
:404E8000DBB213701E4A1E4B1B78DBB223F00303DBB213701B4A1B4B1B78DBB223F03003DBB21370174A174B1B78DBB243F03003DBB21370134A134B1B78DBB223F00F032E
:404EC000DBB213700F4A0F4B1B78DBB243F00F03DBB213700C4A0C4B1B78DBB243F00103DBB21370312000F063F8312000F072F8082000F041F800BF80BD00BF184F00406C
:404F00001A4F0040234F0040194F004080B400AF0D4A0D4B1B78DBB243F00403DBB213700A4A0A4B1B78DBB243F00403DBB21370074A074B1B78DBB243F00103DBB2137055
:404F400000BFBD4680BC7047A3430040B3430040184F004080B500AF064B1B78002B04D1FFF786FF034B01221A70FFF7CFFF00BF80BD00BFA4B3FF1F80B483B000AF0346E8
:404F8000FB71044AFB79137000BF0C37BD4680BC704700BF1B4F004080B400AF034B1B78DBB21846BD4680BC704700BF1B4F004080B485B000AF0346FB80FB88FB81044AA8
:404FC000FB89138000BF1437BD4680BC704700BF1C4F004080B483B000AF0346FB80044AFB88138000BF0C37BD4680BC704700BF1E4F004080B582B000AF786000F03CF87C
:40500000786800F009F8072000F018F800F028F800BF0837BD4680BD80B485B000AF7860054B1B68FB60FB688C337A681A6000BF1437BD4680BC704708ED00E080B483B052
:4050400000AF0346FB71054AFB795B01DBB2137000BF0C37BD4680BC704700BF13E400E080B400AF034B4FF400221A6000BFBD4680BC704700E100E080B400AF034B4FF415
:4050800000221A6000BFBD4680BC704780E100E080B400AF094A094B1B78DBB243F01003DBB21370064A064B1B78DBB243F01003DBB2137000BFBD4680BC7047A24300406D
:4050C000B243004080B500AF224A224B1B78DBB203F00103DBB213701F4A1F4B1B78DBB223F00303DBB213701C4A1C4B1B78DBB223F03003DBB21370184A184B1B78DBB253
:4051000043F03003DBB21370144A144B1B78DBB223F00F03DBB21370104A104B1B78DBB243F00F03DBB213700D4A0D4B1B78DBB243F00103DBB2137040F2C93000F064F830
:4051400040F2C93000F072F8082000F041F800BF80BD00BF244F0040264F00402F4F0040254F004080B400AF0D4A0D4B1B78DBB243F00803DBB213700A4A0A4B1B78DBB2FB
:4051800043F00803DBB21370074A074B1B78DBB243F00103DBB2137000BFBD4680BC7047A3430040B3430040244F004080B500AF064B1B78002B04D1FFF784FF034B012221
:4051C0001A70FFF7CFFF00BF80BD00BFA5B3FF1F80B483B000AF0346FB71044AFB79137000BF0C37BD4680BC704700BF274F004080B400AF034B1B78DBB21846BD4680BCC5
:40520000704700BF274F004080B485B000AF0346FB80FB88FB81044AFB89138000BF1437BD4680BC704700BF284F004080B483B000AF0346FB80044AFB88138000BF0C374C
:40524000BD4680BC704700BF2A4F004080B582B000AF786000F03CF8786800F009F8072000F018F800F028F800BF0837BD4680BD80B485B000AF7860054B1B68FB60FB68E7
:4052800090337A681A6000BF1437BD4680BC704708ED00E080B483B000AF0346FB71054AFB795B01DBB2137000BF0C37BD4680BC704700BF14E400E080B400AF034B4FF4FD
:4052C00080121A6000BFBD4680BC704700E100E080B400AF034B4FF480121A6000BFBD4680BC704780E100E080B582B000AF786000F03CF8786800F009F8072000F018F8AC
:4053000000F028F800BF0837BD4680BD80B485B000AF7860054B1B68FB60FB6840337A681A6000BF1437BD4680BC704708ED00E080B483B000AF0346FB71054AFB795B0110
:40534000DBB2137000BF0C37BD4680BC704700BF00E400E080B400AF034B01221A6000BFBD4680BC704700BF00E100E080B400AF034B01221A6000BFBD4680BC704700BF5D
:4053800080E100E080B582B000AF786000F03CF8786800F009F8072000F018F800F028F800BF0837BD4680BD80B485B000AF7860054B1B68FB60FB6844337A681A6000BF41
:4053C0001437BD4680BC704708ED00E080B483B000AF0346FB71054AFB795B01DBB2137000BF0C37BD4680BC704700BF01E400E080B400AF034B02221A6000BFBD4680BC54
:40540000704700BF00E100E080B400AF034B02221A6000BFBD4680BC704700BF80E100E080B582B000AF786000F03CF8786800F009F8072000F018F800F028F800BF083799
:40544000BD4680BD80B485B000AF7860054B1B68FB60FB6848337A681A6000BF1437BD4680BC704708ED00E080B483B000AF0346FB71054AFB795B01DBB2137000BF0C37C3
:40548000BD4680BC704700BF02E400E080B400AF034B04221A6000BFBD4680BC704700BF00E100E080B400AF034B04221A6000BFBD4680BC704700BF80E100E080B582B07E
:4054C00000AF786000F03CF8786800F009F8072000F018F800F028F800BF0837BD4680BD80B485B000AF7860054B1B68FB60FB684C337A681A6000BF1437BD4680BC70475F
:4055000008ED00E080B483B000AF0346FB71054AFB795B01DBB2137000BF0C37BD4680BC704700BF03E400E080B400AF034B08221A6000BFBD4680BC704700BF00E100E014
:4055400080B400AF034B08221A6000BFBD4680BC704700BF80E100E00230800803D000BF01380046FCD17047EFF3108072B6704780F31088704700BF80B582B000AF002347
:40558000FB71314B1B79DBB2184600F067F80346BB712D4B1B78DBB25BB2002B15DA2A4B5B78DBB2212B00D048E0284B07221A80BA791346DB009B1A254A1344234A5360B0
:4055C000FDF7ACFC0346FB7138E01F4B5B78DBB2202B02D0222B1AD030E01C4B07221A80BA791346DB009B1A194A1344174A5360BB79BA7917498A5CD2B242F00102D1B217
:40560000144AD154FDF708FD0346FB7116E0BB790D4A9278D2B291B20F4A22F81310BB79BA790C498A5CD2B242F00202D1B2094AD154FDF78FFD0346FB7100BFFB79184634
:405640000837BD4680BD00BF0060004008B5FF1F0C86FF1F98B5FF1FACB5FF1F80B485B000AF0346FB710023FB73FF23BB7317E0FB7B104AD35C7B737A7B0F4913465B0044
:4056800013449B000B440A331B78DBB2FA799A4203D1FB7BBB730223FB73FB7B0133FB73FB7B012BE4D9BB7B18461437BD4680BC704700BFA0B5FF1F24B5FF1F80B485B014
:4056C00000AF78600B46FB701346BB707B68DB7803F00303FB737B689B785BB2002B1ADAFB7B032B0AD0BB7803F001031449FA78CA54BB7843F00103BB701BE0BB789B0829
:40570000DBB203F001030F49FA78CA54BB7843F00403BB700EE0FB7B032B0BD0BB785B08DBB203F001030849FA78CA54BB7843F00203BB70BB7818461437BD4680BC704795
:405740009CB5FF1FA0B5FF1FA4B5FF1F80B582B000AF0023BB711B4B1B78DBB203F00303012B02D0022B04D012E0164B1B79FB7111E0144B1B79DBB203F07F021249134601
:405780005B0013449B000B440A331B78FB7102E00023FB7100BFFB79022B0ED80B4B1A68FB7913441B78022B04D1FFF7E5FE0346BB7102E00023BB7100BFBB791846083713
:4057C000BD4680BD0060004024B5FF1F18B5FF1F81F0004102E000BF83F0004330B54FEA41044FEA430594EA050F08BF90EA020F1FBF54EA000C55EA020C7FEA645C7FEA0F
:40580000655C00F0E2804FEA5454D4EB5555B8BF6D420CDD2C4480EA020281EA030382EA000083EA010180EA020281EA0303362D88BF30BD11F0004F4FEA01314FF4801CC2
:405840004CEA113102D0404261EB410113F0004F4FEA03334CEA133302D0524263EB430394EA050F00F0A780A4F10104D5F1200E0DDB02FA0EFC22FA05F2801841F1000194
:4058800003FA0EF2801843FA05F359410EE0A5F120050EF1200E012A03FA0EFC28BF4CF0020C43FA05F3C01851EBE37101F0004507D54FF0000EDCF1000C7EEB00006EEBB4
:4058C0000101B1F5801F1BD3B1F5001F0CD349085FEA30004FEA3C0C04F101044FEA445212F5800F80F09A80BCF1004F08BF5FEA500C50F1000041EB045141EA050130BD53
:405900005FEA4C0C404141EB010111F4801FA4F10104E9D191F0000F04BF01460020B1FA81F308BF2033A3F10B03B3F120020CDA0C3208DD02F1140CC2F10C0201FA0CF0F0
:4059400021FA02F10CE002F11402D8BFC2F1200C01FA02F120FA0CFCDCBF41EA0C019040E41AA2BF01EB0451294330BD6FEA04041F3C1CDA0C340EDC04F11404C4F1200242
:4059800020FA04F001FA02F340EA030021FA04F345EA030130BDC4F10C04C4F1200220FA02F001FA04F340EA0300294630BD21FA04F0294630BD94F0000F83F4801306BF9A
:4059C00081F480110134013D4EE77FEA645C18BF7FEA655C29D094EA050F08BF90EA020F05D054EA000C04BF1946104630BD91EA030F1EBF0021002030BD5FEA545C05D107
:405A00004000494128BF41F0004130BD14F580043CBF01F5801130BD01F0004545F0FE4141F470014FF0000030BD7FEA645C1ABF194610467FEA655C1CBF0B46024650EA4F
:405A4000013406BF52EA033591EA030F41F4002130BD00BF90F0000F04BF0021704730B54FF4806404F132044FF000054FF0000150E700BF90F0000F04BF0021704730B53F
:405A80004FF4806404F1320410F0004548BF40424FF000013EE700BF42004FEAE2014FEA31014FEA02701FBF12F07F4393F07F4F81F06051704792F0000F14BF93F07F4FAD
:405AC000704730B54FF4607401F0004521F0004120E700BF50EA010208BF704730B54FF000050AE050EA010208BF704730B511F0004502D5404261EB41014FF4806404F1EE
:405B000032045FEA915C3FF4DCAE4FF003025FEADC0C18BF03325FEADC0C18BF033202EBDC02C2F1200300FA03FC20FA02F001FA03FE40EA0E0021FA02F11444C1E600BFD8
:405B400070B54FF0FF0C4CF4E06C1CEA11541DBF1CEA135594EA0C0F95EA0C0F00F0DEF82C4481EA030621EA4C5123EA4C5350EA013518BF52EA033541F4801143F48013F9
:405B800038D0A0FB02CE4FF00005E1FB02E506F00042E0FB03E54FF00006E1FB03569CF0000F18BF4EF0010EA4F1FF04B6F5007F64F5407404D25FEA4E0E6D4146EB060602
:405BC00042EAC62141EA55514FEAC52040EA5E504FEACE2EB4F1FD0C88BFBCF5E06F1ED8BEF1004F08BF5FEA500E50F1000041EB045170BD06F0004646EA010140EA0200B6
:405C000081EA0301B4EB5C04C2BFD4EB0C0541EA045170BD41F480114FF0000E013C00F3AB8014F1360FDEBF002001F0004170BDC4F10004203C35DA0C341BDC04F11404BC
:405C4000C4F1200500FA05F320FA04F001FA05F240EA020001F0004221F0004110EBD37021FA04F642EB06015EEA430E08BF20EAD37070BDC4F10C04C4F1200500FA04F3B6
:405C800020FA05F001FA04F240EA020001F0004110EBD37041F100015EEA430E08BF20EAD37070BDC4F1200500FA05F24EEA020E20FA04F301FA05F243EA020321FA04F0E4
:405CC00001F0004121FA04F220EA020000EBD3705EEA430E08BF20EAD37070BD94F0000F0FD101F00046400041EB010111F4801F08BF013CF7D041EA060195F0000F18BF29
:405D0000704703F00046520043EB030313F4801F08BF013DF7D043EA0603704794EA0C0F0CEA135518BF95EA0C0F0CD050EA410618BF52EA4306D1D181EA030101F000412A
:405D40004FF0000070BD50EA410606BF1046194652EA430619D094EA0C0F02D150EA013613D195EA0C0F05D152EA03361CBF104619460AD181EA030101F0004141F0FE412C
:405D800041F470014FF0000070BD41F0FE4141F4780170BD70B54FF0FF0C4CF4E06C1CEA11541DBF1CEA135594EA0C0F95EA0C0F00F0A7F8A4EB050481EA030E52EA03358C
:405DC0004FEA013100F088804FEA03334FF0805545EA131343EA12634FEA022245EA111545EA10654FEA00260EF000419D4208BF964244F1FD0404F5407402D25B084FEA01
:405E00003202B61A65EB03055B084FEA32024FF480104FF4002CB6EB020E75EB030E22BFB61A754640EA0C005B084FEA3202B6EB020E75EB030E22BFB61A754640EA5C004C
:405E40005B084FEA3202B6EB020E75EB030E22BFB61A754640EA9C005B084FEA3202B6EB020E75EB030E22BFB61A754640EADC0055EA060E18D04FEA051545EA16754FEA19
:405E800006164FEAC30343EA52734FEAC2025FEA1C1CC0D111F4801F0BD141EA00014FF000004FF0004CB6E711F4801F04BF01430020B4F1FD0C88BFBCF5E06F3FF6AFAE61
:405EC000B5EB030C04BFB6EB020C5FEA500C50F1000041EB045170BD0EF0004E4EEA113114EB5C04C2BFD4EB0C0541EA045170BD41F480114FF0000E013C90E645EA060EC1
:405F00008DE60CEA135594EA0C0F08BF95EA0C0F3FF43BAF94EA0C0F0AD150EA01347FF434AF95EA0C0F7FF425AF104619462CE795EA0C0F06D152EA03353FF4FDAE10467E
:405F4000194622E750EA410618BF52EA43067FF4C5AE50EA41047FF40DAF52EA43057FF4EBAE12E74A0011D212F5001211D20DD56FF47873B3EB62520ED44FEAC12343F0E2
:405F8000004343EA505323FA02F070474FF00000704750EA013002D14FF0FF3070474FF0000070474FEA4102B2F1E04324BFB3F5001CDCF1FE5C0DD901F0004C4FEAC0028B
:405FC0004CEA5070B2F1004F40EB830008BF20F00100704711F0804F21D113F13872BCBF01F00040704741F480114FEA5252C2F11802C2F1200C10FA0CF320FA02F018BF6E
:4060000040F001004FEAC1234FEAD32303FA0CFC40EA0C0023FA02F34FEA4303CCE77FEA625307D150EA01331EBF4FF0FE4040F44000704701F0004040F0FE4040F40000A8
:40604000704700BF80F0004002E000BF81F0004142001FBF5FEA410392EA030F7FEA226C7FEA236C6AD04FEA1262D2EB1363C1BFD218414048404140B8BF5B42192B88BFD0
:40608000704710F0004F40F4000020F07F4018BF404211F0004F41F4000121F07F4118BF494292EA030F3FD0A2F1010241FA03FC10EB0C00C3F1200301FA03F100F0004358
:4060C00002D5494260EB4000B0F5000F13D3B0F1807F06D340084FEA310102F10102FE2A51D2B1F1004F40EBC25008BF20F0010040EA03007047490040EB000010F4000F3B
:40610000A2F10102EDD1B0FA80FCACF1080CB2EB0C0200FA0CF0AABF00EBC25052421843BCBFD0401843704792F0000F81F4000106BF80F400000132013BB5E74FEA4103D9
:406140007FEA226C18BF7FEA236C21D092EA030F04D092F0000F08BF0846704790EA010F1CBF0020704712F07F4F04D1400028BF40F00040704712F100723CBF00F5000015
:40618000704700F0004343F0FE4040F4000070477FEA226216BF08467FEA23630146420206BF5FEA412390EA010F40F4800070474FF0000304E000BF10F0004348BF4042F7
:4061C0005FEA000C08BF704743F0964301464FF000001CE050EA010208BF70474FF000030AE000BF50EA010208BF704711F0004302D5404261EB41015FEA010C02BF8446D1
:406200000146002043F0B64308BFA3F18053A3F50003BCFA8CF2083AA3EBC25310DB01FA02FC634400FA02FCC2F12002BCF1004F20FA02F243EB020008BF20F001007047C8
:4062400002F1200201FA02FCC2F1200250EA4C0021FA02F243EB020008BF20EADC7070474FF0FF0C1CEAD0521EBF1CEAD15392EA0C0F93EA0C0F6FD01A4480EA010C4002A4
:4062800018BF5FEA41211ED04FF0006343EA501043EA5111A0FB01310CF00040B1F5000F3EBF490041EAD3715B0040EA010062F17F02FD2A1DD8B3F1004F40EBC25008BFD0
:4062C00020F00100704790F0000F0CF0004C08BF49024CEA502040EA51207F3AC2BFD2F1FF0340EAC250704740F400004FF00003013A5DDC12F1190FDCBF00F00040704723
:40630000C2F10002410021FA02F1C2F1200200FA02FC5FEA310040F1000053EA4C0308BF20EADC70704792F0000F00F0004C02BF400010F4000F013AF9D040EA0C0093F0E3
:40634000000F01F0004C02BF490011F4000F013BF9D041EA0C018FE70CEAD15392EA0C0F18BF93EA0C0F0AD030F0004C18BF31F0004CD8D180EA010000F00040704790F0DB
:40638000000F17BF90F0004F084691F0000F91F0004F14D092EA0C0F01D142020FD193EA0C0F03D14B0218BF084608D180EA010000F0004040F0FE4040F40000704740F02F
:4063C000FE4040F4400070474FF0FF0C1CEAD0521EBF1CEAD15392EA0C0F93EA0C0F69D0A2EB030280EA010C49024FEA402037D04FF0805343EA111143EA10130CF0004072
:406400008B4238BF5B0042F17D024FF4000C8B4224BF5B1A40EA0C00B3EB510F24BFA3EB510340EA5C00B3EB910F24BFA3EB910340EA9C00B3EBD10F24BFA3EBD10340EAA2
:40644000DC001B0118BF5FEA1C1CE0D1FD2A3FF650AF8B4240EBC25008BF20F0010070470CF0004C4CEA50207F32C2BFD2F1FF0340EAC250704740F400004FF00003013A9E
:4064800037E792F0000F00F0004C02BF400010F4000F013AF9D040EA0C0093F0000F01F0004C02BF490011F4000F013BF9D041EA0C0195E70CEAD15392EA0C0F08D142022F
:4064C0007FF47DAF93EA0C0F7FF470AF084676E793EA0C0F04D14B023FF44CAF08466EE730F0004C18BF31F0004CCAD130F000427FF45CAF31F000437FF43CAF5FE700BFAB
:406500004FF0FF3C06E000BF4FF0010C02E000BF4FF0010C4DF804CD4FEA40024FEA41037FEA226C18BF7FEA236C11D001B052EA530C18BF90EA010F58BFB2EB030088BFA3
:40654000C81738BF6FEAE17018BF40F0010070477FEA226C02D15FEA402C05D17FEA236CE4D15FEA412CE1D05DF8040B704700BF844608466146FFE70FB5FFF7C9FF00284A
:4065800048BF10F1000F0FBD4DF808EDFFF7F4FF0CBF012000205DF808FB00BF4DF808EDFFF7EAFF34BF012000205DF808FB00BF4DF808EDFFF7E0FF94BF012000205DF856
:4065C00008FB00BF4DF808EDFFF7D2FF94BF012000205DF808FB00BF4DF808EDFFF7C8FF34BF012000205DF808FB00BF4FEA4002B2F1FE4F0FD34FF09E03B3EB12620DD9C6
:406600004FEA002343F0004310F0004F23FA02F018BF404270474FF00000704712F1610F01D1420205D110F0004008BF6FF0004070474FF00000704742000ED2B2F1FE4F60
:406640000BD34FF09E03B3EB126209D44FEA002343F0004323FA02F070474FF00000704712F1610F01D1420202D14FF0FF3070474FF00000704700BF014B1868704700BF67
:406680008886FF1F0E4B70B51E460E4C0025E41AA410A54204D056F8253098470135F8E700F0C4F9084B094C1E46E41AA4100025A54204D056F8253098470135F8E770BD3A
:4066C000386A0000386A0000386A0000406A0000024B0146186800F017B800BF8886FF1F10B5431E0A44914204D011F8014B03F8014FF8E710BD03460244934202D003F8B4
:40670000011BFAE77047000070B5CD1C25F0030508350C2D38BF0C25002D064601DBA94202D90C23336046E000F05CF8234B1C681A462146A1B10B685B1B0ED40B2B03D9AD
:406740000B60CC18CD501EE08C420BBF63684B681360636018BF0C4615E00C464968E9E7174C23681BB9304600F02CF820602946304600F027F8431C18D0C41C24F0030470
:40678000A0420DD12560304600F02DF804F10B00231D20F00700C31A0ED05A42E25070BD211A304600F00EF80130EBD10C233360304600F018F8002070BD00BFACB3FF1FA7
:4067C000A8B3FF1F38B5064C0023054608462360FCF76EF9431C02D1236803B12B6038BDD4B5FF1F7047704700000000004F0040300040510040300000000140001000141D
:406800000140000800400140000A004C01400002005001402000000030313233343536373839414243444546000000001201000202000008B40432F2010001028001000022
:4068400009024300020101C032090400000102020103052400100104240202052406000105240100010705810308000A09040100020A00000407058202400000070503025C
:4068800040000000040309042C0343007900700072006500730073002000530065006D00690063006F006E0064007500630074006F0072001003550053004200550041005A
:4068C000520054003803430044004300200043006F006D006D0075006E00690063006100740069006F006E00200049006E007400650072006600610063006500260343005A
:406900004400430020004400610074006100200049006E00740065007200660061006300650000000203000000008103080002000100820240000A000100030240000A00D3
:40694000020A000001000000406800000300000028690000000000000000000000000000000000000000000040690000010000002C6800000000000000000000010000008F
:4069800044690000010000006C69000012034D00530046005400310030003000010000002800000000010400010000000000000000014359555342000000303030303100CD
:4069C0000000000000000000430000000000000000000000000000000000000000000000000000000000000000000000000000000000000000000000000000000000000054
:406A00000000000000000000000000000000000000000000000000000000000000000000000000000000000000000000F8B500BFF8BC08BC9E4670474D000000992B0000C6
:406A4000F8B500BFF8BC08BC9E46704729000000606A0000C880FF1FC8050000482F0000000000000A000000435333303120323031360A0D000000000000000000000000C6
:406A800000000000000000000000000000000000000000000000000000000000000000000000000000000000010100000000F44200009042010106000100000001000000C2
:406AC0000100000001000000010000000100000001000000010000000100000001000000010000000100000001000000010000000100000001000000010000000100000086
:406B00000100000001000000000000000100000000000000000000000000000000000000000000000000000000000000000000000000000000000000000000000000000052
:406B4000000000000000000000000000010000000100000000000000010000000000000001000000010000000100000001000000010000000000000001000000010000000B
:406B800001000000000000000100000001000000010000000000000001000000010000000000000000000000000000000100000000000000000000000000000001000000CD
:406BC000000000000000000000000000000000000000000000000000000000000100000000000000010000000100000001000000010000000000000001000000000000008F
:406C0000010000000000000001000000010000000100000000000000010000000000000001000000010000000100000000000000010000000100000000000000000000004A
:406C4000000000000100000000000000010000000000000000000000000000000100000000000000010000000000000000000000000000000000000000000000010000000F
:406C800001000000000000000100000001000000010000000000000001000000000000000100000000000000010000000000000001000000000000000100000001000000CA
:406CC000010000000000000001000000010000000000000001000000000000000100000000000000000000000000000001000000000000000100000000000000010000008C
:406D0000000000000100000000000000000000000000000001000000010000000000000001000000000000000100000000000000010000000100000001000000000000004B
:406D4000010000000000000001000000000000000100000000000000010000000100000001000000010000000000000000000000000000000100000000000000010000000A
:406D800000000000000000000000000001000000000000000000000000000000010000000000000000000000000000000100000001000000010000000100000000000000CD
:406DC0000100000000000000010000000100000001000000010000000100000001000000010000000100000001000000010000000100000000000000010000000100000085
:406E00000000000000000000000000000000000000000000000000000000000000000000000000000000000000000000000000000000000000000000000000000000000052
:406E40000000000001000000010000000000000001000000010000000100000001000000010000000100000001000000010000000100000001000000010000000000000005
:406E800001000000010000000100000001000000010000000100000000000000000000000000000000000000000000000000000000000000010000000000000000000000CB
:406EC0000000000000000000000000000000000000000000000000000000000001000000010000000100000001000000010000000100000001000000010000000100000089
:406F00000100000001000000010000000100000001000000010000000100000001000000010000000100000001000000010000000100000001000000010000000900000039
:406F40000100000005000000050000000100000007000000050000000D0000000900000009000000000000000100000000000000FFFFFFFF0100000000000000FFFFFFFFE0
:406F800000000000CDCCCC3E3333333F19000000D8B5FF1F0087930360EA00003C0000000000307500C2010000000800C201000000080000A12000000000020000000000F1
:406FC00000000000CC690000EC6900000C6A000000000000000000000000000000000000C86900000000000000000000000000000000000000000000000000000000000060
:4070000000000000000000000000000000000000000000000000000000000000000000002886FF1F0000000000000000000000000000000000000000000000000000000084
:407040000000000000000000000000000000000000000000000000000000000000000000000000000000000000000000000000000000000000000000000000000000000010
:4070800000000000000000000000000000000000000000000000000000000000000000000000000000000000000000000000000000000000000000000000000000000000D0
:4070C0000000000000000000000000000000000000000000000000000000000000000000000000000000000000000000000000000000000000000000000000000000000090
:40710000000000000000000000000000000000000000000000000000000000000000000000000000000000000000000000000000000000000000000000000000000000004F
:020000040003F7
:0200000480007A
:4000000001450040074F00400552004004640040036500405E0001403A010140480201403C0301404404014045050140420601403B0701404708014045090140480A0140C5
:400040003A0B0140010D0140010F01405D140140511501404F160140471701404C180140541901404A1A01404B1B0140084001400D4101401242014014430140064501404C
:4000800007460140054701401448014012490140074C0140084D01400C500140035101407E0201100A360D10161B194022362E36182819206018611C7C40816F820F870F1B
