:400000000080002011000000011B0000011B000080B500AF024A034B1B68136001F0A2FDBC760040FA46004010B5054C237833B9044B13B10448AFF300800123237010BD3F
:400040008886FF1F0000000098570000084B10B51BB108490848AFF300800848036803B910BD074B002BFBD0BDE81040184700BF000000008C86FF1F98570000C880FF1F9A
:40008000000000000000000090B583B000AF324B01221A6003F0E8FC03461A462F4B1A602F4B1B68002B0FD02D4B1B68072B0BD02B4B1B680A2B07D0294B1B68032B03D07F
:4000C000274B1B68042B34D1244B1B68002B30D0224B1B68002BB8BF5B42184604F0C2FC19A3D3E9002304F023FD03460C461846214617A3D3E9002304F01AFD03460C462D
:40010000184621464FF00002164B04F03BFE03460C461846214604F01DFF03467B60124B1B687968184604F06BFF03461A460E4B1A60002003F0AAFC03F07EFC03F022FF64
:4001400000BF0C37BD4690BD182D4454FB2109400000000000205040C886FF1FC486FF1F1081FF1F00806C40C086FF1F80B400AF034B01221A7000BFBD4680BC704700BFD6
:40018000B686FF1F80B400AF034B01221A7000BFBD4680BC704700BFB786FF1F80B400AF034B01221A7000BFBD4680BC704700BFB886FF1F80B400AF034B01221A7000BFED
:4001C000BD4680BC704700BFB986FF1F80B500AF0A4B1B68052B05D1094B1B680133084A136002E0064B00221A6000F097FA00F081F803F0F3FF00BF80BD00BF1081FF1F53
:40020000D086FF1F80B500AF62B600F073F800F0D1FA194803F0E4FE184804F00DF8184804F058F8174804F0A3F8174804F0EEF8164804F039F903F0AFFF154800F07CFFF1
:400240000121002001F0A6F8002003F0F7FD114B1B68012B08D10F4B00221A600E4B1B689BB2184600F01CF80C4B1B78012BEED10A4B00221A70EAE789000000CD01000043
:400280006D010000850100009D010000B50100002881FF1FC886FF1FC486FF1FB486FF1F90B585B000AF0346FB80FB88184604F0D9FB4FF000020D4B04F064FD03460C46E4
:4002C0001846214604F046FE0346FB600849F86804F09EFF0346184605F060F903467B81B7F90A3018461437BD4690BD00804C400000704180B400AF074B00221A70074B0E
:4003000000221A70064B00221A70064B00221A7000BFBD4680BC7047B686FF1FB786FF1FB886FF1FB986FF1F80B483B000AFB24B1A78B24B1A70B24B1B781A46B14B1B7849
:400340001846B1491346DB0013445B001344034451F82330092B03D105237B607B6845E1A64B1B78032B00F2378101A252F823F08103000019040000AD04000043050000FB
:400380009F4B1B785A1E9F4B1B7818469E491346DB0013445B001344034451F82330082B0BD1954B00221A7000237B60944B1B78013BDAB2924B1A7010E1914B1B781A466C
:4003C000904B1B78591E90481346DB0013445B0013440B4450F82330082B05D1864B02221A7002237B60F9E0854B1B781A46854B1B78591C84481346DB0013445B00134414
:400400000B4450F82330082B40F0E8807A4B03221A7001237B60E1E0794B1B785A1C794B1B78184678491346DB0013445B001344034451F82330082B0BD16F4B01221A70FA
:4004400000237B606E4B1B780133DAB26C4B1A70C6E06B4B1B781A466A4B1B78591E6A481346DB0013445B0013440B4450F82330082B05D1604B03221A7001237B60AFE059
:400480005F4B1B781A465F4B1B78591C5E481346DB0013445B0013440B4450F82330082B40F09E80544B02221A7099E0544B1B781A46544B1B78591E53481346DB00134478
:4004C0005B0013440B4450F82330082B0BD14A4B02221A7000237B604A4B1B78013BDAB2484B1A707EE0464B1B785A1E454B1B78184645491346DB0013445B001344034476
:4005000051F82330082B05D13B4B00221A7001237B6067E03A4B1B785A1C3A4B1B78184639491346DB0013445B001344034451F82330082B56D1304B01221A7002237B6076
:4005400050E02F4B1B781A462E4B1B78591C2E481346DB0013445B0013440B4450F82330082B0BD1244B03221A7000237B60254B1B780133DAB2234B1A7035E0204B1B78C7
:400580005A1E204B1B7818461F491346DB0013445B001344034451F82330082B05D1164B00221A7009237B601EE0154B1B785A1C144B1B78184614491346DB0013445B00C8
:4005C0001344034451F82330082B0DD10A4B01221A7008237B6007E000BF06E000BF04E000BF02E000BF00E000BF0B2318460C37BD4680BC704700BF1881FF1F1981FF1F87
:400600002481FF1F2581FF1F2881FF1F80B582B000AF374B1B78002B03D0354B1B78012B02D1344B7B6001E0334B7B6000233B60324B1B68324A1360324B1B6879681846B1
:4006400004F098FF0346002B08D0FFF76DFE38602C4B4FF000021A603B6845E0284B1B68052B07D1284B1B68322B01D805233B603B6839E0224B1B68002B07D0204B1B6827
:40068000032B03D01E4B1B68042B0FD11F4B1B78002B03D003233B603B6825E01C4B1B78002B03D004233B603B681DE0194B1B78002B0FD0184B1B78002B0BD0144B1B7891
:4006C000002B07D1114B1B78002B03D100233B603B6809E00A4B1B68062B03D100233B603B6801E0064B1B6818460837BD4680BD1881FF1F0000B942666600431081FF1F7F
:400700001481FF1FC086FF1FD086FF1FB986FF1FB886FF1FB686FF1FB786FF1F80B500AFFFF774FF0246224B1A60214B1B680B2B3CD801A252F823F0690700006F07000025
:4007400075070000810700007B07000087070000AB0700008D070000A50700009F070000930700009907000000F0C8FD1EE000F0AFFD1BE000F096FD18E000F00FFD15E0DD
:4007800000F04EFD12E000F0FDFC0FE000F0B6FD0CE000F0B3FD09E000F0F0FD06E000F0ADFD03E000F0AAFD00E000BF00BF80BD1081FF1F80B500AF02F0E0FF02F018FF3D
:4007C0004FF6FF7002F0AAFF02F0F2FF4FF6FF7003F084F803F0D6F803F02EF903F0B0FB03F04CFC00BF80BD80B485B000AFF860B9607A603B60FB68002B17DBFA687B6831
:400800009A4213DABB68002B10DBBA683B689A420CDAFB684C2202FB03F3BA691344BA6853F82230002B01D1012300E0002303F00103DBB218461437BD4680BC704700BF2C
:4008400082B090B5ADF5B65D81B002AF07F118040C3C206007F11800143880E8060007F5B65202F10C021360002307F5B55202F1140213603AE0002307F5B55202F1100265
:40088000136021E007F58F5101F1100107F5B55303F114031A681346DB0013445B00134407F5B55202F1100212681344012241F8232007F5B55303F110031B68013307F5E1
:4008C000B55202F11002136007F5B55303F110031B68122BD6DD07F5B55303F114031B68013307F5B55202F11402136007F5B55303F114031B680E2BBDDD002307F5B5522B
:4009000002F10C021360002307F5B55202F1080213603AE0002307F5B55202F10402136021E007F13802183A07F5B55303F1080319680B46DB000B445B000B4407F5B551D1
:4009400001F1040109680B444FF47A7142F8231007F5B55303F104031B68013307F5B55202F10402136007F5B55303F104031B68122BD6DD07F5B55303F108031B680133D4
:4009800007F5B55202F10802136007F5B55303F108031B680E2BBDDD002307F5B552136007F11803143B196807F11803143B586807F13802183A0B46DB000B445B000B4424
:4009C0000344002142F8231007F5B5531B68013307F5B552136007F59362043A07F5B55303F10C0319680B465B000B449B001A4407F11803143B93E8030082E8030007F5FD
:400A00009362043A07F5B55303F10C0319680B465B000B449B001344083300221A6007F5B55303F10C031B68013307F5B55202F10C021360E9E1002307F5B45202F11C0202
:400A40001360012307F5B45202F11802136034E007F59362043A07F5B45303F1180319680B465B000B449B0013440833186807F59362043A07F5B45303F11C0319680B46C8
:400A80005B000B449B00134408331B68984209DA07F5B45303F118031B6807F5B45202F11C02136007F5B45303F118031B68013307F5B45202F11802136007F5B45303F1C2
:400AC00018031A6807F5B55303F10C031B689A42BEDB07F11801043907F59362043A07F5B45303F11C03186803465B0003449B001A440B4607CA83E8070007F5B55303F1D7
:400B00000C031B68591E07F59362043A07F5B45303F11C03186803465B0003449B00D01807F59362043A0B465B000B449B001A44034607CA83E8070007F5B55303F10C03C3
:400B40001B68013B07F5B55202F10C02136007F11803043B1B6807F5B452136007F11803043B5B6807F5B35202F11C02136007F58F5101F1100107F5B4531A681346DB00C3
:400B800013445B00134407F5B35202F11C021268134451F82330012B40F0378107F58F5101F1100107F5B4531A681346DB0013445B00134407F5B35202F11C021268134415
:400BC000002241F8232007F5B65303F10C031A6807F5B4531B689A420CD107F5B65303F110031A6807F5B35303F11C031B689A4200F01481002307F5B45202F11402136066
:400C0000FBE0C94A07F5B45303F114031B6852F8332007F5B4531B68134407F5B35202F118021360C04A07F5B45303F114031B68DB0013445A6807F5B35303F11C031B6813
:400C4000134407F5B35202F11402136007F118030C3B1B68009313230F2207F5B35101F11401096807F5B35000F118000068FFF7BBFD0346002B00F0B58007F58F5101F1CC
:400C8000100107F5B35303F118031A681346DB0013445B00134407F5B35202F114021268134451F82330012B40F09C8007F13802183A07F5B45319680B46DB000B445B0086
:400CC0000B4407F5B35101F11C0109680B4452F82330013307F5B35202F11002136007F13802183A07F5B35303F1180319680B46DB000B445B000B4407F5B35101F114014A
:400D000009680B4452F8232007F5B35303F110031B689A4266DD07F13802183A07F5B35303F1180319680B46DB000B445B000B4407F5B35101F1140109680B4407F5B351B9
:400D400001F11001096842F8231007F59362043A07F5B55303F10C0319680B465B000B449B00134407F5B35202F1180212681A6007F59362043A07F5B55303F10C03196835
:400D80000B465B000B449B001344043307F5B35202F1140212681A6007F59362043A07F5B55303F10C0319680B465B000B449B001344083307F5B35202F1100212681A6038
:400DC00007F5B5531B68013307F5B552136007F5B55303F10C031B68013307F5B55202F10C02136007F5B45303F114031B68013307F5B45202F11402136007F5B45303F153
:400E000014031B68032B7FF6FCAE07F5B55303F10C031B68002B3FF70EAE00E000BF07F5B65303F10C03196807F5B65303F11003186807F13802183A0B46DB000B445B0016
:400E40000B44034452F8233007F5B45202F11002136007F5B45303F110031B68DB00184604F00EFC034607F5B35202F10C02136007F5B65303F10C031B6807F5B45202F1C3
:400E80000C02136007F5B65303F110031B6807F5B45202F10802136007F5B45303F110031B6803F10053013BDB0007F5B35202F10C021268134407F5B45202F10C02126875
:400EC0001A6007F5B45303F110031B6803F10053013BDB0007F5B35202F10C021268134407F5B45202F1080212685A6007F5B45303F10C031B684C2202FB03F207F118038B
:400F00000C3B1B68134407F5B45202F108021268092143F82210FCE0002307F5B45202F104021360EDE000BFC485FF1F814A07F5B45303F104031B6852F8332007F5B45334
:400F400003F10C031B68134407F5B35202F108021360784A07F5B45303F104031B68DB0013445A6807F5B45303F108031B68134407F5B35202F10402136007F118030C3B49
:400F80001B68009313230F2207F5B35101F10401096807F5B35000F108000068FFF724FC0346002B00F0A28007F13802183A07F5B35303F1080319680B46DB000B445B0074
:400FC0000B4407F5B35101F1040109680B4452F8232007F5B45303F110031B68013B9A4240F0848007F5B35303F108031B684C2202FB03F207F118030C3B1B68134407F571
:40100000B35202F104021268082143F8221007F5B45303F110031B68013B07F5B45202F11002136007F5B35303F108031B6807F5B45202F10C02136007F5B35303F1040368
:401040001B6807F5B45202F10802136007F5B45303F110031B68DB0007F5B35202F10C021268134407F5B45202F10C0212681A6007F5B45303F110031B68DB0007F5B352E0
:4010800002F10C021268134407F5B45202F1080212685A6007F11803143B1A6807F5B45303F10C031B689A4220D107F11803143B5A6807F5B45303F108031B689A4215D186
:4010C00007F5B45303F10C031B684C2202FB03F207F118030C3B1B68134407F5B45202F108021268022143F8221012E007F5B45303F104031B68013307F5B45202F1040228
:40110000136007F5B45303F104031B68032B7FF60DAF07F5B45303F110031B68002B3FF7FBAE00BF07F5B5571C37BD46BDE8904002B07047C485FF1F80B588B002AF78606D
:401140000E4A07F1100392E8030083E803000C4A07F1080392E8030083E80300FB680093BB6807F1100206CA7868FFF769FB7B6807221A6000BF1837BD4680BD9C570000E9
:40118000A457000080B500AF4FF4004002F0D6FA4FF4004002F0B2FB00BF80BD80B582B000AF1A4B1A681A4B1B681946104603F027FF03467B601749786804F029F8034678
:4011C0001549184603F01CFF0346184604F00CFA03467B801149786804F01AF8034619460D4803F00BFF0346184604F0FDF903463B807B88184602F0A1FA3B88184602F070
:401200007DFB00BF0837BD4680BD00BFE885FF1FE485FF1F0098194600FEFF4600C8CC4580B582B000AF1A4B1A681A4B1B681946104603F0E5FE03467B601749786803F04D
:40124000E7FF03461549184603F0DAFE0346184604F0CAF903467B801149786803F0D8FF034619460D4803F0C9FE0346184604F0BBF903463B807B88184602F05FFA3B8899
:40128000184602F03BFB00BF0837BD4680BD00BFE885FF1FE485FF1F00C8CC4500FEFF460098194680B582B000AF46F26663FB8046F26663BB80FB88184602F03FFABB8869
:4012C000184602F01BFB00BF0837BD4680BD00BF80B582B000AF49F69813FB8049F69813BB80FB88184602F029FABB88184602F005FB00BF0837BD4680BD00BF80B582B0FE
:4013000000AF1A4B1A681A4B1B681946104603F077FE03467B601749786803F079FF03461549184603F06CFE0346184604F05CF903467B800F49786803F06AFF0346194671
:401340000D4803F05BFE0346184604F04DF903463B807B88184602F0F1F93B88184602F0CDFA00BF0837BD4680BD00BFE885FF1FE485FF1F0098194600FEFF4680B500AFA3
:4013800045F6991002F0DAF94AF2666002F0B6FA00BF80BD80B582B000AF03460A46FB711346BB71094B1B78002B04D100F010F8064B01221A70BA79FB791146184600F01B
:4013C000D9F800BF0837BD4680BD00BFD486FF1F80B582B000AF03F0BFF80346FB71544A534B1B78DBB243F00103DBB21370514A504B1B78DBB243F00103DBB213704E4B59
:4014000001221A704D4B02221A704D4A4C4B1B78DBB203F07F03DBB21370002002F026F8484A484B1B78DBB223F00603DBB21370454A454B1B78DBB223F02003DBB21370C0
:40144000404A404B1B78DBB243F00103DBB21370012002F00BF8282002F008F83B4A3B4B1B78DBB203F07F03DBB21370374A374B1B78DBB223F04003DBB21370314A314B70
:401480001B78DBB243F00203DBB21370022001F0EDFF2C4A2B4B1B78DBB243F00403DBB213702B4B00221A702A4B00221A70FB79184603F055F80721172002F013F826494F
:4014C000172001F0E7FF0721182002F00BF82349182001F0DFFF0721152002F003F82049152001F0D7FF0721062001F0FBFF1D49062001F0CFFF0721072001F0F3FF1A494E
:40150000072001F0C7FF0721082001F0EBFF1749082001F0BFFF07210C2001F0E3FF14490C2001F0B7FF00BF0837BD4680BD00BFA5430040B54300409D60004009600040D1
:40154000106000409443004012600040F85100408460004085600040A52300008D1C000099230000B1220000F922000045230000B123000080B582B000AF03460A46FB71AE
:401580001346BB712F4AFB7913702F4B00221A702E4B00221A702E4B00221A702D4B00221A702D4B00221A702C4B00221A702C4B00221A702B4B4FF400021A60294B4FF050
:4015C00080721A60274B4FF400121A60254B40221A60244B80221A60224B4FF480721A60BB79002B02D0012B09D011E01E4A1E4B1B78DBB223F00103DBB2137011E01A4AB7
:40160000194B1B78DBB243F00103DBB2137008E0154A154B1B78DBB243F00103DBB2137000BF124B03221A70114B80221A70012002F08AFF0F4B04221A7000BF0837BD46D7
:4016400080BD00BFED86FF1FF086FF1F0C87FF1F0F87FF1F0487FF1F0E87FF1F1187FF1FEC86FF1F00E100E00960004028600040086000401260004080B400AF0F4B002257
:401680001A700F4B00221A700E4B00221A700E4B00221A700D4B00221A700D4B00221A700C4B00221A700C4B03221A700B4B80221A7000BFBD4680BC704700BFF086FF1FF5
:4016C0000C87FF1F0F87FF1F0487FF1F0E87FF1F1187FF1FEC86FF1F286000400860004080B582B000AF786039603A680021786803F0D9FF00BF0837BD4680BD80B584B0D7
:4017000000AFF860B9607A607A68B968F86803F0BFFF00BF1037BD4680BD00BF80B483B000AF0346FB71FEE780B487B000AF7860396000233B6100237B6127E07B699B0017
:401740007A6813441B68BB60BB68FB73BB6823F0FF03BB6014E03B695B003A6813441B781A46BB68134419463B695B003A6813445B780B703B6901333B61FB7B013BFB731C
:40178000FB7B002BE7D17B6901337B617B69262BD4D900BF1C37BD4680BC704780B582B000AF3D4B00221A803C4B1B221A703C4B00221A803B4B19221A703B4B04221A8076
:4017C0003A4B18221A703A4B81221A80394B18221A70394B4EF65F221A80384B18221A70374B06221A70374B52221A70364B374A1278D2B21A70364B40F619121A80354B22
:4018000041F251221A800023FB7019237B6014E0FB785B00DAB2304B1B78DBB203F00103DBB21343DBB203F00303FB704FF4F07002F08AFE7B68013B7B607B68002B02D018
:40184000FB78032BE4D17B68002B02D10320FFF765FF224B4FF480721A80204B07221A701F4B00221A701F4B48221A701B4B00221A701D4B00221A701C4B02221A701C4A45
:401880001B4B1B78DBB243F01F03DBB2137000BF0837BD4680BD00BF80400040824000408440004086400040884000408A4000408C4000408E4000409040004092400040E6
:4018C0000043004000420040A14600400F0100492242004020420040254200400440004006400040084000400940004001400040A243004080B483B000AF0B4B1B78FB714A
:401900000A4AFB7903F00703DBB21370084AFB791B09DBB21370074B44221A7000BF0C37BD4680BC704700BFCF0100496E5800406F5800407658004080B586B000AF72B669
:40194000544B61221A70FFF729FF524B01221A70514A514B1B78DBB243F00403DBB213700023FB7513E0FA7D13465B0013445B004A4A13443B613B691A683B699B889BB28E
:4019800019461046FFF7ACFEFB7D0133FB75FB7D072BE8D90023FB751CE0FA7D13469B0013445B003E4A1344FB60FB681B68BB60FB685B687B60FB681A7A5B7A1B02134324
:4019C0007B807B881A467968B868FFF797FEFB7D0133FB75FB7D012BDFD932494FF09040FFF7A2FE304B314A1A60314B314A1A60314A314B1B78DBB243F00203DBB2137025
:401A00002E4A2E4B1B78DBB243F00203DBB213702B4A2B4B1B78DBB243F04003DBB21370284A284B1B78DBB243F01003DBB21370082225492548FFF761FE08222449254803
:401A4000FFF75CFE0A2224492448FFF757FE082223492448FFF752FE0A2223492348FFF74DFE082222492348FFF748FE224A224B1B78DBB243F00803DBB21370FFF73AFF88
:401A80000E220F491D48FFF739FE00BF1837BD4680BD00BF00480040E8460040AC570000DC5700009C000048D8000140040404445814014004040084035001401350014015
:401AC000A0430040C2430040E00C004802510040E80C0048C2510040F00C0048F0510040FC0C004812510040040D004820510040100D00483251004022430040B043004066
:401B000080B500AF03F090FD03461B680C2B00D1FEE7FEE780B584B000AF78600F4B1A687B6813441A460E4BD31A802B09DC0B4B1B68FB60094B1A687B681344074A13605F
:401B400007E003F071FD02460C2313604FF0FF33FB60FB6818461037BD4680BDF085FF1FC887FF1F80B586B000AF224B7B61224B3B61204B7B6135E03B691B68FB603B6931
:401B80005B68BB603B699B683B6000237B600CE0FB681A68BB681A60BB680433BB60FB680433FB607B6804337B607A683B689A42EED13B69DB683B6000237B6008E0BB688F
:401BC00000221A60BB680433BB607B6804337B607A683B689A42F2D13B6910333B617B69013B7B617B69002BC6D103F023FDFEF709FBFEE701000000C859000080B582B01C
:401C000000AF184B184A1A60184A184B1B6843F40073136000237B600FE07B68032B04D8134A7B6852F8233000E0124B12497A6841F822307B6801337B607B682F2BECD9A1
:401C40000E4B1B78DAB20E4B1A700E4B0A4A1A60FFF772FE0C4B00221A6000BF0837BD4680BD00BF0CED00E00004FA0514ED00E000000000011B00000080FF1FBC760040A3
:401C8000C480FF1F08ED00E0C080FF1F80B582B000AF374B1B78BB71BB7903F01003002B62D00123FB7197F90630002B12DABB7903F00F03012B02D00023FB711CE000F082
:401CC00061F82C4B1B78DBB25BB2002B14DA0023FB7111E0BB7903F04003002B02D000F095F809E0BB7903F02003002B02D000F0B3F801E00023FB71FB79002B34D01C4B25
:401D00001B78BB7197F90630002B2DDB1A4B1B78DAB21A4B1B78DBB21343BB71184ABB791370174B1B78DBB2BA799A421CD1114B1B78FB710E4B1B78DBB223F07F03BB7134
:401D4000BB79002B0AD10A4B0A4A1278D2B21A70074B1B78DBB203F00F03FB71054B1B78DBB2FA799A42E2D100BF0837BD4680BD286000400D87FF1F8287FF1F1087FF1FFF
:401D80002960004080B582B000AF1D4B1B78FB711B4AFB7913701A4B1B78FB7197F90730002B03DA174AFB79137025E0022000F045FA154B1B78DBB203F06003202B08D0A7
:401DC000402B0BD0002B0ED100F0F8FA0346FB710CE002F0B3FC0346FB7107E001F000FB0346FB7102E00023FB7100BFFB79002B02D1044B03221A7000BF0837BD4680BD54
:401E0000286000400D87FF1F0060004080B500AF104B1B78DBB2062B19D801A252F823F04F1E00004F1E00003D1E00004F1E0000431E00004F1E0000491E000000F0F8F850
:401E400006E000F0A7F903E000F0D2F900E000BF00BF80BDF086FF1F80B500AF124B1B78DBB2062B1DD801A252F823F0A31E0000A31E0000891E0000A31E00008F1E000001
:401E8000A31E0000951E000000F0D8F80AE000F027F907E0032000F0D1F9044B03221A7000E000BF00BF80BDF086FF1F0D87FF1F80B483B000AF0023FB71294B1B78DBB218
:401EC0009AB2284B1B889BB213449AB2254B1A8015E02549FB79254A52681278D2B2CA54224B5B680133214A5360FB790133FB711E4B1B889BB2013B9AB21C4B1A801B4B7C
:401F00001B889BB2002B02D0FB79072BE1D9144B1B78DBB2082B02D0FB79002B0FD0144B1B78DBB283F07F03DB43DAB2104B1A70104B0F221A70104B02221A7005E00D4BF3
:401F400002221A700C4B02221A700C4AFB791370034AFB79137000BF0C37BD4680BC7047EC86FF1FEE86FF1F00600040F886FF1F8287FF1F0D87FF1FF086FF1F1087FF1FA5
:401F800080B582B000AF164B1B889BB2002B02D100F02EF81EE0134B02221A70124B00221A7000F06BF9114BDB79DBB29BB21B029AB20E4B9B79DBB29BB21343FB80084BE1
:401FC0001B889BB2FA889A4202D2054AFB881380FFF76EFF012318460837BD4680BD00BFF886FF1FF086FF1F8287FF1F0060004080B400AF094B02221A70094B80221A70DB
:40200000084B0F221A70084B00221A70074B00221A7001231846BD4680BC7047F086FF1F8287FF1F0D87FF1FEC86FF1F1087FF1F80B500AFFFF73CFF00BF80BD80B500AF76
:402040000A4B1B78DBB29AB2094B1B889BB213449AB2074B1A80074B00221A70012000F0EDF8054B03221A7000BF80BDEC86FF1FEE86FF1FF086FF1F0D87FF1F80B582B00E
:4020800000AF124B04221A70114B80221A7000F0F5F8104BDB79DBB29BB21B029AB20D4B9B79DBB29BB21343FB800B4B1B889BB2FA889A4202D2084AFB881380074B0B2297
:4020C0001A70012318460837BD4680BDF086FF1F8287FF1F00600040F886FF1F0D87FF1F80B483B000AF0023BB71234B1B78DBB203F00F03DBB2023BFB71FB799AB21F4B54
:402100001B889BB213449AB21C4B1A8018E01C4B5B681C49BA798A5CD2B21A70184B5B680133174A5360BB790133BB71FB79013BFB71134B1B889BB2013B9AB2104B1A8074
:402140000F4B1B889BB2002B02D0FB79002BDED10D4AFB7913700D4B1B78DBB283F07F03DB43DAB2094B1A70094B0B221A7000BF0C37BD4680BC704729600040EE86FF1F29
:40218000F886FF1F006000401087FF1F8287FF1F0D87FF1F80B500AF054B00221A70012000F04CF8034B03221A7000BF80BD00BFF086FF1F0D87FF1F80B400AF084B0622C4
:4021C0001A70084B06221A70074B80221A70074B00221A7001231846BD4680BC704700BFF086FF1F0D87FF1F8287FF1F1087FF1F80B500AF0D4B1B78DBB2002B0AD00C4AC4
:402200000A4B1B78DBB263F07F03DBB21370074B00221A70074B00221A70012000F00EF8054B03221A7000BF80BD00BF0E87FF1F08600040F086FF1F0D87FF1F80B483B06F
:4022400000AF0346FB710B4B9B68002B0CD0094B9B68FA791A70074B9B68074A128892B25A80044B00229A6000BF0C37BD4680BC704700BFF886FF1FEE86FF1F80B400AFB5
:40228000094B00221A80094B9B68002B07D0074B9B6800221A70054B9B6800225A8000BFBD4680BC704700BFEE86FF1FF886FF1F80B400AF0D4B01221A700D4B9B7C0D4B14
:4022C0001B7BDBB203F00303012B08D0094BDB7BDBB283F07F03DB43DAB2064BDA73054B01225A7300BFBD4680BC70470B600040FC5F00401487FF1F80B400AF0E4B0222F6
:402300001A700E4B93F822300D4B1B7EDBB203F00303012B08D00A4BDB7EDBB283F07F03DB43DAB2064BDA76054B01225A7600BFBD4680BC704700BF0B600040FC5F0040EA
:402340001487FF1F80B400AF104B04221A70104B93F832300F4B93F82430DBB203F00303012B0AD00B4B93F82730DBB283F07F03DB43DAB2074B83F82720064B012283F842
:40238000252000BFBD4680BC704700BF0B600040FC5F00401487FF1F80B400AF00BFBD4680BC704780B500AFFFF766F900BF80BD80B500AF01F03EF800BF80BD80B586B026
:4023C00000AF0023FB759D4B1B78FB7100233B619B4B00221A8097F90730002B80F20481964B5B78DBB20A2B00F21B8201A252F823F000BF3F2500002328000023280000AC
:402400002328000023280000232800002124000023280000B325000023280000C9250000864BDB78DBB2012B0ED100F049FEB860BB685B68824A5360814B12221A80FFF71A
:402440009FFD0346FB75EEE17C4BDB78DBB2022B25D17A4B9B78DBB2184600F009FEB860BB68002B00F0DF81BB685B68744A5360734B5B6803331B78DBB29BB21B029AB21A
:402480006F4B5B6802331B78DBB29BB213439AB26B4B1A80FFF774FD0346FB75C3E1674BDB78DBB2032B45D10023FB73654B3B6109E03B691B78BB71BB793A6913443B617E
:4024C000FB7B0133FB735D4B9B78DBB2FA7B9A4204D23B691B78DBB2002BEAD1574B9B78DBB2EE2B01D1584B3B61544B9B78DBB2002B0BD0514B9B78DAB2544B1B7C9A42AD
:4025000004D1534800F0ACF9514B3B613B691B78DBB2002B00F087813B691B78DBB29AB2474B1A80464A3B695360FFF729FD0346FB7578E102F002F90346FB7573E1FB79B8
:4025400003F00303002B20D0022B00D030E03C4B02221A80394B1B79DBB203F07F023D4913465B0013449B000B4402331B78DAB2394B1A70384B00225A70314B364A5A60DA
:40258000FFF7FEFC0346FB7512E02D4B02221A80324B1B78DAB2304B1A702F4B00225A70274B2D4A5A60FFF7EBFC0346FB7500BF40E1234B01221A80214B294A5A60FFF770
:4025C000DFFC0346FB7535E11D4B01221A801B4B1B79DBB21A46234B1344194A5360FFF7CFFC0346FB7525E1144B5B78DBB2013B0A2B00F21A8101A252F823F007270000DF
:402600002B280000952700002B280000292600002B2800002B2800002B2800006D2600002B280000C3260000044B9B78DAB20E4B1A70FFF7C1FD0346FB75FBE00060004068
:40264000F886FF1F5C5800006459000004580000A087FF1F1487FF1FD886FF1F1187FF1F0F87FF1F8087FF1F0E87FF1F744B9B787B717B79002B06D07B79013BDBB2184667
:4026800000F0F6FCB8607B79002B02D0BB68002B03D17B79002B40F0CA806A4B1B78DBB27A799A4208D0674A7B791370664B01221A70012000F0DCF9FFF77EFD0346FB7562
:4026C000B5E000F055FE0346002B00F0B2805C4B1B793B715A4B1B79DAB25C4B1A703B795B4AD35CDAB23B795A49CB5CDBB29A4204D0554B01221A7000F08CFBFFF75CFDAD
:402700000346FB7595E0FB7903F00303012B20D0012B0CD3022B00D03BE0494B9B78DBB2002B31D100F078FD0346FB752CE0444B9B78DBB2012B29D1474B1B78DBB223F01A
:402740000203DAB2444B1A70FFF736FD0346FB751CE03B4B1B79DBB2012B19D8384B9B78DBB2DB43DBB2364A1279D2B2114610463A4A125CD2B21340DAB2384B5A54FFF787
:402780001BFD0346FB7503E000BF53E000BF51E000BF4FE0FB7903F00303012B20D0012B0CD3022B00D03BE0254B9B78DBB2002B31D100F0BDFC0346FB752CE0204B9B78C0
:4027C000DBB2012B29D1244B1B78DBB243F00203DAB2214B1A70FFF7EFFC0346FB751CE0174B1B79DBB2012B19D8154B9B78DBB2DB43DBB2124A1279D2B211461046174A83
:40280000125CD2B21340DAB2144B5A54FFF7D4FC0346FB7503E000BF0CE000BF0AE000BF08E000BF06E000BF04E000BF02E000BF00E000BFFB7D18461837BD4680BD00BFF2
:40284000006000400F87FF1F0C87FF1F0487FF1FF486FF1F8087FF1F1187FF1F8487FF1FB0B58AB000AF7860324B07F114041D460FCD0FC42B682370002387F826307B6848
:40288000002B52D07B6822221A707B68013303221A7007F10C03184600F048FE022387F827303EE097F827307A68134497F8262007F128010A4412F81C2C1209D2B207F154
:4028C00028010A4412F8142C1A7097F8273001337A68134400221A7097F8273002337A68134497F8262007F128010A4412F81C2C02F00F0207F128010A4412F8142C1A705E
:4029000097F8273003337A68134400221A7097F82630013387F8263097F82730043387F8273097F82730212BBCD900BF2837BD46B0BD00BFF057000090B482B000AF012311
:40294000FB7180E0464AFB791B0113440C221A70FA79444913465B0013449B000B4405331B78DBB2002B1CD0FA793E4913465B0013449B000B4404331B78DBB25BB2002B7A
:4029800007DA394AFB791B01134402330C221A700EE0354AFB791B011344023308221A7006E0314AFB791B011344023380221A702B48F979FA792B4C13465B0013449B0084
:4029C000234406331B889BB2DAB20B01034406331A702348F979FA79224C13465B0013449B00234406331B889BB21B0A9BB2DAB20B01034407331A701948F979FA79194CF1
:402A000013465B0013449B00234406331B889BB2DAB20B01034404331A701148F979FA79104C13465B0013449B00234406331B889BB21B0A9BB2DAB20B01034405331A70DD
:402A4000FB790133FB71FB79082B7FF67BAF074BFF221A7000BF0837BD4690BC704700BF706000401487FF1FFC5F00400A60004080B58AB000AF0346FB7100237B84002316
:402A800087F8273050E097F82720B34913465B0013449B000B4400221A7097F82720AE4913465B0013449B000B44023300221A7097F82720A84913465B0013449B000B443E
:402AC000033300221A7097F82720A34913465B0013449B000B44083300221A8097F827209D4913465B0013449B000B440A3300221A7097F82720984913465B0013449B004F
:402B00000B44013300221A7097F82720924913465B0013449B000B44053300221A7097F82730013387F8273097F82730082BAAD9FB79002B16D0002387F825300EE097F857
:402B40002530864A0021D15497F82530844A0021D15497F82530013387F8253097F82530012BECD97F4B1B78DBB2002B00F04A810023FB767B4B1B78DBB2013BDBB21846C0
:402B800000F076FA78617B695B683B613B6907331B7803F04003002B08D0734B1B78DBB243F00103DAB2704B1A7007E06E4B1B78DBB223F00103DAB26B4B1A707B69083347
:402BC0007B617B691B7887F82730012387F82530B6E07B695B68FB61002387F82630A3E097F82520FB699B7803F07F039A4240F0938097F82520584913465B0013449B00A6
:402C00000B4408331B889AB2FB699B889A420CD297F82520FB6998884F4913465B0013449B000B44083302461A80FB691B781A464A4B9B5CDAB2FB695B789A426CD197F88A
:402C40002520FB699878444913465B0013449B000B44043302461A7097F82520FB69D8783D4913465B0013449B000B4402461A70FB69DB7803F00303FB73FB699B785BB299
:402C8000002B1CDA97F82520FB7B012B01D1072000E00D20304913465B0013449B000B44053302461A7097F825202B4913465B0013449B000B44013301221A701BE097F857
:402CC0002520FB7B012B01D1052000E00920224913465B0013449B000B44053302461A7097F825201C4913465B0013449B000B44013300221A70FB699B790A2B03D0FB6991
:402D00009B79022B08D1FA7E97F825301946F86901F0CCFC0346FB76FB690833FB6197F82630013387F8263097F8262097F827309A42FFF455AF97F82530013387F8253087
:402D400097F82530082B7FF644AF7B695B68FB61002387F8253020E01487FF1F8087FF1FF486FF1F0F87FF1F1187FF1FFB699B7803F07F02FB691878244913465B001344A3
:402D80009B000B440A3302461A70FB690833FB6197F82530013387F8253097F8252097F827309A42E2D300F09DF90246184B1A6000237B84012387F827301DE097F827204E
:402DC000124913465B0013449B000B4406337A8C1A8097F827200D4913465B0013449B000B4408331B889AB27B8C13447B8497F82730013387F8273097F82730082BDDD943
:402E0000FFF79AFD00BF2837BD4680BD1487FF1F0887FF1F90B585B000AF8F4B1B78DBB2002B00F015818C4B1B78DBB2013BDBB2184600F01DF978607B6808337B607B6895
:402E40001B78FB707B685B68BB60844B1B78BB700023FB73F7E0BB681B78BA789A4240F0EC80BB787E4AD35CDAB2BB685B789A4240F0E380BB689B7803F07F037B70BB686A
:402E8000DB7803F003033B707A78764913465B0013449B000B44033300221A707A78BB689878704913465B0013449B000B44043302461A707A78BB68D8786A4913465B00EB
:402EC00013449B000B4402461A707A78BB689888644913465B0013449B000B44083302461A80BB689B785BB2002B1ADA7A783B78012B01D1072000E00D205A4913465B003B
:402F000013449B000B44053302461A707A78554913465B0013449B000B44013301221A7019E07A783B78012B01D1052000E009204C4913465B0013449B000B44053302460C
:402F40001A707A78474913465B0013449B000B44013300221A70444A7B781B011344023301221A70404879787A783E4C13465B0013449B00234408331B889BB21B0A9BB2FB
:402F8000DAB20B0103441A70374879787A78354C13465B0013449B00234408331B889BB2DAB20B01034401331A70304879787A782C4C13465B0013449B00234406331B8834
:402FC0009BB2DAB20B01034406331A70274879787A78244C13465B0013449B00234406331B889BB21B0A9BB2DAB20B01034407331A701E4879787A781A4C13465B0013441B
:403000009B00234406331B889BB2DAB20B01034404331A70154879787A78124C13465B0013449B00234406331B889BB21B0A9BB2DAB20B01034405331A70BB680833BB6065
:40304000FB7B0133FB73FA7BFB789A42FFF403AF00BF1437BD4690BD0F87FF1F0487FF1F8087FF1F1487FF1FFC5F00407060004080B485B000AF0346FB710F4B1B78DBB248
:403080000E4ADB0013445B68FB60FB681033FB60FB681B78FA799A4202D30023FB6005E0FB79DB00FA6813445B68FB60FB6818461437BD4680BC7047ED86FF1F5C5900007C
:4030C00080B400AF054B1B78DBB2054ADB0013445B681846BD4680BC704700BFED86FF1F5C59000080B584B000AF104B1B78DBB2013BDBB21846FFF7BBFFB860BB68002B10
:403100000DD0BB685B681B79FB71FB790233DB00BA681344BB60BB685B68FB6001E00023FB60FB6818461037BD4680BD0F87FF1F80B582B000AF0023FB71344B1B79DBB2D3
:4031400003F07F03BB71BB79002B5AD0BB79082B57D8BA79B9792E480B465B000B449B00034402331B78DBB243F00103D8B2284913465B0013449B000B44023302461A7054
:40318000BA79234913465B0013449B000B44033300221A70BA79B9791D480B465B000B449B00034401331B78DBB243F00203D8B2174913465B0013449B000B44013302460B
:4031C0001A70BA79124913465B0013449B000B4404331B78DBB25BB2002B07DA0D4ABB791B01134402338D221A7006E0094ABB791B011344023389221A70FEF7DDFF034682
:40320000FB71FB7918460837BD4680BD006000401487FF1FFC5F004080B582B000AF0023FB71504B1B79DBB203F07F03BB71BB79002B00F09280BB79082B00F28E80BA79E0
:40324000B97949480B465B000B449B00034402331B78DBB223F00103D8B2434913465B0013449B000B44023302461A70BA793E4913465B0013449B000B44033300221A709F
:403280003A49BB793948BA79120102441278D2B202F07F02D2B21B010B441A70BA79B97931480B465B000B449B00034401331B78DBB223F00203D8B22B4913465B00134420
:4032C0009B000B44013302461A70BA79264913465B0013449B000B4404331B78DBB25BB2002B1BDABA79204913465B0013449B000B4401331B78DBB2012B07D11B4ABB7941
:403300001B01134402330C221A7022E0174ABB791B01134402330D221A701AE0BA79124913465B0013449B000B4401331B78DBB2012B07D10D4ABB791B0113440233082203
:403340001A7006E0094ABB791B011344023309221A70FEF731FF0346FB71FB7918460837BD4680BD006000401487FF1FFC5F004080B584B000AF0023FB73154B1B79BB730F
:40338000144B1B78DBB2013BDBB21846FFF770FEB860BB685B681B79FB71BA7BFB799A4202D9BB7B022B0ED8BB7BBA7B0A498A5CD1B20A4AD154BB7B054A9278D1B2064A5A
:4033C000D1540123FB73FB7B18461037BD4680BD006000400F87FF1F8087FF1FF486FF1F80B582B000AF0023FB710F4B1B78DBB25BB2002B12DA0C4B5B78DBB2012B00D0B4
:403400000CE00A4B0A4A5A60094B1B789AB2074B1A80FEF7B5FD0346FB7100BFFB7918460837BD4680BD00BF00600040F886FF1F7859000080B400AF054B1B78DBB203F0A0
:4034400040039B09DBB21846BD4680BC704700BF8F45004080B483B000AF0346FB7101BE00BF0C37BD4680BC704700BF80B582B000AF0346FB80FB88054A127802FB03F347
:40348000184601F061F800BF0837BD4680BD00BFFC85FF1F80B584B000AF03463960FB710F4B1B68FB60FB791F2B02D90020FFF7D1FFFB7903F01F0310339B00FA6813448B
:4034C0001B68BB60FB7903F01F0310339B00FA6813443A681A60BB6818461037BD4680BD08ED00E080B582B000AF03460A46FB711346BB71BB79072B02D90020FFF7AAFF75
:40350000FB791F2B02D90020FFF7A4FFFB7903F01F0303F1604303F56443BA795201D2B21A7000BF0837BD4680BD00BF80B483B000AF7860264B1B78DBB21A467B681A60AD
:40354000244B1B78DBB21B027A6812681A437B681A60214B1B78DBB21B047A6812681A437B681A601D4B1B78DBB21B067A6812681A437B681A607B680433194A1278D2B27E
:403580001A60184B1B78DBB21A027B6804337968043109680A431A60134B1B78DBB21A047B6804337968043109680A431A600F4B1B78DBB21A067B6804337968043109684B
:4035C0000A431A6000BF0C37BD4680BC704700BF0301004904010049EC460040020100490101004900010049050100490601004980B500AF064B1B78002B04D100F00AF806
:40360000034B01221A7000F065F800BF80BD00BFDA86FF1F80B582B000AF294A284B1B78DBB243F00203DBB21370264B1B78DBB223F07003FB71234AFB7943F01003DBB26E
:403640001370214A204B1B78DBB223F03003DBB213701D4A1C4B1B78DBB243F03003DBB21370194A184B1B78DBB223F00F03DBB21370154A144B1B78DBB243F00F03DBB24C
:4036800013704FF6FF7000F049F8002000F056F8002000F063F80D4A0C4B1B78DBB243F00103DBB213700A4A094B1B78DBB243F00103DBB2137000BF0837BD4680BD00BFB8
:4036C000004F0040024F00400B4F0040A3430040014F004080B400AF0D4A0D4B1B78DBB243F00103DBB213700A4A0A4B1B78DBB243F00103DBB21370074A074B1B78DBB28E
:4037000043F00103DBB2137000BFBD4680BC7047A3430040B3430040004F004080B483B000AF0346FB80044AFB88138000BF0C37BD4680BC704700BF044F004080B483B0B3
:4037400000AF0346FB80044AFB88138000BF0C37BD4680BC704700BF064F004080B483B000AF0346FB71044AFB79137000BF0C37BD4680BC704700BF034F004080B400AFEA
:40378000094A094B1B78DBB243F00203DBB21370064A064B1B78DBB243F00203DBB2137000BFBD4680BC7047A2430040B243004080B500AF064B1B78002B04D100F00AF828
:4037C000034B01221A7000F065F800BF80BD00BFDB86FF1F80B582B000AF294A284B1B78DBB243F00203DBB21370264B1B78DBB223F07003FB71234AFB7943F01003DBB2AC
:403800001370214A204B1B78DBB223F03003DBB213701D4A1C4B1B78DBB243F03003DBB21370194A184B1B78DBB223F00F03DBB21370154A144B1B78DBB243F00F03DBB28A
:4038400013704FF6FF7000F049F8002000F056F8002000F063F80D4A0C4B1B78DBB243F00203DBB213700A4A094B1B78DBB243F00103DBB2137000BF0837BD4680BD00BFF5
:403880000C4F00400E4F0040174F0040A34300400D4F004080B400AF0D4A0D4B1B78DBB243F00203DBB213700A4A0A4B1B78DBB243F00203DBB21370074A074B1B78DBB29A
:4038C00043F00103DBB2137000BFBD4680BC7047A3430040B34300400C4F004080B483B000AF0346FB80044AFB88138000BF0C37BD4680BC704700BF104F004080B483B0DA
:4039000000AF0346FB80044AFB88138000BF0C37BD4680BC704700BF124F004080B483B000AF0346FB71044AFB79137000BF0C37BD4680BC704700BF0F4F004080B400AF10
:4039400000BFBD4680BC704780B582B000AF0F2000F03EF800F02EF800F0FEFD0346FB71074A074B1B78DBB243F01003DBB21370FB79184600F0F4FD00BF0837BD4680BD67
:403980009664004080B500AF00F008F94FF4004000F032F9064B1B78002B04D1FFF7CEFF034B01221A70FFF7CFFF00BF80BD00BFDC86FF1F80B400AF044B1B78DBB203F074
:4039C0000F03DBB21846BD4680BC70476664004080B483B000AF0346FB71044AFB79137000BF0C37BD4680BC704700BF8664004080B400AF00BFBD4680BC704780B582B0DA
:403A000000AF0F2000F06AF800F05AF800F0A4FD0346FB71074A074B1B78DBB243F01003DBB21370FB79184600F09AFD00BF0837BD4680BD9364004080B500AF00F076F9A4
:403A40004FF4004000F0A0F9064B1B78002B04D1FFF7CEFF034B01221A70FFF7CFFF00BF80BD00BFDD86FF1F80B582B000AF00F09BF90346FB80FB88A3F500439BB2BB8054
:403A8000B7F9043018460837BD4680BD80B584B000AF0346FB80B7F90630002B04DBFB88A3F50043FB8103E0FB88A3F50043FB81FB89184600F068F900BF1037BD4680BD69
:403AC00080B400AF044B1B78DBB203F00F03DBB21846BD4680BC70476364004080B483B000AF0346FB71044AFB79137000BF0C37BD4680BC704700BF8364004080B582B032
:403B000000AF1C4B1B78DBB223F00703FB71194AFB791370174B1B78DBB223F00303FB71144AFB79137000F0A3F84FF4004000F07FF84FF4004000F05FF8002000F040F889
:403B400000F04EF84FF4004000F082F800F004FD0346BB71084A084B1B78DBB243F01003DBB21370BB79184600F0FAFC00BF0837BD4680BD746400409465004080B400AFB7
:403B8000054A054B1B78DBB263F07F03DBB2137000BFBD4680BC70477464004080B500AF064B1B78002B04D1FFF7A8FF034B01221A70FFF7E3FF00BF80BD00BFDE86FF1F1F
:403BC00080B483B000AF0346FB71044AFB79137000BF0C37BD4680BC704700BF8465004080B400AF034B1B78DBB21846BD4680BC704700BF6465004080B483B000AF034609
:403C0000FB80044AFB88138000BF0C37BD4680BC704700BF0C6A004080B400AF034B1B889BB21846BD4680BC704700BF8C6A004080B483B000AF0346FB80044AFB88138090
:403C400000BF0C37BD4680BC704700BF4C6A004080B483B000AF0346FB80044AFB88138000BF0C37BD4680BC704700BF6C6A004080B500AF01E0FFF7CFFFFFF7B1FF034614
:403C800003F04003002BF6D100BF80BD80B582B000AF1C4B1B78DBB223F00703FB71194AFB791370174B1B78DBB223F00303FB71144AFB79137000F0B3F84FF4004000F0F6
:403CC0008FF84FF4004000F05FF8002000F040F800F04EF84FF4004000F092F800F03CFC0346BB71084A084B1B78DBB243F01003DBB21370BB79184600F032FC00BF083792
:403D0000BD4680BD736400409164004080B400AF054A054B1B78DBB263F07F03DBB2137000BFBD4680BC70477364004080B500AF064B1B78002B04D1FFF7A8FF034B0122CE
:403D40001A70FFF7E3FF00BF80BD00BFDF86FF1F80B483B000AF0346FB71044AFB79137000BF0C37BD4680BC704700BF8164004080B400AF034B1B78DBB21846BD4680BCC9
:403D8000704700BF6164004080B483B000AF0346FB80044AFB88138000BF0C37BD4680BC704700BF0068004080B400AF044B1B78044B1B889BB21846BD4680BC704700BFD4
:403DC000006400408068004080B400AF034B1B889BB21846BD4680BC704700BF8068004080B483B000AF0346FB80044AFB88138000BF0C37BD4680BC704700BF40680040BE
:403E000080B483B000AF0346FB80044AFB88138000BF0C37BD4680BC704700BF6068004080B500AF01E0FFF7CFFFFFF7A1FF034603F04003002BF6D100BF80BD80B483B092
:403E400000AF0346FB71044AFB79137000BF0C37BD4680BC704700BF7864004080B500AF214A214B1B78DBB203F00103DBB213701E4A1E4B1B78DBB223F00303DBB21370CA
:403E80001B4A1B4B1B78DBB223F03003DBB21370174A174B1B78DBB243F03003DBB21370134A134B1B78DBB223F00F03DBB213700F4A0F4B1B78DBB243F00F03DBB2137030
:403EC0000C4A0C4B1B78DBB243F00103DBB21370312000F063F8312000F072F8082000F041F800BF80BD00BF184F00401A4F0040234F0040194F004080B400AF0D4A0D4B1F
:403F00001B78DBB243F00403DBB213700A4A0A4B1B78DBB243F00403DBB21370074A074B1B78DBB243F00103DBB2137000BFBD4680BC7047A3430040B3430040184F004042
:403F400080B500AF064B1B78002B04D1FFF786FF034B01221A70FFF7CFFF00BF80BD00BFE086FF1F80B483B000AF0346FB71044AFB79137000BF0C37BD4680BC704700BF39
:403F80001B4F004080B400AF034B1B78DBB21846BD4680BC704700BF1B4F004080B485B000AF0346FB80FB88FB81044AFB89138000BF1437BD4680BC704700BF1C4F00409F
:403FC00080B483B000AF0346FB80044AFB88138000BF0C37BD4680BC704700BF1E4F004080B582B000AF786000F03CF8786800F009F8072000F018F800F028F800BF083707
:40400000BD4680BD80B485B000AF7860054B1B68FB60FB688C337A681A6000BF1437BD4680BC704708ED00E080B483B000AF0346FB71054AFB795B01DBB2137000BF0C37D3
:40404000BD4680BC704700BF13E400E080B400AF034B4FF400221A6000BFBD4680BC704700E100E080B400AF034B4FF400221A6000BFBD4680BC704780E100E080B400AF45
:40408000094A094B1B78DBB243F01003DBB21370064A064B1B78DBB243F01003DBB2137000BFBD4680BC7047A2430040B243004080B500AF224A224B1B78DBB203F00103E9
:4040C000DBB213701F4A1F4B1B78DBB223F00303DBB213701C4A1C4B1B78DBB223F03003DBB21370184A184B1B78DBB243F03003DBB21370144A144B1B78DBB223F00F03F4
:40410000DBB21370104A104B1B78DBB243F00F03DBB213700D4A0D4B1B78DBB243F00103DBB2137040F2C93000F064F840F2C93000F072F8082000F041F800BF80BD00BF27
:40414000244F0040264F00402F4F0040254F004080B400AF0D4A0D4B1B78DBB243F00803DBB213700A4A0A4B1B78DBB243F00803DBB21370074A074B1B78DBB243F0010354
:40418000DBB2137000BFBD4680BC7047A3430040B3430040244F004080B500AF064B1B78002B04D1FFF784FF034B01221A70FFF7CFFF00BF80BD00BFE186FF1F80B483B084
:4041C00000AF0346FB71044AFB79137000BF0C37BD4680BC704700BF274F004080B400AF034B1B78DBB21846BD4680BC704700BF274F004080B485B000AF0346FB80FB8830
:40420000FB81044AFB89138000BF1437BD4680BC704700BF284F004080B483B000AF0346FB80044AFB88138000BF0C37BD4680BC704700BF2A4F004080B582B000AF78608B
:4042400000F03CF8786800F009F8072000F018F800F028F800BF0837BD4680BD80B485B000AF7860054B1B68FB60FB6890337A681A6000BF1437BD4680BC704708ED00E05F
:4042800080B483B000AF0346FB71054AFB795B01DBB2137000BF0C37BD4680BC704700BF14E400E080B400AF034B4FF480121A6000BFBD4680BC704700E100E080B400AF9C
:4042C000034B4FF480121A6000BFBD4680BC704780E100E080B582B000AF786000F03CF8786800F009F8072000F018F800F028F800BF0837BD4680BD80B485B000AF7860E3
:40430000054B1B68FB60FB6848337A681A6000BF1437BD4680BC704708ED00E080B483B000AF0346FB71054AFB795B01DBB2137000BF0C37BD4680BC704700BF02E400E0C9
:4043400080B400AF034B04221A6000BFBD4680BC704700BF00E100E080B400AF034B04221A6000BFBD4680BC704700BF80E100E080B582B000AF786000F03CF8786800F0CF
:4043800009F8072000F018F800F028F800BF0837BD4680BD80B485B000AF7860054B1B68FB60FB684C337A681A6000BF1437BD4680BC704708ED00E080B483B000AF0346F7
:4043C000FB71054AFB795B01DBB2137000BF0C37BD4680BC704700BF03E400E080B400AF034B08221A6000BFBD4680BC704700BF00E100E080B400AF034B08221A6000BF06
:40440000BD4680BC704700BF80E100E080B582B000AF786000F03CF8786800F009F8072000F018F800F028F800BF0837BD4680BD80B485B000AF7860054B1B68FB60FB68AD
:4044400050337A681A6000BF1437BD4680BC704708ED00E080B483B000AF0346FB71054AFB795B01DBB2137000BF0C37BD4680BC704700BF04E400E080B400AF034B1022AC
:404480001A6000BFBD4680BC704700BF00E100E080B400AF034B10221A6000BFBD4680BC704700BF80E100E080B582B000AF786000F03CF8786800F009F8072000F018F8B1
:4044C00000F028F800BF0837BD4680BD80B485B000AF7860054B1B68FB60FB6854337A681A6000BF1437BD4680BC704708ED00E080B483B000AF0346FB71054AFB795B014B
:40450000DBB2137000BF0C37BD4680BC704700BF05E400E080B400AF034B20221A6000BFBD4680BC704700BF00E100E080B400AF034B20221A6000BFBD4680BC704700BF68
:4045400080E100E0000000000230800803D000BF01380046FCD17047EFF3108072B6704780F31088704700BF80B582B000AF0023FB71314B1B79DBB2184600F067F80346A1
:40458000BB712D4B1B78DBB25BB2002B15DA2A4B5B78DBB2212B00D048E0284B07221A80BA791346DB009B1A254A1344234A5360FDF7E6FC0346FB7138E01F4B5B78DBB252
:4045C000202B02D0222B1AD030E01C4B07221A80BA791346DB009B1A194A1344174A5360BB79BA7917498A5CD2B242F00102D1B2144AD154FDF742FD0346FB7116E0BB79C5
:404600000D4A9278D2B291B20F4A22F81310BB79BA790C498A5CD2B242F00202D1B2094AD154FDF7C9FD0346FB7100BFFB7918460837BD4680BD00BF00600040F886FF1FEB
:404640000486FF1F8887FF1F9C87FF1F80B485B000AF0346FB710023FB73FF23BB7317E0FB7B104AD35C7B737A7B0F4913465B0013449B000B440A331B78DBB2FA799A42A4
:4046800003D1FB7BBB730223FB73FB7B0133FB73FB7B012BE4D9BB7B18461437BD4680BC704700BF9087FF1F1487FF1F80B485B000AF78600B46FB701346BB707B68DB7890
:4046C00003F00303FB737B689B785BB2002B1ADAFB7B032B0AD0BB7803F001031449FA78CA54BB7843F00103BB701BE0BB789B08DBB203F001030F49FA78CA54BB7843F064
:404700000403BB700EE0FB7B032B0BD0BB785B08DBB203F001030849FA78CA54BB7843F00203BB70BB7818461437BD4680BC70478C87FF1F9087FF1F9487FF1F80B582B071
:4047400000AF0023BB711B4B1B78DBB203F00303012B02D0022B04D012E0164B1B79FB7111E0144B1B79DBB203F07F02124913465B0013449B000B440A331B78FB7102E017
:404780000023FB7100BFFB79022B0ED80B4B1A68FB7913441B78022B04D1FFF7E5FE0346BB7102E00023BB7100BFBB7918460837BD4680BD006000401487FF1F0887FF1F97
:4047C00081F0004102E000BF83F0004330B54FEA41044FEA430594EA050F08BF90EA020F1FBF54EA000C55EA020C7FEA645C7FEA655C00F0E2804FEA5454D4EB5555B8BF0D
:404800006D420CDD2C4480EA020281EA030382EA000083EA010180EA020281EA0303362D88BF30BD11F0004F4FEA01314FF4801C4CEA113102D0404261EB410113F0004FFA
:404840004FEA03334CEA133302D0524263EB430394EA050F00F0A780A4F10104D5F1200E0DDB02FA0EFC22FA05F2801841F1000103FA0EF2801843FA05F359410EE0A5F168
:4048800020050EF1200E012A03FA0EFC28BF4CF0020C43FA05F3C01851EBE37101F0004507D54FF0000EDCF1000C7EEB00006EEB0101B1F5801F1BD3B1F5001F0CD3490882
:4048C0005FEA30004FEA3C0C04F101044FEA445212F5800F80F09A80BCF1004F08BF5FEA500C50F1000041EB045141EA050130BD5FEA4C0C404141EB010111F4801FA4F104
:404900000104E9D191F0000F04BF01460020B1FA81F308BF2033A3F10B03B3F120020CDA0C3208DD02F1140CC2F10C0201FA0CF021FA02F10CE002F11402D8BFC2F1200C10
:4049400001FA02F120FA0CFCDCBF41EA0C019040E41AA2BF01EB0451294330BD6FEA04041F3C1CDA0C340EDC04F11404C4F1200220FA04F001FA02F340EA030021FA04F38E
:4049800045EA030130BDC4F10C04C4F1200220FA02F001FA04F340EA0300294630BD21FA04F0294630BD94F0000F83F4801306BF81F480110134013D4EE77FEA645C18BF39
:4049C0007FEA655C29D094EA050F08BF90EA020F05D054EA000C04BF1946104630BD91EA030F1EBF0021002030BD5FEA545C05D14000494128BF41F0004130BD14F5800428
:404A00003CBF01F5801130BD01F0004545F0FE4141F470014FF0000030BD7FEA645C1ABF194610467FEA655C1CBF0B46024650EA013406BF52EA033591EA030F41F40021AB
:404A400030BD00BF90F0000F04BF0021704730B54FF4806404F132044FF000054FF0000150E700BF90F0000F04BF0021704730B54FF4806404F1320410F0004548BF404280
:404A80004FF000013EE700BF42004FEAE2014FEA31014FEA02701FBF12F07F4393F07F4F81F06051704792F0000F14BF93F07F4F704730B54FF4607401F0004521F00041A2
:404AC00020E700BF50EA010208BF704730B54FF000050AE050EA010208BF704730B511F0004502D5404261EB41014FF4806404F132045FEA915C3FF4DCAE4FF003025FEA83
:404B0000DC0C18BF03325FEADC0C18BF033202EBDC02C2F1200300FA03FC20FA02F001FA03FE40EA0E0021FA02F11444C1E600BF70B54FF0FF0C4CF4E06C1CEA11541DBF5C
:404B40001CEA135594EA0C0F95EA0C0F00F0DEF82C4481EA030621EA4C5123EA4C5350EA013518BF52EA033541F4801143F4801338D0A0FB02CE4FF00005E1FB02E506F0DB
:404B80000042E0FB03E54FF00006E1FB03569CF0000F18BF4EF0010EA4F1FF04B6F5007F64F5407404D25FEA4E0E6D4146EB060642EAC62141EA55514FEAC52040EA5E50A8
:404BC0004FEACE2EB4F1FD0C88BFBCF5E06F1ED8BEF1004F08BF5FEA500E50F1000041EB045170BD06F0004646EA010140EA020081EA0301B4EB5C04C2BFD4EB0C0541EAB6
:404C0000045170BD41F480114FF0000E013C00F3AB8014F1360FDEBF002001F0004170BDC4F10004203C35DA0C341BDC04F11404C4F1200500FA05F320FA04F001FA05F2EA
:404C400040EA020001F0004221F0004110EBD37021FA04F642EB06015EEA430E08BF20EAD37070BDC4F10C04C4F1200500FA04F320FA05F001FA04F240EA020001F0004134
:404C800010EBD37041F100015EEA430E08BF20EAD37070BDC4F1200500FA05F24EEA020E20FA04F301FA05F243EA020321FA04F001F0004121FA04F220EA020000EBD370D5
:404CC0005EEA430E08BF20EAD37070BD94F0000F0FD101F00046400041EB010111F4801F08BF013CF7D041EA060195F0000F18BF704703F00046520043EB030313F4801F9A
:404D000008BF013DF7D043EA0603704794EA0C0F0CEA135518BF95EA0C0F0CD050EA410618BF52EA4306D1D181EA030101F000414FF0000070BD50EA410606BF10461946EF
:404D400052EA430619D094EA0C0F02D150EA013613D195EA0C0F05D152EA03361CBF104619460AD181EA030101F0004141F0FE4141F470014FF0000070BD41F0FE4141F4EC
:404D8000780170BD70B54FF0FF0C4CF4E06C1CEA11541DBF1CEA135594EA0C0F95EA0C0F00F0A7F8A4EB050481EA030E52EA03354FEA013100F088804FEA03334FF080556D
:404DC00045EA131343EA12634FEA022245EA111545EA10654FEA00260EF000419D4208BF964244F1FD0404F5407402D25B084FEA3202B61A65EB03055B084FEA32024FF488
:404E000080104FF4002CB6EB020E75EB030E22BFB61A754640EA0C005B084FEA3202B6EB020E75EB030E22BFB61A754640EA5C005B084FEA3202B6EB020E75EB030E22BFF8
:404E4000B61A754640EA9C005B084FEA3202B6EB020E75EB030E22BFB61A754640EADC0055EA060E18D04FEA051545EA16754FEA06164FEAC30343EA52734FEAC2025FEAA9
:404E80001C1CC0D111F4801F0BD141EA00014FF000004FF0004CB6E711F4801F04BF01430020B4F1FD0C88BFBCF5E06F3FF6AFAEB5EB030C04BFB6EB020C5FEA500C50F1BD
:404EC000000041EB045170BD0EF0004E4EEA113114EB5C04C2BFD4EB0C0541EA045170BD41F480114FF0000E013C90E645EA060E8DE60CEA135594EA0C0F08BF95EA0C0F0D
:404F00003FF43BAF94EA0C0F0AD150EA01347FF434AF95EA0C0F7FF425AF104619462CE795EA0C0F06D152EA03353FF4FDAE1046194622E750EA410618BF52EA43067FF4A1
:404F4000C5AE50EA41047FF40DAF52EA43057FF4EBAE12E74FEA4102B2F1E04324BFB3F5001CDCF1FE5C0DD901F0004C4FEAC0024CEA5070B2F1004F40EB830008BF20F0EC
:404F80000100704711F0804F21D113F13872BCBF01F00040704741F480114FEA5252C2F11802C2F1200C10FA0CF320FA02F018BF40F001004FEAC1234FEAD32303FA0CFCA9
:404FC00040EA0C0023FA02F34FEA4303CCE77FEA625307D150EA01331EBF4FF0FE4040F44000704701F0004040F0FE4040F40000704700BF80F0004002E000BF81F0004102
:4050000042001FBF5FEA410392EA030F7FEA226C7FEA236C6AD04FEA1262D2EB1363C1BFD218414048404140B8BF5B42192B88BF704710F0004F40F4000020F07F4018BFB9
:40504000404211F0004F41F4000121F07F4118BF494292EA030F3FD0A2F1010241FA03FC10EB0C00C3F1200301FA03F100F0004302D5494260EB4000B0F5000F13D3B0F160
:40508000807F06D340084FEA310102F10102FE2A51D2B1F1004F40EBC25008BF20F0010040EA03007047490040EB000010F4000FA2F10102EDD1B0FA80FCACF1080CB2EBEB
:4050C0000C0200FA0CF0AABF00EBC25052421843BCBFD0401843704792F0000F81F4000106BF80F400000132013BB5E74FEA41037FEA226C18BF7FEA236C21D092EA030FAD
:4051000004D092F0000F08BF0846704790EA010F1CBF0020704712F07F4F04D1400028BF40F00040704712F100723CBF00F50000704700F0004343F0FE4040F40000704764
:405140007FEA226216BF08467FEA23630146420206BF5FEA412390EA010F40F4800070474FF0000304E000BF10F0004348BF40425FEA000C08BF704743F0964301464FF028
:4051800000001CE050EA010208BF70474FF000030AE000BF50EA010208BF704711F0004302D5404261EB41015FEA010C02BF84460146002043F0B64308BFA3F18053A3F52D
:4051C0000003BCFA8CF2083AA3EBC25310DB01FA02FC634400FA02FCC2F12002BCF1004F20FA02F243EB020008BF20F00100704702F1200201FA02FCC2F1200250EA4C0009
:4052000021FA02F243EB020008BF20EADC7070474FF0FF0C1CEAD0521EBF1CEAD15392EA0C0F93EA0C0F6FD01A4480EA010C400218BF5FEA41211ED04FF0006343EA5010BE
:4052400043EA5111A0FB01310CF00040B1F5000F3EBF490041EAD3715B0040EA010062F17F02FD2A1DD8B3F1004F40EBC25008BF20F00100704790F0000F0CF0004C08BF59
:4052800049024CEA502040EA51207F3AC2BFD2F1FF0340EAC250704740F400004FF00003013A5DDC12F1190FDCBF00F000407047C2F10002410021FA02F1C2F1200200FA06
:4052C00002FC5FEA310040F1000053EA4C0308BF20EADC70704792F0000F00F0004C02BF400010F4000F013AF9D040EA0C0093F0000F01F0004C02BF490011F4000F013B61
:40530000F9D041EA0C018FE70CEAD15392EA0C0F18BF93EA0C0F0AD030F0004C18BF31F0004CD8D180EA010000F00040704790F0000F17BF90F0004F084691F0000F91F0BE
:40534000004F14D092EA0C0F01D142020FD193EA0C0F03D14B0218BF084608D180EA010000F0004040F0FE4040F40000704740F0FE4040F4400070474FF0FF0C1CEAD052B7
:405380001EBF1CEAD15392EA0C0F93EA0C0F69D0A2EB030280EA010C49024FEA402037D04FF0805343EA111143EA10130CF000408B4238BF5B0042F17D024FF4000C8B42B0
:4053C00024BF5B1A40EA0C00B3EB510F24BFA3EB510340EA5C00B3EB910F24BFA3EB910340EA9C00B3EBD10F24BFA3EBD10340EADC001B0118BF5FEA1C1CE0D1FD2A3FF683
:4054000050AF8B4240EBC25008BF20F0010070470CF0004C4CEA50207F32C2BFD2F1FF0340EAC250704740F400004FF00003013A37E792F0000F00F0004C02BF400010F45B
:40544000000F013AF9D040EA0C0093F0000F01F0004C02BF490011F4000F013BF9D041EA0C0195E70CEAD15392EA0C0F08D142027FF47DAF93EA0C0F7FF470AF084676E7FB
:4054800093EA0C0F04D14B023FF44CAF08466EE730F0004C18BF31F0004CCAD130F000427FF45CAF31F000437FF43CAF5FE700BF4FF0FF3C06E000BF4FF0010C02E000BF63
:4054C0004FF0010C4DF804CD4FEA40024FEA41037FEA226C18BF7FEA236C11D001B052EA530C18BF90EA010F58BFB2EB030088BFC81738BF6FEAE17018BF40F001007047C1
:405500007FEA226C02D15FEA402C05D17FEA236CE4D15FEA412CE1D05DF8040B704700BF844608466146FFE70FB5FFF7C9FF002848BF10F1000F0FBD4DF808EDFFF7F4FFD3
:405540000CBF012000205DF808FB00BF4DF808EDFFF7EAFF34BF012000205DF808FB00BF4DF808EDFFF7E0FF94BF012000205DF808FB00BF4DF808EDFFF7D2FF94BF012075
:4055800000205DF808FB00BF4DF808EDFFF7C8FF34BF012000205DF808FB00BF4FEA4002B2F1FE4F0FD34FF09E03B3EB12620DD94FEA002343F0004310F0004F23FA02F01D
:4055C00018BF404270474FF00000704712F1610F01D1420205D110F0004008BF6FF0004070474FF00000704742000ED2B2F1FE4F0BD34FF09E03B3EB126209D44FEA0023D8
:4056000043F0004323FA02F070474FF00000704712F1610F01D1420202D14FF0FF3070474FF00000704700BF014B1868704700BF8086FF1F0E4B70B51E460E4C0025E41A3D
:40564000A410A54204D056F8253098470135F8E700F0A8F9084B094C1E46E41AA4100025A54204D056F8253098470135F8E770BDB0590000B0590000B0590000B859000005
:40568000024B0146186800F017B800BF8086FF1F10B5431E0A44914204D011F8014B03F8014FF8E710BD03460244934202D003F8011BFAE77047000070B5CD1C25F00305BD
:4056C00008350C2D38BF0C25002D064601DBA94202D90C23336046E000F05CF8234B1C681A462146A1B10B685B1B0ED40B2B03D90B60CC18CD501EE08C420BBF63684B685D
:405700001360636018BF0C4615E00C464968E9E7174C23681BB9304600F02CF820602946304600F027F8431C18D0C41C24F00304A0420DD12560304600F02DF804F10B0070
:40574000231D20F00700C31A0ED05A42E25070BD211A304600F00EF80130EBD10C233360304600F018F8002070BD00BFE886FF1FE486FF1F38B5064C0023054608462360B2
:40578000FCF7C8F9431C02D1236803B12B6038BDC487FF1F704770470000000001000000010000000100000005000000004F004030004051004030000000014000088008D4
:4057C0000140800700140140000800400140000A004C0140000210500140100000080140500C0048800000500140D00C0048100030313233343536373839414243444546E5
:40580000000000001201000202000008B40432F2010001028001000009024300020101C0320904000001020201030524001001042402020524060001052401000107058140
:405840000308000A09040100020A000004070582024000000705030240000000040309042C0343007900700072006500730073002000530065006D00690063006F006E00BA
:4058800064007500630074006F007200100355005300420055004100520054003803430044004300200043006F006D006D0075006E00690063006100740069006F006E00A3
:4058C000200049006E007400650072006600610063006500260343004400430020004400610074006100200049006E007400650072006600610063006500000002030000B4
:4059000000008103080002000100820240000A000100030240000A00020A0000010000001858000003000000005900000000000000000000000000000000000000000000E1
:405940001859000001000000045800000000000000000000010000001C590000010000004459000012034D0053004600540031003000300001000000280000000001040037
:40598000010000000000000000014359555342000000303030303100000000000000000043000000F8B500BFF8BC08BC9E4670474D000000FD1B0000F8B500BFF8BC08BC63
:4059C0009E46704729000000D8590000C880FF1FC005000040010000000000000A000000435333303120323031360A0D000000000000000000000000000000000000000012
:405A000000000000000000000000000000000000000000000000000000000000000000000500000006000000030300000000FF420000B94201010000010000000100000015
:405A40000100000001000000010000000100000001000000010000000100000001000000010000000100000001000000010000000100000001000000010000000100000016
:405A800001000000010000000000000000000000000000000000000000000000010000000000000000000000000000000000000000000000000000000000000000000000E3
:405AC000000000000000000000000000010000000100000001000000010000000100000001000000000000000100000000000000010000000100000001000000010000009B
:405B0000010000000100000001000000000000000100000000000000010000000100000000000000000000000000000000000000000000000000000000000000000000005F
:405B4000000000000000000000000000000000000000000001000000000000000100000000000000010000000100000000000000010000000000000001000000010000001E
:405B800001000000010000000100000000000000010000000000000001000000010000000100000000000000010000000000000001000000010000000000000001000000DA
:405BC00000000000000000000000000001000000000000000000000000000000010000000000000001000000000000000000000000000000010000000000000001000000A0
:405C0000010000000000000001000000010000000100000000000000010000000000000001000000000000000100000000000000010000000000000001000000010000005A
:405C4000010000000000000001000000010000000000000000000000000000000000000000000000010000000000000001000000000000000100000000000000010000001D
:405C800000000000010000000000000000000000000000000100000001000000000000000100000001000000010000000100000001000000000000000100000000000000DB
:405CC000010000000100000001000000000000000100000000000000010000000100000001000000010000000000000000000000000000000000000000000000000000009C
:405D0000000000000100000000000000000000000000000001000000000000000100000000000000000000000000000001000000010000000100000001000000010000005B
:405D40000100000001000000010000000000000001000000010000000100000000000000010000000000000001000000010000000100000000000000010000000100000017
:405D800000000000000000000000000000000000000000000000000000000000000000000000000001000000000000000100000000000000000000000000000000000000E1
:405DC0000000000001000000010000000000000001000000010000000100000001000000010000000100000001000000000000000100000000000000010000000100000097
:405E0000010000000100000001000000000000000100000001000000000000000000000000000000000000000000000000000000000000000100000000000000000000005C
:405E40000000000000000000000000000000000000000000000000000000000001000000010000000100000001000000010000000100000001000000010000000100000019
:405E800001000000010000000100000001000000010000000100000001000000010000000100000001000000010000000100000009000000050000000500000007000000BC
:405EC000010000000D000000050000000900000009000000000000000100000000000000FFFFFFFF0100000000000000FFFFFFFF00000000CDCCCC3E3333333F19000000EF
:405F0000C887FF1F0087930360EA00003C0000000000307500C2010000000800C201000000080000A120000000000200000000000000000000000000000000000000000053
:405F400000000000000000000000000000000000A0590000000000000000000000000000000000000000000000000000000000000000000000000000000000000000000028
:405F8000000000000000000000000000000000002086FF1F00000000000000000000000000000000000000000000000000000000000000000000000000000000000000001D
:405FC00000000000000000000000000000000000000000000000000000000000000000000000000000000000000000000000000000000000000000000000000000000000A1
:406000000000000000000000000000000000000000000000000000000000000000000000000000000000000000000000000000000000000000000000000000000000000060
:406040000000000000000000000000000000000000000000000000000000000000000000000000000000000000000000000000000000000000000000000000000000000020
:4060800000000000000000000000000000000000000000000000000000000000000000000000000000000000000000000000000000000000000000000000000000000000E0
:020000040003F7
:0200000480007A
:4000000001450040074F004006520040046400400365004060000140370101404C02014045030140460401404A050140490601404D0701400F0801404E090140550A0140BA
:400040003B0B0140020D01404114014048150140681601404E1701405218014045190140041A0140091B014007400140184101401742014014430140094501400646014092
:400080000F47014014480140104901400A4C0140064D014005500140035101407E0201100A360D10161B194022272E361108182019286018611C7C40816F830F860F8B0F03
:4000C000846F873888720501110112041804190124012C012E022F0232023404350236013701388039803E103F404025410649FF4AFF4BFF4DA04F015018580459045A04AA
:400100005C825D025F116040628064406540668068406A806C406D206E80850487028E0191029202930C99029A089B04A204A701A901AD02AF04B004B208B306B401B50872
:40014000B602B701BB08BF40C025C106C54CC620C73EC83BC9FFCAFFCBFFCDAFCE07CF01D018D40FD804D904DA04DB04DC22DD22DF05E040E280E440E540E680E840EA8041
:40018000EC40ED20EE800540080109200C200E4010221680180219201A201E4A1F082002212025042620270228012C202E402F083022362138083B083D084004431047104F
:4001C00048054B504F565422550256085D885E105F026608670478207F0480208210C080C25AC415CA78CCA5CE42D024D23CD6F0D860DE24030F059E076009FD0B020DCF68
:400200000F3011731E012202253027C9280129942B6031FF320136023E043F015608580459045B045C025D905F0183038401877889408A048B088C088D608E108F10901072
:40024000920894049502970199039A029C02A008A138A210A408A558A610A720A960AA01AB08AE01AF04B018B178B204B302B401B504B602B701BA02BE54BF44D280D40FE5
:40028000D804D904DB04DC22DD20DF010204032208100A600B010F021288134817111804190A1A401B401C201D4020C022402328260229012B162F1430083310350136010C
:4002C00038423B283C803D223E203F2C480C4C044E045A895B205C8066807340834084108580881090029220940C9A049C209DC89E80A104A204A301A404A902AA04AD2002
:40030000B001C007C28FC45FCA6FCC86CEFFD61FD810E020E6080104020F0407080C0A021308140C150816011C0B1E04221023082408260127022A202B0530103101320FAF
:4003400033083420350437023F145280580459045B045C825D205F118304841888608B088C018E0293029402960198019A029C2CA001A202A414A818AC60AD01B040B101E1
:40038000B203B304B420B508B61CB702B8A2BA08BE10BF01D608D804D904DB04DC22DD90DF0100040102030805400614080409200A090E2A1108128815A01620170118206B
:4003C0001B2A1C201D201E221F452101221023212759281829012E8031083201340139023C103F025D805F106409710178208340884089108E50931094089601972D9810FB
:4004000099429A209C209F11A040A104A206A301A404A511A689A722AF10B480C0EEC2E5C4FECA17CC83CEA1D630D830DE04E010E268E811EA04003102C20307047705A1BA
:40044000075208C009310A340BC20E08130814A116521A071CF72177255427A029F72C542DC02EA02F34310F340F35F036F0540F580459045B045C225D205F018511870835
:40048000880E8AF08B1D8CA38E5C907F93409496950D966897109E019F20A11CA4C5A63AA702A8FEA901AA01AB04AD11AF04B103B2FFB340B51DB720BE04D608D804D90496
:4004C000DB04DC20DD90DF0100A0018004A805020A020BA00C040E091008112012101304160119081C081E091F802108228123042511284029882A202C482D802F5030081A
:400500003140320136023B243C203D023E203F045A805C085EA05F01614069508114820183018910902092889382941C958096039724980299029B289C249E14A050A10422
:40054000A202A308A404A519A688A980AE80B402C0F3C2EDC486CAFFCC8BCEE6D6F8D808E60C820297019801AA01B002B201B501BE04D608D804D904DB04DC88DD90DF31D7
:4005800000020104021004110550061009200C080E070F8012081541168017181A901D181EA021202401251026042C082D442E0132083408356437183C113E8C4608470844
:4005C0004D205501560457C05A405C80614066806C026D407A80880289048C8092449380955596089B149C089D409E049F02A180A488A55BA6C3A780B001B420B644B7811A
:40060000C0F8C2F2C4F2CAF0CC72CEF0D060D220D618D818DE01E080E60CEA100101041006AC10141620180C1A711E032010224028092AD02CDC2E2234E0361F37013A20B5
:400640003F40580459045C035F0180088301850C871088048B208D408E02912893109714990C9A029B309F02A10CA310A540A940AA09AD01AF02B001B208B33CB404B540C0
:40068000B602B703BB08BE54C042C106C205C403C5CEC803C9FFCAFFCBFFCC62CDA0CEF0CF41D00CD401D604D804D904DA04DB04DC38DD33DF31E640E702E910EA30EB1028
:4006C000ED10EE10EF120310050106040702080809010A050F0810811120172018011A051C201D011E081F40200225A027142C082D442F80340935403601371038013DA1C5
:400700003E04452A4D104E424F085C205E885F0167407E8084108B40924096089B20AB20B640C0D4C24FC44BCAF0CCF0CEF1D0E0D230D6F0D880DE80E220EA048604EE2073
:400740000014040C07040818090813081418150119011D0121012201240125042A022B012F0232023304341C35033601370838203E403F44540F580459045B045C225D2030
:400780005F05800882018407853087C9881091949360940C9602970F999E9A0F9B60A00BA1FDA204A302A40CA573A601A9CFAB30B010B1FFB20FBE01BF01D804D904DC0234
:4007C000DF0100040240038804080502070809080E200F08108012241660180C19081A021B201D0A1E20200822442480290A2B052E202FA8301031013388341035023614E7
:400800003A043B103D083F0848044A085A8A5B10610462107808830885028C808F109310948C980899079A14A080A104A224A389A508A608A9A0AF01B120C07EC264C43EAF
:40084000CAEFCCEFCE46D60FD806DE02E240EA02EE0102040304080109040A0213021404170118021A011C042401260228012A022F04320433023403350137043A203E0403
:400880003F404026410449FF4AFF4BFF4DA04F0150185608580459045A045B045C225D925F016040628064406540668068406A806C406D206E8080FE8201847F88A38A5C6E
:4008C0008F01930494C5963AA00EA2F0A496A668AA01AB02AF02B0FFB304B501B702BE01BF40C036C104C54EC6C2C703C81FC9FFCAFFCBFFCDAFCE07CF01D018D418D60453
:40090000D804D904DA04DB04DC20DD32DF01E040E280E440E540E680E840EA80EC40ED20EE800004038806A00728080409080E040F111109120817141B011E241F102180AC
:4009400022202310241026402714280229202D032E802F0131013401370839803D023F114102422045034720480849054C084E045080514052145B015D8061A0634064011D
:40098000874092089302949C95809720980A99029B289C049E04A105A204A388A658AC48B020B540C05EC2E4C46ECA1CCCC1CEA8D0A3D224D611D81DE880EA40EE1000041D
:4009C00001040430050209060AC30C08103C12C1140416081711187C19111A821D391E0C1F0620CF223024102526271928FF293F2C202D272F1830B031073310343F3520B2
:400A00003670370839803A2A3B023F1056025712580459045B045C335D305F0184018606960398019A0E9C0C9D019E03A208A701AA0CB301B60FBA80BF04C006C604C9FF2B
:400A4000CA07CBFFCC40CD20CEF0CF05D008D804D904DA04DC03DD03DF01E040E1A8E240E3200310054006A0070408080A050DA40E401080112014401510160217081A01C1
:400A80001D201E421F1422042404250A274228202D102E402F1432403440361037443E2A49044A0450805C046C086D84762A77087A038E089108928493809514960998082F
:400AC00099409A809B149D049F02A190A214A489A542A60AB280B610C0F4C2F7C4FACA72CC78CEE0D204D640E880EE10B980BF40D904DF0124028C01AA01AD08B001B34018
:400B0000B420E240EE8030023110340837103B40CCF0CE100340050408800D040F013020320435823B208310840888809C089D109F10A402AF40C030C2E0CCF0CE10E220CF
:400B4000E610EE403180510857108310840289808D108F40960897209B409D12A422A980AB01AD04B504CC10D460E210E680E890EA2019011D0865046602710481028604F2
:400B8000960897209D029F10A420A508AB10AD08C630D880DC80E630E8600010090458409C01B001C002C208D401EE04901096409C41AA40B504EE0208200A400E2080202D
:400BC000861089028C10901096409C01B040C20EE001E208E801020807102B016602720287109302972099019E029F10A701B301B420B701C060CA10D880DC20E64053010C
:400C000058016501810184018E02930299019E02AA08D480D640D880E020E240E8200040011008010F808F4099029C01C002C20CE60275029902B110B440DE04EA03100CD7
:400C400011011A0C1B011C0800FF01AF023E00000000200C0FD000000300CC0308008201000010000F20004010D000000000100204804110000310041003000845018A025B
:400C80001000E0C00F30000F00280080000005046302000000000CBE34FFFFFF0000F0440C000000000008000404040433930001000000000000C000000040020000000004
:400CC000000000000000000000000000000000000C010000000000000401040108010000E300000000000000001C1C001C0000004000060000000000C0000000340B0B004D
:400D0000000000000800140A0A00080000000000007B7B0038000000000000000000000000000000000000000000000000000000000000000000000000000000000000004D
:400D40000000000000000000000000000000000000000000000000000000000000000000000000000000000000000000000000000000000000000000000000000000000073
:400D80000000000000000000000000000000000000000000000000000000000000000000000000000000000000000000000000000000000000000000000000000000000033
:400DC00000000000000000000000000000000000000000000000000000000000000000000000000000000000000000000000000000000000000000000000000000000000F3
:400E000000000000000000000000000000000000000000000000000000000000000000000000000000000000000000000000000000000000000000000000000000000000B2
:0200000490006A
:0400000000004005B7
:0200000490105A
:04000000BC90ACAF55
:0200000490303A
:02000000D1D657
:0200000490402A
:4000000000000000000000000000000000000000000000000000000000000000000000000000000000000000000000000000000000000000000000000000000000000000C0
:400040000000000000000000000000000000000000000000000000000000000000000000000000000000000000000000000000000000000000000000000000000000000080
:400080000000000000000000000000000000000000000000000000000000000000000000000000000000000000000000000000000000000000000000000000000000000040
:4000C0000000000000000000000000000000000000000000000000000000000000000000000000000000000000000000000000000000000000000000000000000000000000
:0200000490501A
:0C00000000012E16106900012E3BE23FAB
:00000001FF