:400000000080002011000000890800008908000080B500AF024A034B1B68136000F066FCBC760040FA46004010B5054C237833B9044B13B10448AFF300800123237010BD93
:40004000B081FF1F00000000284D0000084B10B51BB108490848AFF300800848036803B910BD074B002BFBD0BDE81040184700BF00000000B481FF1F284D0000C880FF1F48
:400080000000000080B500AF0E4B01221A6002F013FF03461A460C4B1A6002F093FF03461A460A4B1A60002002F018FF02F0ECFE002002F099FF02F06DFF03F023FA00BF10
:4000C00080BD00BFE881FF1FE081FF1FE481FF1F90B583B000AF62B602F0D4FD02F00EFD642002F09FFD02F0E7FD642002F078FE02F0CAFE3F4803F033FA03F0E1F903F087
:400100007DFA0121002000F087FC002003F054F9394800F0CDF800F0ADF800F083F84FF47A7002F007FC00F087F8344B1B68012B54D1324B00221A60314B1B68184603F0B0
:400140001BFC4FF000022F4B03F0A6FD03460C461846214603F088FE03467B602A49786803F0E0FF0346184604F02CF903467B80B7F902301A462549254804F0A9F92448D2
:4001800000F096F8234800F093F8234B1B68184603F0F2FB4FF000021A4B03F07DFD03460C461846214603F05FFE03467B601649786803F0B7FF0346184604F003F90346FD
:4001C0007B80B7F902301A461049114804F080F90F4800F06DF80F4800F06AF80F4B1B78012B98D10E4800F063F80C4B00221A7091E700BF85000000D080FF1FE881FF1F77
:40020000E081FF1F00804C40000070412C4D0000E882FF1F304D0000E481FF1FDC81FF1F6882FF1F80B500AF322002F00BFD322002F0E6FD00BF80BD80B582B000AF232052
:4002400002F000FD232002F0DBFD00237B60002002F044FE03E002F02FFE03467B607B68632BF8DD002002F039FE00BF0837BD4680BD00BF80B582B000AF412002F0E2FC37
:40028000412002F0BDFD00237B60002002F0ACFE03E002F097FE03467B607B68632BF8DD002002F0A1FE00BF0837BD4680BD00BF80B584B000AF786000BF00F0C3FE03464C
:4002C000002BFAD07B683F3300221A707B683E3321221A707B681B78702B23D17B6801331B78202B1ED17B689B783B727B68DB787B727B681B79BB723B7A1A46642303FBFA
:4003000002F27B7A19460B469B000B445B001344BA7A1344184603F0B1FE0346FB60F86800F00EF8786804F0F7F803469BB21946786800F051FE00BF1037BD4680BD00BF27
:40034000B0B584B000AF7860154BFB60786803F025FB4FF00002134B03F09EFC03460C4625461C46F86803F019FB02460B462046294603F067FB03460C461846214603F09E
:4003800073FD0346BB60B86804F042F80346DBB2184602F057FC00BF1037BD46B0BD00BF00007F430000594080B582B000AF786039603A680021786804F081F800BF08377D
:4003C000BD4680BD80B584B000AFF860B9607A607A68B968F86804F067F800BF1037BD4680BD00BF80B483B000AF0346FB71FEE780B487B000AF7860396000233B61002382
:400400007B6127E07B699B007A6813441B68BB60BB68FB73BB6823F0FF03BB6014E03B695B003A6813441B781A46BB68134419463B695B003A6813445B780B703B690133C9
:400440003B61FB7B013BFB73FB7B002BE7D17B6901337B617B692B2BD4D900BF1C37BD4680BC704780B582B000AF404B04221A803F4B18221A703F4B3A221A803E4B182292
:400480001A703E4B81221A803D4B18221A703D4B00221A803C4B1B221A703C4B40F6B7321A803B4B1C221A703A4B4EF65F221A80394B18221A70394B06221A70384B522227
:4004C0001A70384B384A1278D2B21A70374B40F619121A80364B41F251221A800023FB7019237B6014E0FB785B00DAB2314B1B78DBB203F00103DBB21343DBB203F00303A8
:40050000FB704FF4F07003F093F87B68013B7B607B68002B02D0FB78032BE4D17B68002B02D10320FFF75EFF234B4FF480721A80214B07221A70214B00221A70204B48225F
:400540001A701D4B00221A701E4B00221A701E4B02221A701D4A1D4B1B78DBB243F03F03DBB2137000BF0837BD4680BD8040004082400040844000408640004088400040EB
:400580008A4000408C4000408E400040904000409240004094400040964000400043004000420040A14600400F01004922420040204200402542004004400040064000404F
:4005C000084000400940004001400040A243004080B582B000AF254B1B78FB71244B1B78BB71244B1B787B71234AFB7903F00703DBB21370214AFB791B09DBB213701C4A3C
:40060000BB7943F00303DBB213701A4A7B7943F00303DBB213701A4BE0221A70194BB4221A70194B01221A70184B40221A70184B40221A70174BA0221A70174BCF221A70AD
:40064000164B20221A70164BC1221A700A2002F093F9084A7B791370054ABB791370114B44221A7000BF0837BD4680BDCF010049F8460040F94600406E5800406F5800405B
:400680000D5100401D5100402D510040095900400B590040045B0040285B00402B5B0040585B00407658004080B586B000AF72B6584B61221A70FFF7D5FE564B01221A70B8
:4006C000554A554B1B78DBB243F00403DBB213700023FB7513E0FA7D13465B0013445B004E4A13443B613B691A683B699B889BB219461046FFF758FEFB7D0133FB75FB7D94
:40070000062BE8D90023FB751CE0FA7D13469B0013445B00424A1344FB60FB681B68BB60FB685B687B60FB681A7A5B7A1B0213437B807B881A467968B868FFF743FEFB7D8E
:400740000133FB75FB7D002BDFD036494FF09040FFF74EFE04213448FFF726FE042233493348FFF72FFE334B334A1A60334B324A1A60334A324B1B78DBB243F00203DBB2F0
:400780001370304A2F4B1B78DBB243F00203DBB213702D4A2C4B1B78DBB243F04003DBB213702A4A294B1B78DBB243F01003DBB21370082226492748FFF704FE08222649CF
:4007C0002648FFF7FFFD0A2225492648FFF7FAFD082225492548FFF7F5FD0A2224492548FFF7F0FD082224492448FFF7EBFD244A234B1B78DBB243F00803DBB21370FFF7AD
:40080000E7FE0E2210491F48FFF7DCFD00BF1837BD4680BD00480040E8460040384D0000644D0000B000004800760040C40F004808760040D802014004040084D80A014049
:400840000350014013500140A0430040C24300408C0F004802510040940F0048C25100409C0F0048F0510040A80F004812510040B00F004820510040BC0F00483251004080
:4008800022430040B043004080B500AF03F0E0FD03461B680C2B00D1FEE7FEE780B584B000AF78600F4B1A687B6813441A460E4BD31A802B09DC0B4B1B68FB60094B1A68C8
:4008C0007B681344074A136007E003F0C1FD02460C2313604FF0FF33FB60FB6818461037BD4680BD1481FF1F1084FF1F80B586B000AF224B7B61224B3B61204B7B6135E037
:400900003B691B68FB603B695B68BB603B699B683B6000237B600CE0FB681A68BB681A60BB680433BB60FB680433FB607B6804337B607A683B689A42EED13B69DB683B6004
:4009400000237B6008E0BB6800221A60BB680433BB607B6804337B607A683B689A42F2D13B6910333B617B69013B7B617B69002BC6D103F073FDFFF7ABFBFEE7010000003A
:400980007C4F000080B582B000AF194B194A1A60194A194B1B6843F40073136000237B600FE07B68032B04D8144A7B6852F8233000E0134B13497A6841F822307B680133D8
:4009C0007B607B682F2BECD90F4B1B78DAB20F4B1A700F4B0B4A1A60FFF766FE01F070FF0C4B00221A6000BF0837BD4680BD00BF0CED00E00004FA0514ED00E0000000002D
:400A0000890800000080FF1FBC760040C480FF1F08ED00E0C080FF1F80B582B000AF03460A46FB711346BB71094B1B78002B04D100F010F8064B01221A70BA79FB79114605
:400A4000184600F0D9F800BF0837BD4680BD00BFF281FF1F80B582B000AF02F0F1FD0346FB71544A534B1B78DBB243F00103DBB21370514A504B1B78DBB243F00103DBB261
:400A800013704E4B01221A704D4B02221A704D4A4C4B1B78DBB203F07F03DBB21370002001F06AFF484A484B1B78DBB223F00603DBB21370454A454B1B78DBB223F02003F4
:400AC000DBB21370404A404B1B78DBB243F00103DBB21370012001F04FFF282001F04CFF3B4A3B4B1B78DBB203F07F03DBB21370374A374B1B78DBB223F04003DBB213704D
:400B0000314A314B1B78DBB243F00203DBB21370022001F031FF2C4A2B4B1B78DBB243F00403DBB213702B4B00221A702A4B00221A70FB79184602F087FD0721172001F0E2
:400B400057FF2649172001F02BFF0721182001F04FFF2349182001F023FF0721152001F047FF2049152001F01BFF0721012001F03FFF1D49012001F013FF0721022001F08E
:400B800037FF1A49022001F00BFF0721032001F02FFF1749032001F003FF07210C2001F027FF14490C2001F0FBFE00BF0837BD4680BD00BFA5430040B54300409D60004027
:400BC00009600040106000409443004012600040F8510040846000408560004011180000F9100000051800001D17000065170000B11700001D18000080B582B000AF0346A6
:400C00000A46FB711346BB712E4AFB7913702E4B00221A702D4B00221A702D4B00221A702C4B00221A702C4B00221A702B4B00221A702B4B00221A702A4B4FF400021A60D9
:400C4000284B4FF080721A60264B4FF400121A60244B02221A60234B04221A60214B08221A60BB79002B02D0012B09D011E01E4A1D4B1B78DBB223F00103DBB2137011E0BC
:400C8000194A194B1B78DBB243F00103DBB2137008E0154A144B1B78DBB243F00103DBB2137000BF114B03221A70114B80221A70012002F0BDFC0F4B04221A7000BF0837D3
:400CC000BD4680BD4983FF1F4C83FF1F6883FF1F6B83FF1F6083FF1F6A83FF1F6D83FF1F4883FF1F00E100E00960004028600040086000401260004080B400AF0F4B0022DA
:400D00001A700F4B00221A700E4B00221A700E4B00221A700D4B00221A700D4B00221A700C4B00221A700C4B03221A700B4B80221A7000BFBD4680BC704700BF4C83FF1F25
:400D40006883FF1F6B83FF1F6083FF1F6A83FF1F6D83FF1F4883FF1F286000400860004080B483B000AF0346FB71FA79064913465B0013449B000B4401331B78DBB21846B7
:400D80000C37BD4680BC70477083FF1FB0B485B000AF03463960FB711346BB80FB79002B6DD0FB79082B6AD8B988FA79364813465B0013449B00034406331B889BB2C3F5FA
:400DC000007399420CD9FA792F4913465B0013449B000B4406331B889BB2C3F50073BB802A4CF979BB881B0A9BB2D8B2FA79264D13465B0013449B002B4403331B78DBB2D9
:400E00000343DAB20B0123441A70204AFB79B988C9B21B01134401330A461A703B68002B13D00023FB810CE01948FB79FA8939680A4412781B01034408331A70FB890133DB
:400E4000FB81FA89BB889A42EED3FA790E4913465B0013449B000B44013300221A700B48F979FA79084C13465B0013449B00234405331B78DAB20B01034402331A7000BF33
:400E80001437BD46B0BC70477083FF1FFC5F00407060004080B582B000AF0023FB71314B1B79DBB2184600F067F80346BB712D4B1B78DBB25BB2002B15DA2A4B5B78DBB20D
:400EC000212B00D048E0284B07221A80BA791346DB009B1A254A1344234A536000F086FA0346FB7138E01F4B5B78DBB2202B02D0222B1AD030E01C4B07221A80BA79134655
:400F0000DB009B1A194A1344174A5360BB79BA7917498A5CD2B242F00102D1B2144AD15400F0E2FA0346FB7116E0BB790D4A9278D2B291B20F4A22F81310BB79BA790C49C2
:400F40008A5CD2B242F00202D1B2094AD15400F069FB0346FB7100BFFB7918460837BD4680BD00BF006000405483FF1F1881FF1F3083FF1F4483FF1F80B485B000AF03469B
:400F8000FB710023FB73FF23BB7317E0FB7B104AD35C7B737A7B0F4913465B0013449B000B440A331B78DBB2FA799A4203D1FB7BBB730223FB73FB7B0133FB73FB7B012B4D
:400FC000E4D9BB7B18461437BD4680BC704700BF3883FF1F7083FF1F80B584B000AF78600B467B80144B1B781A46144B9B5CFB73FA7B134913465B0013449B000B44083363
:401000001B889BB27A889A420CD9FA7B0C4913465B0013449B000B4408331B887B80002001F07CFC7A88FB7B79681846FFF7AEFE00BF1037BD4680BDF381FF1F3483FF1FD6
:401040007083FF1F80B500AF054B1B781A46054B9B5CDBB21846FFF783FE0346184680BDF381FF1F3483FF1F80B485B000AF78600B46FB701346BB707B68DB7803F00303E5
:40108000FB737B689B785BB2002B1ADAFB7B032B0AD0BB7803F001031449FA78CA54BB7843F00103BB701BE0BB789B08DBB203F001030F49FA78CA54BB7843F00403BB70A1
:4010C0000EE0FB7B032B0BD0BB785B08DBB203F001030849FA78CA54BB7843F00203BB70BB7818461437BD4680BC70473483FF1F3883FF1F3C83FF1F80B582B000AF374BFD
:401100001B78BB71BB7903F01003002B62D00123FB7197F90630002B12DABB7903F00F03012B02D00023FB711CE000F061F82C4B1B78DBB25BB2002B14DA0023FB7111E0A4
:40114000BB7903F04003002B02D000F095F809E0BB7903F02003002B02D000F0B3F801E00023FB71FB79002B34D01C4B1B78BB7197F90630002B2DDB1A4B1B78DAB21A4BA5
:401180001B78DBB21343BB71184ABB791370174B1B78DBB2BA799A421CD1114B1B78FB710E4B1B78DBB223F07F03BB71BB79002B0AD10A4B0A4A1278D2B21A70074B1B7801
:4011C000DBB203F00F03FB71054B1B78DBB2FA799A42E2D100BF0837BD4680BD286000406983FF1FDE83FF1F6C83FF1F2960004080B582B000AF1D4B1B78FB711B4AFB79C4
:4012000013701A4B1B78FB7197F90730002B03DA174AFB79137025E0022000F045FA154B1B78DBB203F06003202B08D0402B0BD0002B0ED100F0F8FA0346FB710CE002F08C
:4012400007FA0346FB7107E001F000FB0346FB7102E00023FB7100BFFB79002B02D1044B03221A7000BF0837BD4680BD286000406983FF1F0060004080B500AF104B1B780E
:40128000DBB2062B19D801A252F823F0BB120000BB120000A9120000BB120000AF120000BB120000B512000000F0F8F806E000F0A7F903E000F0D2F900E000BF00BF80BD79
:4012C0004C83FF1F80B500AF124B1B78DBB2062B1DD801A252F823F00F1300000F130000F51200000F130000FB1200000F1300000113000000F0D8F80AE000F027F907E029
:40130000032000F0D1F9044B03221A7000E000BF00BF80BD4C83FF1F6983FF1F80B483B000AF0023FB71294B1B78DBB29AB2284B1B889BB213449AB2254B1A8015E0254948
:40134000FB79254A52681278D2B2CA54224B5B680133214A5360FB790133FB711E4B1B889BB2013B9AB21C4B1A801B4B1B889BB2002B02D0FB79072BE1D9144B1B78DBB2FA
:40138000082B02D0FB79002B0FD0144B1B78DBB283F07F03DB43DAB2104B1A70104B0F221A70104B02221A7005E00D4B02221A700C4B02221A700C4AFB791370034AFB798A
:4013C000137000BF0C37BD4680BC70474883FF1F4A83FF1F006000405483FF1FDE83FF1F6983FF1F4C83FF1F6C83FF1F80B582B000AF164B1B889BB2002B02D100F02EF80B
:401400001EE0134B02221A70124B00221A7000F06BF9114BDB79DBB29BB21B029AB20E4B9B79DBB29BB21343FB80084B1B889BB2FA889A4202D2054AFB881380FFF76EFFFD
:40144000012318460837BD4680BD00BF5483FF1F4C83FF1FDE83FF1F0060004080B400AF094B02221A70094B80221A70084B0F221A70084B00221A70074B00221A70012317
:401480001846BD4680BC70474C83FF1FDE83FF1F6983FF1F4883FF1F6C83FF1F80B500AFFFF73CFF00BF80BD80B500AF0A4B1B78DBB29AB2094B1B889BB213449AB2074B7D
:4014C0001A80074B00221A70012000F0EDF8054B03221A7000BF80BD4883FF1F4A83FF1F4C83FF1F6983FF1F80B582B000AF124B04221A70114B80221A7000F0F5F8104BB5
:40150000DB79DBB29BB21B029AB20D4B9B79DBB29BB21343FB800B4B1B889BB2FA889A4202D2084AFB881380074B0B221A70012318460837BD4680BD4C83FF1FDE83FF1FA7
:40154000006000405483FF1F6983FF1F80B483B000AF0023BB71234B1B78DBB203F00F03DBB2023BFB71FB799AB21F4B1B889BB213449AB21C4B1A8018E01C4B5B681C4959
:40158000BA798A5CD2B21A70184B5B680133174A5360BB790133BB71FB79013BFB71134B1B889BB2013B9AB2104B1A800F4B1B889BB2002B02D0FB79002BDED10D4AFB79BB
:4015C00013700D4B1B78DBB283F07F03DB43DAB2094B1A70094B0B221A7000BF0C37BD4680BC7047296000404A83FF1F5483FF1F006000406C83FF1FDE83FF1F6983FF1F91
:4016000080B500AF054B00221A70012000F04CF8034B03221A7000BF80BD00BF4C83FF1F6983FF1F80B400AF084B06221A70084B06221A70074B80221A70074B00221A705D
:4016400001231846BD4680BC704700BF4C83FF1F6983FF1FDE83FF1F6C83FF1F80B500AF0D4B1B78DBB2002B0AD00C4A0A4B1B78DBB263F07F03DBB21370074B00221A70A1
:40168000074B00221A70012000F00EF8054B03221A7000BF80BD00BF6A83FF1F086000404C83FF1F6983FF1F80B483B000AF0346FB710B4B9B68002B0CD0094B9B68FA79BC
:4016C0001A70074B9B68074A128892B25A80044B00229A6000BF0C37BD4680BC704700BF5483FF1F4A83FF1F80B400AF094B00221A80094B9B68002B07D0074B9B6800223D
:401700001A70054B9B6800225A8000BFBD4680BC704700BF4A83FF1F5483FF1F80B400AF0D4B01221A700D4B9B7C0D4B1B7BDBB203F00303012B08D0094BDB7BDBB283F003
:401740007F03DB43DAB2064BDA73054B01225A7300BFBD4680BC70470B600040FC5F00407083FF1F80B400AF0E4B02221A700E4B93F822300D4B1B7EDBB203F00303012B90
:4017800008D00A4BDB7EDBB283F07F03DB43DAB2064BDA76054B01225A7600BFBD4680BC704700BF0B600040FC5F00407083FF1F80B400AF104B04221A70104B93F8323092
:4017C0000F4B93F82430DBB203F00303012B0AD00B4B93F82730DBB283F07F03DB43DAB2074B83F82720064B012283F8252000BFBD4680BC704700BF0B600040FC5F0040BE
:401800007083FF1F80B400AF00BFBD4680BC704780B500AFFFF770FA00BF80BD80B500AF01F03EF800BF80BD80B586B000AF0023FB759D4B1B78FB7100233B619B4B00225D
:401840001A8097F90730002B80F20481964B5B78DBB20A2B00F21B8201A252F823F000BFAB1900008F1C00008F1C00008F1C00008F1C00008F1C00008D1800008F1C0000B6
:401880001F1A00008F1C0000351A0000864BDB78DBB2012B0ED100F049FEB860BB685B68824A5360814B12221A80FFF79FFD0346FB75EEE17C4BDB78DBB2022B25D17A4B42
:4018C0009B78DBB2184600F009FEB860BB68002B00F0DF81BB685B68744A5360734B5B6803331B78DBB29BB21B029AB26F4B5B6802331B78DBB29BB213439AB26B4B1A8048
:40190000FFF774FD0346FB75C3E1674BDB78DBB2032B45D10023FB73654B3B6109E03B691B78BB71BB793A6913443B61FB7B0133FB735D4B9B78DBB2FA7B9A4204D23B69EF
:401940001B78DBB2002BEAD1574B9B78DBB2EE2B01D1584B3B61544B9B78DBB2002B0BD0514B9B78DAB2544B1B7C9A4204D1534800F0ACF9514B3B613B691B78DBB2002B37
:4019800000F087813B691B78DBB29AB2474B1A80464A3B695360FFF729FD0346FB7578E101F056FE0346FB7573E1FB7903F00303002B20D0022B00D030E03C4B02221A80B2
:4019C000394B1B79DBB203F07F023D4913465B0013449B000B4402331B78DAB2394B1A70384B00225A70314B364A5A60FFF7FEFC0346FB7512E02D4B02221A80324B1B78EB
:401A0000DAB2304B1A702F4B00225A70274B2D4A5A60FFF7EBFC0346FB7500BF40E1234B01221A80214B294A5A60FFF7DFFC0346FB7535E11D4B01221A801B4B1B79DBB286
:401A40001A46234B1344194A5360FFF7CFFC0346FB7525E1144B5B78DBB2013B0A2B00F21A8101A252F823F0731B0000971C0000011C0000971C0000951A0000971C00007B
:401A8000971C0000971C0000D91A0000971C00002F1B0000044B9B78DAB20E4B1A70FFF7C1FD0346FB75FBE0006000405483FF1FDC4D0000E44E0000844D0000E483FF1F71
:401AC0007083FF1FF481FF1F6D83FF1F6B83FF1FDC83FF1F6A83FF1F744B9B787B717B79002B06D07B79013BDBB2184600F0F6FCB8607B79002B02D0BB68002B03D17B79D1
:401B0000002B40F0CA806A4B1B78DBB27A799A4208D0674A7B791370664B01221A70012000F0DCF9FFF77EFD0346FB75B5E000F055FE0346002B00F0B2805C4B1B793B7199
:401B40005A4B1B79DAB25C4B1A703B795B4AD35CDAB23B795A49CB5CDBB29A4204D0554B01221A7000F08CFBFFF75CFD0346FB7595E0FB7903F00303012B20D0012B0CD3CB
:401B8000022B00D03BE0494B9B78DBB2002B31D100F078FD0346FB752CE0444B9B78DBB2012B29D1474B1B78DBB223F00203DAB2444B1A70FFF736FD0346FB751CE03B4B5A
:401BC0001B79DBB2012B19D8384B9B78DBB2DB43DBB2364A1279D2B2114610463A4A125CD2B21340DAB2384B5A54FFF71BFD0346FB7503E000BF53E000BF51E000BF4FE09D
:401C0000FB7903F00303012B20D0012B0CD3022B00D03BE0254B9B78DBB2002B31D100F0BDFC0346FB752CE0204B9B78DBB2012B29D1244B1B78DBB243F00203DAB2214B5D
:401C40001A70FFF7EFFC0346FB751CE0174B1B79DBB2012B19D8154B9B78DBB2DB43DBB2124A1279D2B211461046174A125CD2B21340DAB2144B5A54FFF7D4FC0346FB7523
:401C800003E000BF0CE000BF0AE000BF08E000BF06E000BF04E000BF02E000BF00E000BFFB7D18461837BD4680BD00BF006000406B83FF1F6883FF1F6083FF1F5083FF1F34
:401CC000DC83FF1F6D83FF1FE083FF1FB0B58AB000AF7860324B07F114041D460FCD0FC42B682370002387F826307B68002B52D07B6822221A707B68013303221A7007F156
:401D00000C03184600F098FE022387F827303EE097F827307A68134497F8262007F128010A4412F81C2C1209D2B207F128010A4412F8142C1A7097F8273001337A681344AD
:401D400000221A7097F8273002337A68134497F8262007F128010A4412F81C2C02F00F0207F128010A4412F8142C1A7097F8273003337A68134400221A7097F8263001336D
:401D800087F8263097F82730043387F8273097F82730212BBCD900BF2837BD46B0BD00BF704D000090B482B000AF0123FB7180E0464AFB791B0113440C221A70FA79444946
:401DC00013465B0013449B000B4405331B78DBB2002B1CD0FA793E4913465B0013449B000B4404331B78DBB25BB2002B07DA394AFB791B01134402330C221A700EE0354A5C
:401E0000FB791B011344023308221A7006E0314AFB791B011344023380221A702B48F979FA792B4C13465B0013449B00234406331B889BB2DAB20B01034406331A70234817
:401E4000F979FA79224C13465B0013449B00234406331B889BB21B0A9BB2DAB20B01034407331A701948F979FA79194C13465B0013449B00234406331B889BB2DAB20B014B
:401E8000034404331A701148F979FA79104C13465B0013449B00234406331B889BB21B0A9BB2DAB20B01034405331A70FB790133FB71FB79082B7FF67BAF074BFF221A70E0
:401EC00000BF0837BD4690BC704700BF706000407083FF1FFC5F00400A60004080B58AB000AF0346FB7100237B84002387F8273050E097F82720B34913465B0013449B0023
:401F00000B4400221A7097F82720AE4913465B0013449B000B44023300221A7097F82720A84913465B0013449B000B44033300221A7097F82720A34913465B0013449B00FD
:401F40000B44083300221A8097F827209D4913465B0013449B000B440A3300221A7097F82720984913465B0013449B000B44013300221A7097F82720924913465B00134439
:401F80009B000B44053300221A7097F82730013387F8273097F82730082BAAD9FB79002B16D0002387F825300EE097F82530864A0021D15497F82530844A0021D15497F8DC
:401FC0002530013387F8253097F82530012BECD97F4B1B78DBB2002B00F04A810023FB767B4B1B78DBB2013BDBB2184600F076FA78617B695B683B613B6907331B7803F05E
:402000004003002B08D0734B1B78DBB243F00103DAB2704B1A7007E06E4B1B78DBB223F00103DAB26B4B1A707B6908337B617B691B7887F82730012387F82530B6E07B6917
:402040005B68FB61002387F82630A3E097F82520FB699B7803F07F039A4240F0938097F82520584913465B0013449B000B4408331B889AB2FB699B889A420CD297F825203E
:40208000FB6998884F4913465B0013449B000B44083302461A80FB691B781A464A4B9B5CDAB2FB695B789A426CD197F82520FB699878444913465B0013449B000B44043332
:4020C00002461A7097F82520FB69D8783D4913465B0013449B000B4402461A70FB69DB7803F00303FB73FB699B785BB2002B1CDA97F82520FB7B012B01D1072000E00D20FA
:40210000304913465B0013449B000B44053302461A7097F825202B4913465B0013449B000B44013301221A701BE097F82520FB7B012B01D1052000E00920224913465B0079
:4021400013449B000B44053302461A7097F825201C4913465B0013449B000B44013300221A70FB699B790A2B03D0FB699B79022B08D1FA7E97F825301946F869FEF774FF84
:402180000346FB76FB690833FB6197F82630013387F8263097F8262097F827309A42FFF455AF97F82530013387F8253097F82530082B7FF644AF7B695B68FB61002387F8DE
:4021C000253020E07083FF1FDC83FF1F5083FF1F6B83FF1F6D83FF1FFB699B7803F07F02FB691878244913465B0013449B000B440A3302461A70FB690833FB6197F82530C2
:40220000013387F8253097F8252097F827309A42E2D300F09DF90246184B1A6000237B84012387F827301DE097F82720124913465B0013449B000B4406337A8C1A8097F8F9
:4022400027200D4913465B0013449B000B4408331B889AB27B8C13447B8497F82730013387F8273097F82730082BDDD9FFF79AFD00BF2837BD4680BD7083FF1F6483FF1F85
:4022800090B585B000AF8F4B1B78DBB2002B00F015818C4B1B78DBB2013BDBB2184600F01DF978607B6808337B607B681B78FB707B685B68BB60844B1B78BB700023FB7395
:4022C000F7E0BB681B78BA789A4240F0EC80BB787E4AD35CDAB2BB685B789A4240F0E380BB689B7803F07F037B70BB68DB7803F003033B707A78764913465B0013449B0085
:402300000B44033300221A707A78BB689878704913465B0013449B000B44043302461A707A78BB68D8786A4913465B0013449B000B4402461A707A78BB6898886449134676
:402340005B0013449B000B44083302461A80BB689B785BB2002B1ADA7A783B78012B01D1072000E00D205A4913465B0013449B000B44053302461A707A78554913465B0085
:4023800013449B000B44013301221A7019E07A783B78012B01D1052000E009204C4913465B0013449B000B44053302461A707A78474913465B0013449B000B4401330022D0
:4023C0001A70444A7B781B011344023301221A70404879787A783E4C13465B0013449B00234408331B889BB21B0A9BB2DAB20B0103441A70374879787A78354C13465B00DE
:4024000013449B00234408331B889BB2DAB20B01034401331A70304879787A782C4C13465B0013449B00234406331B889BB2DAB20B01034406331A70274879787A78244C0E
:4024400013465B0013449B00234406331B889BB21B0A9BB2DAB20B01034407331A701E4879787A781A4C13465B0013449B00234406331B889BB2DAB20B01034404331A708C
:40248000154879787A78124C13465B0013449B00234406331B889BB21B0A9BB2DAB20B01034405331A70BB680833BB60FB7B0133FB73FA7BFB789A42FFF403AF00BF143731
:4024C000BD4690BD6B83FF1F6083FF1FDC83FF1F7083FF1FFC5F00407060004080B485B000AF0346FB710F4B1B78DBB20E4ADB0013445B68FB60FB681033FB60FB681B7860
:40250000FA799A4202D30023FB6005E0FB79DB00FA6813445B68FB60FB6818461437BD4680BC70474983FF1FDC4E000080B400AF054B1B78DBB2054ADB0013445B681846E3
:40254000BD4680BC704700BF4983FF1FDC4E000080B584B000AF104B1B78DBB2013BDBB21846FFF7BBFFB860BB68002B0DD0BB685B681B79FB71FB790233DB00BA68134402
:40258000BB60BB685B68FB6001E00023FB60FB6818461037BD4680BD6B83FF1F80B582B000AF0023FB71344B1B79DBB203F07F03BB71BB79002B5AD0BB79082B57D8BA79D4
:4025C000B9792E480B465B000B449B00034402331B78DBB243F00103D8B2284913465B0013449B000B44023302461A70BA79234913465B0013449B000B44033300221A705D
:40260000BA79B9791D480B465B000B449B00034401331B78DBB243F00203D8B2174913465B0013449B000B44013302461A70BA79124913465B0013449B000B4404331B7835
:40264000DBB25BB2002B07DA0D4ABB791B01134402338D221A7006E0094ABB791B011344023389221A70FEF7DDFF0346FB71FB7918460837BD4680BD006000407083FF1F76
:40268000FC5F004080B582B000AF0023FB71504B1B79DBB203F07F03BB71BB79002B00F09280BB79082B00F28E80BA79B97949480B465B000B449B00034402331B78DBB28D
:4026C00023F00103D8B2434913465B0013449B000B44023302461A70BA793E4913465B0013449B000B44033300221A703A49BB793948BA79120102441278D2B202F07F02DB
:40270000D2B21B010B441A70BA79B97931480B465B000B449B00034401331B78DBB223F00203D8B22B4913465B0013449B000B44013302461A70BA79264913465B00134453
:402740009B000B4404331B78DBB25BB2002B1BDABA79204913465B0013449B000B4401331B78DBB2012B07D11B4ABB791B01134402330C221A7022E0174ABB791B011344FF
:4027800002330D221A701AE0BA79124913465B0013449B000B4401331B78DBB2012B07D10D4ABB791B011344023308221A7006E0094ABB791B011344023309221A70FEF7B0
:4027C00031FF0346FB71FB7918460837BD4680BD006000407083FF1FFC5F004080B584B000AF0023FB73154B1B79BB73144B1B78DBB2013BDBB21846FFF770FEB860BB6847
:402800005B681B79FB71BA7BFB799A4202D9BB7B022B0ED8BB7BBA7B0A498A5CD1B20A4AD154BB7B054A9278D1B2064AD1540123FB73FB7B18461037BD4680BD0060004078
:402840006B83FF1FDC83FF1F5083FF1F80B582B000AF0023FB710F4B1B78DBB25BB2002B12DA0C4B5B78DBB2012B00D00CE00A4B0A4A5A60094B1B789AB2074B1A80FEF785
:40288000B5FD0346FB7100BFFB7918460837BD4680BD00BF006000405483FF1FF84E000080B400AF054B1B78DBB203F040039B09DBB21846BD4680BC704700BF8F45004026
:4028C00080B483B000AF134B7F221A70124B80221A707F23FB710CE0FB79DB0003F1804303F5F043FA79013AD2B21A70FB79013BFB71FB79002BEFD1FB79DB0003F1804348
:4029000003F5F04300221A7000BF0C37BD4680BC704700BF3581FF1F3481FF1F80B483B000AF0346FB7101BE00BF0C37BD4680BC704700BF80B582B000AF786008E00C4BF4
:402940001B68184600F074FE7B68A3F500437B607B68B3F5004FF2D8064B1B687A6802FB03F3184600F064FE00BF0837BD4680BD4881FF1F4081FF1F80B582B000AF03461B
:40298000FB80FB88054A127802FB03F3184600F04FFE00BF0837BD4680BD00BF4481FF1F80B584B000AF03463960FB710F4B1B68FB60FB791F2B02D90020FFF7AFFFFB7963
:4029C00003F01F0310339B00FA6813441B68BB60FB7903F01F0310339B00FA6813443A681A60BB6818461037BD4680BD08ED00E080B582B000AF03460A46FB711346BB71D4
:402A0000BB79072B02D90020FFF788FFFB791F2B02D90020FFF782FFFB7903F01F0303F1604303F56443BA795201D2B21A7000BF0837BD4680BD00BF80B483B000AF78604A
:402A4000264B1B78DBB21A467B681A60244B1B78DBB21B027A6812681A437B681A60214B1B78DBB21B047A6812681A437B681A601D4B1B78DBB21B067A6812681A437B6840
:402A80001A607B680433194A1278D2B21A60184B1B78DBB21A027B6804337968043109680A431A60134B1B78DBB21A047B6804337968043109680A431A600F4B1B78DBB212
:402AC0001A067B6804337968043109680A431A6000BF0C37BD4680BC704700BF0301004904010049EC460040020100490101004900010049050100490601004980B500AF26
:402B0000064B1B78002B04D100F00AF8034B01221A7000F063F800BF80BD00BFF681FF1F80B582B000AF284A274B1B78DBB243F00203DBB21370254B1B78DBB223F07003B1
:402B4000FB71224AFB7943F01003DBB21370204A1F4B1B78DBB223F03003DBB213701C4A1B4B1B78DBB243F03003DBB21370184A174B1B78DBB223F00F03DBB21370144A90
:402B8000134B1B78DBB243F00F03DBB21370FF2000F048F8002000F055F8002000F062F80C4A0C4B1B78DBB243F00103DBB21370094A094B1B78DBB243F00103DBB213700A
:402BC00000BF0837BD4680BD004F0040024F00400B4F0040A3430040014F004080B400AF0D4A0D4B1B78DBB243F00103DBB213700A4A0A4B1B78DBB243F00103DBB213701E
:402C0000074A074B1B78DBB243F00103DBB2137000BFBD4680BC7047A3430040B3430040004F004080B483B000AF0346FB71044BFA7992B21A8000BF0C37BD4680BC704787
:402C4000044F004080B483B000AF0346FB71044BFA7992B21A8000BF0C37BD4680BC7047064F004080B483B000AF0346FB71044AFB79137000BF0C37BD4680BC704700BF02
:402C8000034F004080B400AF094A094B1B78DBB243F01003DBB21370064A064B1B78DBB243F01003DBB2137000BFBD4680BC7047A2430040B243004080B500AF064B1B7894
:402CC000002B04D100F00AF8034B01221A7000F063F800BF80BD00BFF781FF1F80B582B000AF284A274B1B78DBB243F00203DBB21370254B1B78DBB223F07003FB71224AFB
:402D0000FB7943F01003DBB21370204A1F4B1B78DBB223F03003DBB213701C4A1B4B1B78DBB243F03003DBB21370184A174B1B78DBB223F00F03DBB21370144A134B1B78B5
:402D4000DBB243F00F03DBB21370FF2000F048F8002000F055F8002000F062F80C4A0C4B1B78DBB243F00203DBB21370094A094B1B78DBB243F00103DBB2137000BF08373A
:402D8000BD4680BD0C4F00400E4F0040174F0040A34300400D4F004080B400AF0D4A0D4B1B78DBB243F00203DBB213700A4A0A4B1B78DBB243F00203DBB21370074A074B85
:402DC0001B78DBB243F00103DBB2137000BFBD4680BC7047A3430040B34300400C4F004080B483B000AF0346FB71044BFA7992B21A8000BF0C37BD4680BC7047104F0040BE
:402E000080B483B000AF0346FB71044BFA7992B21A8000BF0C37BD4680BC7047124F004080B483B000AF0346FB71044AFB79137000BF0C37BD4680BC704700BF0F4F004029
:402E400080B400AF00BFBD4680BC704780B582B000AF0F2000F06AF800F05AF800F0F0FB0346FB71074A074B1B78DBB243F01003DBB21370FB79184600F0E6FB00BF083797
:402E8000BD4680BD9C64004080B500AF00F034F94FF4004000F05EF9064B1B78002B04D1FFF7CEFF034B01221A70FFF7CFFF00BF80BD00BFF881FF1F80B582B000AF00F009
:402EC00059F90346FB80FB88A3F500439BB2BB80B7F9043018460837BD4680BD80B584B000AF0346FB80B7F90630002B04DBFB88A3F50043FB8103E0FB88A3F50043FB81B2
:402F0000FB89184600F026F900BF1037BD4680BD80B400AF044B1B78DBB203F00F03DBB21846BD4680BC70476C64004080B483B000AF0346FB71044AFB79137000BF0C3700
:402F4000BD4680BC704700BF8C64004080B400AF00BFBD4680BC704780B582B000AF0F2000F06AF800F05AF800F06AFB0346FB71074A074B1B78DBB243F01003DBB21370D8
:402F8000FB79184600F060FB00BF0837BD4680BD9664004080B500AF00F086F94FF4004000F0B0F9064B1B78002B04D1FFF7CEFF034B01221A70FFF7CFFF00BF80BD00BFEC
:402FC000F981FF1F80B582B000AF00F0ABF90346FB80FB88A3F500439BB2BB80B7F9043018460837BD4680BD80B584B000AF0346FB80B7F90630002B04DBFB88A3F50043FA
:40300000FB8103E0FB88A3F50043FB81FB89184600F078F900BF1037BD4680BD80B400AF044B1B78DBB203F00F03DBB21846BD4680BC70476664004080B483B000AF03462D
:40304000FB71044AFB79137000BF0C37BD4680BC704700BF8664004080B582B000AF1C4B1B78DBB223F00703FB71194AFB791370174B1B78DBB223F00303FB71144AFB7965
:40308000137000F0B3F84FF4004000F08FF84FF4004000F05FF8002000F040F800F04EF84FF4004000F092F800F0CAFA0346BB71084A084B1B78DBB243F01003DBB213706F
:4030C000BB79184600F0C0FA00BF0837BD4680BD756500409364004080B400AF054A054B1B78DBB263F07F03DBB2137000BFBD4680BC70477565004080B500AF064B1B78E7
:40310000002B04D1FFF7A8FF034B01221A70FFF7E3FF00BF80BD00BFFA81FF1F80B483B000AF0346FB71044AFB79137000BF0C37BD4680BC704700BF8364004080B400AFFA
:40314000034B1B78DBB21846BD4680BC704700BF6364004080B483B000AF0346FB80044AFB88138000BF0C37BD4680BC704700BF0868004080B400AF044B1B78044B1B886B
:403180009BB21846BD4680BC704700BF046400408868004080B400AF034B1B889BB21846BD4680BC704700BF8868004080B483B000AF0346FB80044AFB88138000BF0C3733
:4031C000BD4680BC704700BF4868004080B483B000AF0346FB80044AFB88138000BF0C37BD4680BC704700BF6868004080B500AF01E0FFF7CFFFFFF7A1FF034603F0400387
:40320000002BF6D100BF80BD80B582B000AF1C4B1B78DBB223F00703FB71194AFB791370174B1B78DBB223F00303FB71144AFB79137000F0B3F84FF4004000F08FF84FF4EC
:40324000004000F05FF8002000F040F800F04EF84FF4004000F092F800F0F2F90346BB71084A084B1B78DBB243F01003DBB21370BB79184600F0E8F900BF0837BD4680BD40
:40328000756400409B64004080B400AF054A054B1B78DBB263F07F03DBB2137000BFBD4680BC70477564004080B500AF064B1B78002B04D1FFF7A8FF034B01221A70FFF70B
:4032C000E3FF00BF80BD00BFFB81FF1F80B483B000AF0346FB71044AFB79137000BF0C37BD4680BC704700BF8B64004080B400AF034B1B78DBB21846BD4680BC704700BF3D
:403300006B64004080B483B000AF0346FB80044AFB88138000BF0C37BD4680BC704700BF0E68004080B400AF044B1B78044B1B889BB21846BD4680BC704700BF0764004011
:403340008E68004080B400AF034B1B889BB21846BD4680BC704700BF8E68004080B483B000AF0346FB80044AFB88138000BF0C37BD4680BC704700BF4E68004080B483B05B
:4033800000AF0346FB80044AFB88138000BF0C37BD4680BC704700BF6E68004080B500AF01E0FFF7CFFFFFF7A1FF034603F04003002BF6D100BF80BD80B483B000AF03467E
:4033C000FB71044AFB79137000BF0C37BD4680BC704700BF7765004080B500AF224A224B1B78DBB203F00103DBB213701F4A1F4B1B78DBB223F00303DBB213701C4A1C4B7C
:403400001B78DBB223F03003DBB21370184A184B1B78DBB243F03003DBB21370144A144B1B78DBB223F00F03DBB21370104A104B1B78DBB243F00F03DBB213700D4A0D4BD0
:403440001B78DBB243F00103DBB2137040F2E73000F064F840F2E73000F072F8082000F041F800BF80BD00BF184F00401A4F0040234F0040194F004080B400AF0D4A0D4B65
:403480001B78DBB243F00403DBB213700A4A0A4B1B78DBB243F00403DBB21370074A074B1B78DBB243F00103DBB2137000BFBD4680BC7047A3430040B3430040184F0040CD
:4034C00080B500AF064B1B78002B04D1FFF784FF034B01221A70FFF7CFFF00BF80BD00BFFC81FF1F80B483B000AF0346FB71044AFB79137000BF0C37BD4680BC704700BFAF
:403500001B4F004080B400AF034B1B78DBB21846BD4680BC704700BF1B4F004080B485B000AF0346FB80FB88FB81044AFB89138000BF1437BD4680BC704700BF1C4F004029
:4035400080B483B000AF0346FB80044AFB88138000BF0C37BD4680BC704700BF1E4F004080B582B000AF786000F03CF8786800F009F8072000F018F800F028F800BF083791
:40358000BD4680BD80B485B000AF7860054B1B68FB60FB688C337A681A6000BF1437BD4680BC704708ED00E080B483B000AF0346FB71054AFB795B01DBB2137000BF0C375E
:4035C000BD4680BC704700BF13E400E080B400AF034B4FF400221A6000BFBD4680BC704700E100E080B400AF034B4FF400221A6000BFBD4680BC704780E100E080B400AFD0
:40360000094A094B1B78DBB243F02003DBB21370064A064B1B78DBB243F02003DBB2137000BFBD4680BC7047A2430040B24300400230800803D000BF01380046FCD17047D8
:40364000EFF3108072B6704780F31088704700BF80B582B000AF0023BB711B4B1B78DBB203F00303012B02D0022B04D012E0164B1B79FB7111E0144B1B79DBB203F07F025D
:40368000124913465B0013449B000B440A331B78FB7102E00023FB7100BFFB79022B0ED80B4B1A68FB7913441B78022B04D1FDF7F1FB0346BB7102E00023BB7100BFBB7916
:4036C00018460837BD4680BD006000407083FF1F6483FF1F81F0004102E000BF83F0004330B54FEA41044FEA430594EA050F08BF90EA020F1FBF54EA000C55EA020C7FEA88
:40370000645C7FEA655C00F0E2804FEA5454D4EB5555B8BF6D420CDD2C4480EA020281EA030382EA000083EA010180EA020281EA0303362D88BF30BD11F0004F4FEA013199
:403740004FF4801C4CEA113102D0404261EB410113F0004F4FEA03334CEA133302D0524263EB430394EA050F00F0A780A4F10104D5F1200E0DDB02FA0EFC22FA05F2801809
:4037800041F1000103FA0EF2801843FA05F359410EE0A5F120050EF1200E012A03FA0EFC28BF4CF0020C43FA05F3C01851EBE37101F0004507D54FF0000EDCF1000C7EEBFB
:4037C00000006EEB0101B1F5801F1BD3B1F5001F0CD349085FEA30004FEA3C0C04F101044FEA445212F5800F80F09A80BCF1004F08BF5FEA500C50F1000041EB045141EA0E
:40380000050130BD5FEA4C0C404141EB010111F4801FA4F10104E9D191F0000F04BF01460020B1FA81F308BF2033A3F10B03B3F120020CDA0C3208DD02F1140CC2F10C0215
:4038400001FA0CF021FA02F10CE002F11402D8BFC2F1200C01FA02F120FA0CFCDCBF41EA0C019040E41AA2BF01EB0451294330BD6FEA04041F3C1CDA0C340EDC04F1140443
:40388000C4F1200220FA04F001FA02F340EA030021FA04F345EA030130BDC4F10C04C4F1200220FA02F001FA04F340EA0300294630BD21FA04F0294630BD94F0000F83F43C
:4038C000801306BF81F480110134013D4EE77FEA645C18BF7FEA655C29D094EA050F08BF90EA020F05D054EA000C04BF1946104630BD91EA030F1EBF0021002030BD5FEA56
:40390000545C05D14000494128BF41F0004130BD14F580043CBF01F5801130BD01F0004545F0FE4141F470014FF0000030BD7FEA645C1ABF194610467FEA655C1CBF0B466C
:40394000024650EA013406BF52EA033591EA030F41F4002130BD00BF90F0000F04BF0021704730B54FF4806404F132044FF000054FF0000150E700BF90F0000F04BF00217A
:40398000704730B54FF4806404F1320410F0004548BF40424FF000013EE700BF42004FEAE2014FEA31014FEA02701FBF12F07F4393F07F4F81F06051704792F0000F14BF83
:4039C00093F07F4F704730B54FF4607401F0004521F0004120E700BF50EA010208BF704730B54FF000050AE050EA010208BF704730B511F0004502D5404261EB41014FF497
:403A0000806404F132045FEA915C3FF4DCAE4FF003025FEADC0C18BF03325FEADC0C18BF033202EBDC02C2F1200300FA03FC20FA02F001FA03FE40EA0E0021FA02F1144486
:403A4000C1E600BF70B54FF0FF0C4CF4E06C1CEA11541DBF1CEA135594EA0C0F95EA0C0F00F0DEF82C4481EA030621EA4C5123EA4C5350EA013518BF52EA033541F480117E
:403A800043F4801338D0A0FB02CE4FF00005E1FB02E506F00042E0FB03E54FF00006E1FB03569CF0000F18BF4EF0010EA4F1FF04B6F5007F64F5407404D25FEA4E0E6D4196
:403AC00046EB060642EAC62141EA55514FEAC52040EA5E504FEACE2EB4F1FD0C88BFBCF5E06F1ED8BEF1004F08BF5FEA500E50F1000041EB045170BD06F0004646EA0101C6
:403B000040EA020081EA0301B4EB5C04C2BFD4EB0C0541EA045170BD41F480114FF0000E013C00F3AB8014F1360FDEBF002001F0004170BDC4F10004203C35DA0C341BDCBE
:403B400004F11404C4F1200500FA05F320FA04F001FA05F240EA020001F0004221F0004110EBD37021FA04F642EB06015EEA430E08BF20EAD37070BDC4F10C04C4F12005BB
:403B800000FA04F320FA05F001FA04F240EA020001F0004110EBD37041F100015EEA430E08BF20EAD37070BDC4F1200500FA05F24EEA020E20FA04F301FA05F243EA020323
:403BC00021FA04F001F0004121FA04F220EA020000EBD3705EEA430E08BF20EAD37070BD94F0000F0FD101F00046400041EB010111F4801F08BF013CF7D041EA060195F021
:403C0000000F18BF704703F00046520043EB030313F4801F08BF013DF7D043EA0603704794EA0C0F0CEA135518BF95EA0C0F0CD050EA410618BF52EA4306D1D181EA030197
:403C400001F000414FF0000070BD50EA410606BF1046194652EA430619D094EA0C0F02D150EA013613D195EA0C0F05D152EA03361CBF104619460AD181EA030101F000418B
:403C800041F0FE4141F470014FF0000070BD41F0FE4141F4780170BD70B54FF0FF0C4CF4E06C1CEA11541DBF1CEA135594EA0C0F95EA0C0F00F0A7F8A4EB050481EA030EB1
:403CC00052EA03354FEA013100F088804FEA03334FF0805545EA131343EA12634FEA022245EA111545EA10654FEA00260EF000419D4208BF964244F1FD0404F5407402D24A
:403D00005B084FEA3202B61A65EB03055B084FEA32024FF480104FF4002CB6EB020E75EB030E22BFB61A754640EA0C005B084FEA3202B6EB020E75EB030E22BFB61A754657
:403D400040EA5C005B084FEA3202B6EB020E75EB030E22BFB61A754640EA9C005B084FEA3202B6EB020E75EB030E22BFB61A754640EADC0055EA060E18D04FEA051545EA78
:403D800016754FEA06164FEAC30343EA52734FEAC2025FEA1C1CC0D111F4801F0BD141EA00014FF000004FF0004CB6E711F4801F04BF01430020B4F1FD0C88BFBCF5E06F50
:403DC0003FF6AFAEB5EB030C04BFB6EB020C5FEA500C50F1000041EB045170BD0EF0004E4EEA113114EB5C04C2BFD4EB0C0541EA045170BD41F480114FF0000E013C90E693
:403E000045EA060E8DE60CEA135594EA0C0F08BF95EA0C0F3FF43BAF94EA0C0F0AD150EA01347FF434AF95EA0C0F7FF425AF104619462CE795EA0C0F06D152EA03353FF45D
:403E4000FDAE1046194622E750EA410618BF52EA43067FF4C5AE50EA41047FF40DAF52EA43057FF4EBAE12E74FEA4102B2F1E04324BFB3F5001CDCF1FE5C0DD901F0004CAC
:403E80004FEAC0024CEA5070B2F1004F40EB830008BF20F00100704711F0804F21D113F13872BCBF01F00040704741F480114FEA5252C2F11802C2F1200C10FA0CF320FA9D
:403EC00002F018BF40F001004FEAC1234FEAD32303FA0CFC40EA0C0023FA02F34FEA4303CCE77FEA625307D150EA01331EBF4FF0FE4040F44000704701F0004040F0FE4075
:403F000040F40000704700BF80F0004002E000BF81F0004142001FBF5FEA410392EA030F7FEA226C7FEA236C6AD04FEA1262D2EB1363C1BFD218414048404140B8BF5B4288
:403F4000192B88BF704710F0004F40F4000020F07F4018BF404211F0004F41F4000121F07F4118BF494292EA030F3FD0A2F1010241FA03FC10EB0C00C3F1200301FA03F161
:403F800000F0004302D5494260EB4000B0F5000F13D3B0F1807F06D340084FEA310102F10102FE2A51D2B1F1004F40EBC25008BF20F0010040EA03007047490040EB00007C
:403FC00010F4000FA2F10102EDD1B0FA80FCACF1080CB2EB0C0200FA0CF0AABF00EBC25052421843BCBFD0401843704792F0000F81F4000106BF80F400000132013BB5E7A5
:404000004FEA41037FEA226C18BF7FEA236C21D092EA030F04D092F0000F08BF0846704790EA010F1CBF0020704712F07F4F04D1400028BF40F00040704712F100723CBFEE
:4040400000F50000704700F0004343F0FE4040F4000070477FEA226216BF08467FEA23630146420206BF5FEA412390EA010F40F4800070474FF0000304E000BF10F00043EC
:4040800048BF40425FEA000C08BF704743F0964301464FF000001CE050EA010208BF70474FF000030AE000BF50EA010208BF704711F0004302D5404261EB41015FEA010C34
:4040C00002BF84460146002043F0B64308BFA3F18053A3F50003BCFA8CF2083AA3EBC25310DB01FA02FC634400FA02FCC2F12002BCF1004F20FA02F243EB020008BF20F057
:404100000100704702F1200201FA02FCC2F1200250EA4C0021FA02F243EB020008BF20EADC7070474FF0FF0C1CEAD0521EBF1CEAD15392EA0C0F93EA0C0F6FD01A4480EA9C
:40414000010C400218BF5FEA41211ED04FF0006343EA501043EA5111A0FB01310CF00040B1F5000F3EBF490041EAD3715B0040EA010062F17F02FD2A1DD8B3F1004F40EBBB
:40418000C25008BF20F00100704790F0000F0CF0004C08BF49024CEA502040EA51207F3AC2BFD2F1FF0340EAC250704740F400004FF00003013A5DDC12F1190FDCBF00F0A2
:4041C00000407047C2F10002410021FA02F1C2F1200200FA02FC5FEA310040F1000053EA4C0308BF20EADC70704792F0000F00F0004C02BF400010F4000F013AF9D040EADD
:404200000C0093F0000F01F0004C02BF490011F4000F013BF9D041EA0C018FE70CEAD15392EA0C0F18BF93EA0C0F0AD030F0004C18BF31F0004CD8D180EA010000F00040E4
:40424000704790F0000F17BF90F0004F084691F0000F91F0004F14D092EA0C0F01D142020FD193EA0C0F03D14B0218BF084608D180EA010000F0004040F0FE4040F4000040
:40428000704740F0FE4040F4400070474FF0FF0C1CEAD0521EBF1CEAD15392EA0C0F93EA0C0F69D0A2EB030280EA010C49024FEA402037D04FF0805343EA111143EA101328
:4042C0000CF000408B4238BF5B0042F17D024FF4000C8B4224BF5B1A40EA0C00B3EB510F24BFA3EB510340EA5C00B3EB910F24BFA3EB910340EA9C00B3EBD10F24BFA3EBC6
:40430000D10340EADC001B0118BF5FEA1C1CE0D1FD2A3FF650AF8B4240EBC25008BF20F0010070470CF0004C4CEA50207F32C2BFD2F1FF0340EAC250704740F400004FF03F
:404340000003013A37E792F0000F00F0004C02BF400010F4000F013AF9D040EA0C0093F0000F01F0004C02BF490011F4000F013BF9D041EA0C0195E70CEAD15392EA0C0F6F
:4043800008D142027FF47DAF93EA0C0F7FF470AF084676E793EA0C0F04D14B023FF44CAF08466EE730F0004C18BF31F0004CCAD130F000427FF45CAF31F000437FF43CAFF4
:4043C0005FE700BF4FEA4002B2F1FE4F0FD34FF09E03B3EB12620DD94FEA002343F0004310F0004F23FA02F018BF404270474FF00000704712F1610F01D1420205D110F0FE
:40440000004008BF6FF0004070474FF00000704742000ED2B2F1FE4F0BD34FF09E03B3EB126209D44FEA002343F0004323FA02F070474FF00000704712F1610F01D1420253
:4044400002D14FF0FF3070474FF00000704700BF014B1868704700BFAC81FF1F0E4B70B51E460E4C0025E41AA410A54204D056F8253098470135F8E700F06EFD084B094C9A
:404480001E46E41AA4100025A54204D056F8253098470135F8E770BD644F0000644F0000644F00006C4F000010B5431E0A44914204D011F8014B03F8014FF8E710BD0346BE
:4044C0000244934202D003F8011BFAE7704700000EB400B54FF402719CB0ADF814106FF00041049107914FF6FF711DAB02900690084853F8042BADF81610006802A9019330
:4045000000F06CF8029B00221A701CB05DF804EB03B07047AC81FF1F034613F8012B002AFBD1181A013870472DE9F0478E6882469E420C46914698463ED88A8912F4906F61
:404540003AD02568096902236F1A656905EB450595FBF3F57B1C43449D4238BF1D4653050FD5294600F040FB064698B13A462169FFF79AFFA38923F4906343F08003A38199
:4045800013E02A4600F08EFB064670B92169504600F0DEFA0C23CAF80030A3894FF0FF3043F04003A381BDE8F08726613E44266046466561ED1BA560464528BF46464946D6
:4045C0003246206800F0A8FAA36800209B1BA36023681E442660BDE8F08700002DE9F04F9DB003938B8980461C060D4616460DD50B695BB9402100F0F7FA2860286118B945
:404600000C23C8F80030CDE040236B610023099320238DF82930DFF89CB130238DF82A3037463C4614F8013B1BB9B7EB060910D003E0252BF9D02746F3E74B4632462946E2
:404640004046FFF771FF013000F0A780099B4B4409933B78002B00F0A08000234FF0FF3204930793059206938DF853301A930126052221784E4800F041FA671C049B38B1ED
:404680004B4A3C46801A06FA00F018430490EFE7D90644BF20228DF853201A0744BF2B228DF8532022782A2A03D0079A00210A200BE0039A111D12680391002A10DA5242F6
:4046C00043F00200079204900BE027463B780134303B092B03D800FB02320121F5E701B107923B782E2B1ED17B782A2B0AD1039B02371A1D1B680392002BB8BF4FF0FF33CF
:40470000059310E0002319460593781C0A2407463A780130303A092A03D804FB01210123F5E703B1059103223978224800F0E6F940B14023CBEB000003FA00F0049B013725
:4047400018430490397806221B487E1C8DF8281000F0D4F988B1194B33B9039B073323F007030833039314E003AB00932A46144B04A94046AFF3008007E003AB00932A46BA
:404780000F4B04A9404600F093F8B0F1FF3F824603D0099B5344099342E7AB895B0601D4099801E04FF0FF301DB0BDE8F08F00BF224F0000284F00002C4F0000000000000A
:4047C000294500002DE9F04791461F460A698B6806469342B8BF1346C9F8003091F843200C46DDF8208012B10133C9F800302368990642BFD9F800300233C9F80030256800
:4048000015F0060510D104F1190A07E00123524639463046C04701301AD00135E368D9F800209B1A9D42F1DB94F843302268003318BF012392060FD5E118302081F84300AB
:404840005A1C94F845102244023382F8431003E04FF0FF30BDE8F08704F1430239463046C0470130F4D02268D9F80050E36802F00602042A08BF5D1B2269A3680CBF25EA14
:40488000E57500259342C4BF9B1AED184FF000091A344D4509D00123224639463046C0470130D5D009F10109F3E70020BDE8F0872DE9F04317460A7E85B06E2A98460646C9
:4048C0000C460C9B01F1430E00F0AE8011D8632A22D009D8002A00F0BB80582A40F0CA8081F84520834955E0642A1ED0692A1CD0C0E0732A00F0B08009D86F2A2ED0702A7B
:4049000040F0B8800A6842F020020A603EE0752A24D0782A3AD0ADE01A6801F14205111D1960136884F84230A8E021681A6811F0800F02D0111D196008E011F0400F02F163
:404940000401196002D0B2F9003000E01368002B3CDA2D225B4284F8432037E021681A6811F0800F02D0111D196007E011F0400F02F10401196001D0138800E01368227E6B
:404980005C496F2A14BF0A2208221BE078225A4984F845202268186812F0800F00F104051D6003D1550601D5038800E00368D00744BF42F0200222601BB9226822F0200248
:4049C00022601022002084F8430001E049490A226568002DA56008DB206820F0040020602BB9002D7DD175460CE0002B79D07546B3FBF2F002FB1033CB5C05F8013D0346D7
:404A00000028F5D1082A0BD12368DA0708D5236962689A42DEBF302305F8013C05F1FF35C5EB0E0323612EE008681A6810F0800F496903D0101D1860136808E010F0400FFB
:404A400002F104001860136801D0198000E0196000232361754616E01A68111D1960156800216268284600F049F808B1401B6060636804E004F1420584F8422001232361BC
:404A8000002384F84330CDF800803B4603AA21463046FFF797FE013002D14FF0FF3026E023692A4639463046C0470130F5D023689B0710D5002504F1190907E001234A46BA
:404AC00039463046C0470130E7D00135E368039A9B1A9D42F2DBE068039B9842B8BF184605E00B7804F1420584F842308AE705B0BDE8F083334F0000444F000010B5C9B299
:404B000002449042034605D01C7801308C42F8D1184610BD002010BD884210B501EB020301D8421E0BE09842FBD28118D21AD34204D013F8014D01F8014DF8E710BD9942EB
:404B400004D011F8014B02F8014FF8E710BD000038B50546002944D051F8043C0C1F002BB8BFE41800F0D4F81E4A1368114613B96360146030E0A3420DD92268A018834274
:404B800001BF18685B681218226063600C6023E0A24203D813465A68002AF9D118681918A1420BD12168014458188242196013D110685268014419605A600DE002D90C23D6
:404BC0002B6009E021686018824201BF106852680918216062605C602846BDE8384000F098B838BD0482FF1F70B5CD1C25F0030508350C2D38BF0C25002D064601DBA942FD
:404C000002D90C23336046E000F082F8234B1C681A462146A1B10B685B1B0ED40B2B03D90B60CC18CD501EE08C420BBF63684B681360636018BF0C4615E00C464968E9E7B8
:404C4000174C23681BB9304600F052F820602946304600F04DF8431C18D0C41C24F00304A0420DD12560304600F053F804F10B00231D20F00700C31A0ED05A42E25070BDE3
:404C8000211A304600F034F80130EBD10C233360304600F03EF8002070BD00BF0482FF1F0082FF1FF8B5074615460E4621B91146BDE8F840FFF798BF1AB9FFF749FF284609
:404CC000F8BD00F027F885420ED929463846FFF78BFF044650B131462A46FFF7E5FB31463846FFF735FF01E03046F8BD2046F8BD38B5064C0023054608462360FBF7CEFD4C
:404D0000431C02D1236803B12B6038BD0884FF1F7047704751F8040C0028BEBF091851F8043CC01804387047000000002564000072706D2000000000004F004030004051AF
:404D40000040300000000140001000140140000800400140000A004C014000021050014010000000005001407C0F0048100000003031323334353637383941424344454634
:404D8000000000001201000202000008B40432F2010001028001000009024300020101C03209040000010202010305240010010424020205240600010524010001070581CB
:404DC0000308000A09040100020A000004070582024000000705030240000000040309042C0343007900700072006500730073002000530065006D00690063006F006E0045
:404E000064007500630074006F007200100355005300420055004100520054003803430044004300200043006F006D006D0075006E00690063006100740069006F006E002D
:404E4000200049006E007400650072006600610063006500260343004400430020004400610074006100200049006E0074006500720066006100630065000000020300003E
:404E800000008103080002000100820240000A000100030240000A00020A000001000000984D000003000000804E0000000000000000000000000000000000000000000082
:404EC000984E000001000000844D00000000000000000000010000009C4E000001000000C44E000012034D00530046005400310030003000010000002800000000010400EE
:404F000001000000000000000001435955534200000030303030310000000000000000004300232D302B2000686C4C006566674546470030313233343536373839414243F3
:404F4000444546003031323334353637383961626364656600000000F8B500BFF8BC08BC9E4670474D00000085090000F8B500BFF8BC08BC9E46704729000000904F00001F
:404F8000C880FF1FE80000006002000000000000000000000A000000435333303120323031360A0D000000000000000000000000000000000000000000000000000000000D
:404FC000000000000000000000000000000000000000000000000000190000001084FF1F00C2010000000800C201000000080000A12000000000020000000000807F00008E
:40500000030000000087930360EA00003C000000000030750000000000000000000000000000000000000000000000000000000000000000204F00000000000000000000B6
:40504000000000000000000000000000000000000000000000000000000000000000000000000000000000000000000000000000000000004C81FF1F000000000000000045
:4050800000000000000000000000000000000000000000000000000000000000000000000000000000000000000000000000000000000000000000000000000000000000F0
:4050C00000000000000000000000000000000000000000000000000000000000000000000000000000000000000000000000000000000000000000000000000000000000B0
:40510000000000000000000000000000000000000000000000000000000000000000000000000000000000000000000000000000000000000000000000000000000000006F
:40514000000000000000000000000000000000000000000000000000000000000000000000000000000000000000000000000000000000000000000000000000000000002F
:020000040003F7
:0200000480007A
:4000000001450040084F00400B520040015B004007640040016500405400014034010140450201404E0301405D0401403E0501404F060140520701403E0801404F0901407E
:40004000250A01403F0B0140350C01404B0D01402D0E0140340F014058140140521501405C1601405617014037180140531901402E1A0140521B0140104001401941014014
:400080000F4201400F4301400544014012450140054601400B4701401A48014010490140164C0140034D014006500140035101407E0201400A360D4016361950223625308D
:4000C0002E3600A00120083409141001110118101910601861047C402F84836F860F877288388A078B6F8C0F8B0F0040010B023E030405070820090C0A400B020D0C0E80E8
:400100000F01101011801202134F14201641171019401B801C161D081E081F01200E2320242025202640281829402A022B802C182D402E042F80301E31C03201330F34806B
:400140003510366037203A803B023F40580459045F018005810E822A83F0857F880789C58B3A8C238DA38E0C8F5C902C9196920393689B019DFE9F01A210A42AA605AA4022
:40018000AC2FB00FB210B3FFB460BF04D804D904DF010001030A05400608078009080B420E401142131415081680176018C119441A401B181C801D181E801F0121052202ED
:4001C00023D6272028402A202B1130203144320235103642374038403A083B123C413D403E083F1080408A40C0DBC21DC4FFCA0FCCBFCEFFE208E404E682009402600510D1
:400200000CCF0D040E300F0910FD110812021304149E166019041B0A1D041E0F1F08203022C9251028732D10310232FF33103501370C39083B803E043F045608580459044C
:400240005B045D905F01800182028407870A8C0790049102960899059D019E079F04A010A410A801AA02AB05AE04B108B302B410B504B60FB701B820BF54D40FD804D904CB
:40028000DB04DF0500890481060109080A010B400E810F10104011041201131014041502160819201A011B801D0820022205230824102620274129202D042F02321133805E
:4002C0003620374139043C083E083F8059405A085B125C406214668078447B02850488108C208D0490819102935099109A089B029C409E80A040A240A420A703A901AA289E
:40030000B310C09DC2BDC45FCA54CCBDCE52D61FD816DE02E20AE604E820EA04EC08EE011404220626013001320236043E404023410149FF4AFF4BFF4DA04F0150185804BD
:4003400059045A045C105F016040628064406540668068406A806C406D206E8080D18204830288018A048D1C907C9114932894D1960897429A029B019D02A13CA21DA50C04
:40038000A730A928AB14ACADAD30AE10AF0CB0E0B13CB21DB302B403B501B740B802BF04C023C101C543C6C0C72EC83BC9FFCAFFCBFFCDAFCE07CF01D018D280D804D904AB
:4003C000DA04DB04DF01E040E280E440E540E680E840EA80EC40ED20EE8006880A200E6410A0174119401A201B011E681F04250826802748280829082A012D022E882F0486
:40040000320135103684370139083BA43C023E40401042034334460247144C804D0456145702740190109108920195049620981099109B019D449E14A020A743A840AB1288
:40044000B001B708C050C274C49CCAF7CCF1CE9ED07EE604E80100FE0194020103600CA30DCF0E5C0F30107F1A011B0F1C0E1DFD1EF01F0220962130226823C924C5263A21
:40048000299E2B602D7334FF35FF3E103F10540F580459045B045F018102871189068D398F069111993F9D04A50EA731A90FAB30B107B308B510B720B980BB02BF04C03471
:4004C000C105C9FFCAFFCBFFCDA0CF01D018D602D712D804D904DA04DB04DC21DD20DF01E040E280E440E540E680E840EA80EC40ED20EE80010804C0050207400A020BA069
:400500000C010E480F021002129013041440162017011E042214234127042B182C402E602F043090310233103620374039893B503C403D023E803F02410843024A015A083E
:400540005C045D225F80695470807120731082408340850889218A018B808C048E409240930C960697A0981099109B499C089D0E9E81A109A204A760A901AA08B508B640FF
:40058000C094C2DDC43DCAB6CC3DCE9FD003D208D6F2E206E60BEE0109040C011C011F0120022104260227022D0430023301340135043702382039203E013F1040234106FE
:4005C000453C4640472E483B49FF4AFF4BFF4DAF4E074F01501854185604580459045A045B045D205F016040628064406540668068406A806C406D206E808B019F02A601C1
:40060000B102B201B301D608D804D904DB04DC11DD90DF01010802020380058008440C010D010F021001110412081610170119081E482010210522082719280429082B8096
:400640002D812F2232473680391A3E20460447084D214F065618572258805D0262806602670A831084408540860487128840890190209114928294109542964097149824B4
:400680009A249C419D889E0A9F04A080A380A508A701AB08B504B624C08DC285C437CAD7CC1BCE27D060D220D688D8B8E220E623EC505602573A580459045B0C5C115D100B
:4006C0005F01800883028402860188018A028E0C90019202930197049E10A001A202A810B004B203B302B410B501B608B704BA08BE50D40FD804D904DB04DF050010010879
:400700000380058507080A020E800F02104517111D051E0A1F0826402718280529082B8030403201370938103F025B045E4A5F10610866086704688A69146A806B4071D0ED
:4007400079407D088202902092029410950698249B019C409D589F40A380A40AA580AB20B110B640C0FEC291C45BCA0FCCC9CE84D6F2D862DE48E880EC4009010D011101DE
:400780001D012301270129013301540F580459045B045C115F018140820483808428850889108A088B208C208F0190219180934095209610971099019A019D049E02A024C3
:4007C000A304A420A708A822AB02AD02AE20B3FFB420B61FB880BB20BE40BF04D804D904DC21DF010040010802060340045005080640081009880B400C410F8010451210A4
:40080000140418021BE0200821082420284429482C042D082F80301A3110334034403602381039063A543B403C103F40404041015C025D105E405F088320840488048C40EB
:400840008E10908092229340945298269B099C409D589F20A780AA20AB10AC08B080B340B640C0FFC29FC44FCAEFCC9FCE3FD6F0E010E222E610E820EC8006030A030C0147
:400880000E0210031B011C03220328032F023001310132023302580459045C115F0182018401850C8A018B018C01900193209401971099069C01A10CA90AB110B301B50E76
:4008C000B601B720B920D608D804D904DB04DC01DD90DF010050010804520508064008400B400C440D040F40100412401AA01E0121052201234024802628271929482B8073
:400900002F4830403110340136283850390A3E203F085C885F20642166206D106F0283048601880289108B0AC0F7C2B9C40ACAABCCECCE6FD670D870E020E6820010047C7A
:400940000682083C0AC10EC310CF1230140818FF1C042020260C28302C042E08307032B0343F3A28401341024206440445C047E0482249FF4AFF4BFF4C624DA04EF04F4114
:40098000500C580459045A045C125D025F016640670269106A306B106D106E106F128308860888A18A0E8F1590409283941C96A399339B0C9D039E1C9F04A280A533A7041D
:4009C000A8A1A92AAA16AB04B080B20FB30FB41AB660B730B880B980BA28BB08BE01BF40D280D804D904DB04DC22DF0100040181030805100620080A0A040B010E110F80AC
:400A0000108213141440172018041B1A1D111E111F242420272129082A112E082F2432813440372038403BA03E013FC0400241464204431048404A08530176408010820A8F
:400A40008440858488408A188B428C408D0191899202933596119782980899089A319B109E4A9F21A082A102A280A340A718AD20B625C06FC2BFC45FCA67CC39CE9CD00F00
:400A8000D204E006E210E401E604EA40EC08EE02010103F2042006180A010DC00F241040120614381604170818201B071C121D841E201F1021B7220123402401281829C137
:400AC0002A222B122C282D77303E31F032403401350F39083E143F044004464049FF4A074BFF4C404D204EF04F055008580459045A045C025D025F01604061A86240632093
:400B0000831484F38501860489018C308D018EC3911493289480962297029A0C9C409E11A30CA8F3AA08AB28AC51AEA2B0F0B10EB301B40FB530BA20BF01D608D804D90474
:400B4000DB04DC22DD90DF01010403020510072008080A080B010C200E5110021110164A170819011A081B021D041E401F202106230424C02624280829012C012D022F041E
:400B80003002320434403620370439543B013C403D0247015420562057405AA060086301680283018B108E1091D5928293189480950897A09841991A9A119B1C9D24A080B2
:400BC000A101A280A502A621A738A808AA80AB02B402B611B701C065C2F7C4F3CAB5CC73CE9FD080D60CD80CE280E4A4E640EA04EC01EE8C01010201040805080A100E02A5
:400C00001108140217081A101E01201023032504260429043010310232013304340835013606370839083E153F44520353025804590C5B045C195D105F0189028B049106A9
:400C4000950699069F01A306A504A702AF06B102B301B504D401D804D904DB0CDC11DD10DF010010010803800402054006180A020D400E2810111310142017011C801D407E
:400C80001F64210222042314258926102708280129082B802E042F48309032053604370138103D023E0859806D406F0E79407F028001810286048A118B208D0190309180CA
:400CC000920295409608970A982199089B019D209F04A080A204A380A440A548A610A880A908AB08AE10B542B608C0FEC2E1C437CAEBCCCFCEC4D608DE18E001E2E2E4A04C
:400D0000E640E840EC10EEC01D0137013F40580459045C115F0185018902930295029E01A302A502A601A902AD02B001B501B702BE01BF10C026C101C5E0C6B0C7CEC83A2F
:400D4000C9FFCAFFCBFFCEF0CF44D00CD401D604D804D904DA04DB04DC11DD22DF01E6C0EA40EB020010010802400380041005180640070108010A020B100C110E050F10E1
:400D8000101016101F01224024042540280129182B802E242F82301032813303340135083A203B103C103F0847504D21540157245C245D81650183708610882189208A05F0
:400DC0008D808E408F809010920293109702980199089C109D01A280A380A540AD80AE80AF04B180B308B410B520B608C0FEC2FDC424CAFFCCCDCE64D030D220D6F0D88091
:400E0000E020E2D0E4E0E81210401680314032023404364039443E80864087088A08C430CCF0CE70E210E640000804083310354058015F0864088008860295449B089C04BD
:400E40009D40A208A404A602AC40B004C030CC30D6C0D880E240E620EC1051088140900895449C059D489E049F10A208A908AA04D420E620E880EC201B011D0884018504D5
:400E8000900895049C059D489E049F10A208A508C630E240E640740187408801DE04E00101200A20238052205C1085028D028E2090109740B410C002C208C802D404D6043A
:400EC000E00AE8089220974099229B80A5020A010B400D02812087109220974099229B80A502C20E020405082310660269406D407202890A8B108F109D089E049F10A108BB
:400F0000A208A301A804AD40B004C060C840D880DAC0DC20EC80EE1052086302660875028E089902A208A301AF01B540B602D420D640D880DE20EC101F10370859025C0194
:400F40005F206501800187808B088E109220972099029B80B201C601CC01D607D801E202E401EE01AF20B501EC02100711011A071B011C061D0100AB013F100A07010000D9
:400F80000000000001010700070107010300000000E0E000001C1C001C0000004000060000000000C0000000000B0B0000B4B4000800140A0A00080101000000007B7B004D
:400FC00038000000000100000000000000000000000000000000000000000000000000000000000000000000000000000000000000000000000000000000000000000000B8
:4010000000000000000000000000000000000000000000000000000000000000000000000000000000000000000000000000000000000000000000000000000000000000B0
:401040000000000000000000000000000000000000000000000000000000000000000000000000000000000000000000000000000000000000000000000000000000000070
:401080000000000000000000000000000000000000000000000000000000000000000000000000000000000000000000000000000000000000000000000000000000000030
:4010C00000000000000000000000000000000000000000000000000000000000000000000000000000000000000000000000000000000000000000000000000000000000F0
:0200000490006A
:0400000000004005B7
:0200000490105A
:04000000BC90ACAF55
:0200000490303A
:0200000020B12D
:0200000490402A
:4000000000000000000000000000000000000000000000000000000000000000000000000000000000000000000000000000000000000000000000000000000000000000C0
:400040000000000000000000000000000000000000000000000000000000000000000000000000000000000000000000000000000000000000000000000000000000000080
:400080000000000000000000000000000000000000000000000000000000000000000000000000000000000000000000000000000000000000000000000000000000000040
:4000C0000000000000000000000000000000000000000000000000000000000000000000000000000000000000000000000000000000000000000000000000000000000000
:0200000490501A
:0C00000000012E16106900012E39311A83
:00000001FF