:400000000080002011000000C51D0000C51D000080B500AF024A034B1B68136001F004FFBC760040FA46004010B5054C237833B9044B13B10448AFF300800123237010BD4F
:400040009086FF1F00000000585A0000084B10B51BB108490848AFF300800848036803B910BD074B002BFBD0BDE81040184700BF000000009486FF1F585A0000C880FF1F04
:40008000000000000000000090B583B000AF324B01221A6003F04AFE03461A462F4B1A602F4B1B68002B0FD02D4B1B68072B0BD02B4B1B680A2B07D0294B1B68032B03D01B
:4000C000274B1B68042B34D1244B1B68002B30D0224B1B68002BB8BF5B42184604F022FE19A3D3E9002304F083FE03460C461846214617A3D3E9002304F07AFE03460C4609
:40010000184621464FF00002164B04F09BFF03460C461846214605F07DF803467B60124B1B687968184605F0CBF803461A460E4B1A60002003F00CFE03F0E0FD04F084F82C
:4001400000BF0C37BD4690BD182D4454FB2109400000000000205040D086FF1FCC86FF1F1081FF1F00806C40C886FF1F80B400AF034B01221A7000BFBD4680BC704700BFBE
:40018000BE86FF1F80B400AF034B01221A7000BFBD4680BC704700BFBF86FF1F80B400AF034B01221A7000BFBD4680BC704700BFC086FF1F80B400AF034B01221A7000BFD5
:4001C000BD4680BC704700BFC186FF1F80B500AF0A4B1B68052B05D1094B1B680133084A136002E0064B00221A6000F02FFC00F083F804F055F900BF80BD00BF1081FF1F52
:40020000D886FF1F80B500AF62B600F075F800F069FC1A4804F046F8194804F06FF9194804F0BAF9184804F005FA184804F050FA174804F09BFA04F011F9164801F014F908
:4002400000F074F80121002001F03CFA002003F057FF114B1B68012B08D10F4B00221A600E4B1B689BB2184600F01CF80C4B1B78012BEED10A4B00221A70EAE789000000BB
:40028000CD0100006D010000850100009D010000B50100002881FF1FD086FF1FCC86FF1FBC86FF1F90B585B000AF0346FB80FB88184604F037FD4FF000020D4B04F0C2FEDA
:4002C00003460C461846214604F0A4FF0346FB600849F86805F0FCF80346184605F0BEFA03467B81B7F90A3018461437BD4690BD00804C400000704180B400AF074B002239
:400300001A70074B00221A70064B00221A70064B00221A7000BFBD4680BC7047BE86FF1FBF86FF1FC086FF1FC186FF1F80B483B000AFAB4B1A78AB4B1A70AB4B1B781A46F1
:40034000AA4B1B781846AA491346DB0013445B001344034451F82330092B03D105237B607B6822E29F4B1B78032B00F2148201A252F823F0850300008504000085050000C4
:4003800099060000984B1B785A1E984B1B78184697491346DB0013445B001344034451F82330082B10D0904B1B785A1E8F4B1B7818468F491346DB0013445B0013440344BC
:4003C00051F82330092B0BD1854B00221A7000237B60854B1B78013BDAB2834B1A7050E0814B1B781A46814B1B78591E80481346DB0013445B0013440B4450F82330082B6D
:4004000010D0794B1B781A46784B1B78591E78481346DB0013445B0013440B4450F82330092B05D16E4B02221A7009237B6028E06D4B1B781A466D4B1B78591C6C48134679
:40044000DB0013445B0013440B4450F82330082B11D0654B1B781A46644B1B78591C64481346DB0013445B0013440B4450F82330092B40F092815A4B03221A7008237B609C
:400480008BE18AE1584B1B785A1C584B1B78184657491346DB0013445B001344034451F82330082B10D0504B1B785A1C4F4B1B7818464F491346DB0013445B001344034407
:4004C00051F82330092B0BD1454B01221A7000237B60454B1B780133DAB2434B1A7050E0414B1B781A46414B1B78591E40481346DB0013445B0013440B4450F82330082BF3
:4005000010D0394B1B781A46384B1B78591E38481346DB0013445B0013440B4450F82330092B05D12E4B02221A7008237B6028E02D4B1B781A462D4B1B78591C2C48134639
:40054000DB0013445B0013440B4450F82330082B11D0254B1B781A46244B1B78591C24481346DB0013445B0013440B4450F82330092B40F014811A4B03221A7009237B6018
:400580000DE10CE1184B1B781A46184B1B78591E17481346DB0013445B0013440B4450F82330082B10D0104B1B781A460F4B1B78591E0F481346DB0013445B0013440B446F
:4005C00050F82330092B15D1054B02221A7000237B60064B1B78013BDAB2044B1A705AE01881FF1F1981FF1F2481FF1F2581FF1F2881FF1F6F4B1B785A1E6F4B1B7818465E
:400600006E491346DB0013445B001344034451F82330082B10D0674B1B785A1E664B1B78184666491346DB0013445B001344034451F82330092B05D1614B00221A70082315
:400640007B6028E05B4B1B785A1C5B4B1B7818465A491346DB0013445B001344034451F82330082B11D0534B1B785A1C524B1B78184652491346DB0013445B001344034426
:4006800051F82330092B40F08C804D4B01221A7009237B6085E084E0464B1B781A46464B1B78591C45481346DB0013445B0013440B4450F82330082B10D03E4B1B781A46B9
:4006C0003D4B1B78591C3D481346DB0013445B0013440B4450F82330092B0BD1384B03221A7000237B60344B1B780133DAB2324B1A704FE02F4B1B785A1E2F4B1B78184686
:400700002E491346DB0013445B001344034451F82330082B10D0274B1B785A1E264B1B78184626491346DB0013445B001344034451F82330092B05D1214B00221A70092353
:400740007B6027E01B4B1B785A1C1B4B1B7818461A491346DB0013445B001344034451F82330082B10D0134B1B785A1C124B1B78184612491346DB0013445B0013440344A7
:4007800051F82330092B0ED10D4B01221A7008237B6008E007E000BF06E000BF04E000BF02E000BF00E000BF7B6818460C37BD4680BC70472481FF1F2581FF1F2881FF1FA1
:4007C0001881FF1F80B582B000AF8E4B1B78002B03D08C4B1B78012B03D18B4B1B687B6002E08A4B1B687B6005233B60884B1B78012B0ED1FFF79AFD3860864B4FF00002A4
:400800001A60854A3B681360814B00221A703B6814E1804B1B687968184605F00BF80346002B0BD0FFF782FD38607A4B4FF000021A60794A3B6813603B68FFE0764B1B6849
:40084000052B0AD1754B1B68322B04D805233B60714A3B6813603B68F0E06F4B1B680A2B0ED16F4B1B78002B03D16E4B1B78002B06D000233B60684A3B6813603B68DDE01A
:40088000654B1B68082B11D1664B1B78002B06D101233B60604A3B6813603B68CEE008233B605D4A3B6813603B68C7E05A4B1B68092B11D15A4B1B78002B06D102233B60D5
:4008C000554A3B6813603B68B8E009233B60524A3B6813603B68B1E04F4B1B68012B24D1514B1B78002B0AD0504B1B78002B06D001233B60484A3B6813603B689EE04A4B9D
:400900001B78002B03D0494B1B78002B0DD105233B60404B4FF000021A603F4A3B6813603B4B01221A703B6888E03B4B1B68022B24D13D4B1B78002B0AD03C4B1B78002B80
:4009400006D002233B60344A3B6813603B6875E0354B1B78002B03D0344B1B78002B0DD105233B602B4B4FF000021A602A4A3B681360274B01221A703B685FE0264B1B68B6
:40098000002B07D0244B1B68032B03D0224B1B68042B15D1254B1B78002B06D003233B601D4A3B6813603B6848E01F4B1B78002B06D004233B60184A3B6813603B683DE038
:4009C000174B1B78002B12D0164B1B78002B0ED0154B1B78002B0AD1144B1B78002B06D100233B600C4A3B6813603B6826E00A4B1B68062B1CD100233B60074A3B6813601D
:400A00003B681BE01881FF1F2081FF1F1C81FF1FDC86FF1FC886FF1F1481FF1FD886FF1FBE86FF1FBF86FF1FC086FF1FC186FF1F044B1B68044A1360034B1B68184608373D
:400A4000BD4680BD1081FF1F1481FF1F80B500AFFFF7B8FE0246224B1A60214B1B680B2B3CD801A252F823F0990A00009F0A0000A50A0000B10A0000AB0A0000B70A0000B0
:400A8000DB0A0000BD0A0000D50A0000CF0A0000C30A0000C90A000000F0C8FD1EE000F0AFFD1BE000F096FD18E000F00FFD15E000F04EFD12E000F0FDFC0FE000F0B6FDD4
:400AC0000CE000F0B3FD09E000F0F0FD06E000F0ADFD03E000F0AAFD00E000BF00BF80BD1081FF1F80B500AF02F0AAFF02F0E2FE4FF6FF7002F074FF02F0BCFF4FF6FF7095
:400B000003F04EF803F0A0F803F0F8F803F07AFB03F016FC00BF80BD80B485B000AFF860B9607A603B60FB68002B17DBFA687B689A4213DABB68002B10DBBA683B689A423F
:400B40000CDAFB684C2202FB03F3BA691344BA6853F82230002B01D1012300E0002303F00103DBB218461437BD4680BC704700BF82B090B5ADF5B65D81B002AF07F118046A
:400B80000C3C206007F11800143880E8060007F5B65202F10C021360002307F5B55202F1140213603AE0002307F5B55202F11002136021E007F58F5101F1100107F5B553ED
:400BC00003F114031A681346DB0013445B00134407F5B55202F1100212681344012241F8232007F5B55303F110031B68013307F5B55202F11002136007F5B55303F110036B
:400C00001B68122BD6DD07F5B55303F114031B68013307F5B55202F11402136007F5B55303F114031B680E2BBDDD002307F5B55202F10C021360002307F5B55202F10802DA
:400C400013603AE0002307F5B55202F10402136021E007F13802183A07F5B55303F1080319680B46DB000B445B000B4407F5B55101F1040109680B444FF47A7142F82310D3
:400C800007F5B55303F104031B68013307F5B55202F10402136007F5B55303F104031B68122BD6DD07F5B55303F108031B68013307F5B55202F10802136007F5B55303F178
:400CC00008031B680E2BBDDD002307F5B552136007F11803143B196807F11803143B586807F13802183A0B46DB000B445B000B440344002142F8231007F5B5531B680133BC
:400D000007F5B552136007F59362043A07F5B55303F10C0319680B465B000B449B001A4407F11803143B93E8030082E8030007F59362043A07F5B55303F10C0319680B463D
:400D40005B000B449B001344083300221A6007F5B55303F10C031B68013307F5B55202F10C021360E9E1002307F5B45202F11C021360012307F5B45202F11802136034E09E
:400D800007F59362043A07F5B45303F1180319680B465B000B449B0013440833186807F59362043A07F5B45303F11C0319680B465B000B449B00134408331B68984209DA9B
:400DC00007F5B45303F118031B6807F5B45202F11C02136007F5B45303F118031B68013307F5B45202F11802136007F5B45303F118031A6807F5B55303F10C031B689A4293
:400E0000BEDB07F11801043907F59362043A07F5B45303F11C03186803465B0003449B001A440B4607CA83E8070007F5B55303F10C031B68591E07F59362043A07F5B4535B
:400E400003F11C03186803465B0003449B00D01807F59362043A0B465B000B449B001A44034607CA83E8070007F5B55303F10C031B68013B07F5B55202F10C02136007F18D
:400E80001803043B1B6807F5B452136007F11803043B5B6807F5B35202F11C02136007F58F5101F1100107F5B4531A681346DB0013445B00134407F5B35202F11C02126819
:400EC000134451F82330012B40F0378107F58F5101F1100107F5B4531A681346DB0013445B00134407F5B35202F11C0212681344002241F8232007F5B65303F10C031A683F
:400F000007F5B4531B689A420CD107F5B65303F110031A6807F5B35303F11C031B689A4200F01481002307F5B45202F114021360FBE0C94A07F5B45303F114031B6852F881
:400F4000332007F5B4531B68134407F5B35202F118021360C04A07F5B45303F114031B68DB0013445A6807F5B35303F11C031B68134407F5B35202F11402136007F11803B2
:400F80000C3B1B68009313230F2207F5B35101F11401096807F5B35000F118000068FFF7BBFD0346002B00F0B58007F58F5101F1100107F5B35303F118031A681346DB0098
:400FC00013445B00134407F5B35202F114021268134451F82330012B40F09C8007F13802183A07F5B45319680B46DB000B445B000B4407F5B35101F11C0109680B4452F8B3
:401000002330013307F5B35202F11002136007F13802183A07F5B35303F1180319680B46DB000B445B000B4407F5B35101F1140109680B4452F8232007F5B35303F1100318
:401040001B689A4266DD07F13802183A07F5B35303F1180319680B46DB000B445B000B4407F5B35101F1140109680B4407F5B35101F11001096842F8231007F59362043ABC
:4010800007F5B55303F10C0319680B465B000B449B00134407F5B35202F1180212681A6007F59362043A07F5B55303F10C0319680B465B000B449B001344043307F5B352DD
:4010C00002F1140212681A6007F59362043A07F5B55303F10C0319680B465B000B449B001344083307F5B35202F1100212681A6007F5B5531B68013307F5B552136007F5ED
:40110000B55303F10C031B68013307F5B55202F10C02136007F5B45303F114031B68013307F5B45202F11402136007F5B45303F114031B68032B7FF6FCAE07F5B55303F15D
:401140000C031B68002B3FF70EAE00E000BF07F5B65303F10C03196807F5B65303F11003186807F13802183A0B46DB000B445B000B44034452F8233007F5B45202F1100278
:40118000136007F5B45303F110031B68DB00184604F0D6FB034607F5B35202F10C02136007F5B65303F10C031B6807F5B45202F10C02136007F5B65303F110031B6807F5E7
:4011C000B45202F10802136007F5B45303F110031B6803F10053013BDB0007F5B35202F10C021268134407F5B45202F10C0212681A6007F5B45303F110031B6803F10053F0
:40120000013BDB0007F5B35202F10C021268134407F5B45202F1080212685A6007F5B45303F10C031B684C2202FB03F207F118030C3B1B68134407F5B45202F108021268FB
:40124000092143F82210FCE0002307F5B45202F104021360EDE000BFCC85FF1F814A07F5B45303F104031B6852F8332007F5B45303F10C031B68134407F5B35202F10802A8
:401280001360784A07F5B45303F104031B68DB0013445A6807F5B45303F108031B68134407F5B35202F10402136007F118030C3B1B68009313230F2207F5B35101F104016D
:4012C000096807F5B35000F108000068FFF724FC0346002B00F0A28007F13802183A07F5B35303F1080319680B46DB000B445B000B4407F5B35101F1040109680B4452F855
:40130000232007F5B45303F110031B68013B9A4240F0848007F5B35303F108031B684C2202FB03F207F118030C3B1B68134407F5B35202F104021268082143F8221007F573
:40134000B45303F110031B68013B07F5B45202F11002136007F5B35303F108031B6807F5B45202F10C02136007F5B35303F104031B6807F5B45202F10802136007F5B45337
:4013800003F110031B68DB0007F5B35202F10C021268134407F5B45202F10C0212681A6007F5B45303F110031B68DB0007F5B35202F10C021268134407F5B45202F10802C4
:4013C00012685A6007F11803143B1A6807F5B45303F10C031B689A4220D107F11803143B5A6807F5B45303F108031B689A4215D107F5B45303F10C031B684C2202FB03F22B
:4014000007F118030C3B1B68134407F5B45202F108021268022143F8221012E007F5B45303F104031B68013307F5B45202F10402136007F5B45303F104031B68032B7FF636
:401440000DAF07F5B45303F110031B68002B3FF7FBAE00BF07F5B5571C37BD46BDE8904002B07047CC85FF1F80B588B002AF78600E4A07F1100392E8030083E803000C4A15
:4014800007F1080392E8030083E80300FB680093BB6807F1100206CA7868FFF769FB7B6807221A6000BF1837BD4680BD5C5A0000645A000080B500AF4FF4004002F0A0FAD6
:4014C0004FF4004002F07CFB00BF80BD80B582B000AF1A4B1A681A4B1B681946104603F0EFFE03467B601749786803F0F1FF03461549184603F0E4FE0346184604F0D4F901
:4015000003467B801149786803F0E2FF034619460D4803F0D3FE0346184604F0C5F903463B807B88184602F06BFA3B88184602F047FB00BF0837BD4680BD00BFF085FF1F9E
:40154000EC85FF1F0098194600FEFF4600C8CC4580B582B000AF1A4B1A681A4B1B681946104603F0ADFE03467B601749786803F0AFFF03461549184603F0A2FE034618464D
:4015800004F092F903467B801149786803F0A0FF034619460D4803F091FE0346184604F083F903463B807B88184602F029FA3B88184602F005FB00BF0837BD4680BD00BF7C
:4015C000F085FF1FEC85FF1F00C8CC4500FEFF460098194680B582B000AF46F26663FB8046F26663BB80FB88184602F009FABB88184602F0E5FA00BF0837BD4680BD00BFA3
:4016000080B582B000AF49F69813FB8049F69813BB80FB88184602F0F3F9BB88184602F0CFFA00BF0837BD4680BD00BF80B582B000AF1A4B1A681A4B1B681946104603F065
:401640003FFE03467B601749786803F041FF03461549184603F034FE0346184604F024F903467B800F49786803F032FF034619460D4803F023FE0346184604F015F9034611
:401680003B807B88184602F0BBF93B88184602F097FA00BF0837BD4680BD00BFF085FF1FEC85FF1F0098194600FEFF4680B500AF45F6991002F0A4F94AF2666002F080FAA6
:4016C00000BF80BD80B582B000AF03460A46FB711346BB71094B1B78002B04D100F010F8064B01221A70BA79FB791146184600F0D9F800BF0837BD4680BD00BFDD86FF1FD6
:4017000080B582B000AF03F087F80346FB71544A534B1B78DBB243F00103DBB21370514A504B1B78DBB243F00103DBB213704E4B01221A704D4B02221A704D4A4C4B1B78DF
:40174000DBB203F07F03DBB21370002001F0F0FF484A484B1B78DBB223F00603DBB21370454A454B1B78DBB223F02003DBB21370404A404B1B78DBB243F00103DBB21370E5
:40178000012001F0D5FF282001F0D2FF3B4A3B4B1B78DBB203F07F03DBB21370374A374B1B78DBB223F04003DBB21370314A314B1B78DBB243F00203DBB21370022001F08E
:4017C000B7FF2C4A2B4B1B78DBB243F00403DBB213702B4B00221A702A4B00221A70FB79184603F01DF80721172001F0DDFF2649172001F0B1FF0721182001F0D5FF2349BC
:40180000182001F0A9FF0721152001F0CDFF2049152001F0A1FF0721042001F0C5FF1D49042001F099FF0721052001F0BDFF1A49052001F091FF0721062001F0B5FF174924
:40184000062001F089FF07210C2001F0ADFF14490C2001F081FF00BF0837BD4680BD00BFA5430040B54300409D60004009600040106000409443004012600040F851004099
:40188000846000408560004069260000511F00005D26000075250000BD250000092600007526000080B582B000AF03460A46FB711346BB712E4AFB7913702E4B00221A70E3
:4018C0002D4B00221A702D4B00221A702C4B00221A702C4B00221A702B4B00221A702B4B00221A702A4B4FF400021A60284B4FF080721A60264B4FF400121A60244B1022E3
:401900001A60234B20221A60214B40221A60BB79002B02D0012B09D011E01E4A1D4B1B78DBB223F00103DBB2137011E0194A194B1B78DBB243F00103DBB2137008E0154A17
:40194000144B1B78DBB243F00103DBB2137000BF114B03221A70114B80221A70012002F053FF0F4B04221A7000BF0837BD4680BDF586FF1FF886FF1F1487FF1F1787FF1FF8
:401980000C87FF1F1687FF1F1987FF1FF486FF1F00E100E00960004028600040086000401260004080B400AF0F4B00221A700F4B00221A700E4B00221A700E4B00221A70E0
:4019C0000D4B00221A700D4B00221A700C4B00221A700C4B03221A700B4B80221A7000BFBD4680BC704700BFF886FF1F1487FF1F1787FF1F0C87FF1F1687FF1F1987FF1FA5
:401A0000F486FF1F286000400860004080B582B000AF786039603A680021786803F0A3FF00BF0837BD4680BD80B584B000AFF860B9607A607A68B968F86803F089FF00BFA1
:401A40001037BD4680BD00BF80B483B000AF0346FB71FEE780B487B000AF7860396000233B6100237B6127E07B699B007A6813441B68BB60BB68FB73BB6823F0FF03BB60E6
:401A800014E03B695B003A6813441B781A46BB68134419463B695B003A6813445B780B703B6901333B61FB7B013BFB73FB7B002BE7D17B6901337B617B69272BD4D900BFA5
:401AC0001C37BD4680BC704780B582B000AF3D4B00221A803C4B1B221A703C4B00221A803B4B19221A703B4B04221A803A4B18221A703A4B81221A80394B18221A70394B4A
:401B00004EF65F221A80384B18221A70374B06221A70374B52221A70364B374A1278D2B21A70364B40F619121A80354B41F251221A800023FB7019237B6014E0FB785B000E
:401B4000DAB2304B1B78DBB203F00103DBB21343DBB203F00303FB704FF4F07002F054FE7B68013B7B607B68002B02D0FB78032BE4D17B68002B02D10320FFF765FF224B91
:401B80004FF480721A80204B07221A701F4B00221A701F4B48221A701B4B00221A701D4B00221A701C4B02221A701C4A1B4B1B78DBB243F01F03DBB2137000BF0837BD4637
:401BC00080BD00BF80400040824000408440004086400040884000408A4000408C4000408E40004090400040924000400043004000420040A14600400F0100492242004066
:401C000020420040254200400440004006400040084000400940004001400040A243004080B483B000AF0B4B1B78FB710A4AFB7903F00703DBB21370084AFB791B09DBB2E3
:401C40001370074B44221A7000BF0C37BD4680BC704700BFCF0100496E5800406F5800407658004080B582B000AF72B63F4B61221A70FFF729FF3D4B01221A703C4A3C4B7F
:401C80001B78DBB243F00403DBB213700023FB7113E0FA7913465B0013445B00354A13443B603B681A683B689B889BB219461046FFF7ACFEFB790133FB71FB79062BE8D9E7
:401CC0002D494FF09040FFF7C5FE2C4A2B4B1B78DBB243F00203DBB21370294A284B1B78DBB243F00203DBB21370264A254B1B78DBB243F04003DBB21370234A224B1B7811
:401D0000DBB243F01003DBB2137008221F492048FFF78AFE08221F491F48FFF785FE0A221E491F48FFF780FE08221E491E48FFF77BFE0A221D491E48FFF776FE08221D4910
:401D40001D48FFF771FE1D4A1C4B1B78DBB243F00803DBB21370FFF763FF0E2209491848FFF762FE00BF0837BD4680BD00480040E84600406C5A0000A00000480350014057
:401D800013500140A0430040C2430040400D004802510040480D0048C2510040500D0048F05100405C0D004812510040640D004820510040700D00483251004022430040EE
:401DC000B043004080B500AF03F08EFD03461B680C2B00D1FEE7FEE780B584B000AF78600F4B1A687B6813441A460E4BD31A802B09DC0B4B1B68FB60094B1A687B68134430
:401E0000074A136007E003F06FFD02460C2313604FF0FF33FB60FB6818461037BD4680BDF885FF1FD087FF1F80B586B000AF224B7B61224B3B61204B7B6135E03B691B689B
:401E4000FB603B695B68BB603B699B683B6000237B600CE0FB681A68BB681A60BB680433BB60FB680433FB607B6804337B607A683B689A42EED13B69DB683B6000237B60D8
:401E800008E0BB6800221A60BB680433BB607B6804337B607A683B689A42F2D13B6910333B617B69013B7B617B69002BC6D103F021FDFEF7A7F9FEE701000000705C000070
:401EC00080B582B000AF184B184A1A60184A184B1B6843F40073136000237B600FE07B68032B04D8134A7B6852F8233000E0124B12497A6841F822307B6801337B607B6897
:401F00002F2BECD90E4B1B78DAB20E4B1A700E4B0A4A1A60FFF7A6FE0C4B00221A6000BF0837BD4680BD00BF0CED00E00004FA0514ED00E000000000C51D00000080FF1F39
:401F4000BC760040C480FF1F08ED00E0C080FF1F80B582B000AF374B1B78BB71BB7903F01003002B62D00123FB7197F90630002B12DABB7903F00F03012B02D00023FB7139
:401F80001CE000F061F82C4B1B78DBB25BB2002B14DA0023FB7111E0BB7903F04003002B02D000F095F809E0BB7903F02003002B02D000F0B3F801E00023FB71FB79002BE1
:401FC00034D01C4B1B78BB7197F90630002B2DDB1A4B1B78DAB21A4B1B78DBB21343BB71184ABB791370174B1B78DBB2BA799A421CD1114B1B78FB710E4B1B78DBB223F0B5
:402000007F03BB71BB79002B0AD10A4B0A4A1278D2B21A70074B1B78DBB203F00F03FB71054B1B78DBB2FA799A42E2D100BF0837BD4680BD286000401587FF1F8A87FF1F33
:402040001887FF1F2960004080B582B000AF1D4B1B78FB711B4AFB7913701A4B1B78FB7197F90730002B03DA174AFB79137025E0022000F045FA154B1B78DBB203F060034A
:40208000202B08D0402B0BD0002B0ED100F0F8FA0346FB710CE002F0B1FC0346FB7107E001F000FB0346FB7102E00023FB7100BFFB79002B02D1044B03221A7000BF0837B0
:4020C000BD4680BD286000401587FF1F0060004080B500AF104B1B78DBB2062B19D801A252F823F01321000013210000012100001321000007210000132100000D210000B5
:4021000000F0F8F806E000F0A7F903E000F0D2F900E000BF00BF80BDF886FF1F80B500AF124B1B78DBB2062B1DD801A252F823F067210000672100004D21000067210000E7
:4021400053210000672100005921000000F0D8F80AE000F027F907E0032000F0D1F9044B03221A7000E000BF00BF80BDF886FF1F1587FF1F80B483B000AF0023FB71294B63
:402180001B78DBB29AB2284B1B889BB213449AB2254B1A8015E02549FB79254A52681278D2B2CA54224B5B680133214A5360FB790133FB711E4B1B889BB2013B9AB21C4B99
:4021C0001A801B4B1B889BB2002B02D0FB79072BE1D9144B1B78DBB2082B02D0FB79002B0FD0144B1B78DBB283F07F03DB43DAB2104B1A70104B0F221A70104B02221A706E
:4022000005E00D4B02221A700C4B02221A700C4AFB791370034AFB79137000BF0C37BD4680BC7047F486FF1FF686FF1F006000400087FF1F8A87FF1F1587FF1FF886FF1F29
:402240001887FF1F80B582B000AF164B1B889BB2002B02D100F02EF81EE0134B02221A70124B00221A7000F06BF9114BDB79DBB29BB21B029AB20E4B9B79DBB29BB213432F
:40228000FB80084B1B889BB2FA889A4202D2054AFB881380FFF76EFF012318460837BD4680BD00BF0087FF1FF886FF1F8A87FF1F0060004080B400AF094B02221A70094B5D
:4022C00080221A70084B0F221A70084B00221A70074B00221A7001231846BD4680BC7047F886FF1F8A87FF1F1587FF1FF486FF1F1887FF1F80B500AFFFF73CFF00BF80BD44
:4023000080B500AF0A4B1B78DBB29AB2094B1B889BB213449AB2074B1A80074B00221A70012000F0EDF8054B03221A7000BF80BDF486FF1FF686FF1FF886FF1F1587FF1FAE
:4023400080B582B000AF124B04221A70114B80221A7000F0F5F8104BDB79DBB29BB21B029AB20D4B9B79DBB29BB21343FB800B4B1B889BB2FA889A4202D2084AFB881380EC
:40238000074B0B221A70012318460837BD4680BDF886FF1F8A87FF1F006000400087FF1F1587FF1F80B483B000AF0023BB71234B1B78DBB203F00F03DBB2023BFB71FB79A7
:4023C0009AB21F4B1B889BB213449AB21C4B1A8018E01C4B5B681C49BA798A5CD2B21A70184B5B680133174A5360BB790133BB71FB79013BFB71134B1B889BB2013B9AB2F1
:40240000104B1A800F4B1B889BB2002B02D0FB79002BDED10D4AFB7913700D4B1B78DBB283F07F03DB43DAB2094B1A70094B0B221A7000BF0C37BD4680BC70472960004003
:40244000F686FF1F0087FF1F006000401887FF1F8A87FF1F1587FF1F80B500AF054B00221A70012000F04CF8034B03221A7000BF80BD00BFF886FF1F1587FF1F80B400AFB1
:40248000084B06221A70084B06221A70074B80221A70074B00221A7001231846BD4680BC704700BFF886FF1F1587FF1F8A87FF1F1887FF1F80B500AF0D4B1B78DBB2002B96
:4024C0000AD00C4A0A4B1B78DBB263F07F03DBB21370074B00221A70074B00221A70012000F00EF8054B03221A7000BF80BD00BF1687FF1F08600040F886FF1F1587FF1FCC
:4025000080B483B000AF0346FB710B4B9B68002B0CD0094B9B68FA791A70074B9B68074A128892B25A80044B00229A6000BF0C37BD4680BC704700BF0087FF1FF686FF1F5D
:4025400080B400AF094B00221A80094B9B68002B07D0074B9B6800221A70054B9B6800225A8000BFBD4680BC704700BFF686FF1F0087FF1F80B400AF0D4B01221A700D4BCC
:402580009B7C0D4B1B7BDBB203F00303012B08D0094BDB7BDBB283F07F03DB43DAB2064BDA73054B01225A7300BFBD4680BC70470B600040FC5F00401C87FF1F80B400AF39
:4025C0000E4B02221A700E4B93F822300D4B1B7EDBB203F00303012B08D00A4BDB7EDBB283F07F03DB43DAB2064BDA76054B01225A7600BFBD4680BC704700BF0B60004046
:40260000FC5F00401C87FF1F80B400AF104B04221A70104B93F832300F4B93F82430DBB203F00303012B0AD00B4B93F82730DBB283F07F03DB43DAB2074B83F82720064B7A
:40264000012283F8252000BFBD4680BC704700BF0B600040FC5F00401C87FF1F80B400AF00BFBD4680BC704780B500AFFFF79AF900BF80BD80B500AF01F03EF800BF80BDF4
:4026800080B586B000AF0023FB759D4B1B78FB7100233B619B4B00221A8097F90730002B80F20481964B5B78DBB20A2B00F21B8201A252F823F000BF03280000E72A00003C
:4026C000E72A0000E72A0000E72A0000E72A0000E5260000E72A000077280000E72A00008D280000864BDB78DBB2012B0ED100F049FEB860BB685B68824A5360814B1222A5
:402700001A80FFF79FFD0346FB75EEE17C4BDB78DBB2022B25D17A4B9B78DBB2184600F009FEB860BB68002B00F0DF81BB685B68744A5360734B5B6803331B78DBB29BB230
:402740001B029AB26F4B5B6802331B78DBB29BB213439AB26B4B1A80FFF774FD0346FB75C3E1674BDB78DBB2032B45D10023FB73654B3B6109E03B691B78BB71BB793A6945
:4027800013443B61FB7B0133FB735D4B9B78DBB2FA7B9A4204D23B691B78DBB2002BEAD1574B9B78DBB2EE2B01D1584B3B61544B9B78DBB2002B0BD0514B9B78DAB2544B6A
:4027C0001B7C9A4204D1534800F0ACF9514B3B613B691B78DBB2002B00F087813B691B78DBB29AB2474B1A80464A3B695360FFF729FD0346FB7578E102F000F90346FB754D
:4028000073E1FB7903F00303002B20D0022B00D030E03C4B02221A80394B1B79DBB203F07F023D4913465B0013449B000B4402331B78DAB2394B1A70384B00225A70314B89
:40284000364A5A60FFF7FEFC0346FB7512E02D4B02221A80324B1B78DAB2304B1A702F4B00225A70274B2D4A5A60FFF7EBFC0346FB7500BF40E1234B01221A80214B294A23
:402880005A60FFF7DFFC0346FB7535E11D4B01221A801B4B1B79DBB21A46234B1344194A5360FFF7CFFC0346FB7525E1144B5B78DBB2013B0A2B00F21A8101A252F823F09A
:4028C000CB290000EF2A0000592A0000EF2A0000ED280000EF2A0000EF2A0000EF2A000031290000EF2A000087290000044B9B78DAB20E4B1A70FFF7C1FD0346FB75FBE093
:40290000006000400087FF1F045B00000C5C0000AC5A0000A887FF1F1C87FF1FE086FF1F1987FF1F1787FF1F8887FF1F1687FF1F744B9B787B717B79002B06D07B79013BAE
:40294000DBB2184600F0F6FCB8607B79002B02D0BB68002B03D17B79002B40F0CA806A4B1B78DBB27A799A4208D0674A7B791370664B01221A70012000F0DCF9FFF77EFD6D
:402980000346FB75B5E000F055FE0346002B00F0B2805C4B1B793B715A4B1B79DAB25C4B1A703B795B4AD35CDAB23B795A49CB5CDBB29A4204D0554B01221A7000F08CFB80
:4029C000FFF75CFD0346FB7595E0FB7903F00303012B20D0012B0CD3022B00D03BE0494B9B78DBB2002B31D100F078FD0346FB752CE0444B9B78DBB2012B29D1474B1B78A9
:402A0000DBB223F00203DAB2444B1A70FFF736FD0346FB751CE03B4B1B79DBB2012B19D8384B9B78DBB2DB43DBB2364A1279D2B2114610463A4A125CD2B21340DAB2384BC8
:402A40005A54FFF71BFD0346FB7503E000BF53E000BF51E000BF4FE0FB7903F00303012B20D0012B0CD3022B00D03BE0254B9B78DBB2002B31D100F0BDFC0346FB752CE0D7
:402A8000204B9B78DBB2012B29D1244B1B78DBB243F00203DAB2214B1A70FFF7EFFC0346FB751CE0174B1B79DBB2012B19D8154B9B78DBB2DB43DBB2124A1279D2B21146F9
:402AC0001046174A125CD2B21340DAB2144B5A54FFF7D4FC0346FB7503E000BF0CE000BF0AE000BF08E000BF06E000BF04E000BF02E000BF00E000BFFB7D18461837BD4675
:402B000080BD00BF006000401787FF1F1487FF1F0C87FF1FFC86FF1F8887FF1F1987FF1F8C87FF1FB0B58AB000AF7860324B07F114041D460FCD0FC42B682370002387F88A
:402B400026307B68002B52D07B6822221A707B68013303221A7007F10C03184600F048FE022387F827303EE097F827307A68134497F8262007F128010A4412F81C2C1209D4
:402B8000D2B207F128010A4412F8142C1A7097F8273001337A68134400221A7097F8273002337A68134497F8262007F128010A4412F81C2C02F00F0207F128010A4412F8E9
:402BC000142C1A7097F8273003337A68134400221A7097F82630013387F8263097F82730043387F8273097F82730212BBCD900BF2837BD46B0BD00BF985A000090B482B0AD
:402C000000AF0123FB7180E0464AFB791B0113440C221A70FA79444913465B0013449B000B4405331B78DBB2002B1CD0FA793E4913465B0013449B000B4404331B78DBB21C
:402C40005BB2002B07DA394AFB791B01134402330C221A700EE0354AFB791B011344023308221A7006E0314AFB791B011344023380221A702B48F979FA792B4C13465B007B
:402C800013449B00234406331B889BB2DAB20B01034406331A702348F979FA79224C13465B0013449B00234406331B889BB21B0A9BB2DAB20B01034407331A701948F97914
:402CC000FA79194C13465B0013449B00234406331B889BB2DAB20B01034404331A701148F979FA79104C13465B0013449B00234406331B889BB21B0A9BB2DAB20B01034405
:402D000005331A70FB790133FB71FB79082B7FF67BAF074BFF221A7000BF0837BD4690BC704700BF706000401C87FF1FFC5F00400A60004080B58AB000AF0346FB710023AB
:402D40007B84002387F8273050E097F82720B34913465B0013449B000B4400221A7097F82720AE4913465B0013449B000B44023300221A7097F82720A84913465B00134443
:402D80009B000B44033300221A7097F82720A34913465B0013449B000B44083300221A8097F827209D4913465B0013449B000B440A3300221A7097F82720984913465B0094
:402DC00013449B000B44013300221A7097F82720924913465B0013449B000B44053300221A7097F82730013387F8273097F82730082BAAD9FB79002B16D0002387F8253020
:402E00000EE097F82530864A0021D15497F82530844A0021D15497F82530013387F8253097F82530012BECD97F4B1B78DBB2002B00F04A810023FB767B4B1B78DBB2013B6B
:402E4000DBB2184600F076FA78617B695B683B613B6907331B7803F04003002B08D0734B1B78DBB243F00103DAB2704B1A7007E06E4B1B78DBB223F00103DAB26B4B1A70B8
:402E80007B6908337B617B691B7887F82730012387F82530B6E07B695B68FB61002387F82630A3E097F82520FB699B7803F07F039A4240F0938097F82520584913465B00B6
:402EC00013449B000B4408331B889AB2FB699B889A420CD297F82520FB6998884F4913465B0013449B000B44083302461A80FB691B781A464A4B9B5CDAB2FB695B789A42A2
:402F00006CD197F82520FB699878444913465B0013449B000B44043302461A7097F82520FB69D8783D4913465B0013449B000B4402461A70FB69DB7803F00303FB73FB692A
:402F40009B785BB2002B1CDA97F82520FB7B012B01D1072000E00D20304913465B0013449B000B44053302461A7097F825202B4913465B0013449B000B44013301221A70FE
:402F80001BE097F82520FB7B012B01D1052000E00920224913465B0013449B000B44053302461A7097F825201C4913465B0013449B000B44013300221A70FB699B790A2B7B
:402FC00003D0FB699B79022B08D1FA7E97F825301946F86901F0CAFC0346FB76FB690833FB6197F82630013387F8263097F8262097F827309A42FFF455AF97F82530013364
:4030000087F8253097F82530082B7FF644AF7B695B68FB61002387F8253020E01C87FF1F8887FF1FFC86FF1F1787FF1F1987FF1FFB699B7803F07F02FB6918782449134696
:403040005B0013449B000B440A3302461A70FB690833FB6197F82530013387F8253097F8252097F827309A42E2D300F09DF90246184B1A6000237B84012387F827301DE0AF
:4030800097F82720124913465B0013449B000B4406337A8C1A8097F827200D4913465B0013449B000B4408331B889AB27B8C13447B8497F82730013387F8273097F8273093
:4030C000082BDDD9FFF79AFD00BF2837BD4680BD1C87FF1F1087FF1F90B585B000AF8F4B1B78DBB2002B00F015818C4B1B78DBB2013BDBB2184600F01DF978607B68083398
:403100007B607B681B78FB707B685B68BB60844B1B78BB700023FB73F7E0BB681B78BA789A4240F0EC80BB787E4AD35CDAB2BB685B789A4240F0E380BB689B7803F07F03F7
:403140007B70BB68DB7803F003033B707A78764913465B0013449B000B44033300221A707A78BB689878704913465B0013449B000B44043302461A707A78BB68D8786A49CE
:4031800013465B0013449B000B4402461A707A78BB689888644913465B0013449B000B44083302461A80BB689B785BB2002B1ADA7A783B78012B01D1072000E00D205A4978
:4031C00013465B0013449B000B44053302461A707A78554913465B0013449B000B44013301221A7019E07A783B78012B01D1052000E009204C4913465B0013449B000B4416
:40320000053302461A707A78474913465B0013449B000B44013300221A70444A7B781B011344023301221A70404879787A783E4C13465B0013449B00234408331B889BB22A
:403240001B0A9BB2DAB20B0103441A70374879787A78354C13465B0013449B00234408331B889BB2DAB20B01034401331A70304879787A782C4C13465B0013449B002344DB
:4032800006331B889BB2DAB20B01034406331A70274879787A78244C13465B0013449B00234406331B889BB21B0A9BB2DAB20B01034407331A701E4879787A781A4C13462E
:4032C0005B0013449B00234406331B889BB2DAB20B01034404331A70154879787A78124C13465B0013449B00234406331B889BB21B0A9BB2DAB20B01034405331A70BB6847
:403300000833BB60FB7B0133FB73FA7BFB789A42FFF403AF00BF1437BD4690BD1787FF1F0C87FF1F8887FF1F1C87FF1FFC5F00407060004080B485B000AF0346FB710F4B2F
:403340001B78DBB20E4ADB0013445B68FB60FB681033FB60FB681B78FA799A4202D30023FB6005E0FB79DB00FA6813445B68FB60FB6818461437BD4680BC7047F586FF1F46
:40338000045C000080B400AF054B1B78DBB2054ADB0013445B681846BD4680BC704700BFF586FF1F045C000080B584B000AF104B1B78DBB2013BDBB21846FFF7BBFFB86088
:4033C000BB68002B0DD0BB685B681B79FB71FB790233DB00BA681344BB60BB685B68FB6001E00023FB60FB6818461037BD4680BD1787FF1F80B582B000AF0023FB71344BDC
:403400001B79DBB203F07F03BB71BB79002B5AD0BB79082B57D8BA79B9792E480B465B000B449B00034402331B78DBB243F00103D8B2284913465B0013449B000B44023342
:4034400002461A70BA79234913465B0013449B000B44033300221A70BA79B9791D480B465B000B449B00034401331B78DBB243F00203D8B2174913465B0013449B000B44F2
:40348000013302461A70BA79124913465B0013449B000B4404331B78DBB25BB2002B07DA0D4ABB791B01134402338D221A7006E0094ABB791B011344023389221A70FEF768
:4034C000DDFF0346FB71FB7918460837BD4680BD006000401C87FF1FFC5F004080B582B000AF0023FB71504B1B79DBB203F07F03BB71BB79002B00F09280BB79082B00F232
:403500008E80BA79B97949480B465B000B449B00034402331B78DBB223F00103D8B2434913465B0013449B000B44023302461A70BA793E4913465B0013449B000B44033347
:4035400000221A703A49BB793948BA79120102441278D2B202F07F02D2B21B010B441A70BA79B97931480B465B000B449B00034401331B78DBB223F00203D8B22B49134663
:403580005B0013449B000B44013302461A70BA79264913465B0013449B000B4404331B78DBB25BB2002B1BDABA79204913465B0013449B000B4401331B78DBB2012B07D165
:4035C0001B4ABB791B01134402330C221A7022E0174ABB791B01134402330D221A701AE0BA79124913465B0013449B000B4401331B78DBB2012B07D10D4ABB791B01134407
:40360000023308221A7006E0094ABB791B011344023309221A70FEF731FF0346FB71FB7918460837BD4680BD006000401C87FF1FFC5F004080B584B000AF0023FB73154BA7
:403640001B79BB73144B1B78DBB2013BDBB21846FFF770FEB860BB685B681B79FB71BA7BFB799A4202D9BB7B022B0ED8BB7BBA7B0A498A5CD1B20A4AD154BB7B054A9278A8
:40368000D1B2064AD1540123FB73FB7B18461037BD4680BD006000401787FF1F8887FF1FFC86FF1F80B582B000AF0023FB710F4B1B78DBB25BB2002B12DA0C4B5B78DBB202
:4036C000012B00D00CE00A4B0A4A5A60094B1B789AB2074B1A80FEF7B5FD0346FB7100BFFB7918460837BD4680BD00BF006000400087FF1F205C000080B400AF054B1B78AE
:40370000DBB203F040039B09DBB21846BD4680BC704700BF8F45004080B483B000AF0346FB7101BE00BF0C37BD4680BC704700BF80B582B000AF0346FB80FB88054A1278F7
:4037400002FB03F3184601F05FF800BF0837BD4680BD00BF0486FF1F80B584B000AF03463960FB710F4B1B68FB60FB791F2B02D90020FFF7D1FFFB7903F01F0310339B0087
:40378000FA6813441B68BB60FB7903F01F0310339B00FA6813443A681A60BB6818461037BD4680BD08ED00E080B582B000AF03460A46FB711346BB71BB79072B02D9002098
:4037C000FFF7AAFFFB791F2B02D90020FFF7A4FFFB7903F01F0303F1604303F56443BA795201D2B21A7000BF0837BD4680BD00BF80B483B000AF7860264B1B78DBB21A46A9
:403800007B681A60244B1B78DBB21B027A6812681A437B681A60214B1B78DBB21B047A6812681A437B681A601D4B1B78DBB21B067A6812681A437B681A607B680433194A6C
:403840001278D2B21A60184B1B78DBB21A027B6804337968043109680A431A60134B1B78DBB21A047B6804337968043109680A431A600F4B1B78DBB21A067B680433796820
:40388000043109680A431A6000BF0C37BD4680BC704700BF0301004904010049EC460040020100490101004900010049050100490601004980B500AF064B1B78002B04D18F
:4038C00000F00AF8034B01221A7000F065F800BF80BD00BFE286FF1F80B582B000AF294A284B1B78DBB243F00203DBB21370264B1B78DBB223F07003FB71234AFB7943F052
:403900001003DBB21370214A204B1B78DBB223F03003DBB213701D4A1C4B1B78DBB243F03003DBB21370194A184B1B78DBB223F00F03DBB21370154A144B1B78DBB243F088
:403940000F03DBB213704FF6FF7000F049F8002000F056F8002000F063F80D4A0C4B1B78DBB243F00103DBB213700A4A094B1B78DBB243F00103DBB2137000BF0837BD4652
:4039800080BD00BF004F0040024F00400B4F0040A3430040014F004080B400AF0D4A0D4B1B78DBB243F00103DBB213700A4A0A4B1B78DBB243F00103DBB21370074A074BEF
:4039C0001B78DBB243F00103DBB2137000BFBD4680BC7047A3430040B3430040004F004080B483B000AF0346FB80044AFB88138000BF0C37BD4680BC704700BF044F004038
:403A000080B483B000AF0346FB80044AFB88138000BF0C37BD4680BC704700BF064F004080B483B000AF0346FB71044AFB79137000BF0C37BD4680BC704700BF034F0040A3
:403A400080B400AF094A094B1B78DBB243F00203DBB21370064A064B1B78DBB243F00203DBB2137000BFBD4680BC7047A2430040B243004080B500AF064B1B78002B04D174
:403A800000F00AF8034B01221A7000F065F800BF80BD00BFE386FF1F80B582B000AF294A284B1B78DBB243F00203DBB21370264B1B78DBB223F07003FB71234AFB7943F08F
:403AC0001003DBB21370214A204B1B78DBB223F03003DBB213701D4A1C4B1B78DBB243F03003DBB21370194A184B1B78DBB223F00F03DBB21370154A144B1B78DBB243F0C7
:403B00000F03DBB213704FF6FF7000F049F8002000F056F8002000F063F80D4A0C4B1B78DBB243F00203DBB213700A4A094B1B78DBB243F00103DBB2137000BF0837BD468F
:403B400080BD00BF0C4F00400E4F0040174F0040A34300400D4F004080B400AF0D4A0D4B1B78DBB243F00203DBB213700A4A0A4B1B78DBB243F00203DBB21370074A074BFB
:403B80001B78DBB243F00103DBB2137000BFBD4680BC7047A3430040B34300400C4F004080B483B000AF0346FB80044AFB88138000BF0C37BD4680BC704700BF104F00405E
:403BC00080B483B000AF0346FB80044AFB88138000BF0C37BD4680BC704700BF124F004080B483B000AF0346FB71044AFB79137000BF0C37BD4680BC704700BF0F4F0040CA
:403C000080B400AF00BFBD4680BC704780B582B000AF0F2000F03EF800F02EF800F0FCFD0346FB71074A074B1B78DBB243F01003DBB21370FB79184600F0F2FD00BF083705
:403C4000BD4680BD9764004080B500AF00F008F94FF4004000F032F9064B1B78002B04D1FFF7CEFF034B01221A70FFF7CFFF00BF80BD00BFE486FF1F80B400AF044B1B78E8
:403C8000DBB203F00F03DBB21846BD4680BC70476764004080B483B000AF0346FB71044AFB79137000BF0C37BD4680BC704700BF8764004080B400AF00BFBD4680BC7047FC
:403CC00080B582B000AF0F2000F06AF800F05AF800F0A2FD0346FB71074A074B1B78DBB243F01003DBB21370FB79184600F098FD00BF0837BD4680BD9264004080B500AFDF
:403D000000F076F94FF4004000F0A0F9064B1B78002B04D1FFF7CEFF034B01221A70FFF7CFFF00BF80BD00BFE586FF1F80B582B000AF00F09BF90346FB80FB88A3F50043B2
:403D40009BB2BB80B7F9043018460837BD4680BD80B584B000AF0346FB80B7F90630002B04DBFB88A3F50043FB8103E0FB88A3F50043FB81FB89184600F068F900BF10375E
:403D8000BD4680BD80B400AF044B1B78DBB203F00F03DBB21846BD4680BC70476264004080B483B000AF0346FB71044AFB79137000BF0C37BD4680BC704700BF8264004098
:403DC00080B582B000AF1C4B1B78DBB223F00703FB71194AFB791370174B1B78DBB223F00303FB71144AFB79137000F0A3F84FF4004000F07FF84FF4004000F05FF8002088
:403E000000F040F800F04EF84FF4004000F082F800F002FD0346BB71084A084B1B78DBB243F01003DBB21370BB79184600F0F8FC00BF0837BD4680BD7765004095650040AE
:403E400080B400AF054A054B1B78DBB263F07F03DBB2137000BFBD4680BC70477765004080B500AF064B1B78002B04D1FFF7A8FF034B01221A70FFF7E3FF00BF80BD00BFF7
:403E8000E686FF1F80B483B000AF0346FB71044AFB79137000BF0C37BD4680BC704700BF8565004080B400AF034B1B78DBB21846BD4680BC704700BF6565004080B483B0B2
:403EC00000AF0346FB80044AFB88138000BF0C37BD4680BC704700BF086A004080B400AF034B1B889BB21846BD4680BC704700BF886A004080B483B000AF0346FB80044AF4
:403F0000FB88138000BF0C37BD4680BC704700BF486A004080B483B000AF0346FB80044AFB88138000BF0C37BD4680BC704700BF686A004080B500AF01E0FFF7CFFFFFF73C
:403F4000B1FF034603F04003002BF6D100BF80BD80B582B000AF1C4B1B78DBB223F00703FB71194AFB791370174B1B78DBB223F00303FB71144AFB79137000F0B3F84FF46A
:403F8000004000F08FF84FF4004000F05FF8002000F040F800F04EF84FF4004000F092F800F03AFC0346BB71084A084B1B78DBB243F01003DBB21370BB79184600F030FCA1
:403FC00000BF0837BD4680BD756400409164004080B400AF054A054B1B78DBB263F07F03DBB2137000BFBD4680BC70477564004080B500AF064B1B78002B04D1FFF7A8FF7B
:40400000034B01221A70FFF7E3FF00BF80BD00BFE786FF1F80B483B000AF0346FB71044AFB79137000BF0C37BD4680BC704700BF8164004080B400AF034B1B78DBB21846CC
:40404000BD4680BC704700BF6164004080B483B000AF0346FB80044AFB88138000BF0C37BD4680BC704700BF0068004080B400AF044B1B78044B1B889BB21846BD4680BC48
:40408000704700BF006400408068004080B400AF034B1B889BB21846BD4680BC704700BF8068004080B483B000AF0346FB80044AFB88138000BF0C37BD4680BC704700BF6D
:4040C0004068004080B483B000AF0346FB80044AFB88138000BF0C37BD4680BC704700BF6068004080B500AF01E0FFF7CFFFFFF7A1FF034603F04003002BF6D100BF80BD4F
:4041000080B483B000AF0346FB71044AFB79137000BF0C37BD4680BC704700BF7964004080B500AF214A214B1B78DBB203F00103DBB213701E4A1E4B1B78DBB223F00303AF
:40414000DBB213701B4A1B4B1B78DBB223F03003DBB21370174A174B1B78DBB243F03003DBB21370134A134B1B78DBB223F00F03DBB213700F4A0F4B1B78DBB243F00F036D
:40418000DBB213700C4A0C4B1B78DBB243F00103DBB21370312000F063F8312000F072F8082000F041F800BF80BD00BF184F00401A4F0040234F0040194F004080B400AFFB
:4041C0000D4A0D4B1B78DBB243F00403DBB213700A4A0A4B1B78DBB243F00403DBB21370074A074B1B78DBB243F00103DBB2137000BFBD4680BC7047A3430040B343004078
:40420000184F004080B500AF064B1B78002B04D1FFF786FF034B01221A70FFF7CFFF00BF80BD00BFE886FF1F80B483B000AF0346FB71044AFB79137000BF0C37BD4680BC3D
:40424000704700BF1B4F004080B400AF034B1B78DBB21846BD4680BC704700BF1B4F004080B485B000AF0346FB80FB88FB81044AFB89138000BF1437BD4680BC704700BF11
:404280001C4F004080B483B000AF0346FB80044AFB88138000BF0C37BD4680BC704700BF1E4F004080B582B000AF786000F03CF8786800F009F8072000F018F800F028F897
:4042C00000BF0837BD4680BD80B485B000AF7860054B1B68FB60FB688C337A681A6000BF1437BD4680BC704708ED00E080B483B000AF0346FB71054AFB795B01DBB2137015
:4043000000BF0C37BD4680BC704700BF13E400E080B400AF034B4FF400221A6000BFBD4680BC704700E100E080B400AF034B4FF400221A6000BFBD4680BC704780E100E063
:4043400080B400AF094A094B1B78DBB243F01003DBB21370064A064B1B78DBB243F01003DBB2137000BFBD4680BC7047A2430040B243004080B500AF224A224B1B78DBB23A
:4043800003F00103DBB213701F4A1F4B1B78DBB223F00303DBB213701C4A1C4B1B78DBB223F03003DBB21370184A184B1B78DBB243F03003DBB21370144A144B1B78DBB25F
:4043C00023F00F03DBB21370104A104B1B78DBB243F00F03DBB213700D4A0D4B1B78DBB243F00103DBB2137040F2C93000F064F840F2C93000F072F8082000F041F800BF3C
:4044000080BD00BF244F0040264F00402F4F0040254F004080B400AF0D4A0D4B1B78DBB243F00803DBB213700A4A0A4B1B78DBB243F00803DBB21370074A074B1B78DBB2CC
:4044400043F00103DBB2137000BFBD4680BC7047A3430040B3430040244F004080B500AF064B1B78002B04D1FFF784FF034B01221A70FFF7CFFF00BF80BD00BFE986FF1FE9
:4044800080B483B000AF0346FB71044AFB79137000BF0C37BD4680BC704700BF274F004080B400AF034B1B78DBB21846BD4680BC704700BF274F004080B485B000AF034604
:4044C000FB80FB88FB81044AFB89138000BF1437BD4680BC704700BF284F004080B483B000AF0346FB80044AFB88138000BF0C37BD4680BC704700BF2A4F004080B582B052
:4045000000AF786000F03CF8786800F009F8072000F018F800F028F800BF0837BD4680BD80B485B000AF7860054B1B68FB60FB6890337A681A6000BF1437BD4680BC7047EA
:4045400008ED00E080B483B000AF0346FB71054AFB795B01DBB2137000BF0C37BD4680BC704700BF14E400E080B400AF034B4FF480121A6000BFBD4680BC704700E100E0E7
:4045800080B400AF034B4FF480121A6000BFBD4680BC704780E100E080B582B000AF786000F03CF8786800F009F8072000F018F800F028F800BF0837BD4680BD80B485B0C4
:4045C00000AF7860054B1B68FB60FB6840337A681A6000BF1437BD4680BC704708ED00E080B483B000AF0346FB71054AFB795B01DBB2137000BF0C37BD4680BC704700BF4E
:4046000000E400E080B400AF034B01221A6000BFBD4680BC704700BF00E100E080B400AF034B01221A6000BFBD4680BC704700BF80E100E080B582B000AF786000F03CF81E
:40464000786800F009F8072000F018F800F028F800BF0837BD4680BD80B485B000AF7860054B1B68FB60FB6844337A681A6000BF1437BD4680BC704708ED00E080B483B064
:4046800000AF0346FB71054AFB795B01DBB2137000BF0C37BD4680BC704700BF01E400E080B400AF034B02221A6000BFBD4680BC704700BF00E100E080B400AF034B022292
:4046C0001A6000BFBD4680BC704700BF80E100E080B582B000AF786000F03CF8786800F009F8072000F018F800F028F800BF0837BD4680BD80B485B000AF7860054B1B6870
:40470000FB60FB6848337A681A6000BF1437BD4680BC704708ED00E080B483B000AF0346FB71054AFB795B01DBB2137000BF0C37BD4680BC704700BF02E400E080B400AFB5
:40474000034B04221A6000BFBD4680BC704700BF00E100E080B400AF034B04221A6000BFBD4680BC704700BF80E100E080B582B000AF786000F03CF8786800F009F8072086
:4047800000F018F800F028F800BF0837BD4680BD80B485B000AF7860054B1B68FB60FB684C337A681A6000BF1437BD4680BC704708ED00E080B483B000AF0346FB71054A60
:4047C000FB795B01DBB2137000BF0C37BD4680BC704700BF03E400E080B400AF034B08221A6000BFBD4680BC704700BF00E100E080B400AF034B08221A6000BFBD4680BC7E
:40480000704700BF80E100E00230800803D000BF01380046FCD17047EFF3108072B6704780F31088704700BF80B582B000AF0023FB71314B1B79DBB2184600F067F8034668
:40484000BB712D4B1B78DBB25BB2002B15DA2A4B5B78DBB2212B00D048E0284B07221A80BA791346DB009B1A254A1344234A5360FDF7E8FC0346FB7138E01F4B5B78DBB28D
:40488000202B02D0222B1AD030E01C4B07221A80BA791346DB009B1A194A1344174A5360BB79BA7917498A5CD2B242F00102D1B2144AD154FDF744FD0346FB7116E0BB7900
:4048C0000D4A9278D2B291B20F4A22F81310BB79BA790C498A5CD2B242F00202D1B2094AD154FDF7CBFD0346FB7100BFFB7918460837BD4680BD00BF006000400087FF1F1E
:404900000C86FF1F9087FF1FA487FF1F80B485B000AF0346FB710023FB73FF23BB7317E0FB7B104AD35C7B737A7B0F4913465B0013449B000B440A331B78DBB2FA799A42C9
:4049400003D1FB7BBB730223FB73FB7B0133FB73FB7B012BE4D9BB7B18461437BD4680BC704700BF9887FF1F1C87FF1F80B485B000AF78600B46FB701346BB707B68DB78BD
:4049800003F00303FB737B689B785BB2002B1ADAFB7B032B0AD0BB7803F001031449FA78CA54BB7843F00103BB701BE0BB789B08DBB203F001030F49FA78CA54BB7843F0A1
:4049C0000403BB700EE0FB7B032B0BD0BB785B08DBB203F001030849FA78CA54BB7843F00203BB70BB7818461437BD4680BC70479487FF1F9887FF1F9C87FF1F80B582B097
:404A000000AF0023BB711B4B1B78DBB203F00303012B02D0022B04D012E0164B1B79FB7111E0144B1B79DBB203F07F02124913465B0013449B000B440A331B78FB7102E054
:404A40000023FB7100BFFB79022B0ED80B4B1A68FB7913441B78022B04D1FFF7E5FE0346BB7102E00023BB7100BFBB7918460837BD4680BD006000401C87FF1F1087FF1FC4
:404A800081F0004102E000BF83F0004330B54FEA41044FEA430594EA050F08BF90EA020F1FBF54EA000C55EA020C7FEA645C7FEA655C00F0E2804FEA5454D4EB5555B8BF4A
:404AC0006D420CDD2C4480EA020281EA030382EA000083EA010180EA020281EA0303362D88BF30BD11F0004F4FEA01314FF4801C4CEA113102D0404261EB410113F0004F38
:404B00004FEA03334CEA133302D0524263EB430394EA050F00F0A780A4F10104D5F1200E0DDB02FA0EFC22FA05F2801841F1000103FA0EF2801843FA05F359410EE0A5F1A5
:404B400020050EF1200E012A03FA0EFC28BF4CF0020C43FA05F3C01851EBE37101F0004507D54FF0000EDCF1000C7EEB00006EEB0101B1F5801F1BD3B1F5001F0CD34908BF
:404B80005FEA30004FEA3C0C04F101044FEA445212F5800F80F09A80BCF1004F08BF5FEA500C50F1000041EB045141EA050130BD5FEA4C0C404141EB010111F4801FA4F141
:404BC0000104E9D191F0000F04BF01460020B1FA81F308BF2033A3F10B03B3F120020CDA0C3208DD02F1140CC2F10C0201FA0CF021FA02F10CE002F11402D8BFC2F1200C4E
:404C000001FA02F120FA0CFCDCBF41EA0C019040E41AA2BF01EB0451294330BD6FEA04041F3C1CDA0C340EDC04F11404C4F1200220FA04F001FA02F340EA030021FA04F3CB
:404C400045EA030130BDC4F10C04C4F1200220FA02F001FA04F340EA0300294630BD21FA04F0294630BD94F0000F83F4801306BF81F480110134013D4EE77FEA645C18BF76
:404C80007FEA655C29D094EA050F08BF90EA020F05D054EA000C04BF1946104630BD91EA030F1EBF0021002030BD5FEA545C05D14000494128BF41F0004130BD14F5800465
:404CC0003CBF01F5801130BD01F0004545F0FE4141F470014FF0000030BD7FEA645C1ABF194610467FEA655C1CBF0B46024650EA013406BF52EA033591EA030F41F40021E9
:404D000030BD00BF90F0000F04BF0021704730B54FF4806404F132044FF000054FF0000150E700BF90F0000F04BF0021704730B54FF4806404F1320410F0004548BF4042BD
:404D40004FF000013EE700BF42004FEAE2014FEA31014FEA02701FBF12F07F4393F07F4F81F06051704792F0000F14BF93F07F4F704730B54FF4607401F0004521F00041DF
:404D800020E700BF50EA010208BF704730B54FF000050AE050EA010208BF704730B511F0004502D5404261EB41014FF4806404F132045FEA915C3FF4DCAE4FF003025FEAC0
:404DC000DC0C18BF03325FEADC0C18BF033202EBDC02C2F1200300FA03FC20FA02F001FA03FE40EA0E0021FA02F11444C1E600BF70B54FF0FF0C4CF4E06C1CEA11541DBF9A
:404E00001CEA135594EA0C0F95EA0C0F00F0DEF82C4481EA030621EA4C5123EA4C5350EA013518BF52EA033541F4801143F4801338D0A0FB02CE4FF00005E1FB02E506F018
:404E40000042E0FB03E54FF00006E1FB03569CF0000F18BF4EF0010EA4F1FF04B6F5007F64F5407404D25FEA4E0E6D4146EB060642EAC62141EA55514FEAC52040EA5E50E5
:404E80004FEACE2EB4F1FD0C88BFBCF5E06F1ED8BEF1004F08BF5FEA500E50F1000041EB045170BD06F0004646EA010140EA020081EA0301B4EB5C04C2BFD4EB0C0541EAF3
:404EC000045170BD41F480114FF0000E013C00F3AB8014F1360FDEBF002001F0004170BDC4F10004203C35DA0C341BDC04F11404C4F1200500FA05F320FA04F001FA05F228
:404F000040EA020001F0004221F0004110EBD37021FA04F642EB06015EEA430E08BF20EAD37070BDC4F10C04C4F1200500FA04F320FA05F001FA04F240EA020001F0004171
:404F400010EBD37041F100015EEA430E08BF20EAD37070BDC4F1200500FA05F24EEA020E20FA04F301FA05F243EA020321FA04F001F0004121FA04F220EA020000EBD37012
:404F80005EEA430E08BF20EAD37070BD94F0000F0FD101F00046400041EB010111F4801F08BF013CF7D041EA060195F0000F18BF704703F00046520043EB030313F4801FD7
:404FC00008BF013DF7D043EA0603704794EA0C0F0CEA135518BF95EA0C0F0CD050EA410618BF52EA4306D1D181EA030101F000414FF0000070BD50EA410606BF104619462D
:4050000052EA430619D094EA0C0F02D150EA013613D195EA0C0F05D152EA03361CBF104619460AD181EA030101F0004141F0FE4141F470014FF0000070BD41F0FE4141F429
:40504000780170BD70B54FF0FF0C4CF4E06C1CEA11541DBF1CEA135594EA0C0F95EA0C0F00F0A7F8A4EB050481EA030E52EA03354FEA013100F088804FEA03334FF08055AA
:4050800045EA131343EA12634FEA022245EA111545EA10654FEA00260EF000419D4208BF964244F1FD0404F5407402D25B084FEA3202B61A65EB03055B084FEA32024FF4C5
:4050C00080104FF4002CB6EB020E75EB030E22BFB61A754640EA0C005B084FEA3202B6EB020E75EB030E22BFB61A754640EA5C005B084FEA3202B6EB020E75EB030E22BF36
:40510000B61A754640EA9C005B084FEA3202B6EB020E75EB030E22BFB61A754640EADC0055EA060E18D04FEA051545EA16754FEA06164FEAC30343EA52734FEAC2025FEAE6
:405140001C1CC0D111F4801F0BD141EA00014FF000004FF0004CB6E711F4801F04BF01430020B4F1FD0C88BFBCF5E06F3FF6AFAEB5EB030C04BFB6EB020C5FEA500C50F1FA
:40518000000041EB045170BD0EF0004E4EEA113114EB5C04C2BFD4EB0C0541EA045170BD41F480114FF0000E013C90E645EA060E8DE60CEA135594EA0C0F08BF95EA0C0F4A
:4051C0003FF43BAF94EA0C0F0AD150EA01347FF434AF95EA0C0F7FF425AF104619462CE795EA0C0F06D152EA03353FF4FDAE1046194622E750EA410618BF52EA43067FF4DF
:40520000C5AE50EA41047FF40DAF52EA43057FF4EBAE12E74FEA4102B2F1E04324BFB3F5001CDCF1FE5C0DD901F0004C4FEAC0024CEA5070B2F1004F40EB830008BF20F029
:405240000100704711F0804F21D113F13872BCBF01F00040704741F480114FEA5252C2F11802C2F1200C10FA0CF320FA02F018BF40F001004FEAC1234FEAD32303FA0CFCE6
:4052800040EA0C0023FA02F34FEA4303CCE77FEA625307D150EA01331EBF4FF0FE4040F44000704701F0004040F0FE4040F40000704700BF80F0004002E000BF81F000413F
:4052C00042001FBF5FEA410392EA030F7FEA226C7FEA236C6AD04FEA1262D2EB1363C1BFD218414048404140B8BF5B42192B88BF704710F0004F40F4000020F07F4018BFF7
:40530000404211F0004F41F4000121F07F4118BF494292EA030F3FD0A2F1010241FA03FC10EB0C00C3F1200301FA03F100F0004302D5494260EB4000B0F5000F13D3B0F19D
:40534000807F06D340084FEA310102F10102FE2A51D2B1F1004F40EBC25008BF20F0010040EA03007047490040EB000010F4000FA2F10102EDD1B0FA80FCACF1080CB2EB28
:405380000C0200FA0CF0AABF00EBC25052421843BCBFD0401843704792F0000F81F4000106BF80F400000132013BB5E74FEA41037FEA226C18BF7FEA236C21D092EA030FEA
:4053C00004D092F0000F08BF0846704790EA010F1CBF0020704712F07F4F04D1400028BF40F00040704712F100723CBF00F50000704700F0004343F0FE4040F400007047A2
:405400007FEA226216BF08467FEA23630146420206BF5FEA412390EA010F40F4800070474FF0000304E000BF10F0004348BF40425FEA000C08BF704743F0964301464FF065
:4054400000001CE050EA010208BF70474FF000030AE000BF50EA010208BF704711F0004302D5404261EB41015FEA010C02BF84460146002043F0B64308BFA3F18053A3F56A
:405480000003BCFA8CF2083AA3EBC25310DB01FA02FC634400FA02FCC2F12002BCF1004F20FA02F243EB020008BF20F00100704702F1200201FA02FCC2F1200250EA4C0046
:4054C00021FA02F243EB020008BF20EADC7070474FF0FF0C1CEAD0521EBF1CEAD15392EA0C0F93EA0C0F6FD01A4480EA010C400218BF5FEA41211ED04FF0006343EA5010FC
:4055000043EA5111A0FB01310CF00040B1F5000F3EBF490041EAD3715B0040EA010062F17F02FD2A1DD8B3F1004F40EBC25008BF20F00100704790F0000F0CF0004C08BF96
:4055400049024CEA502040EA51207F3AC2BFD2F1FF0340EAC250704740F400004FF00003013A5DDC12F1190FDCBF00F000407047C2F10002410021FA02F1C2F1200200FA43
:4055800002FC5FEA310040F1000053EA4C0308BF20EADC70704792F0000F00F0004C02BF400010F4000F013AF9D040EA0C0093F0000F01F0004C02BF490011F4000F013B9E
:4055C000F9D041EA0C018FE70CEAD15392EA0C0F18BF93EA0C0F0AD030F0004C18BF31F0004CD8D180EA010000F00040704790F0000F17BF90F0004F084691F0000F91F0FC
:40560000004F14D092EA0C0F01D142020FD193EA0C0F03D14B0218BF084608D180EA010000F0004040F0FE4040F40000704740F0FE4040F4400070474FF0FF0C1CEAD052F4
:405640001EBF1CEAD15392EA0C0F93EA0C0F69D0A2EB030280EA010C49024FEA402037D04FF0805343EA111143EA10130CF000408B4238BF5B0042F17D024FF4000C8B42ED
:4056800024BF5B1A40EA0C00B3EB510F24BFA3EB510340EA5C00B3EB910F24BFA3EB910340EA9C00B3EBD10F24BFA3EBD10340EADC001B0118BF5FEA1C1CE0D1FD2A3FF6C0
:4056C00050AF8B4240EBC25008BF20F0010070470CF0004C4CEA50207F32C2BFD2F1FF0340EAC250704740F400004FF00003013A37E792F0000F00F0004C02BF400010F499
:40570000000F013AF9D040EA0C0093F0000F01F0004C02BF490011F4000F013BF9D041EA0C0195E70CEAD15392EA0C0F08D142027FF47DAF93EA0C0F7FF470AF084676E738
:4057400093EA0C0F04D14B023FF44CAF08466EE730F0004C18BF31F0004CCAD130F000427FF45CAF31F000437FF43CAF5FE700BF4FF0FF3C06E000BF4FF0010C02E000BFA0
:405780004FF0010C4DF804CD4FEA40024FEA41037FEA226C18BF7FEA236C11D001B052EA530C18BF90EA010F58BFB2EB030088BFC81738BF6FEAE17018BF40F001007047FE
:4057C0007FEA226C02D15FEA402C05D17FEA236CE4D15FEA412CE1D05DF8040B704700BF844608466146FFE70FB5FFF7C9FF002848BF10F1000F0FBD4DF808EDFFF7F4FF11
:405800000CBF012000205DF808FB00BF4DF808EDFFF7EAFF34BF012000205DF808FB00BF4DF808EDFFF7E0FF94BF012000205DF808FB00BF4DF808EDFFF7D2FF94BF0120B2
:4058400000205DF808FB00BF4DF808EDFFF7C8FF34BF012000205DF808FB00BF4FEA4002B2F1FE4F0FD34FF09E03B3EB12620DD94FEA002343F0004310F0004F23FA02F05A
:4058800018BF404270474FF00000704712F1610F01D1420205D110F0004008BF6FF0004070474FF00000704742000ED2B2F1FE4F0BD34FF09E03B3EB126209D44FEA002315
:4058C00043F0004323FA02F070474FF00000704712F1610F01D1420202D14FF0FF3070474FF00000704700BF014B1868704700BF8886FF1F0E4B70B51E460E4C0025E41A73
:40590000A410A54204D056F8253098470135F8E700F09CF9084B094C1E46E41AA4100025A54204D056F8253098470135F8E770BD585C0000585C0000585C0000605C0000A2
:40594000024B0146186800F017B800BF8886FF1F10B5431E0A44914204D011F8014B03F8014FF8E710BD03460244934202D003F8011BFAE77047000070B5CD1C25F00305F2
:4059800008350C2D38BF0C25002D064601DBA94202D90C23336046E000F05CF8234B1C681A462146A1B10B685B1B0ED40B2B03D90B60CC18CD501EE08C420BBF63684B689A
:4059C0001360636018BF0C4615E00C464968E9E7174C23681BB9304600F02CF820602946304600F027F8431C18D0C41C24F00304A0420DD12560304600F02DF804F10B00AE
:405A0000231D20F00700C31A0ED05A42E25070BD211A304600F00EF80130EBD10C233360304600F018F8002070BD00BFF086FF1FEC86FF1F38B5064C0023054608462360DF
:405A4000FCF7CAF9431C02D1236803B12B6038BDCC87FF1F704770470000000001000000010000000100000009000000004F0040300040510040300000000140001000146F
:405A80000140000800400140000A004C01400002005001402000000030313233343536373839414243444546000000001201000202000008B40432F20100010280010000B0
:405AC00009024300020101C032090400000102020103052400100104240202052406000105240100010705810308000A09040100020A0000040705820240000007050302EA
:405B000040000000040309042C0343007900700072006500730073002000530065006D00690063006F006E0064007500630074006F007200100355005300420055004100E7
:405B4000520054003803430044004300200043006F006D006D0075006E00690063006100740069006F006E00200049006E00740065007200660061006300650026034300E7
:405B80004400430020004400610074006100200049006E00740065007200660061006300650000000203000000008103080002000100820240000A000100030240000A0061
:405BC000020A000001000000C05A000003000000A85B00000000000000000000000000000000000000000000C05B000001000000AC5A000000000000000000000100000055
:405C0000C45B000001000000EC5B000012034D0053004600540031003000300001000000280000000001040001000000000000000001435955534200000030303030310076
:405C4000000000000000000043000000F8B500BFF8BC08BC9E4670474D000000C11E0000F8B500BFF8BC08BC9E46704729000000805C0000C880FF1FC8050000400100003E
:405C8000000000000A000000435333303120323031360A0D0000000000000000000000000000000000000000000000000000000000000000000000000000000000000000B0
:405CC0000000000000000000050000000600000001010000000007430000A04201010000010000000100000001000000010000000100000001000000010000000100000061
:405D00000100000001000000010000000100000001000000010000000100000001000000010000000100000001000000010000000000000001000000000000000000000056
:405D40000000000000000000000000000000000000000000000000000000000000000000000000000000000000000000000000000000000001000000010000000000000021
:405D800001000000000000000100000001000000010000000100000001000000000000000100000001000000010000000000000001000000010000000100000000000000D7
:405DC000010000000100000000000000000000000000000001000000000000000000000000000000010000000000000000000000000000000000000000000000000000009F
:405E00000000000001000000000000000100000001000000010000000100000000000000010000000000000001000000000000000100000001000000010000000000000058
:405E4000010000000000000001000000010000000100000000000000010000000100000000000000000000000000000001000000000000000100000000000000000000001A
:405E800000000000010000000000000001000000000000000000000000000000000000000000000001000000010000000000000001000000010000000100000000000000DB
:405EC0000100000000000000010000000000000001000000000000000100000000000000010000000100000001000000000000000100000001000000000000000100000098
:405F0000000000000100000000000000000000000000000001000000000000000100000000000000010000000000000001000000000000000000000000000000010000005B
:405F40000100000000000000010000000000000001000000000000000100000001000000010000000000000001000000000000000100000000000000010000000000000018
:405F800001000000010000000100000001000000000000000000000000000000010000000000000001000000000000000000000000000000010000000000000000000000DA
:405FC0000000000001000000000000000000000000000000010000000100000001000000010000000000000001000000000000000100000001000000010000000100000097
:406000000100000001000000010000000100000001000000010000000100000000000000010000000100000000000000000000000000000000000000000000000000000057
:40604000000000000000000000000000000000000000000000000000000000000000000000000000000000000000000001000000010000000000000001000000010000001C
:4060800001000000010000000100000001000000010000000100000001000000010000000100000000000000010000000100000001000000010000000100000001000000D1
:4060C000000000000000000000000000000000000000000000000000000000000100000000000000000000000000000000000000000000000000000000000000000000009F
:406100000000000001000000010000000100000001000000010000000100000001000000010000000100000001000000010000000100000001000000010000000100000050
:40614000010000000100000001000000010000000100000001000000010000000100000009000000050000000500000007000000010000000D0000000500000009000000E1
:4061800009000000000000000100000000000000FFFFFFFF0100000000000000FFFFFFFF00000000CDCCCC3E3333333F19000000D087FF1F0087930360EA00003C00000030
:4061C0000000307500C2010000000800C201000000080000A120000000000200000000000000000000000000000000000000000000000000000000000000000000000000A1
:40620000485C0000000000000000000000000000000000000000000000000000000000000000000000000000000000000000000000000000000000000000000000000000BA
:406240002886FF1F00000000000000000000000000000000000000000000000000000000000000000000000000000000000000000000000000000000000000000000000052
:4062800000000000000000000000000000000000000000000000000000000000000000000000000000000000000000000000000000000000000000000000000000000000DE
:4062C000000000000000000000000000000000000000000000000000000000000000000000000000000000000000000000000000000000000000000000000000000000009E
:40630000000000000000000000000000000000000000000000000000000000000000000000000000000000000000000000000000000000000000000000000000000000005D
:40634000000000000000000000000000000000000000000000000000000000000000000000000000000000000000000000000000000000000000000000000000000000001D
:020000040003F7
:0200000480007A
:4000000001450040074F00400552004004640040036500405E0001403A010140480201403C0301404404014045050140420601403B0701404708014045090140480A0140C5
:400040003A0B0140010D0140010F01405D140140511501404F160140471701404C180140541901404A1A01404B1B0140084001400D4101401242014014430140064501404C
:4000800007460140054701401448014012490140074C0140084D01400C500140035101407E0201100A360D10161B194022362E36182819206018611C7C40816F820F870F1B
:4000C000890F856F89728A38040C0601080C0A020B020C0B0E0410081201210126102A0F2B012C073010320F350137023F104042410149FF4AFF4BFF4DA04F015018580450
:4001000059045A045C225D025F016040628064406540668068406A806C406D206E8081028F049002930499049C02A201A301A402A801A902B001B301B402B504B702B8203D
:40014000B980BE11BF10C042C101C54CC630C72EC83BC9FFCAFFCBFFCDAFCE07CF01D018D40FD804D904DA04DB04DC20DD22DF05E040E280E440E540E680E840EA80EC405A
:40018000ED20EE800018030108010F421020120A1340150116201710181019011C041D201E802240230824082540271029012A202D012E203402371239203D803F0240069E
:4001C00042C04402452046804D014F045420562857015D105E825F08660867047E0285108701C007C298C477CAA5CCA0CE94D0BDD6F0D860DE10E208030804C50502063A60
:4002000008A309020A5C0CFE0E010F01109611011268150219011D081E01207F2102240E26F027042F023108330134FF37063E103F05540F580459045B045C205D205F0129
:40024000849E8506866088CF89088A308B108CFD8D038E02903092C99510970899089B109D089F10A105A20FA506A894AA60AC73AF20B107B318B4FFB720B902BB08BE1077
:40028000D804D904DC20DF0100180214030104100612070108010C010D8012081342150A18041F202105228823402580260127202A062B012C012E032F20325836883712D7
:4002C00039203A083B403C183D803E083F025C805D045E015F209010928095209640974098809B109C019F03A140A301A404A609A884C0E7C298C43BCADBCCFECEFED6F016
:400300000710080209020B040E030F20110E150217041B011D0E210827082F0E3002320133203501371E3E01580459045C285F118201850A8620870588208B208C168D0719
:400340008E08900E9105930A94019503970C98189A049D0F9E01A310A410A540A602A818A90CAA02AB03AE1EB001B140B310B41EB520B620B70FBE41BF01D280D804D904AC
:40038000DB04DC22DD20DF0100100302062007490C020D880E090F4011081308140115101605170418101A801C081E481F50211023222508268227092A852D102E053002C4
:4003C000329833043401368838043A403B203C083E203F404680470277407B088202830887028A04900493509520966098409A049C019F03A180A208A404AC40AD04AF5082
:40040000C0F3C2F0C4E0CAEBCCDFCE7EDE04E208E42101FD02010302041C070F09940A100B600D7314041530160817C91810199E1B601C1C2202261C280429CF2A082B3054
:400440002E20300231FF343C36013F015608580459045B045C025D905F01810284108701880C9006941097019A109C0A9D02A201A40CA801A901B00EB201B302B410B70188
:40048000B802B908BE14BF40D40FD804D904DB04DC22DD20DF010008012004040525080409040A490E280F01110112601320151416801740188019181A401C881D011E02BB
:4004C00021082244274028042D20310832803634370839053C1A3D143E413F0159145A815D4066809390962098409B209C019E60A104AA40C076C2EFC4FECA24CC6ACEF366
:40050000D61FD810E214E602EC10EE08001C02020410060C08140B030C10100C121113081603170C180919011A101B061D0C1F032101230E310F321F3B02580459045C33B2
:400540005F018104821083218508860C8742880389038A088B6C8E0390109125934A950F9610990F9A429E21A210A403A580A604A810AB10AC21AE42B170B260B380B40F06
:40058000B50FB610BA22BE40BF05D401D604D804D904DB04DC33DD30DF0100800364042005010601076108080A500B850E6810A21248188019A01A201B201E201F08211276
:4005C0002204274029202A0C2F40302233043604376139203B053E1059805A085B126340680269408740884089108F1091099202938594809680971098089A019CA09D10DE
:400600009E029F40A280A50AA60CA708AF20B720C0FFC27FC40FCA86CCF7CE27D60FD801E214EC1001040511070609060D171111171119021D071E011F1023202506271100
:4006400029082D20311033073520360137083B083F505608580459045B045C385D905F31820283028A0A8E04900195069A0C9B019D049E06A106AA01AC0CAE02B306B40153
:40068000B60EB701B908BA80BE10BF04C002C740C9FFCA07CBFFCC40CD20CEF0CF05D008D804D904DA04DC83DD03DF31E040E1A8E240E32005020601070408800E8A17603F
:4006C00019801E021F6021042201230A2640271028A029802B082F40311A324036083764388039083A023B103F0247104D024F02560158105A406280630579017D03810130
:40070000870288088B01924098109F08B010B640C0D0C2D1C4C0CA8FCC7FCE8FD020D60CD80CDE81E208E4029F0887080002040408040E011002130114041A081D012002B5
:40074000230126042C042F02300C3402350236013701382039083E103F444052410649FF4AFF4BFF4DA04F0150185608580459045A045B045C225D925F0160406280644028
:400780006540668068406A806C406D206E8089088B01910B9304970F990C9B02A110A90CAB01AD07B110B50FBF01C052C106C53CC640C72EC83BC9FFCAFFCBFFCDAFCE072E
:4007C000CF01D018D40FD904DA04DB04DC20DD22DF05E040E280E440E540E680E840EA80EC40ED20EE8001010221030809280A40110212821308180419412002210422101F
:400800002621280229012A012E422F0A300231403622370839403B803C1040044310471048054B504D014F545501562458405D6A6002660467047F028121820288018902A7
:400840008E0190109240938095099620984099089B089C019D019E20A006A128A202A308A6A0A880AB04AD04C00FC20EC40DCAB9CCE9CE20D024D23CD6F8D868DE10E210E9
:40088000E401E640EA01EC04001C03010602083009040A0C0B020D080F1011081310140C1510163017081D021E011F04203C2414250826282710282829022A142B042D02EA
:4008C0002E402F04300231013240330634013518363C3B285608580459045B045C225D905F01800B82048408859686018768880C8A028D7F90079301950E960F97F099C5FE
:400900009B3AA40CA601A9A3AA10AB5CADFEAF01B210B40FB5FFBF10D280D804D904DB04DC02DD20DF01000601200524068009080A400D080E0210041220164017581920DC
:400940001B041C021D441F25212024142508274829602A402B082F253109322033103601374838843A803C903F0149404A025C805F106404670170029080924093909410F4
:4009800095019620984099089C019D209E209F08A044A201A401A6A0A804AA40B540C07EC2ACC4F6CA7CCCD7CEBAD630D830E840EA02EE020201100114021701180420044B
:4009C000240428013204330134033820580459045C235F01800484CF850286308AC38C048D028E08903C92C19301960C987C9A829C10A020A408A830A902ACFFAD02B0B025
:400A0000B302B43FB501B670BA22BF04C023C105C201C404C5C0C6E0C80AC9FFCAFFCBFFCC62CDA0CEF0CF41D00CD602D712D804D904DA04DB04DC83DD33DF31E640E702FD
:400A4000E910EA30EB10ED10EE10EF1200200144028004800501060108200AA00B020C200E50108012011314172519201A811B011C201D081E081F202224271029202B01DD
:400A8000330235043880390C3A083B40410A420948404B405120582059205A0868206B05708071107202731079018D108F01908091499272938494209680971098089901EA
:400AC0009CA09D109E469F24A102A280A420A508A60CA710AA08AB02B480B710C01FC27FC47FCA0CCC41CE0AD00FD208D602DE01EA02EE02012005200B050E020F10110A63
:400B000013041503170C1B101E021F20210322012304240127082B202D032F043002330F34013510372039803B083E113F104062410546BC470E481C49FF4AFF4BFF4EF0CE
:400B40004F44500C54185604580459045A045B045C305D335F0166C06A406B0280028204860193019402960498049A029C029E049F02A801B201B406B502B701BA20BE0404
:400B8000D804D904DC22DF01008005060A010D800E241080122017101B111E041F042140220823242580269029602BA0312132483502368039A83A014008411049404A0825
:400BC0004B805010524453805A026202630668026B088080810483028A048B0C8C029108928393809420980899239A019B109D049E449F20A040A120A220A320A60AA712B6
:400C0000A902AA02B080C031C2E1C44CCA0FCC9FCE0FD004D20CD601D80DE284E6603002332037423B208402CCF0CE10E210038006200F01320233103402372097209F428E
:400C4000A720C030C280CCF051085680812082808908930197209C029F72A602A720AE20AF80D460E280E480E810EC1019021D086404831084028F0297209C029D209F32D3
:400C8000A508A602AB40AF20B701C630D880E220E640EE9001800B205220C002C208D40486208702A620B310B580EA04EE020B440F808340A702C20E0040074029206404DA
:400CC0006F027120944099029C049D20A602AF30B440C060CA10D880DA80DC20EA40EE4056205B02650281028E208F029902AA02AB40AC04AD20AF02D440D640D880E420C9
:400D0000EA90EC8003020B400F80A702AF44C002C20C764083408A40A340B340DE04E401EA04000C010108040A040B010C080D01100C11011A041B011C0C00FF01EA02031F
:400D40008300000000000000001C1C001C0000004000060000000000C0000000340B0B00000000000800140A0A00080000000000007B7B00380000000000000000000000E6
:400D80000000000000000000000000000000000000000000000000000000000000000000000000000000000000000000000000000000000000000000000000000000000033
:400DC00000000000000000000000000000000000000000000000000000000000000000000000000000000000000000000000000000000000000000000000000000000000F3
:400E000000000000000000000000000000000000000000000000000000000000000000000000000000000000000000000000000000000000000000000000000000000000B2
:400E40000000000000000000000000000000000000000000000000000000000000000000000000000000000000000000000000000000000000000000000000000000000072
:0200000490006A
:0400000000004005B7
:0200000490105A
:04000000BC90ACAF55
:0200000490303A
:020000009989DC
:0200000490402A
